{
	"AuctionWlady3.sol": {
		"Auction": {
			"abi": [
				{
					"inputs": [
						{
							"internalType": "uint256",
							"name": "_durationInMinutes",
							"type": "uint256"
						}
					],
					"stateMutability": "nonpayable",
					"type": "constructor"
				},
				{
					"anonymous": false,
					"inputs": [
						{
							"indexed": false,
							"internalType": "address",
							"name": "winner",
							"type": "address"
						},
						{
							"indexed": false,
							"internalType": "uint256",
							"name": "winningBid",
							"type": "uint256"
						}
					],
					"name": "AuctionEnded",
					"type": "event"
				},
				{
					"anonymous": false,
					"inputs": [
						{
							"indexed": false,
							"internalType": "uint256",
							"name": "newEndTime",
							"type": "uint256"
						}
					],
					"name": "AuctionExtended",
					"type": "event"
				},
				{
					"anonymous": false,
					"inputs": [
						{
							"indexed": true,
							"internalType": "address",
							"name": "beneficiary",
							"type": "address"
						},
						{
							"indexed": false,
							"internalType": "uint256",
							"name": "amount",
							"type": "uint256"
						}
					],
					"name": "DepositRefunded",
					"type": "event"
				},
				{
					"anonymous": false,
					"inputs": [
						{
							"indexed": true,
							"internalType": "address",
							"name": "bidder",
							"type": "address"
						},
						{
							"indexed": false,
							"internalType": "uint256",
							"name": "amount",
							"type": "uint256"
						}
					],
					"name": "NewBid",
					"type": "event"
				},
				{
					"anonymous": false,
					"inputs": [
						{
							"indexed": true,
							"internalType": "address",
							"name": "bidder",
							"type": "address"
						},
						{
							"indexed": false,
							"internalType": "uint256",
							"name": "amount",
							"type": "uint256"
						}
					],
					"name": "PartialWithdrawal",
					"type": "event"
				},
				{
					"inputs": [],
					"name": "EXTENSION_TIME",
					"outputs": [
						{
							"internalType": "uint256",
							"name": "",
							"type": "uint256"
						}
					],
					"stateMutability": "view",
					"type": "function"
				},
				{
					"inputs": [],
					"name": "GAS_COMMISSION_PERCENT",
					"outputs": [
						{
							"internalType": "uint256",
							"name": "",
							"type": "uint256"
						}
					],
					"stateMutability": "view",
					"type": "function"
				},
				{
					"inputs": [],
					"name": "MIN_BID_INCREMENT_PERCENT",
					"outputs": [
						{
							"internalType": "uint256",
							"name": "",
							"type": "uint256"
						}
					],
					"stateMutability": "view",
					"type": "function"
				},
				{
					"inputs": [
						{
							"internalType": "uint256",
							"name": "",
							"type": "uint256"
						}
					],
					"name": "allBidders",
					"outputs": [
						{
							"internalType": "address",
							"name": "",
							"type": "address"
						}
					],
					"stateMutability": "view",
					"type": "function"
				},
				{
					"inputs": [],
					"name": "auctionEndTime",
					"outputs": [
						{
							"internalType": "uint256",
							"name": "",
							"type": "uint256"
						}
					],
					"stateMutability": "view",
					"type": "function"
				},
				{
					"inputs": [],
					"name": "auctionStartTime",
					"outputs": [
						{
							"internalType": "uint256",
							"name": "",
							"type": "uint256"
						}
					],
					"stateMutability": "view",
					"type": "function"
				},
				{
					"inputs": [],
					"name": "bid",
					"outputs": [],
					"stateMutability": "payable",
					"type": "function"
				},
				{
					"inputs": [
						{
							"internalType": "address",
							"name": "",
							"type": "address"
						}
					],
					"name": "deposits",
					"outputs": [
						{
							"internalType": "uint256",
							"name": "",
							"type": "uint256"
						}
					],
					"stateMutability": "view",
					"type": "function"
				},
				{
					"inputs": [],
					"name": "endAuction",
					"outputs": [],
					"stateMutability": "nonpayable",
					"type": "function"
				},
				{
					"inputs": [],
					"name": "ended",
					"outputs": [
						{
							"internalType": "bool",
							"name": "",
							"type": "bool"
						}
					],
					"stateMutability": "view",
					"type": "function"
				},
				{
					"inputs": [],
					"name": "highestBid",
					"outputs": [
						{
							"internalType": "uint256",
							"name": "",
							"type": "uint256"
						}
					],
					"stateMutability": "view",
					"type": "function"
				},
				{
					"inputs": [],
					"name": "highestBidder",
					"outputs": [
						{
							"internalType": "address",
							"name": "",
							"type": "address"
						}
					],
					"stateMutability": "view",
					"type": "function"
				},
				{
					"inputs": [
						{
							"internalType": "address",
							"name": "",
							"type": "address"
						}
					],
					"name": "lastBids",
					"outputs": [
						{
							"internalType": "address",
							"name": "bidder",
							"type": "address"
						},
						{
							"internalType": "uint256",
							"name": "amount",
							"type": "uint256"
						}
					],
					"stateMutability": "view",
					"type": "function"
				},
				{
					"inputs": [],
					"name": "owner",
					"outputs": [
						{
							"internalType": "address",
							"name": "",
							"type": "address"
						}
					],
					"stateMutability": "view",
					"type": "function"
				},
				{
					"inputs": [],
					"name": "partialWithdrawal",
					"outputs": [],
					"stateMutability": "nonpayable",
					"type": "function"
				},
				{
					"inputs": [],
					"name": "returnDeposits",
					"outputs": [],
					"stateMutability": "nonpayable",
					"type": "function"
				},
				{
					"inputs": [],
					"name": "showBids",
					"outputs": [
						{
							"internalType": "address[]",
							"name": "bidders",
							"type": "address[]"
						},
						{
							"internalType": "uint256[]",
							"name": "amounts",
							"type": "uint256[]"
						}
					],
					"stateMutability": "view",
					"type": "function"
				},
				{
					"inputs": [],
					"name": "showWinner",
					"outputs": [
						{
							"internalType": "address",
							"name": "winner",
							"type": "address"
						},
						{
							"internalType": "uint256",
							"name": "winningBid",
							"type": "uint256"
						}
					],
					"stateMutability": "view",
					"type": "function"
				}
			],
			"devdoc": {
				"kind": "dev",
				"methods": {
					"bid()": {
						"details": "Allows a participant to place a bid. The Ether amount is sent with the transaction (msg.value). A bid must be at least 5% higher than the current highest bid. Extends the auction deadline if the bid is placed in the last 10 minutes."
					},
					"constructor": {
						"details": "Initializes the auction with the necessary parameters.",
						"params": {
							"_durationInMinutes": "The duration of the auction in minutes."
						}
					},
					"endAuction()": {
						"details": "Marks the auction as ended if the time has expired. Anyone can call this function to end the auction."
					},
					"partialWithdrawal()": {
						"details": "Allows participants to withdraw the amount exceeding their last valid bid during the auction. Can only be called while the auction is active."
					},
					"returnDeposits()": {
						"details": "Allows non-winning bidders to reclaim their deposited Ether, after deducting a 2% commission. Only the owner can call this function to process refunds for all non-winning bidders."
					},
					"showBids()": {
						"details": "Shows the list of bidders and their respective last offered amounts.",
						"returns": {
							"amounts": "Array of the last offered amounts by each bidder.",
							"bidders": "Array of bidder addresses."
						}
					},
					"showWinner()": {
						"details": "Shows the address of the winning bidder and the winning bid amount. Can only be called once the auction has ended.",
						"returns": {
							"winner": "The address of the winning bidder.",
							"winningBid": "The amount of the winning bid."
						}
					}
				},
				"version": 1
			},
			"evm": {
				"assembly": "    /* \"AuctionWlady3.sol\":61:7989  contract Auction {... */\n  mstore(0x40, 0x80)\n    /* \"AuctionWlady3.sol\":1709:1995  constructor(uint256 _durationInMinutes) {... */\n  callvalue\n  dup1\n  iszero\n  tag_1\n  jumpi\n  revert(0x00, 0x00)\ntag_1:\n  pop\n  mload(0x40)\n  sub(codesize, bytecodeSize)\n  dup1\n  bytecodeSize\n  dup4\n  codecopy\n  dup2\n  dup2\n  add\n  0x40\n  mstore\n  dup2\n  add\n  swap1\n  tag_2\n  swap2\n  swap1\n  tag_3\n  jump\t// in\ntag_2:\n    /* \"AuctionWlady3.sol\":1768:1778  msg.sender */\n  caller\n    /* \"AuctionWlady3.sol\":1760:1765  owner */\n  0x00\n  0x00\n    /* \"AuctionWlady3.sol\":1760:1778  owner = msg.sender */\n  0x0100\n  exp\n  dup2\n  sload\n  dup2\n  0xffffffffffffffffffffffffffffffffffffffff\n  mul\n  not\n  and\n  swap1\n  dup4\n  0xffffffffffffffffffffffffffffffffffffffff\n  and\n  mul\n  or\n  swap1\n  sstore\n  pop\n    /* \"AuctionWlady3.sol\":1808:1823  block.timestamp */\n  timestamp\n    /* \"AuctionWlady3.sol\":1789:1805  auctionStartTime */\n  0x01\n    /* \"AuctionWlady3.sol\":1789:1823  auctionStartTime = block.timestamp */\n  dup2\n  swap1\n  sstore\n  pop\n    /* \"AuctionWlady3.sol\":1891:1900  1 minutes */\n  0x3c\n    /* \"AuctionWlady3.sol\":1870:1888  _durationInMinutes */\n  dup2\n    /* \"AuctionWlady3.sol\":1870:1900  _durationInMinutes * 1 minutes */\n  tag_6\n  swap2\n  swap1\n  tag_7\n  jump\t// in\ntag_6:\n    /* \"AuctionWlady3.sol\":1851:1866  block.timestamp */\n  timestamp\n    /* \"AuctionWlady3.sol\":1851:1901  block.timestamp + (_durationInMinutes * 1 minutes) */\n  tag_8\n  swap2\n  swap1\n  tag_9\n  jump\t// in\ntag_8:\n    /* \"AuctionWlady3.sol\":1834:1848  auctionEndTime */\n  0x02\n    /* \"AuctionWlady3.sol\":1834:1901  auctionEndTime = block.timestamp + (_durationInMinutes * 1 minutes) */\n  dup2\n  swap1\n  sstore\n  pop\n    /* \"AuctionWlady3.sol\":1925:1926  0 */\n  0x00\n    /* \"AuctionWlady3.sol\":1912:1922  highestBid */\n  0x03\n    /* \"AuctionWlady3.sol\":1912:1926  highestBid = 0 */\n  dup2\n  swap1\n  sstore\n  pop\n    /* \"AuctionWlady3.sol\":1961:1962  0 */\n  0x00\n    /* \"AuctionWlady3.sol\":1937:1950  highestBidder */\n  0x04\n  0x00\n    /* \"AuctionWlady3.sol\":1937:1963  highestBidder = address(0) */\n  0x0100\n  exp\n  dup2\n  sload\n  dup2\n  0xffffffffffffffffffffffffffffffffffffffff\n  mul\n  not\n  and\n  swap1\n  dup4\n  0xffffffffffffffffffffffffffffffffffffffff\n  and\n  mul\n  or\n  swap1\n  sstore\n  pop\n    /* \"AuctionWlady3.sol\":1982:1987  false */\n  0x00\n    /* \"AuctionWlady3.sol\":1974:1979  ended */\n  0x04\n  0x14\n    /* \"AuctionWlady3.sol\":1974:1987  ended = false */\n  0x0100\n  exp\n  dup2\n  sload\n  dup2\n  0xff\n  mul\n  not\n  and\n  swap1\n  dup4\n  iszero\n  iszero\n  mul\n  or\n  swap1\n  sstore\n  pop\n    /* \"AuctionWlady3.sol\":1709:1995  constructor(uint256 _durationInMinutes) {... */\n  pop\n    /* \"AuctionWlady3.sol\":61:7989  contract Auction {... */\n  jump(tag_10)\n    /* \"#utility.yul\":88:205   */\ntag_12:\n    /* \"#utility.yul\":197:198   */\n  0x00\n    /* \"#utility.yul\":194:195   */\n  0x00\n    /* \"#utility.yul\":187:199   */\n  revert\n    /* \"#utility.yul\":334:411   */\ntag_14:\n    /* \"#utility.yul\":371:378   */\n  0x00\n    /* \"#utility.yul\":400:405   */\n  dup2\n    /* \"#utility.yul\":389:405   */\n  swap1\n  pop\n    /* \"#utility.yul\":334:411   */\n  swap2\n  swap1\n  pop\n  jump\t// out\n    /* \"#utility.yul\":417:539   */\ntag_15:\n    /* \"#utility.yul\":490:514   */\n  tag_24\n    /* \"#utility.yul\":508:513   */\n  dup2\n    /* \"#utility.yul\":490:514   */\n  tag_14\n  jump\t// in\ntag_24:\n    /* \"#utility.yul\":483:488   */\n  dup2\n    /* \"#utility.yul\":480:515   */\n  eq\n    /* \"#utility.yul\":470:533   */\n  tag_25\n  jumpi\n    /* \"#utility.yul\":529:530   */\n  0x00\n    /* \"#utility.yul\":526:527   */\n  0x00\n    /* \"#utility.yul\":519:531   */\n  revert\n    /* \"#utility.yul\":470:533   */\ntag_25:\n    /* \"#utility.yul\":417:539   */\n  pop\n  jump\t// out\n    /* \"#utility.yul\":545:688   */\ntag_16:\n    /* \"#utility.yul\":602:607   */\n  0x00\n    /* \"#utility.yul\":633:639   */\n  dup2\n    /* \"#utility.yul\":627:640   */\n  mload\n    /* \"#utility.yul\":618:640   */\n  swap1\n  pop\n    /* \"#utility.yul\":649:682   */\n  tag_27\n    /* \"#utility.yul\":676:681   */\n  dup2\n    /* \"#utility.yul\":649:682   */\n  tag_15\n  jump\t// in\ntag_27:\n    /* \"#utility.yul\":545:688   */\n  swap3\n  swap2\n  pop\n  pop\n  jump\t// out\n    /* \"#utility.yul\":694:1045   */\ntag_3:\n    /* \"#utility.yul\":764:770   */\n  0x00\n    /* \"#utility.yul\":813:815   */\n  0x20\n    /* \"#utility.yul\":801:810   */\n  dup3\n    /* \"#utility.yul\":792:799   */\n  dup5\n    /* \"#utility.yul\":788:811   */\n  sub\n    /* \"#utility.yul\":784:816   */\n  slt\n    /* \"#utility.yul\":781:900   */\n  iszero\n  tag_29\n  jumpi\n    /* \"#utility.yul\":819:898   */\n  tag_30\n  tag_12\n  jump\t// in\ntag_30:\n    /* \"#utility.yul\":781:900   */\ntag_29:\n    /* \"#utility.yul\":939:940   */\n  0x00\n    /* \"#utility.yul\":964:1028   */\n  tag_31\n    /* \"#utility.yul\":1020:1027   */\n  dup5\n    /* \"#utility.yul\":1011:1017   */\n  dup3\n    /* \"#utility.yul\":1000:1009   */\n  dup6\n    /* \"#utility.yul\":996:1018   */\n  add\n    /* \"#utility.yul\":964:1028   */\n  tag_16\n  jump\t// in\ntag_31:\n    /* \"#utility.yul\":954:1028   */\n  swap2\n  pop\n    /* \"#utility.yul\":910:1038   */\n  pop\n    /* \"#utility.yul\":694:1045   */\n  swap3\n  swap2\n  pop\n  pop\n  jump\t// out\n    /* \"#utility.yul\":1051:1231   */\ntag_17:\n    /* \"#utility.yul\":1099:1176   */\n  0x4e487b7100000000000000000000000000000000000000000000000000000000\n    /* \"#utility.yul\":1096:1097   */\n  0x00\n    /* \"#utility.yul\":1089:1177   */\n  mstore\n    /* \"#utility.yul\":1196:1200   */\n  0x11\n    /* \"#utility.yul\":1193:1194   */\n  0x04\n    /* \"#utility.yul\":1186:1201   */\n  mstore\n    /* \"#utility.yul\":1220:1224   */\n  0x24\n    /* \"#utility.yul\":1217:1218   */\n  0x00\n    /* \"#utility.yul\":1210:1225   */\n  revert\n    /* \"#utility.yul\":1237:1647   */\ntag_7:\n    /* \"#utility.yul\":1277:1284   */\n  0x00\n    /* \"#utility.yul\":1300:1320   */\n  tag_34\n    /* \"#utility.yul\":1318:1319   */\n  dup3\n    /* \"#utility.yul\":1300:1320   */\n  tag_14\n  jump\t// in\ntag_34:\n    /* \"#utility.yul\":1295:1320   */\n  swap2\n  pop\n    /* \"#utility.yul\":1334:1354   */\n  tag_35\n    /* \"#utility.yul\":1352:1353   */\n  dup4\n    /* \"#utility.yul\":1334:1354   */\n  tag_14\n  jump\t// in\ntag_35:\n    /* \"#utility.yul\":1329:1354   */\n  swap3\n  pop\n    /* \"#utility.yul\":1389:1390   */\n  dup3\n    /* \"#utility.yul\":1386:1387   */\n  dup3\n    /* \"#utility.yul\":1382:1391   */\n  mul\n    /* \"#utility.yul\":1411:1441   */\n  tag_36\n    /* \"#utility.yul\":1429:1440   */\n  dup2\n    /* \"#utility.yul\":1411:1441   */\n  tag_14\n  jump\t// in\ntag_36:\n    /* \"#utility.yul\":1400:1441   */\n  swap2\n  pop\n    /* \"#utility.yul\":1590:1591   */\n  dup3\n    /* \"#utility.yul\":1581:1588   */\n  dup3\n    /* \"#utility.yul\":1577:1592   */\n  div\n    /* \"#utility.yul\":1574:1575   */\n  dup5\n    /* \"#utility.yul\":1571:1593   */\n  eq\n    /* \"#utility.yul\":1551:1552   */\n  dup4\n    /* \"#utility.yul\":1544:1553   */\n  iszero\n    /* \"#utility.yul\":1524:1607   */\n  or\n    /* \"#utility.yul\":1501:1640   */\n  tag_37\n  jumpi\n    /* \"#utility.yul\":1620:1638   */\n  tag_38\n  tag_17\n  jump\t// in\ntag_38:\n    /* \"#utility.yul\":1501:1640   */\ntag_37:\n    /* \"#utility.yul\":1285:1647   */\n  pop\n    /* \"#utility.yul\":1237:1647   */\n  swap3\n  swap2\n  pop\n  pop\n  jump\t// out\n    /* \"#utility.yul\":1653:1844   */\ntag_9:\n    /* \"#utility.yul\":1693:1696   */\n  0x00\n    /* \"#utility.yul\":1712:1732   */\n  tag_40\n    /* \"#utility.yul\":1730:1731   */\n  dup3\n    /* \"#utility.yul\":1712:1732   */\n  tag_14\n  jump\t// in\ntag_40:\n    /* \"#utility.yul\":1707:1732   */\n  swap2\n  pop\n    /* \"#utility.yul\":1746:1766   */\n  tag_41\n    /* \"#utility.yul\":1764:1765   */\n  dup4\n    /* \"#utility.yul\":1746:1766   */\n  tag_14\n  jump\t// in\ntag_41:\n    /* \"#utility.yul\":1741:1766   */\n  swap3\n  pop\n    /* \"#utility.yul\":1789:1790   */\n  dup3\n    /* \"#utility.yul\":1786:1787   */\n  dup3\n    /* \"#utility.yul\":1782:1791   */\n  add\n    /* \"#utility.yul\":1775:1791   */\n  swap1\n  pop\n    /* \"#utility.yul\":1810:1813   */\n  dup1\n    /* \"#utility.yul\":1807:1808   */\n  dup3\n    /* \"#utility.yul\":1804:1814   */\n  gt\n    /* \"#utility.yul\":1801:1837   */\n  iszero\n  tag_42\n  jumpi\n    /* \"#utility.yul\":1817:1835   */\n  tag_43\n  tag_17\n  jump\t// in\ntag_43:\n    /* \"#utility.yul\":1801:1837   */\ntag_42:\n    /* \"#utility.yul\":1653:1844   */\n  swap3\n  swap2\n  pop\n  pop\n  jump\t// out\n    /* \"AuctionWlady3.sol\":61:7989  contract Auction {... */\ntag_10:\n  dataSize(sub_0)\n  dup1\n  dataOffset(sub_0)\n  0x00\n  codecopy\n  0x00\n  return\nstop\n\nsub_0: assembly {\n        /* \"AuctionWlady3.sol\":61:7989  contract Auction {... */\n      mstore(0x40, 0x80)\n      jumpi(tag_1, lt(calldatasize, 0x04))\n      shr(0xe0, calldataload(0x00))\n      dup1\n      0xa013781b\n      gt\n      tag_20\n      jumpi\n      dup1\n      0xc30aca9a\n      gt\n      tag_21\n      jumpi\n      dup1\n      0xc30aca9a\n      eq\n      tag_15\n      jumpi\n      dup1\n      0xd57bde79\n      eq\n      tag_16\n      jumpi\n      dup1\n      0xeb54f9ec\n      eq\n      tag_17\n      jumpi\n      dup1\n      0xfc7e286d\n      eq\n      tag_18\n      jumpi\n      dup1\n      0xfe67a54b\n      eq\n      tag_19\n      jumpi\n      jump(tag_1)\n    tag_21:\n      dup1\n      0xa013781b\n      eq\n      tag_11\n      jumpi\n      dup1\n      0xb033e086\n      eq\n      tag_12\n      jumpi\n      dup1\n      0xb7e03264\n      eq\n      tag_13\n      jumpi\n      dup1\n      0xbc996819\n      eq\n      tag_14\n      jumpi\n      jump(tag_1)\n    tag_20:\n      dup1\n      0x46e053a0\n      gt\n      tag_22\n      jumpi\n      dup1\n      0x46e053a0\n      eq\n      tag_6\n      jumpi\n      dup1\n      0x4b449cba\n      eq\n      tag_7\n      jumpi\n      dup1\n      0x5681104a\n      eq\n      tag_8\n      jumpi\n      dup1\n      0x8da5cb5b\n      eq\n      tag_9\n      jumpi\n      dup1\n      0x91f90157\n      eq\n      tag_10\n      jumpi\n      jump(tag_1)\n    tag_22:\n      dup1\n      0x12fa6feb\n      eq\n      tag_2\n      jumpi\n      dup1\n      0x14d2687c\n      eq\n      tag_3\n      jumpi\n      dup1\n      0x1998aeef\n      eq\n      tag_4\n      jumpi\n      dup1\n      0x362e2565\n      eq\n      tag_5\n      jumpi\n    tag_1:\n      revert(0x00, 0x00)\n        /* \"AuctionWlady3.sol\":361:378  bool public ended */\n    tag_2:\n      callvalue\n      dup1\n      iszero\n      tag_23\n      jumpi\n      revert(0x00, 0x00)\n    tag_23:\n      pop\n      tag_24\n      tag_25\n      jump\t// in\n    tag_24:\n      mload(0x40)\n      tag_26\n      swap2\n      swap1\n      tag_27\n      jump\t// in\n    tag_26:\n      mload(0x40)\n      dup1\n      swap2\n      sub\n      swap1\n      return\n        /* \"AuctionWlady3.sol\":4986:5565  function showBids() public view returns (address[] memory bidders, uint256[] memory amounts) {... */\n    tag_3:\n      callvalue\n      dup1\n      iszero\n      tag_28\n      jumpi\n      revert(0x00, 0x00)\n    tag_28:\n      pop\n      tag_29\n      tag_30\n      jump\t// in\n    tag_29:\n      mload(0x40)\n      tag_31\n      swap3\n      swap2\n      swap1\n      tag_32\n      jump\t// in\n    tag_31:\n      mload(0x40)\n      dup1\n      swap2\n      sub\n      swap1\n      return\n        /* \"AuctionWlady3.sol\":2925:4025  function bid() public payable auctionActive {... */\n    tag_4:\n      tag_33\n      tag_34\n      jump\t// in\n    tag_33:\n      stop\n        /* \"AuctionWlady3.sol\":5785:6751  function returnDeposits() public onlyOwner auctionEnded {... */\n    tag_5:\n      callvalue\n      dup1\n      iszero\n      tag_35\n      jumpi\n      revert(0x00, 0x00)\n    tag_35:\n      pop\n      tag_36\n      tag_37\n      jump\t// in\n    tag_36:\n      stop\n        /* \"AuctionWlady3.sol\":753:792  mapping(address => Bid) public lastBids */\n    tag_6:\n      callvalue\n      dup1\n      iszero\n      tag_38\n      jumpi\n      revert(0x00, 0x00)\n    tag_38:\n      pop\n      tag_39\n      0x04\n      dup1\n      calldatasize\n      sub\n      dup2\n      add\n      swap1\n      tag_40\n      swap2\n      swap1\n      tag_41\n      jump\t// in\n    tag_40:\n      tag_42\n      jump\t// in\n    tag_39:\n      mload(0x40)\n      tag_43\n      swap3\n      swap2\n      swap1\n      tag_44\n      jump\t// in\n    tag_43:\n      mload(0x40)\n      dup1\n      swap2\n      sub\n      swap1\n      return\n        /* \"AuctionWlady3.sol\":217:246  uint256 public auctionEndTime */\n    tag_7:\n      callvalue\n      dup1\n      iszero\n      tag_45\n      jumpi\n      revert(0x00, 0x00)\n    tag_45:\n      pop\n      tag_46\n      tag_47\n      jump\t// in\n    tag_46:\n      mload(0x40)\n      tag_48\n      swap2\n      swap1\n      tag_49\n      jump\t// in\n    tag_48:\n      mload(0x40)\n      dup1\n      swap2\n      sub\n      swap1\n      return\n        /* \"AuctionWlady3.sol\":423:474  uint256 public constant EXTENSION_TIME = 10 minutes */\n    tag_8:\n      callvalue\n      dup1\n      iszero\n      tag_50\n      jumpi\n      revert(0x00, 0x00)\n    tag_50:\n      pop\n      tag_51\n      tag_52\n      jump\t// in\n    tag_51:\n      mload(0x40)\n      tag_53\n      swap2\n      swap1\n      tag_49\n      jump\t// in\n    tag_53:\n      mload(0x40)\n      dup1\n      swap2\n      sub\n      swap1\n      return\n        /* \"AuctionWlady3.sol\":152:172  address public owner */\n    tag_9:\n      callvalue\n      dup1\n      iszero\n      tag_54\n      jumpi\n      revert(0x00, 0x00)\n    tag_54:\n      pop\n      tag_55\n      tag_56\n      jump\t// in\n    tag_55:\n      mload(0x40)\n      tag_57\n      swap2\n      swap1\n      tag_58\n      jump\t// in\n    tag_57:\n      mload(0x40)\n      dup1\n      swap2\n      sub\n      swap1\n      return\n        /* \"AuctionWlady3.sol\":326:354  address public highestBidder */\n    tag_10:\n      callvalue\n      dup1\n      iszero\n      tag_59\n      jumpi\n      revert(0x00, 0x00)\n    tag_59:\n      pop\n      tag_60\n      tag_61\n      jump\t// in\n    tag_60:\n      mload(0x40)\n      tag_62\n      swap2\n      swap1\n      tag_58\n      jump\t// in\n    tag_62:\n      mload(0x40)\n      dup1\n      swap2\n      sub\n      swap1\n      return\n        /* \"AuctionWlady3.sol\":1034:1061  address[] public allBidders */\n    tag_11:\n      callvalue\n      dup1\n      iszero\n      tag_63\n      jumpi\n      revert(0x00, 0x00)\n    tag_63:\n      pop\n      tag_64\n      0x04\n      dup1\n      calldatasize\n      sub\n      dup2\n      add\n      swap1\n      tag_65\n      swap2\n      swap1\n      tag_66\n      jump\t// in\n    tag_65:\n      tag_67\n      jump\t// in\n    tag_64:\n      mload(0x40)\n      tag_68\n      swap2\n      swap1\n      tag_58\n      jump\t// in\n    tag_68:\n      mload(0x40)\n      dup1\n      swap2\n      sub\n      swap1\n      return\n        /* \"AuctionWlady3.sol\":541:591  uint256 public constant GAS_COMMISSION_PERCENT = 2 */\n    tag_12:\n      callvalue\n      dup1\n      iszero\n      tag_69\n      jumpi\n      revert(0x00, 0x00)\n    tag_69:\n      pop\n      tag_70\n      tag_71\n      jump\t// in\n    tag_70:\n      mload(0x40)\n      tag_72\n      swap2\n      swap1\n      tag_49\n      jump\t// in\n    tag_72:\n      mload(0x40)\n      dup1\n      swap2\n      sub\n      swap1\n      return\n        /* \"AuctionWlady3.sol\":4623:4768  function showWinner() public view auctionEnded returns (address winner, uint256 winningBid) {... */\n    tag_13:\n      callvalue\n      dup1\n      iszero\n      tag_73\n      jumpi\n      revert(0x00, 0x00)\n    tag_73:\n      pop\n      tag_74\n      tag_75\n      jump\t// in\n    tag_74:\n      mload(0x40)\n      tag_76\n      swap3\n      swap2\n      swap1\n      tag_44\n      jump\t// in\n    tag_76:\n      mload(0x40)\n      dup1\n      swap2\n      sub\n      swap1\n      return\n        /* \"AuctionWlady3.sol\":481:534  uint256 public constant MIN_BID_INCREMENT_PERCENT = 5 */\n    tag_14:\n      callvalue\n      dup1\n      iszero\n      tag_77\n      jumpi\n      revert(0x00, 0x00)\n    tag_77:\n      pop\n      tag_78\n      tag_79\n      jump\t// in\n    tag_78:\n      mload(0x40)\n      tag_80\n      swap2\n      swap1\n      tag_49\n      jump\t// in\n    tag_80:\n      mload(0x40)\n      dup1\n      swap2\n      sub\n      swap1\n      return\n        /* \"AuctionWlady3.sol\":6926:7986  function partialWithdrawal() public auctionActive {... */\n    tag_15:\n      callvalue\n      dup1\n      iszero\n      tag_81\n      jumpi\n      revert(0x00, 0x00)\n    tag_81:\n      pop\n      tag_82\n      tag_83\n      jump\t// in\n    tag_82:\n      stop\n        /* \"AuctionWlady3.sol\":294:319  uint256 public highestBid */\n    tag_16:\n      callvalue\n      dup1\n      iszero\n      tag_84\n      jumpi\n      revert(0x00, 0x00)\n    tag_84:\n      pop\n      tag_85\n      tag_86\n      jump\t// in\n    tag_85:\n      mload(0x40)\n      tag_87\n      swap2\n      swap1\n      tag_49\n      jump\t// in\n    tag_87:\n      mload(0x40)\n      dup1\n      swap2\n      sub\n      swap1\n      return\n        /* \"AuctionWlady3.sol\":179:210  uint256 public auctionStartTime */\n    tag_17:\n      callvalue\n      dup1\n      iszero\n      tag_88\n      jumpi\n      revert(0x00, 0x00)\n    tag_88:\n      pop\n      tag_89\n      tag_90\n      jump\t// in\n    tag_89:\n      mload(0x40)\n      tag_91\n      swap2\n      swap1\n      tag_49\n      jump\t// in\n    tag_91:\n      mload(0x40)\n      dup1\n      swap2\n      sub\n      swap1\n      return\n        /* \"AuctionWlady3.sol\":664:707  mapping(address => uint256) public deposits */\n    tag_18:\n      callvalue\n      dup1\n      iszero\n      tag_92\n      jumpi\n      revert(0x00, 0x00)\n    tag_92:\n      pop\n      tag_93\n      0x04\n      dup1\n      calldatasize\n      sub\n      dup2\n      add\n      swap1\n      tag_94\n      swap2\n      swap1\n      tag_41\n      jump\t// in\n    tag_94:\n      tag_95\n      jump\t// in\n    tag_93:\n      mload(0x40)\n      tag_96\n      swap2\n      swap1\n      tag_49\n      jump\t// in\n    tag_96:\n      mload(0x40)\n      dup1\n      swap2\n      sub\n      swap1\n      return\n        /* \"AuctionWlady3.sol\":4158:4359  function endAuction() public {... */\n    tag_19:\n      callvalue\n      dup1\n      iszero\n      tag_97\n      jumpi\n      revert(0x00, 0x00)\n    tag_97:\n      pop\n      tag_98\n      tag_99\n      jump\t// in\n    tag_98:\n      stop\n        /* \"AuctionWlady3.sol\":361:378  bool public ended */\n    tag_25:\n      0x04\n      0x14\n      swap1\n      sload\n      swap1\n      0x0100\n      exp\n      swap1\n      div\n      0xff\n      and\n      dup2\n      jump\t// out\n        /* \"AuctionWlady3.sol\":4986:5565  function showBids() public view returns (address[] memory bidders, uint256[] memory amounts) {... */\n    tag_30:\n        /* \"AuctionWlady3.sol\":5027:5051  address[] memory bidders */\n      0x60\n        /* \"AuctionWlady3.sol\":5053:5077  uint256[] memory amounts */\n      dup1\n        /* \"AuctionWlady3.sol\":5090:5101  uint256 len */\n      0x00\n        /* \"AuctionWlady3.sol\":5104:5114  allBidders */\n      0x07\n        /* \"AuctionWlady3.sol\":5104:5121  allBidders.length */\n      dup1\n      sload\n      swap1\n      pop\n        /* \"AuctionWlady3.sol\":5090:5121  uint256 len = allBidders.length */\n      swap1\n      pop\n        /* \"AuctionWlady3.sol\":5206:5209  len */\n      dup1\n        /* \"AuctionWlady3.sol\":5192:5210  new address[](len) */\n      0xffffffffffffffff\n      dup2\n      gt\n      iszero\n      tag_101\n      jumpi\n      tag_102\n      tag_103\n      jump\t// in\n    tag_102:\n    tag_101:\n      mload(0x40)\n      swap1\n      dup1\n      dup3\n      mstore\n      dup1\n      0x20\n      mul\n      0x20\n      add\n      dup3\n      add\n      0x40\n      mstore\n      dup1\n      iszero\n      tag_104\n      jumpi\n      dup2\n      0x20\n      add\n      0x20\n      dup3\n      mul\n      dup1\n      calldatasize\n      dup4\n      calldatacopy\n      dup1\n      dup3\n      add\n      swap2\n      pop\n      pop\n      swap1\n      pop\n    tag_104:\n      pop\n        /* \"AuctionWlady3.sol\":5182:5210  bidders = new address[](len) */\n      swap3\n      pop\n        /* \"AuctionWlady3.sol\":5245:5248  len */\n      dup1\n        /* \"AuctionWlady3.sol\":5231:5249  new uint256[](len) */\n      0xffffffffffffffff\n      dup2\n      gt\n      iszero\n      tag_105\n      jumpi\n      tag_106\n      tag_103\n      jump\t// in\n    tag_106:\n    tag_105:\n      mload(0x40)\n      swap1\n      dup1\n      dup3\n      mstore\n      dup1\n      0x20\n      mul\n      0x20\n      add\n      dup3\n      add\n      0x40\n      mstore\n      dup1\n      iszero\n      tag_107\n      jumpi\n      dup2\n      0x20\n      add\n      0x20\n      dup3\n      mul\n      dup1\n      calldatasize\n      dup4\n      calldatacopy\n      dup1\n      dup3\n      add\n      swap2\n      pop\n      pop\n      swap1\n      pop\n    tag_107:\n      pop\n        /* \"AuctionWlady3.sol\":5221:5249  amounts = new uint256[](len) */\n      swap2\n      pop\n        /* \"AuctionWlady3.sol\":5262:5283  address currentBidder */\n      0x00\n        /* \"AuctionWlady3.sol\":5341:5347  uint i */\n      0x00\n        /* \"AuctionWlady3.sol\":5350:5351  0 */\n      0x00\n        /* \"AuctionWlady3.sol\":5341:5351  uint i = 0 */\n      swap1\n      pop\n        /* \"AuctionWlady3.sol\":5336:5522  for (uint i = 0; i < len; i++) {... */\n    tag_108:\n        /* \"AuctionWlady3.sol\":5357:5360  len */\n      dup3\n        /* \"AuctionWlady3.sol\":5353:5354  i */\n      dup2\n        /* \"AuctionWlady3.sol\":5353:5360  i < len */\n      lt\n        /* \"AuctionWlady3.sol\":5336:5522  for (uint i = 0; i < len; i++) {... */\n      iszero\n      tag_109\n      jumpi\n        /* \"AuctionWlady3.sol\":5398:5408  allBidders */\n      0x07\n        /* \"AuctionWlady3.sol\":5409:5410  i */\n      dup2\n        /* \"AuctionWlady3.sol\":5398:5411  allBidders[i] */\n      dup2\n      sload\n      dup2\n      lt\n      tag_111\n      jumpi\n      tag_112\n      tag_113\n      jump\t// in\n    tag_112:\n    tag_111:\n      swap1\n      0x00\n      mstore\n      keccak256(0x00, 0x20)\n      add\n      0x00\n      swap1\n      sload\n      swap1\n      0x0100\n      exp\n      swap1\n      div\n      0xffffffffffffffffffffffffffffffffffffffff\n      and\n        /* \"AuctionWlady3.sol\":5382:5411  currentBidder = allBidders[i] */\n      swap2\n      pop\n        /* \"AuctionWlady3.sol\":5439:5452  currentBidder */\n      dup2\n        /* \"AuctionWlady3.sol\":5426:5433  bidders */\n      dup6\n        /* \"AuctionWlady3.sol\":5434:5435  i */\n      dup3\n        /* \"AuctionWlady3.sol\":5426:5436  bidders[i] */\n      dup2\n      mload\n      dup2\n      lt\n      tag_115\n      jumpi\n      tag_116\n      tag_113\n      jump\t// in\n    tag_116:\n    tag_115:\n      0x20\n      mul\n      0x20\n      add\n      add\n        /* \"AuctionWlady3.sol\":5426:5452  bidders[i] = currentBidder */\n      swap1\n      0xffffffffffffffffffffffffffffffffffffffff\n      and\n      swap1\n      dup2\n      0xffffffffffffffffffffffffffffffffffffffff\n      and\n      dup2\n      mstore\n      pop\n      pop\n        /* \"AuctionWlady3.sol\":5480:5488  lastBids */\n      0x06\n        /* \"AuctionWlady3.sol\":5480:5503  lastBids[currentBidder] */\n      0x00\n        /* \"AuctionWlady3.sol\":5489:5502  currentBidder */\n      dup4\n        /* \"AuctionWlady3.sol\":5480:5503  lastBids[currentBidder] */\n      0xffffffffffffffffffffffffffffffffffffffff\n      and\n      0xffffffffffffffffffffffffffffffffffffffff\n      and\n      dup2\n      mstore\n      0x20\n      add\n      swap1\n      dup2\n      mstore\n      0x20\n      add\n      0x00\n      keccak256\n        /* \"AuctionWlady3.sol\":5480:5510  lastBids[currentBidder].amount */\n      0x01\n      add\n      sload\n        /* \"AuctionWlady3.sol\":5467:5474  amounts */\n      dup5\n        /* \"AuctionWlady3.sol\":5475:5476  i */\n      dup3\n        /* \"AuctionWlady3.sol\":5467:5477  amounts[i] */\n      dup2\n      mload\n      dup2\n      lt\n      tag_117\n      jumpi\n      tag_118\n      tag_113\n      jump\t// in\n    tag_118:\n    tag_117:\n      0x20\n      mul\n      0x20\n      add\n      add\n        /* \"AuctionWlady3.sol\":5467:5510  amounts[i] = lastBids[currentBidder].amount */\n      dup2\n      dup2\n      mstore\n      pop\n      pop\n        /* \"AuctionWlady3.sol\":5362:5365  i++ */\n      dup1\n      dup1\n      0x01\n      add\n      swap2\n      pop\n      pop\n        /* \"AuctionWlady3.sol\":5336:5522  for (uint i = 0; i < len; i++) {... */\n      jump(tag_108)\n    tag_109:\n      pop\n        /* \"AuctionWlady3.sol\":5532:5557  return (bidders, amounts) */\n      pop\n      pop\n        /* \"AuctionWlady3.sol\":4986:5565  function showBids() public view returns (address[] memory bidders, uint256[] memory amounts) {... */\n      swap1\n      swap2\n      jump\t// out\n        /* \"AuctionWlady3.sol\":2925:4025  function bid() public payable auctionActive {... */\n    tag_34:\n        /* \"AuctionWlady3.sol\":2338:2352  auctionEndTime */\n      sload(0x02)\n        /* \"AuctionWlady3.sol\":2320:2335  block.timestamp */\n      timestamp\n        /* \"AuctionWlady3.sol\":2320:2352  block.timestamp < auctionEndTime */\n      lt\n        /* \"AuctionWlady3.sol\":2320:2362  block.timestamp < auctionEndTime && !ended */\n      dup1\n      iszero\n      tag_120\n      jumpi\n      pop\n        /* \"AuctionWlady3.sol\":2357:2362  ended */\n      0x04\n      0x14\n      swap1\n      sload\n      swap1\n      0x0100\n      exp\n      swap1\n      div\n      0xff\n      and\n        /* \"AuctionWlady3.sol\":2356:2362  !ended */\n      iszero\n        /* \"AuctionWlady3.sol\":2320:2362  block.timestamp < auctionEndTime && !ended */\n    tag_120:\n        /* \"AuctionWlady3.sol\":2312:2384  require(block.timestamp < auctionEndTime && !ended, \"Auction inactive.\") */\n      tag_121\n      jumpi\n      mload(0x40)\n      0x08c379a000000000000000000000000000000000000000000000000000000000\n      dup2\n      mstore\n      0x04\n      add\n      tag_122\n      swap1\n      tag_123\n      jump\t// in\n    tag_122:\n      mload(0x40)\n      dup1\n      swap2\n      sub\n      swap1\n      revert\n    tag_121:\n        /* \"AuctionWlady3.sol\":2980:3002  uint256 requiredMinBid */\n      0x00\n        /* \"AuctionWlady3.sol\":3060:3063  100 */\n      0x64\n        /* \"AuctionWlady3.sol\":533:534  5 */\n      0x05\n        /* \"AuctionWlady3.sol\":3019:3029  highestBid */\n      sload(0x03)\n        /* \"AuctionWlady3.sol\":3019:3057  highestBid * MIN_BID_INCREMENT_PERCENT */\n      tag_125\n      swap2\n      swap1\n      tag_126\n      jump\t// in\n    tag_125:\n        /* \"AuctionWlady3.sol\":3019:3063  highestBid * MIN_BID_INCREMENT_PERCENT / 100 */\n      tag_127\n      swap2\n      swap1\n      tag_128\n      jump\t// in\n    tag_127:\n        /* \"AuctionWlady3.sol\":3005:3015  highestBid */\n      sload(0x03)\n        /* \"AuctionWlady3.sol\":3005:3064  highestBid + (highestBid * MIN_BID_INCREMENT_PERCENT / 100) */\n      tag_129\n      swap2\n      swap1\n      tag_130\n      jump\t// in\n    tag_129:\n        /* \"AuctionWlady3.sol\":2980:3064  uint256 requiredMinBid = highestBid + (highestBid * MIN_BID_INCREMENT_PERCENT / 100) */\n      swap1\n      pop\n        /* \"AuctionWlady3.sol\":3093:3094  0 */\n      0x00\n        /* \"AuctionWlady3.sol\":3079:3089  highestBid */\n      sload(0x03)\n        /* \"AuctionWlady3.sol\":3079:3094  highestBid == 0 */\n      sub\n        /* \"AuctionWlady3.sol\":3075:3181  if (highestBid == 0) {... */\n      tag_131\n      jumpi\n        /* \"AuctionWlady3.sol\":3128:3133  1 wei */\n      0x01\n        /* \"AuctionWlady3.sol\":3111:3133  requiredMinBid = 1 wei */\n      swap1\n      pop\n        /* \"AuctionWlady3.sol\":3075:3181  if (highestBid == 0) {... */\n    tag_131:\n        /* \"AuctionWlady3.sol\":3214:3228  requiredMinBid */\n      dup1\n        /* \"AuctionWlady3.sol\":3201:3210  msg.value */\n      callvalue\n        /* \"AuctionWlady3.sol\":3201:3228  msg.value >= requiredMinBid */\n      lt\n      iszero\n        /* \"AuctionWlady3.sol\":3193:3245  require(msg.value >= requiredMinBid, \"Bid too low.\") */\n      tag_132\n      jumpi\n      mload(0x40)\n      0x08c379a000000000000000000000000000000000000000000000000000000000\n      dup2\n      mstore\n      0x04\n      add\n      tag_133\n      swap1\n      tag_134\n      jump\t// in\n    tag_133:\n      mload(0x40)\n      dup1\n      swap2\n      sub\n      swap1\n      revert\n    tag_132:\n        /* \"AuctionWlady3.sol\":3321:3330  hasBidder */\n      0x08\n        /* \"AuctionWlady3.sol\":3321:3342  hasBidder[msg.sender] */\n      0x00\n        /* \"AuctionWlady3.sol\":3331:3341  msg.sender */\n      caller\n        /* \"AuctionWlady3.sol\":3321:3342  hasBidder[msg.sender] */\n      0xffffffffffffffffffffffffffffffffffffffff\n      and\n      0xffffffffffffffffffffffffffffffffffffffff\n      and\n      dup2\n      mstore\n      0x20\n      add\n      swap1\n      dup2\n      mstore\n      0x20\n      add\n      0x00\n      keccak256\n      0x00\n      swap1\n      sload\n      swap1\n      0x0100\n      exp\n      swap1\n      div\n      0xff\n      and\n        /* \"AuctionWlady3.sol\":3316:3441  if (!hasBidder[msg.sender]) {... */\n      tag_135\n      jumpi\n        /* \"AuctionWlady3.sol\":3383:3387  true */\n      0x01\n        /* \"AuctionWlady3.sol\":3359:3368  hasBidder */\n      0x08\n        /* \"AuctionWlady3.sol\":3359:3380  hasBidder[msg.sender] */\n      0x00\n        /* \"AuctionWlady3.sol\":3369:3379  msg.sender */\n      caller\n        /* \"AuctionWlady3.sol\":3359:3380  hasBidder[msg.sender] */\n      0xffffffffffffffffffffffffffffffffffffffff\n      and\n      0xffffffffffffffffffffffffffffffffffffffff\n      and\n      dup2\n      mstore\n      0x20\n      add\n      swap1\n      dup2\n      mstore\n      0x20\n      add\n      0x00\n      keccak256\n      0x00\n        /* \"AuctionWlady3.sol\":3359:3387  hasBidder[msg.sender] = true */\n      0x0100\n      exp\n      dup2\n      sload\n      dup2\n      0xff\n      mul\n      not\n      and\n      swap1\n      dup4\n      iszero\n      iszero\n      mul\n      or\n      swap1\n      sstore\n      pop\n        /* \"AuctionWlady3.sol\":3402:3412  allBidders */\n      0x07\n        /* \"AuctionWlady3.sol\":3418:3428  msg.sender */\n      caller\n        /* \"AuctionWlady3.sol\":3402:3429  allBidders.push(msg.sender) */\n      swap1\n      dup1\n      0x01\n      dup2\n      sload\n      add\n      dup1\n      dup3\n      sstore\n      dup1\n      swap2\n      pop\n      pop\n      0x01\n      swap1\n      sub\n      swap1\n      0x00\n      mstore\n      keccak256(0x00, 0x20)\n      add\n      0x00\n      swap1\n      swap2\n      swap1\n      swap2\n      swap1\n      swap2\n      0x0100\n      exp\n      dup2\n      sload\n      dup2\n      0xffffffffffffffffffffffffffffffffffffffff\n      mul\n      not\n      and\n      swap1\n      dup4\n      0xffffffffffffffffffffffffffffffffffffffff\n      and\n      mul\n      or\n      swap1\n      sstore\n      pop\n        /* \"AuctionWlady3.sol\":3316:3441  if (!hasBidder[msg.sender]) {... */\n    tag_135:\n        /* \"AuctionWlady3.sol\":3477:3486  msg.value */\n      callvalue\n        /* \"AuctionWlady3.sol\":3453:3461  deposits */\n      0x05\n        /* \"AuctionWlady3.sol\":3453:3473  deposits[msg.sender] */\n      0x00\n        /* \"AuctionWlady3.sol\":3462:3472  msg.sender */\n      caller\n        /* \"AuctionWlady3.sol\":3453:3473  deposits[msg.sender] */\n      0xffffffffffffffffffffffffffffffffffffffff\n      and\n      0xffffffffffffffffffffffffffffffffffffffff\n      and\n      dup2\n      mstore\n      0x20\n      add\n      swap1\n      dup2\n      mstore\n      0x20\n      add\n      0x00\n      keccak256\n      0x00\n        /* \"AuctionWlady3.sol\":3453:3486  deposits[msg.sender] += msg.value */\n      dup3\n      dup3\n      sload\n      tag_137\n      swap2\n      swap1\n      tag_130\n      jump\t// in\n    tag_137:\n      swap3\n      pop\n      pop\n      dup2\n      swap1\n      sstore\n      pop\n        /* \"AuctionWlady3.sol\":3515:3525  highestBid */\n      sload(0x03)\n        /* \"AuctionWlady3.sol\":3503:3512  msg.value */\n      callvalue\n        /* \"AuctionWlady3.sol\":3503:3525  msg.value > highestBid */\n      gt\n        /* \"AuctionWlady3.sol\":3499:3617  if (msg.value > highestBid) {... */\n      iszero\n      tag_138\n      jumpi\n        /* \"AuctionWlady3.sol\":3555:3564  msg.value */\n      callvalue\n        /* \"AuctionWlady3.sol\":3542:3552  highestBid */\n      0x03\n        /* \"AuctionWlady3.sol\":3542:3564  highestBid = msg.value */\n      dup2\n      swap1\n      sstore\n      pop\n        /* \"AuctionWlady3.sol\":3595:3605  msg.sender */\n      caller\n        /* \"AuctionWlady3.sol\":3579:3592  highestBidder */\n      0x04\n      0x00\n        /* \"AuctionWlady3.sol\":3579:3605  highestBidder = msg.sender */\n      0x0100\n      exp\n      dup2\n      sload\n      dup2\n      0xffffffffffffffffffffffffffffffffffffffff\n      mul\n      not\n      and\n      swap1\n      dup4\n      0xffffffffffffffffffffffffffffffffffffffff\n      and\n      mul\n      or\n      swap1\n      sstore\n      pop\n        /* \"AuctionWlady3.sol\":3499:3617  if (msg.value > highestBid) {... */\n    tag_138:\n        /* \"AuctionWlady3.sol\":3730:3756  Bid(msg.sender, msg.value) */\n      mload(0x40)\n      dup1\n      0x40\n      add\n      0x40\n      mstore\n      dup1\n        /* \"AuctionWlady3.sol\":3734:3744  msg.sender */\n      caller\n        /* \"AuctionWlady3.sol\":3730:3756  Bid(msg.sender, msg.value) */\n      0xffffffffffffffffffffffffffffffffffffffff\n      and\n      dup2\n      mstore\n      0x20\n      add\n        /* \"AuctionWlady3.sol\":3746:3755  msg.value */\n      callvalue\n        /* \"AuctionWlady3.sol\":3730:3756  Bid(msg.sender, msg.value) */\n      dup2\n      mstore\n      pop\n        /* \"AuctionWlady3.sol\":3707:3715  lastBids */\n      0x06\n        /* \"AuctionWlady3.sol\":3707:3727  lastBids[msg.sender] */\n      0x00\n        /* \"AuctionWlady3.sol\":3716:3726  msg.sender */\n      caller\n        /* \"AuctionWlady3.sol\":3707:3727  lastBids[msg.sender] */\n      0xffffffffffffffffffffffffffffffffffffffff\n      and\n      0xffffffffffffffffffffffffffffffffffffffff\n      and\n      dup2\n      mstore\n      0x20\n      add\n      swap1\n      dup2\n      mstore\n      0x20\n      add\n      0x00\n      keccak256\n        /* \"AuctionWlady3.sol\":3707:3756  lastBids[msg.sender] = Bid(msg.sender, msg.value) */\n      0x00\n      dup3\n      add\n      mload\n      dup2\n      0x00\n      add\n      exp(0x0100, 0x00)\n      dup2\n      sload\n      dup2\n      0xffffffffffffffffffffffffffffffffffffffff\n      mul\n      not\n      and\n      swap1\n      dup4\n      0xffffffffffffffffffffffffffffffffffffffff\n      and\n      mul\n      or\n      swap1\n      sstore\n      pop\n      0x20\n      dup3\n      add\n      mload\n      dup2\n      0x01\n      add\n      sstore\n      swap1\n      pop\n      pop\n        /* \"AuctionWlady3.sol\":3781:3791  msg.sender */\n      caller\n        /* \"AuctionWlady3.sol\":3774:3803  NewBid(msg.sender, msg.value) */\n      0xffffffffffffffffffffffffffffffffffffffff\n      and\n      0xdd0b6c6a77960e2066c96171b4d7ac9e8b4c184011f38544afa36a5bb63ec59f\n        /* \"AuctionWlady3.sol\":3793:3802  msg.value */\n      callvalue\n        /* \"AuctionWlady3.sol\":3774:3803  NewBid(msg.sender, msg.value) */\n      mload(0x40)\n      tag_139\n      swap2\n      swap1\n      tag_49\n      jump\t// in\n    tag_139:\n      mload(0x40)\n      dup1\n      swap2\n      sub\n      swap1\n      log2\n        /* \"AuctionWlady3.sol\":464:474  10 minutes */\n      0x0258\n        /* \"AuctionWlady3.sol\":3837:3852  block.timestamp */\n      timestamp\n        /* \"AuctionWlady3.sol\":3820:3834  auctionEndTime */\n      sload(0x02)\n        /* \"AuctionWlady3.sol\":3820:3852  auctionEndTime - block.timestamp */\n      tag_140\n      swap2\n      swap1\n      tag_141\n      jump\t// in\n    tag_140:\n        /* \"AuctionWlady3.sol\":3820:3870  auctionEndTime - block.timestamp <= EXTENSION_TIME */\n      gt\n      iszero\n        /* \"AuctionWlady3.sol\":3820:3906  auctionEndTime - block.timestamp <= EXTENSION_TIME && block.timestamp < auctionEndTime */\n      dup1\n      iszero\n      tag_142\n      jumpi\n      pop\n        /* \"AuctionWlady3.sol\":3892:3906  auctionEndTime */\n      sload(0x02)\n        /* \"AuctionWlady3.sol\":3874:3889  block.timestamp */\n      timestamp\n        /* \"AuctionWlady3.sol\":3874:3906  block.timestamp < auctionEndTime */\n      lt\n        /* \"AuctionWlady3.sol\":3820:3906  auctionEndTime - block.timestamp <= EXTENSION_TIME && block.timestamp < auctionEndTime */\n    tag_142:\n        /* \"AuctionWlady3.sol\":3816:4018  if (auctionEndTime - block.timestamp <= EXTENSION_TIME && block.timestamp < auctionEndTime) {... */\n      iszero\n      tag_143\n      jumpi\n        /* \"AuctionWlady3.sol\":464:474  10 minutes */\n      0x0258\n        /* \"AuctionWlady3.sol\":3923:3937  auctionEndTime */\n      0x02\n      0x00\n        /* \"AuctionWlady3.sol\":3923:3955  auctionEndTime += EXTENSION_TIME */\n      dup3\n      dup3\n      sload\n      tag_144\n      swap2\n      swap1\n      tag_130\n      jump\t// in\n    tag_144:\n      swap3\n      pop\n      pop\n      dup2\n      swap1\n      sstore\n      pop\n        /* \"AuctionWlady3.sol\":3975:4006  AuctionExtended(auctionEndTime) */\n      0xc2b459809119087ca9d2bc10dea53a51b7d848b1a11075db037bdca58292c3e8\n        /* \"AuctionWlady3.sol\":3991:4005  auctionEndTime */\n      sload(0x02)\n        /* \"AuctionWlady3.sol\":3975:4006  AuctionExtended(auctionEndTime) */\n      mload(0x40)\n      tag_145\n      swap2\n      swap1\n      tag_49\n      jump\t// in\n    tag_145:\n      mload(0x40)\n      dup1\n      swap2\n      sub\n      swap1\n      log1\n        /* \"AuctionWlady3.sol\":3816:4018  if (auctionEndTime - block.timestamp <= EXTENSION_TIME && block.timestamp < auctionEndTime) {... */\n    tag_143:\n        /* \"AuctionWlady3.sol\":2969:4025  {... */\n      pop\n        /* \"AuctionWlady3.sol\":2925:4025  function bid() public payable auctionActive {... */\n      jump\t// out\n        /* \"AuctionWlady3.sol\":5785:6751  function returnDeposits() public onlyOwner auctionEnded {... */\n    tag_37:\n        /* \"AuctionWlady3.sol\":2152:2157  owner */\n      0x00\n      0x00\n      swap1\n      sload\n      swap1\n      0x0100\n      exp\n      swap1\n      div\n      0xffffffffffffffffffffffffffffffffffffffff\n      and\n        /* \"AuctionWlady3.sol\":2138:2157  msg.sender == owner */\n      0xffffffffffffffffffffffffffffffffffffffff\n      and\n        /* \"AuctionWlady3.sol\":2138:2148  msg.sender */\n      caller\n        /* \"AuctionWlady3.sol\":2138:2157  msg.sender == owner */\n      0xffffffffffffffffffffffffffffffffffffffff\n      and\n      eq\n        /* \"AuctionWlady3.sol\":2130:2173  require(msg.sender == owner, \"Only owner.\") */\n      tag_147\n      jumpi\n      mload(0x40)\n      0x08c379a000000000000000000000000000000000000000000000000000000000\n      dup2\n      mstore\n      0x04\n      add\n      tag_148\n      swap1\n      tag_149\n      jump\t// in\n    tag_148:\n      mload(0x40)\n      dup1\n      swap2\n      sub\n      swap1\n      revert\n    tag_147:\n        /* \"AuctionWlady3.sol\":2549:2563  auctionEndTime */\n      sload(0x02)\n        /* \"AuctionWlady3.sol\":2530:2545  block.timestamp */\n      timestamp\n        /* \"AuctionWlady3.sol\":2530:2563  block.timestamp >= auctionEndTime */\n      lt\n      iszero\n        /* \"AuctionWlady3.sol\":2530:2572  block.timestamp >= auctionEndTime || ended */\n      dup1\n      tag_151\n      jumpi\n      pop\n        /* \"AuctionWlady3.sol\":2567:2572  ended */\n      0x04\n      0x14\n      swap1\n      sload\n      swap1\n      0x0100\n      exp\n      swap1\n      div\n      0xff\n      and\n        /* \"AuctionWlady3.sol\":2530:2572  block.timestamp >= auctionEndTime || ended */\n    tag_151:\n        /* \"AuctionWlady3.sol\":2522:2595  require(block.timestamp >= auctionEndTime || ended, \"Auction not ended.\") */\n      tag_152\n      jumpi\n      mload(0x40)\n      0x08c379a000000000000000000000000000000000000000000000000000000000\n      dup2\n      mstore\n      0x04\n      add\n      tag_153\n      swap1\n      tag_154\n      jump\t// in\n    tag_153:\n      mload(0x40)\n      dup1\n      swap2\n      sub\n      swap1\n      revert\n    tag_152:\n        /* \"AuctionWlady3.sol\":5857:5863  uint i */\n      0x00\n        /* \"AuctionWlady3.sol\":5866:5867  0 */\n      0x00\n        /* \"AuctionWlady3.sol\":5857:5867  uint i = 0 */\n      swap1\n      pop\n        /* \"AuctionWlady3.sol\":5852:6744  for (uint i = 0; i < allBidders.length; i++) {... */\n    tag_156:\n        /* \"AuctionWlady3.sol\":5873:5883  allBidders */\n      0x07\n        /* \"AuctionWlady3.sol\":5873:5890  allBidders.length */\n      dup1\n      sload\n      swap1\n      pop\n        /* \"AuctionWlady3.sol\":5869:5870  i */\n      dup2\n        /* \"AuctionWlady3.sol\":5869:5890  i < allBidders.length */\n      lt\n        /* \"AuctionWlady3.sol\":5852:6744  for (uint i = 0; i < allBidders.length; i++) {... */\n      iszero\n      tag_157\n      jumpi\n        /* \"AuctionWlady3.sol\":5912:5933  address currentBidder */\n      0x00\n        /* \"AuctionWlady3.sol\":5936:5946  allBidders */\n      0x07\n        /* \"AuctionWlady3.sol\":5947:5948  i */\n      dup3\n        /* \"AuctionWlady3.sol\":5936:5949  allBidders[i] */\n      dup2\n      sload\n      dup2\n      lt\n      tag_159\n      jumpi\n      tag_160\n      tag_113\n      jump\t// in\n    tag_160:\n    tag_159:\n      swap1\n      0x00\n      mstore\n      keccak256(0x00, 0x20)\n      add\n      0x00\n      swap1\n      sload\n      swap1\n      0x0100\n      exp\n      swap1\n      div\n      0xffffffffffffffffffffffffffffffffffffffff\n      and\n        /* \"AuctionWlady3.sol\":5912:5949  address currentBidder = allBidders[i] */\n      swap1\n      pop\n        /* \"AuctionWlady3.sol\":6047:6060  highestBidder */\n      0x04\n      0x00\n      swap1\n      sload\n      swap1\n      0x0100\n      exp\n      swap1\n      div\n      0xffffffffffffffffffffffffffffffffffffffff\n      and\n        /* \"AuctionWlady3.sol\":6030:6060  currentBidder == highestBidder */\n      0xffffffffffffffffffffffffffffffffffffffff\n      and\n        /* \"AuctionWlady3.sol\":6030:6043  currentBidder */\n      dup2\n        /* \"AuctionWlady3.sol\":6030:6060  currentBidder == highestBidder */\n      0xffffffffffffffffffffffffffffffffffffffff\n      and\n      eq\n        /* \"AuctionWlady3.sol\":6030:6092  currentBidder == highestBidder || deposits[currentBidder] == 0 */\n      dup1\n      tag_162\n      jumpi\n      pop\n        /* \"AuctionWlady3.sol\":6091:6092  0 */\n      0x00\n        /* \"AuctionWlady3.sol\":6064:6072  deposits */\n      0x05\n        /* \"AuctionWlady3.sol\":6064:6087  deposits[currentBidder] */\n      0x00\n        /* \"AuctionWlady3.sol\":6073:6086  currentBidder */\n      dup4\n        /* \"AuctionWlady3.sol\":6064:6087  deposits[currentBidder] */\n      0xffffffffffffffffffffffffffffffffffffffff\n      and\n      0xffffffffffffffffffffffffffffffffffffffff\n      and\n      dup2\n      mstore\n      0x20\n      add\n      swap1\n      dup2\n      mstore\n      0x20\n      add\n      0x00\n      keccak256\n      sload\n        /* \"AuctionWlady3.sol\":6064:6092  deposits[currentBidder] == 0 */\n      eq\n        /* \"AuctionWlady3.sol\":6030:6092  currentBidder == highestBidder || deposits[currentBidder] == 0 */\n    tag_162:\n        /* \"AuctionWlady3.sol\":6026:6137  if (currentBidder == highestBidder || deposits[currentBidder] == 0) {... */\n      iszero\n      tag_163\n      jumpi\n        /* \"AuctionWlady3.sol\":6113:6121  continue */\n      pop\n      jump(tag_158)\n        /* \"AuctionWlady3.sol\":6026:6137  if (currentBidder == highestBidder || deposits[currentBidder] == 0) {... */\n    tag_163:\n        /* \"AuctionWlady3.sol\":6153:6175  uint256 amountToRefund */\n      0x00\n        /* \"AuctionWlady3.sol\":6178:6186  deposits */\n      0x05\n        /* \"AuctionWlady3.sol\":6178:6201  deposits[currentBidder] */\n      0x00\n        /* \"AuctionWlady3.sol\":6187:6200  currentBidder */\n      dup4\n        /* \"AuctionWlady3.sol\":6178:6201  deposits[currentBidder] */\n      0xffffffffffffffffffffffffffffffffffffffff\n      and\n      0xffffffffffffffffffffffffffffffffffffffff\n      and\n      dup2\n      mstore\n      0x20\n      add\n      swap1\n      dup2\n      mstore\n      0x20\n      add\n      0x00\n      keccak256\n      sload\n        /* \"AuctionWlady3.sol\":6153:6201  uint256 amountToRefund = deposits[currentBidder] */\n      swap1\n      pop\n        /* \"AuctionWlady3.sol\":6216:6234  uint256 commission */\n      0x00\n        /* \"AuctionWlady3.sol\":6281:6284  100 */\n      0x64\n        /* \"AuctionWlady3.sol\":590:591  2 */\n      0x02\n        /* \"AuctionWlady3.sol\":6238:6252  amountToRefund */\n      dup4\n        /* \"AuctionWlady3.sol\":6238:6277  amountToRefund * GAS_COMMISSION_PERCENT */\n      tag_164\n      swap2\n      swap1\n      tag_126\n      jump\t// in\n    tag_164:\n        /* \"AuctionWlady3.sol\":6237:6284  (amountToRefund * GAS_COMMISSION_PERCENT) / 100 */\n      tag_165\n      swap2\n      swap1\n      tag_128\n      jump\t// in\n    tag_165:\n        /* \"AuctionWlady3.sol\":6216:6284  uint256 commission = (amountToRefund * GAS_COMMISSION_PERCENT) / 100 */\n      swap1\n      pop\n        /* \"AuctionWlady3.sol\":6299:6316  uint256 netRefund */\n      0x00\n        /* \"AuctionWlady3.sol\":6336:6346  commission */\n      dup2\n        /* \"AuctionWlady3.sol\":6319:6333  amountToRefund */\n      dup4\n        /* \"AuctionWlady3.sol\":6319:6346  amountToRefund - commission */\n      tag_166\n      swap2\n      swap1\n      tag_141\n      jump\t// in\n    tag_166:\n        /* \"AuctionWlady3.sol\":6299:6346  uint256 netRefund = amountToRefund - commission */\n      swap1\n      pop\n        /* \"AuctionWlady3.sol\":6480:6481  0 */\n      0x00\n        /* \"AuctionWlady3.sol\":6454:6462  deposits */\n      0x05\n        /* \"AuctionWlady3.sol\":6454:6477  deposits[currentBidder] */\n      0x00\n        /* \"AuctionWlady3.sol\":6463:6476  currentBidder */\n      dup7\n        /* \"AuctionWlady3.sol\":6454:6477  deposits[currentBidder] */\n      0xffffffffffffffffffffffffffffffffffffffff\n      and\n      0xffffffffffffffffffffffffffffffffffffffff\n      and\n      dup2\n      mstore\n      0x20\n      add\n      swap1\n      dup2\n      mstore\n      0x20\n      add\n      0x00\n      keccak256\n        /* \"AuctionWlady3.sol\":6454:6481  deposits[currentBidder] = 0 */\n      dup2\n      swap1\n      sstore\n      pop\n        /* \"AuctionWlady3.sol\":6553:6565  bool success */\n      0x00\n        /* \"AuctionWlady3.sol\":6579:6592  currentBidder */\n      dup5\n        /* \"AuctionWlady3.sol\":6571:6598  payable(currentBidder).call */\n      0xffffffffffffffffffffffffffffffffffffffff\n      and\n        /* \"AuctionWlady3.sol\":6606:6615  netRefund */\n      dup3\n        /* \"AuctionWlady3.sol\":6571:6620  payable(currentBidder).call{value: netRefund}(\"\") */\n      mload(0x40)\n      tag_167\n      swap1\n      tag_168\n      jump\t// in\n    tag_167:\n      0x00\n      mload(0x40)\n      dup1\n      dup4\n      sub\n      dup2\n      dup6\n      dup8\n      gas\n      call\n      swap3\n      pop\n      pop\n      pop\n      returndatasize\n      dup1\n      0x00\n      dup2\n      eq\n      tag_171\n      jumpi\n      mload(0x40)\n      swap2\n      pop\n      and(add(returndatasize, 0x3f), not(0x1f))\n      dup3\n      add\n      0x40\n      mstore\n      returndatasize\n      dup3\n      mstore\n      returndatasize\n      0x00\n      0x20\n      dup5\n      add\n      returndatacopy\n      jump(tag_170)\n    tag_171:\n      0x60\n      swap2\n      pop\n    tag_170:\n      pop\n        /* \"AuctionWlady3.sol\":6552:6620  (bool success, ) = payable(currentBidder).call{value: netRefund}(\"\") */\n      pop\n      swap1\n      pop\n        /* \"AuctionWlady3.sol\":6643:6650  success */\n      dup1\n        /* \"AuctionWlady3.sol\":6635:6669  require(success, \"Refund failed.\") */\n      tag_172\n      jumpi\n      mload(0x40)\n      0x08c379a000000000000000000000000000000000000000000000000000000000\n      dup2\n      mstore\n      0x04\n      add\n      tag_173\n      swap1\n      tag_174\n      jump\t// in\n    tag_173:\n      mload(0x40)\n      dup1\n      swap2\n      sub\n      swap1\n      revert\n    tag_172:\n        /* \"AuctionWlady3.sol\":6707:6720  currentBidder */\n      dup5\n        /* \"AuctionWlady3.sol\":6691:6732  DepositRefunded(currentBidder, netRefund) */\n      0xffffffffffffffffffffffffffffffffffffffff\n      and\n      0x698270f63d8b673ed55a5ca00d14001bd808b390dbe11d5b1b16624863f71f77\n        /* \"AuctionWlady3.sol\":6722:6731  netRefund */\n      dup4\n        /* \"AuctionWlady3.sol\":6691:6732  DepositRefunded(currentBidder, netRefund) */\n      mload(0x40)\n      tag_175\n      swap2\n      swap1\n      tag_49\n      jump\t// in\n    tag_175:\n      mload(0x40)\n      dup1\n      swap2\n      sub\n      swap1\n      log2\n        /* \"AuctionWlady3.sol\":5897:6744  {... */\n      pop\n      pop\n      pop\n      pop\n      pop\n        /* \"AuctionWlady3.sol\":5852:6744  for (uint i = 0; i < allBidders.length; i++) {... */\n    tag_158:\n        /* \"AuctionWlady3.sol\":5892:5895  i++ */\n      dup1\n      dup1\n      0x01\n      add\n      swap2\n      pop\n      pop\n        /* \"AuctionWlady3.sol\":5852:6744  for (uint i = 0; i < allBidders.length; i++) {... */\n      jump(tag_156)\n    tag_157:\n      pop\n        /* \"AuctionWlady3.sol\":5785:6751  function returnDeposits() public onlyOwner auctionEnded {... */\n      jump\t// out\n        /* \"AuctionWlady3.sol\":753:792  mapping(address => Bid) public lastBids */\n    tag_42:\n      mstore(0x20, 0x06)\n      dup1\n      0x00\n      mstore\n      keccak256(0x00, 0x40)\n      0x00\n      swap2\n      pop\n      swap1\n      pop\n      dup1\n      0x00\n      add\n      0x00\n      swap1\n      sload\n      swap1\n      0x0100\n      exp\n      swap1\n      div\n      0xffffffffffffffffffffffffffffffffffffffff\n      and\n      swap1\n      dup1\n      0x01\n      add\n      sload\n      swap1\n      pop\n      dup3\n      jump\t// out\n        /* \"AuctionWlady3.sol\":217:246  uint256 public auctionEndTime */\n    tag_47:\n      sload(0x02)\n      dup2\n      jump\t// out\n        /* \"AuctionWlady3.sol\":423:474  uint256 public constant EXTENSION_TIME = 10 minutes */\n    tag_52:\n        /* \"AuctionWlady3.sol\":464:474  10 minutes */\n      0x0258\n        /* \"AuctionWlady3.sol\":423:474  uint256 public constant EXTENSION_TIME = 10 minutes */\n      dup2\n      jump\t// out\n        /* \"AuctionWlady3.sol\":152:172  address public owner */\n    tag_56:\n      0x00\n      0x00\n      swap1\n      sload\n      swap1\n      0x0100\n      exp\n      swap1\n      div\n      0xffffffffffffffffffffffffffffffffffffffff\n      and\n      dup2\n      jump\t// out\n        /* \"AuctionWlady3.sol\":326:354  address public highestBidder */\n    tag_61:\n      0x04\n      0x00\n      swap1\n      sload\n      swap1\n      0x0100\n      exp\n      swap1\n      div\n      0xffffffffffffffffffffffffffffffffffffffff\n      and\n      dup2\n      jump\t// out\n        /* \"AuctionWlady3.sol\":1034:1061  address[] public allBidders */\n    tag_67:\n      0x07\n      dup2\n      dup2\n      sload\n      dup2\n      lt\n      tag_176\n      jumpi\n      0x00\n      dup1\n      revert\n    tag_176:\n      swap1\n      0x00\n      mstore\n      keccak256(0x00, 0x20)\n      add\n      0x00\n      swap2\n      pop\n      sload\n      swap1\n      0x0100\n      exp\n      swap1\n      div\n      0xffffffffffffffffffffffffffffffffffffffff\n      and\n      dup2\n      jump\t// out\n        /* \"AuctionWlady3.sol\":541:591  uint256 public constant GAS_COMMISSION_PERCENT = 2 */\n    tag_71:\n        /* \"AuctionWlady3.sol\":590:591  2 */\n      0x02\n        /* \"AuctionWlady3.sol\":541:591  uint256 public constant GAS_COMMISSION_PERCENT = 2 */\n      dup2\n      jump\t// out\n        /* \"AuctionWlady3.sol\":4623:4768  function showWinner() public view auctionEnded returns (address winner, uint256 winningBid) {... */\n    tag_75:\n        /* \"AuctionWlady3.sol\":4679:4693  address winner */\n      0x00\n        /* \"AuctionWlady3.sol\":4695:4713  uint256 winningBid */\n      0x00\n        /* \"AuctionWlady3.sol\":2549:2563  auctionEndTime */\n      sload(0x02)\n        /* \"AuctionWlady3.sol\":2530:2545  block.timestamp */\n      timestamp\n        /* \"AuctionWlady3.sol\":2530:2563  block.timestamp >= auctionEndTime */\n      lt\n      iszero\n        /* \"AuctionWlady3.sol\":2530:2572  block.timestamp >= auctionEndTime || ended */\n      dup1\n      tag_179\n      jumpi\n      pop\n        /* \"AuctionWlady3.sol\":2567:2572  ended */\n      0x04\n      0x14\n      swap1\n      sload\n      swap1\n      0x0100\n      exp\n      swap1\n      div\n      0xff\n      and\n        /* \"AuctionWlady3.sol\":2530:2572  block.timestamp >= auctionEndTime || ended */\n    tag_179:\n        /* \"AuctionWlady3.sol\":2522:2595  require(block.timestamp >= auctionEndTime || ended, \"Auction not ended.\") */\n      tag_180\n      jumpi\n      mload(0x40)\n      0x08c379a000000000000000000000000000000000000000000000000000000000\n      dup2\n      mstore\n      0x04\n      add\n      tag_181\n      swap1\n      tag_154\n      jump\t// in\n    tag_181:\n      mload(0x40)\n      dup1\n      swap2\n      sub\n      swap1\n      revert\n    tag_180:\n        /* \"AuctionWlady3.sol\":4734:4747  highestBidder */\n      0x04\n      0x00\n      swap1\n      sload\n      swap1\n      0x0100\n      exp\n      swap1\n      div\n      0xffffffffffffffffffffffffffffffffffffffff\n      and\n        /* \"AuctionWlady3.sol\":4749:4759  highestBid */\n      sload(0x03)\n        /* \"AuctionWlady3.sol\":4726:4760  return (highestBidder, highestBid) */\n      swap2\n      pop\n      swap2\n      pop\n        /* \"AuctionWlady3.sol\":4623:4768  function showWinner() public view auctionEnded returns (address winner, uint256 winningBid) {... */\n      swap1\n      swap2\n      jump\t// out\n        /* \"AuctionWlady3.sol\":481:534  uint256 public constant MIN_BID_INCREMENT_PERCENT = 5 */\n    tag_79:\n        /* \"AuctionWlady3.sol\":533:534  5 */\n      0x05\n        /* \"AuctionWlady3.sol\":481:534  uint256 public constant MIN_BID_INCREMENT_PERCENT = 5 */\n      dup2\n      jump\t// out\n        /* \"AuctionWlady3.sol\":6926:7986  function partialWithdrawal() public auctionActive {... */\n    tag_83:\n        /* \"AuctionWlady3.sol\":2338:2352  auctionEndTime */\n      sload(0x02)\n        /* \"AuctionWlady3.sol\":2320:2335  block.timestamp */\n      timestamp\n        /* \"AuctionWlady3.sol\":2320:2352  block.timestamp < auctionEndTime */\n      lt\n        /* \"AuctionWlady3.sol\":2320:2362  block.timestamp < auctionEndTime && !ended */\n      dup1\n      iszero\n      tag_184\n      jumpi\n      pop\n        /* \"AuctionWlady3.sol\":2357:2362  ended */\n      0x04\n      0x14\n      swap1\n      sload\n      swap1\n      0x0100\n      exp\n      swap1\n      div\n      0xff\n      and\n        /* \"AuctionWlady3.sol\":2356:2362  !ended */\n      iszero\n        /* \"AuctionWlady3.sol\":2320:2362  block.timestamp < auctionEndTime && !ended */\n    tag_184:\n        /* \"AuctionWlady3.sol\":2312:2384  require(block.timestamp < auctionEndTime && !ended, \"Auction inactive.\") */\n      tag_185\n      jumpi\n      mload(0x40)\n      0x08c379a000000000000000000000000000000000000000000000000000000000\n      dup2\n      mstore\n      0x04\n      add\n      tag_186\n      swap1\n      tag_123\n      jump\t// in\n    tag_186:\n      mload(0x40)\n      dup1\n      swap2\n      sub\n      swap1\n      revert\n    tag_185:\n        /* \"AuctionWlady3.sol\":7040:7062  uint256 currentDeposit */\n      0x00\n        /* \"AuctionWlady3.sol\":7065:7073  deposits */\n      0x05\n        /* \"AuctionWlady3.sol\":7065:7085  deposits[msg.sender] */\n      0x00\n        /* \"AuctionWlady3.sol\":7074:7084  msg.sender */\n      caller\n        /* \"AuctionWlady3.sol\":7065:7085  deposits[msg.sender] */\n      0xffffffffffffffffffffffffffffffffffffffff\n      and\n      0xffffffffffffffffffffffffffffffffffffffff\n      and\n      dup2\n      mstore\n      0x20\n      add\n      swap1\n      dup2\n      mstore\n      0x20\n      add\n      0x00\n      keccak256\n      sload\n        /* \"AuctionWlady3.sol\":7040:7085  uint256 currentDeposit = deposits[msg.sender] */\n      swap1\n      pop\n        /* \"AuctionWlady3.sol\":7144:7165  uint256 lastBidAmount */\n      0x00\n        /* \"AuctionWlady3.sol\":7168:7176  lastBids */\n      0x06\n        /* \"AuctionWlady3.sol\":7168:7188  lastBids[msg.sender] */\n      0x00\n        /* \"AuctionWlady3.sol\":7177:7187  msg.sender */\n      caller\n        /* \"AuctionWlady3.sol\":7168:7188  lastBids[msg.sender] */\n      0xffffffffffffffffffffffffffffffffffffffff\n      and\n      0xffffffffffffffffffffffffffffffffffffffff\n      and\n      dup2\n      mstore\n      0x20\n      add\n      swap1\n      dup2\n      mstore\n      0x20\n      add\n      0x00\n      keccak256\n        /* \"AuctionWlady3.sol\":7168:7195  lastBids[msg.sender].amount */\n      0x01\n      add\n      sload\n        /* \"AuctionWlady3.sol\":7144:7195  uint256 lastBidAmount = lastBids[msg.sender].amount */\n      swap1\n      pop\n        /* \"AuctionWlady3.sol\":7340:7353  lastBidAmount */\n      dup1\n        /* \"AuctionWlady3.sol\":7323:7337  currentDeposit */\n      dup3\n        /* \"AuctionWlady3.sol\":7323:7353  currentDeposit > lastBidAmount */\n      gt\n        /* \"AuctionWlady3.sol\":7315:7376  require(currentDeposit > lastBidAmount, \"No excess deposit.\") */\n      tag_188\n      jumpi\n      mload(0x40)\n      0x08c379a000000000000000000000000000000000000000000000000000000000\n      dup2\n      mstore\n      0x04\n      add\n      tag_189\n      swap1\n      tag_190\n      jump\t// in\n    tag_189:\n      mload(0x40)\n      dup1\n      swap2\n      sub\n      swap1\n      revert\n    tag_188:\n        /* \"AuctionWlady3.sol\":7462:7486  uint256 amountToWithdraw */\n      0x00\n        /* \"AuctionWlady3.sol\":7506:7519  lastBidAmount */\n      dup2\n        /* \"AuctionWlady3.sol\":7489:7503  currentDeposit */\n      dup4\n        /* \"AuctionWlady3.sol\":7489:7519  currentDeposit - lastBidAmount */\n      tag_191\n      swap2\n      swap1\n      tag_141\n      jump\t// in\n    tag_191:\n        /* \"AuctionWlady3.sol\":7462:7519  uint256 amountToWithdraw = currentDeposit - lastBidAmount */\n      swap1\n      pop\n        /* \"AuctionWlady3.sol\":7703:7716  lastBidAmount */\n      dup2\n        /* \"AuctionWlady3.sol\":7680:7688  deposits */\n      0x05\n        /* \"AuctionWlady3.sol\":7680:7700  deposits[msg.sender] */\n      0x00\n        /* \"AuctionWlady3.sol\":7689:7699  msg.sender */\n      caller\n        /* \"AuctionWlady3.sol\":7680:7700  deposits[msg.sender] */\n      0xffffffffffffffffffffffffffffffffffffffff\n      and\n      0xffffffffffffffffffffffffffffffffffffffff\n      and\n      dup2\n      mstore\n      0x20\n      add\n      swap1\n      dup2\n      mstore\n      0x20\n      add\n      0x00\n      keccak256\n        /* \"AuctionWlady3.sol\":7680:7716  deposits[msg.sender] = lastBidAmount */\n      dup2\n      swap1\n      sstore\n      pop\n        /* \"AuctionWlady3.sol\":7785:7797  bool success */\n      0x00\n        /* \"AuctionWlady3.sol\":7811:7821  msg.sender */\n      caller\n        /* \"AuctionWlady3.sol\":7803:7827  payable(msg.sender).call */\n      0xffffffffffffffffffffffffffffffffffffffff\n      and\n        /* \"AuctionWlady3.sol\":7835:7851  amountToWithdraw */\n      dup3\n        /* \"AuctionWlady3.sol\":7803:7856  payable(msg.sender).call{value: amountToWithdraw}(\"\") */\n      mload(0x40)\n      tag_192\n      swap1\n      tag_168\n      jump\t// in\n    tag_192:\n      0x00\n      mload(0x40)\n      dup1\n      dup4\n      sub\n      dup2\n      dup6\n      dup8\n      gas\n      call\n      swap3\n      pop\n      pop\n      pop\n      returndatasize\n      dup1\n      0x00\n      dup2\n      eq\n      tag_195\n      jumpi\n      mload(0x40)\n      swap2\n      pop\n      and(add(returndatasize, 0x3f), not(0x1f))\n      dup3\n      add\n      0x40\n      mstore\n      returndatasize\n      dup3\n      mstore\n      returndatasize\n      0x00\n      0x20\n      dup5\n      add\n      returndatacopy\n      jump(tag_194)\n    tag_195:\n      0x60\n      swap2\n      pop\n    tag_194:\n      pop\n        /* \"AuctionWlady3.sol\":7784:7856  (bool success, ) = payable(msg.sender).call{value: amountToWithdraw}(\"\") */\n      pop\n      swap1\n      pop\n        /* \"AuctionWlady3.sol\":7875:7882  success */\n      dup1\n        /* \"AuctionWlady3.sol\":7867:7913  require(success, \"Partial withdrawal failed.\") */\n      tag_196\n      jumpi\n      mload(0x40)\n      0x08c379a000000000000000000000000000000000000000000000000000000000\n      dup2\n      mstore\n      0x04\n      add\n      tag_197\n      swap1\n      tag_198\n      jump\t// in\n    tag_197:\n      mload(0x40)\n      dup1\n      swap2\n      sub\n      swap1\n      revert\n    tag_196:\n        /* \"AuctionWlady3.sol\":7949:7959  msg.sender */\n      caller\n        /* \"AuctionWlady3.sol\":7931:7978  PartialWithdrawal(msg.sender, amountToWithdraw) */\n      0xffffffffffffffffffffffffffffffffffffffff\n      and\n      0x8468f8fa62fc679cf8165eab7662a1fa977705b501dd787e9ec07884885425f1\n        /* \"AuctionWlady3.sol\":7961:7977  amountToWithdraw */\n      dup4\n        /* \"AuctionWlady3.sol\":7931:7978  PartialWithdrawal(msg.sender, amountToWithdraw) */\n      mload(0x40)\n      tag_199\n      swap2\n      swap1\n      tag_49\n      jump\t// in\n    tag_199:\n      mload(0x40)\n      dup1\n      swap2\n      sub\n      swap1\n      log2\n        /* \"AuctionWlady3.sol\":6976:7986  {... */\n      pop\n      pop\n      pop\n      pop\n        /* \"AuctionWlady3.sol\":6926:7986  function partialWithdrawal() public auctionActive {... */\n      jump\t// out\n        /* \"AuctionWlady3.sol\":294:319  uint256 public highestBid */\n    tag_86:\n      sload(0x03)\n      dup2\n      jump\t// out\n        /* \"AuctionWlady3.sol\":179:210  uint256 public auctionStartTime */\n    tag_90:\n      sload(0x01)\n      dup2\n      jump\t// out\n        /* \"AuctionWlady3.sol\":664:707  mapping(address => uint256) public deposits */\n    tag_95:\n      mstore(0x20, 0x05)\n      dup1\n      0x00\n      mstore\n      keccak256(0x00, 0x40)\n      0x00\n      swap2\n      pop\n      swap1\n      pop\n      sload\n      dup2\n      jump\t// out\n        /* \"AuctionWlady3.sol\":4158:4359  function endAuction() public {... */\n    tag_99:\n        /* \"AuctionWlady3.sol\":4225:4239  auctionEndTime */\n      sload(0x02)\n        /* \"AuctionWlady3.sol\":4206:4221  block.timestamp */\n      timestamp\n        /* \"AuctionWlady3.sol\":4206:4239  block.timestamp >= auctionEndTime */\n      lt\n      iszero\n        /* \"AuctionWlady3.sol\":4206:4249  block.timestamp >= auctionEndTime && !ended */\n      dup1\n      iszero\n      tag_201\n      jumpi\n      pop\n        /* \"AuctionWlady3.sol\":4244:4249  ended */\n      0x04\n      0x14\n      swap1\n      sload\n      swap1\n      0x0100\n      exp\n      swap1\n      div\n      0xff\n      and\n        /* \"AuctionWlady3.sol\":4243:4249  !ended */\n      iszero\n        /* \"AuctionWlady3.sol\":4206:4249  block.timestamp >= auctionEndTime && !ended */\n    tag_201:\n        /* \"AuctionWlady3.sol\":4198:4273  require(block.timestamp >= auctionEndTime && !ended, \"Cannot end auction.\") */\n      tag_202\n      jumpi\n      mload(0x40)\n      0x08c379a000000000000000000000000000000000000000000000000000000000\n      dup2\n      mstore\n      0x04\n      add\n      tag_203\n      swap1\n      tag_204\n      jump\t// in\n    tag_203:\n      mload(0x40)\n      dup1\n      swap2\n      sub\n      swap1\n      revert\n    tag_202:\n        /* \"AuctionWlady3.sol\":4292:4296  true */\n      0x01\n        /* \"AuctionWlady3.sol\":4284:4289  ended */\n      0x04\n      0x14\n        /* \"AuctionWlady3.sol\":4284:4296  ended = true */\n      0x0100\n      exp\n      dup2\n      sload\n      dup2\n      0xff\n      mul\n      not\n      and\n      swap1\n      dup4\n      iszero\n      iszero\n      mul\n      or\n      swap1\n      sstore\n      pop\n        /* \"AuctionWlady3.sol\":4312:4351  AuctionEnded(highestBidder, highestBid) */\n      0xdaec4582d5d9595688c8c98545fdd1c696d41c6aeaeb636737e84ed2f5c00eda\n        /* \"AuctionWlady3.sol\":4325:4338  highestBidder */\n      0x04\n      0x00\n      swap1\n      sload\n      swap1\n      0x0100\n      exp\n      swap1\n      div\n      0xffffffffffffffffffffffffffffffffffffffff\n      and\n        /* \"AuctionWlady3.sol\":4340:4350  highestBid */\n      sload(0x03)\n        /* \"AuctionWlady3.sol\":4312:4351  AuctionEnded(highestBidder, highestBid) */\n      mload(0x40)\n      tag_205\n      swap3\n      swap2\n      swap1\n      tag_44\n      jump\t// in\n    tag_205:\n      mload(0x40)\n      dup1\n      swap2\n      sub\n      swap1\n      log1\n        /* \"AuctionWlady3.sol\":4158:4359  function endAuction() public {... */\n      jump\t// out\n        /* \"#utility.yul\":7:97   */\n    tag_206:\n        /* \"#utility.yul\":41:48   */\n      0x00\n        /* \"#utility.yul\":84:89   */\n      dup2\n        /* \"#utility.yul\":77:90   */\n      iszero\n        /* \"#utility.yul\":70:91   */\n      iszero\n        /* \"#utility.yul\":59:91   */\n      swap1\n      pop\n        /* \"#utility.yul\":7:97   */\n      swap2\n      swap1\n      pop\n      jump\t// out\n        /* \"#utility.yul\":103:212   */\n    tag_207:\n        /* \"#utility.yul\":184:205   */\n      tag_259\n        /* \"#utility.yul\":199:204   */\n      dup2\n        /* \"#utility.yul\":184:205   */\n      tag_206\n      jump\t// in\n    tag_259:\n        /* \"#utility.yul\":179:182   */\n      dup3\n        /* \"#utility.yul\":172:206   */\n      mstore\n        /* \"#utility.yul\":103:212   */\n      pop\n      pop\n      jump\t// out\n        /* \"#utility.yul\":218:428   */\n    tag_27:\n        /* \"#utility.yul\":305:309   */\n      0x00\n        /* \"#utility.yul\":343:345   */\n      0x20\n        /* \"#utility.yul\":332:341   */\n      dup3\n        /* \"#utility.yul\":328:346   */\n      add\n        /* \"#utility.yul\":320:346   */\n      swap1\n      pop\n        /* \"#utility.yul\":356:421   */\n      tag_261\n        /* \"#utility.yul\":418:419   */\n      0x00\n        /* \"#utility.yul\":407:416   */\n      dup4\n        /* \"#utility.yul\":403:420   */\n      add\n        /* \"#utility.yul\":394:400   */\n      dup5\n        /* \"#utility.yul\":356:421   */\n      tag_207\n      jump\t// in\n    tag_261:\n        /* \"#utility.yul\":218:428   */\n      swap3\n      swap2\n      pop\n      pop\n      jump\t// out\n        /* \"#utility.yul\":434:548   */\n    tag_208:\n        /* \"#utility.yul\":501:507   */\n      0x00\n        /* \"#utility.yul\":535:540   */\n      dup2\n        /* \"#utility.yul\":529:541   */\n      mload\n        /* \"#utility.yul\":519:541   */\n      swap1\n      pop\n        /* \"#utility.yul\":434:548   */\n      swap2\n      swap1\n      pop\n      jump\t// out\n        /* \"#utility.yul\":554:738   */\n    tag_209:\n        /* \"#utility.yul\":653:664   */\n      0x00\n        /* \"#utility.yul\":687:693   */\n      dup3\n        /* \"#utility.yul\":682:685   */\n      dup3\n        /* \"#utility.yul\":675:694   */\n      mstore\n        /* \"#utility.yul\":727:731   */\n      0x20\n        /* \"#utility.yul\":722:725   */\n      dup3\n        /* \"#utility.yul\":718:732   */\n      add\n        /* \"#utility.yul\":703:732   */\n      swap1\n      pop\n        /* \"#utility.yul\":554:738   */\n      swap3\n      swap2\n      pop\n      pop\n      jump\t// out\n        /* \"#utility.yul\":744:876   */\n    tag_210:\n        /* \"#utility.yul\":811:815   */\n      0x00\n        /* \"#utility.yul\":834:837   */\n      dup2\n        /* \"#utility.yul\":826:837   */\n      swap1\n      pop\n        /* \"#utility.yul\":864:868   */\n      0x20\n        /* \"#utility.yul\":859:862   */\n      dup3\n        /* \"#utility.yul\":855:869   */\n      add\n        /* \"#utility.yul\":847:869   */\n      swap1\n      pop\n        /* \"#utility.yul\":744:876   */\n      swap2\n      swap1\n      pop\n      jump\t// out\n        /* \"#utility.yul\":882:1008   */\n    tag_211:\n        /* \"#utility.yul\":919:926   */\n      0x00\n        /* \"#utility.yul\":959:1001   */\n      0xffffffffffffffffffffffffffffffffffffffff\n        /* \"#utility.yul\":952:957   */\n      dup3\n        /* \"#utility.yul\":948:1002   */\n      and\n        /* \"#utility.yul\":937:1002   */\n      swap1\n      pop\n        /* \"#utility.yul\":882:1008   */\n      swap2\n      swap1\n      pop\n      jump\t// out\n        /* \"#utility.yul\":1014:1110   */\n    tag_212:\n        /* \"#utility.yul\":1051:1058   */\n      0x00\n        /* \"#utility.yul\":1080:1104   */\n      tag_267\n        /* \"#utility.yul\":1098:1103   */\n      dup3\n        /* \"#utility.yul\":1080:1104   */\n      tag_211\n      jump\t// in\n    tag_267:\n        /* \"#utility.yul\":1069:1104   */\n      swap1\n      pop\n        /* \"#utility.yul\":1014:1110   */\n      swap2\n      swap1\n      pop\n      jump\t// out\n        /* \"#utility.yul\":1116:1224   */\n    tag_213:\n        /* \"#utility.yul\":1193:1217   */\n      tag_269\n        /* \"#utility.yul\":1211:1216   */\n      dup2\n        /* \"#utility.yul\":1193:1217   */\n      tag_212\n      jump\t// in\n    tag_269:\n        /* \"#utility.yul\":1188:1191   */\n      dup3\n        /* \"#utility.yul\":1181:1218   */\n      mstore\n        /* \"#utility.yul\":1116:1224   */\n      pop\n      pop\n      jump\t// out\n        /* \"#utility.yul\":1230:1409   */\n    tag_214:\n        /* \"#utility.yul\":1299:1309   */\n      0x00\n        /* \"#utility.yul\":1320:1366   */\n      tag_271\n        /* \"#utility.yul\":1362:1365   */\n      dup4\n        /* \"#utility.yul\":1354:1360   */\n      dup4\n        /* \"#utility.yul\":1320:1366   */\n      tag_213\n      jump\t// in\n    tag_271:\n        /* \"#utility.yul\":1398:1402   */\n      0x20\n        /* \"#utility.yul\":1393:1396   */\n      dup4\n        /* \"#utility.yul\":1389:1403   */\n      add\n        /* \"#utility.yul\":1375:1403   */\n      swap1\n      pop\n        /* \"#utility.yul\":1230:1409   */\n      swap3\n      swap2\n      pop\n      pop\n      jump\t// out\n        /* \"#utility.yul\":1415:1528   */\n    tag_215:\n        /* \"#utility.yul\":1485:1489   */\n      0x00\n        /* \"#utility.yul\":1517:1521   */\n      0x20\n        /* \"#utility.yul\":1512:1515   */\n      dup3\n        /* \"#utility.yul\":1508:1522   */\n      add\n        /* \"#utility.yul\":1500:1522   */\n      swap1\n      pop\n        /* \"#utility.yul\":1415:1528   */\n      swap2\n      swap1\n      pop\n      jump\t// out\n        /* \"#utility.yul\":1564:2296   */\n    tag_216:\n        /* \"#utility.yul\":1683:1686   */\n      0x00\n        /* \"#utility.yul\":1712:1766   */\n      tag_274\n        /* \"#utility.yul\":1760:1765   */\n      dup3\n        /* \"#utility.yul\":1712:1766   */\n      tag_208\n      jump\t// in\n    tag_274:\n        /* \"#utility.yul\":1782:1868   */\n      tag_275\n        /* \"#utility.yul\":1861:1867   */\n      dup2\n        /* \"#utility.yul\":1856:1859   */\n      dup6\n        /* \"#utility.yul\":1782:1868   */\n      tag_209\n      jump\t// in\n    tag_275:\n        /* \"#utility.yul\":1775:1868   */\n      swap4\n      pop\n        /* \"#utility.yul\":1892:1948   */\n      tag_276\n        /* \"#utility.yul\":1942:1947   */\n      dup4\n        /* \"#utility.yul\":1892:1948   */\n      tag_210\n      jump\t// in\n    tag_276:\n        /* \"#utility.yul\":1971:1978   */\n      dup1\n        /* \"#utility.yul\":2002:2003   */\n      0x00\n        /* \"#utility.yul\":1987:2271   */\n    tag_277:\n        /* \"#utility.yul\":2012:2018   */\n      dup4\n        /* \"#utility.yul\":2009:2010   */\n      dup2\n        /* \"#utility.yul\":2006:2019   */\n      lt\n        /* \"#utility.yul\":1987:2271   */\n      iszero\n      tag_279\n      jumpi\n        /* \"#utility.yul\":2088:2094   */\n      dup2\n        /* \"#utility.yul\":2082:2095   */\n      mload\n        /* \"#utility.yul\":2115:2178   */\n      tag_280\n        /* \"#utility.yul\":2174:2177   */\n      dup9\n        /* \"#utility.yul\":2159:2172   */\n      dup3\n        /* \"#utility.yul\":2115:2178   */\n      tag_214\n      jump\t// in\n    tag_280:\n        /* \"#utility.yul\":2108:2178   */\n      swap8\n      pop\n        /* \"#utility.yul\":2201:2261   */\n      tag_281\n        /* \"#utility.yul\":2254:2260   */\n      dup4\n        /* \"#utility.yul\":2201:2261   */\n      tag_215\n      jump\t// in\n    tag_281:\n        /* \"#utility.yul\":2191:2261   */\n      swap3\n      pop\n        /* \"#utility.yul\":2047:2271   */\n      pop\n        /* \"#utility.yul\":2034:2035   */\n      0x01\n        /* \"#utility.yul\":2031:2032   */\n      dup2\n        /* \"#utility.yul\":2027:2036   */\n      add\n        /* \"#utility.yul\":2022:2036   */\n      swap1\n      pop\n        /* \"#utility.yul\":1987:2271   */\n      jump(tag_277)\n    tag_279:\n        /* \"#utility.yul\":1991:2005   */\n      pop\n        /* \"#utility.yul\":2287:2290   */\n      dup6\n        /* \"#utility.yul\":2280:2290   */\n      swap4\n      pop\n        /* \"#utility.yul\":1688:2296   */\n      pop\n      pop\n      pop\n        /* \"#utility.yul\":1564:2296   */\n      swap3\n      swap2\n      pop\n      pop\n      jump\t// out\n        /* \"#utility.yul\":2302:2416   */\n    tag_217:\n        /* \"#utility.yul\":2369:2375   */\n      0x00\n        /* \"#utility.yul\":2403:2408   */\n      dup2\n        /* \"#utility.yul\":2397:2409   */\n      mload\n        /* \"#utility.yul\":2387:2409   */\n      swap1\n      pop\n        /* \"#utility.yul\":2302:2416   */\n      swap2\n      swap1\n      pop\n      jump\t// out\n        /* \"#utility.yul\":2422:2606   */\n    tag_218:\n        /* \"#utility.yul\":2521:2532   */\n      0x00\n        /* \"#utility.yul\":2555:2561   */\n      dup3\n        /* \"#utility.yul\":2550:2553   */\n      dup3\n        /* \"#utility.yul\":2543:2562   */\n      mstore\n        /* \"#utility.yul\":2595:2599   */\n      0x20\n        /* \"#utility.yul\":2590:2593   */\n      dup3\n        /* \"#utility.yul\":2586:2600   */\n      add\n        /* \"#utility.yul\":2571:2600   */\n      swap1\n      pop\n        /* \"#utility.yul\":2422:2606   */\n      swap3\n      swap2\n      pop\n      pop\n      jump\t// out\n        /* \"#utility.yul\":2612:2744   */\n    tag_219:\n        /* \"#utility.yul\":2679:2683   */\n      0x00\n        /* \"#utility.yul\":2702:2705   */\n      dup2\n        /* \"#utility.yul\":2694:2705   */\n      swap1\n      pop\n        /* \"#utility.yul\":2732:2736   */\n      0x20\n        /* \"#utility.yul\":2727:2730   */\n      dup3\n        /* \"#utility.yul\":2723:2737   */\n      add\n        /* \"#utility.yul\":2715:2737   */\n      swap1\n      pop\n        /* \"#utility.yul\":2612:2744   */\n      swap2\n      swap1\n      pop\n      jump\t// out\n        /* \"#utility.yul\":2750:2827   */\n    tag_220:\n        /* \"#utility.yul\":2787:2794   */\n      0x00\n        /* \"#utility.yul\":2816:2821   */\n      dup2\n        /* \"#utility.yul\":2805:2821   */\n      swap1\n      pop\n        /* \"#utility.yul\":2750:2827   */\n      swap2\n      swap1\n      pop\n      jump\t// out\n        /* \"#utility.yul\":2833:2941   */\n    tag_221:\n        /* \"#utility.yul\":2910:2934   */\n      tag_287\n        /* \"#utility.yul\":2928:2933   */\n      dup2\n        /* \"#utility.yul\":2910:2934   */\n      tag_220\n      jump\t// in\n    tag_287:\n        /* \"#utility.yul\":2905:2908   */\n      dup3\n        /* \"#utility.yul\":2898:2935   */\n      mstore\n        /* \"#utility.yul\":2833:2941   */\n      pop\n      pop\n      jump\t// out\n        /* \"#utility.yul\":2947:3126   */\n    tag_222:\n        /* \"#utility.yul\":3016:3026   */\n      0x00\n        /* \"#utility.yul\":3037:3083   */\n      tag_289\n        /* \"#utility.yul\":3079:3082   */\n      dup4\n        /* \"#utility.yul\":3071:3077   */\n      dup4\n        /* \"#utility.yul\":3037:3083   */\n      tag_221\n      jump\t// in\n    tag_289:\n        /* \"#utility.yul\":3115:3119   */\n      0x20\n        /* \"#utility.yul\":3110:3113   */\n      dup4\n        /* \"#utility.yul\":3106:3120   */\n      add\n        /* \"#utility.yul\":3092:3120   */\n      swap1\n      pop\n        /* \"#utility.yul\":2947:3126   */\n      swap3\n      swap2\n      pop\n      pop\n      jump\t// out\n        /* \"#utility.yul\":3132:3245   */\n    tag_223:\n        /* \"#utility.yul\":3202:3206   */\n      0x00\n        /* \"#utility.yul\":3234:3238   */\n      0x20\n        /* \"#utility.yul\":3229:3232   */\n      dup3\n        /* \"#utility.yul\":3225:3239   */\n      add\n        /* \"#utility.yul\":3217:3239   */\n      swap1\n      pop\n        /* \"#utility.yul\":3132:3245   */\n      swap2\n      swap1\n      pop\n      jump\t// out\n        /* \"#utility.yul\":3281:4013   */\n    tag_224:\n        /* \"#utility.yul\":3400:3403   */\n      0x00\n        /* \"#utility.yul\":3429:3483   */\n      tag_292\n        /* \"#utility.yul\":3477:3482   */\n      dup3\n        /* \"#utility.yul\":3429:3483   */\n      tag_217\n      jump\t// in\n    tag_292:\n        /* \"#utility.yul\":3499:3585   */\n      tag_293\n        /* \"#utility.yul\":3578:3584   */\n      dup2\n        /* \"#utility.yul\":3573:3576   */\n      dup6\n        /* \"#utility.yul\":3499:3585   */\n      tag_218\n      jump\t// in\n    tag_293:\n        /* \"#utility.yul\":3492:3585   */\n      swap4\n      pop\n        /* \"#utility.yul\":3609:3665   */\n      tag_294\n        /* \"#utility.yul\":3659:3664   */\n      dup4\n        /* \"#utility.yul\":3609:3665   */\n      tag_219\n      jump\t// in\n    tag_294:\n        /* \"#utility.yul\":3688:3695   */\n      dup1\n        /* \"#utility.yul\":3719:3720   */\n      0x00\n        /* \"#utility.yul\":3704:3988   */\n    tag_295:\n        /* \"#utility.yul\":3729:3735   */\n      dup4\n        /* \"#utility.yul\":3726:3727   */\n      dup2\n        /* \"#utility.yul\":3723:3736   */\n      lt\n        /* \"#utility.yul\":3704:3988   */\n      iszero\n      tag_297\n      jumpi\n        /* \"#utility.yul\":3805:3811   */\n      dup2\n        /* \"#utility.yul\":3799:3812   */\n      mload\n        /* \"#utility.yul\":3832:3895   */\n      tag_298\n        /* \"#utility.yul\":3891:3894   */\n      dup9\n        /* \"#utility.yul\":3876:3889   */\n      dup3\n        /* \"#utility.yul\":3832:3895   */\n      tag_222\n      jump\t// in\n    tag_298:\n        /* \"#utility.yul\":3825:3895   */\n      swap8\n      pop\n        /* \"#utility.yul\":3918:3978   */\n      tag_299\n        /* \"#utility.yul\":3971:3977   */\n      dup4\n        /* \"#utility.yul\":3918:3978   */\n      tag_223\n      jump\t// in\n    tag_299:\n        /* \"#utility.yul\":3908:3978   */\n      swap3\n      pop\n        /* \"#utility.yul\":3764:3988   */\n      pop\n        /* \"#utility.yul\":3751:3752   */\n      0x01\n        /* \"#utility.yul\":3748:3749   */\n      dup2\n        /* \"#utility.yul\":3744:3753   */\n      add\n        /* \"#utility.yul\":3739:3753   */\n      swap1\n      pop\n        /* \"#utility.yul\":3704:3988   */\n      jump(tag_295)\n    tag_297:\n        /* \"#utility.yul\":3708:3722   */\n      pop\n        /* \"#utility.yul\":4004:4007   */\n      dup6\n        /* \"#utility.yul\":3997:4007   */\n      swap4\n      pop\n        /* \"#utility.yul\":3405:4013   */\n      pop\n      pop\n      pop\n        /* \"#utility.yul\":3281:4013   */\n      swap3\n      swap2\n      pop\n      pop\n      jump\t// out\n        /* \"#utility.yul\":4019:4653   */\n    tag_32:\n        /* \"#utility.yul\":4240:4244   */\n      0x00\n        /* \"#utility.yul\":4278:4280   */\n      0x40\n        /* \"#utility.yul\":4267:4276   */\n      dup3\n        /* \"#utility.yul\":4263:4281   */\n      add\n        /* \"#utility.yul\":4255:4281   */\n      swap1\n      pop\n        /* \"#utility.yul\":4327:4336   */\n      dup2\n        /* \"#utility.yul\":4321:4325   */\n      dup2\n        /* \"#utility.yul\":4317:4337   */\n      sub\n        /* \"#utility.yul\":4313:4314   */\n      0x00\n        /* \"#utility.yul\":4302:4311   */\n      dup4\n        /* \"#utility.yul\":4298:4315   */\n      add\n        /* \"#utility.yul\":4291:4338   */\n      mstore\n        /* \"#utility.yul\":4355:4463   */\n      tag_301\n        /* \"#utility.yul\":4458:4462   */\n      dup2\n        /* \"#utility.yul\":4449:4455   */\n      dup6\n        /* \"#utility.yul\":4355:4463   */\n      tag_216\n      jump\t// in\n    tag_301:\n        /* \"#utility.yul\":4347:4463   */\n      swap1\n      pop\n        /* \"#utility.yul\":4510:4519   */\n      dup2\n        /* \"#utility.yul\":4504:4508   */\n      dup2\n        /* \"#utility.yul\":4500:4520   */\n      sub\n        /* \"#utility.yul\":4495:4497   */\n      0x20\n        /* \"#utility.yul\":4484:4493   */\n      dup4\n        /* \"#utility.yul\":4480:4498   */\n      add\n        /* \"#utility.yul\":4473:4521   */\n      mstore\n        /* \"#utility.yul\":4538:4646   */\n      tag_302\n        /* \"#utility.yul\":4641:4645   */\n      dup2\n        /* \"#utility.yul\":4632:4638   */\n      dup5\n        /* \"#utility.yul\":4538:4646   */\n      tag_224\n      jump\t// in\n    tag_302:\n        /* \"#utility.yul\":4530:4646   */\n      swap1\n      pop\n        /* \"#utility.yul\":4019:4653   */\n      swap4\n      swap3\n      pop\n      pop\n      pop\n      jump\t// out\n        /* \"#utility.yul\":4740:4857   */\n    tag_226:\n        /* \"#utility.yul\":4849:4850   */\n      0x00\n        /* \"#utility.yul\":4846:4847   */\n      0x00\n        /* \"#utility.yul\":4839:4851   */\n      revert\n        /* \"#utility.yul\":4986:5108   */\n    tag_228:\n        /* \"#utility.yul\":5059:5083   */\n      tag_307\n        /* \"#utility.yul\":5077:5082   */\n      dup2\n        /* \"#utility.yul\":5059:5083   */\n      tag_212\n      jump\t// in\n    tag_307:\n        /* \"#utility.yul\":5052:5057   */\n      dup2\n        /* \"#utility.yul\":5049:5084   */\n      eq\n        /* \"#utility.yul\":5039:5102   */\n      tag_308\n      jumpi\n        /* \"#utility.yul\":5098:5099   */\n      0x00\n        /* \"#utility.yul\":5095:5096   */\n      0x00\n        /* \"#utility.yul\":5088:5100   */\n      revert\n        /* \"#utility.yul\":5039:5102   */\n    tag_308:\n        /* \"#utility.yul\":4986:5108   */\n      pop\n      jump\t// out\n        /* \"#utility.yul\":5114:5253   */\n    tag_229:\n        /* \"#utility.yul\":5160:5165   */\n      0x00\n        /* \"#utility.yul\":5198:5204   */\n      dup2\n        /* \"#utility.yul\":5185:5205   */\n      calldataload\n        /* \"#utility.yul\":5176:5205   */\n      swap1\n      pop\n        /* \"#utility.yul\":5214:5247   */\n      tag_310\n        /* \"#utility.yul\":5241:5246   */\n      dup2\n        /* \"#utility.yul\":5214:5247   */\n      tag_228\n      jump\t// in\n    tag_310:\n        /* \"#utility.yul\":5114:5253   */\n      swap3\n      swap2\n      pop\n      pop\n      jump\t// out\n        /* \"#utility.yul\":5259:5588   */\n    tag_41:\n        /* \"#utility.yul\":5318:5324   */\n      0x00\n        /* \"#utility.yul\":5367:5369   */\n      0x20\n        /* \"#utility.yul\":5355:5364   */\n      dup3\n        /* \"#utility.yul\":5346:5353   */\n      dup5\n        /* \"#utility.yul\":5342:5365   */\n      sub\n        /* \"#utility.yul\":5338:5370   */\n      slt\n        /* \"#utility.yul\":5335:5454   */\n      iszero\n      tag_312\n      jumpi\n        /* \"#utility.yul\":5373:5452   */\n      tag_313\n      tag_226\n      jump\t// in\n    tag_313:\n        /* \"#utility.yul\":5335:5454   */\n    tag_312:\n        /* \"#utility.yul\":5493:5494   */\n      0x00\n        /* \"#utility.yul\":5518:5571   */\n      tag_314\n        /* \"#utility.yul\":5563:5570   */\n      dup5\n        /* \"#utility.yul\":5554:5560   */\n      dup3\n        /* \"#utility.yul\":5543:5552   */\n      dup6\n        /* \"#utility.yul\":5539:5561   */\n      add\n        /* \"#utility.yul\":5518:5571   */\n      tag_229\n      jump\t// in\n    tag_314:\n        /* \"#utility.yul\":5508:5571   */\n      swap2\n      pop\n        /* \"#utility.yul\":5464:5581   */\n      pop\n        /* \"#utility.yul\":5259:5588   */\n      swap3\n      swap2\n      pop\n      pop\n      jump\t// out\n        /* \"#utility.yul\":5594:5712   */\n    tag_230:\n        /* \"#utility.yul\":5681:5705   */\n      tag_316\n        /* \"#utility.yul\":5699:5704   */\n      dup2\n        /* \"#utility.yul\":5681:5705   */\n      tag_212\n      jump\t// in\n    tag_316:\n        /* \"#utility.yul\":5676:5679   */\n      dup3\n        /* \"#utility.yul\":5669:5706   */\n      mstore\n        /* \"#utility.yul\":5594:5712   */\n      pop\n      pop\n      jump\t// out\n        /* \"#utility.yul\":5718:5836   */\n    tag_231:\n        /* \"#utility.yul\":5805:5829   */\n      tag_318\n        /* \"#utility.yul\":5823:5828   */\n      dup2\n        /* \"#utility.yul\":5805:5829   */\n      tag_220\n      jump\t// in\n    tag_318:\n        /* \"#utility.yul\":5800:5803   */\n      dup3\n        /* \"#utility.yul\":5793:5830   */\n      mstore\n        /* \"#utility.yul\":5718:5836   */\n      pop\n      pop\n      jump\t// out\n        /* \"#utility.yul\":5842:6174   */\n    tag_44:\n        /* \"#utility.yul\":5963:5967   */\n      0x00\n        /* \"#utility.yul\":6001:6003   */\n      0x40\n        /* \"#utility.yul\":5990:5999   */\n      dup3\n        /* \"#utility.yul\":5986:6004   */\n      add\n        /* \"#utility.yul\":5978:6004   */\n      swap1\n      pop\n        /* \"#utility.yul\":6014:6085   */\n      tag_320\n        /* \"#utility.yul\":6082:6083   */\n      0x00\n        /* \"#utility.yul\":6071:6080   */\n      dup4\n        /* \"#utility.yul\":6067:6084   */\n      add\n        /* \"#utility.yul\":6058:6064   */\n      dup6\n        /* \"#utility.yul\":6014:6085   */\n      tag_230\n      jump\t// in\n    tag_320:\n        /* \"#utility.yul\":6095:6167   */\n      tag_321\n        /* \"#utility.yul\":6163:6165   */\n      0x20\n        /* \"#utility.yul\":6152:6161   */\n      dup4\n        /* \"#utility.yul\":6148:6166   */\n      add\n        /* \"#utility.yul\":6139:6145   */\n      dup5\n        /* \"#utility.yul\":6095:6167   */\n      tag_231\n      jump\t// in\n    tag_321:\n        /* \"#utility.yul\":5842:6174   */\n      swap4\n      swap3\n      pop\n      pop\n      pop\n      jump\t// out\n        /* \"#utility.yul\":6180:6402   */\n    tag_49:\n        /* \"#utility.yul\":6273:6277   */\n      0x00\n        /* \"#utility.yul\":6311:6313   */\n      0x20\n        /* \"#utility.yul\":6300:6309   */\n      dup3\n        /* \"#utility.yul\":6296:6314   */\n      add\n        /* \"#utility.yul\":6288:6314   */\n      swap1\n      pop\n        /* \"#utility.yul\":6324:6395   */\n      tag_323\n        /* \"#utility.yul\":6392:6393   */\n      0x00\n        /* \"#utility.yul\":6381:6390   */\n      dup4\n        /* \"#utility.yul\":6377:6394   */\n      add\n        /* \"#utility.yul\":6368:6374   */\n      dup5\n        /* \"#utility.yul\":6324:6395   */\n      tag_231\n      jump\t// in\n    tag_323:\n        /* \"#utility.yul\":6180:6402   */\n      swap3\n      swap2\n      pop\n      pop\n      jump\t// out\n        /* \"#utility.yul\":6408:6630   */\n    tag_58:\n        /* \"#utility.yul\":6501:6505   */\n      0x00\n        /* \"#utility.yul\":6539:6541   */\n      0x20\n        /* \"#utility.yul\":6528:6537   */\n      dup3\n        /* \"#utility.yul\":6524:6542   */\n      add\n        /* \"#utility.yul\":6516:6542   */\n      swap1\n      pop\n        /* \"#utility.yul\":6552:6623   */\n      tag_325\n        /* \"#utility.yul\":6620:6621   */\n      0x00\n        /* \"#utility.yul\":6609:6618   */\n      dup4\n        /* \"#utility.yul\":6605:6622   */\n      add\n        /* \"#utility.yul\":6596:6602   */\n      dup5\n        /* \"#utility.yul\":6552:6623   */\n      tag_230\n      jump\t// in\n    tag_325:\n        /* \"#utility.yul\":6408:6630   */\n      swap3\n      swap2\n      pop\n      pop\n      jump\t// out\n        /* \"#utility.yul\":6636:6758   */\n    tag_232:\n        /* \"#utility.yul\":6709:6733   */\n      tag_327\n        /* \"#utility.yul\":6727:6732   */\n      dup2\n        /* \"#utility.yul\":6709:6733   */\n      tag_220\n      jump\t// in\n    tag_327:\n        /* \"#utility.yul\":6702:6707   */\n      dup2\n        /* \"#utility.yul\":6699:6734   */\n      eq\n        /* \"#utility.yul\":6689:6752   */\n      tag_328\n      jumpi\n        /* \"#utility.yul\":6748:6749   */\n      0x00\n        /* \"#utility.yul\":6745:6746   */\n      0x00\n        /* \"#utility.yul\":6738:6750   */\n      revert\n        /* \"#utility.yul\":6689:6752   */\n    tag_328:\n        /* \"#utility.yul\":6636:6758   */\n      pop\n      jump\t// out\n        /* \"#utility.yul\":6764:6903   */\n    tag_233:\n        /* \"#utility.yul\":6810:6815   */\n      0x00\n        /* \"#utility.yul\":6848:6854   */\n      dup2\n        /* \"#utility.yul\":6835:6855   */\n      calldataload\n        /* \"#utility.yul\":6826:6855   */\n      swap1\n      pop\n        /* \"#utility.yul\":6864:6897   */\n      tag_330\n        /* \"#utility.yul\":6891:6896   */\n      dup2\n        /* \"#utility.yul\":6864:6897   */\n      tag_232\n      jump\t// in\n    tag_330:\n        /* \"#utility.yul\":6764:6903   */\n      swap3\n      swap2\n      pop\n      pop\n      jump\t// out\n        /* \"#utility.yul\":6909:7238   */\n    tag_66:\n        /* \"#utility.yul\":6968:6974   */\n      0x00\n        /* \"#utility.yul\":7017:7019   */\n      0x20\n        /* \"#utility.yul\":7005:7014   */\n      dup3\n        /* \"#utility.yul\":6996:7003   */\n      dup5\n        /* \"#utility.yul\":6992:7015   */\n      sub\n        /* \"#utility.yul\":6988:7020   */\n      slt\n        /* \"#utility.yul\":6985:7104   */\n      iszero\n      tag_332\n      jumpi\n        /* \"#utility.yul\":7023:7102   */\n      tag_333\n      tag_226\n      jump\t// in\n    tag_333:\n        /* \"#utility.yul\":6985:7104   */\n    tag_332:\n        /* \"#utility.yul\":7143:7144   */\n      0x00\n        /* \"#utility.yul\":7168:7221   */\n      tag_334\n        /* \"#utility.yul\":7213:7220   */\n      dup5\n        /* \"#utility.yul\":7204:7210   */\n      dup3\n        /* \"#utility.yul\":7193:7202   */\n      dup6\n        /* \"#utility.yul\":7189:7211   */\n      add\n        /* \"#utility.yul\":7168:7221   */\n      tag_233\n      jump\t// in\n    tag_334:\n        /* \"#utility.yul\":7158:7221   */\n      swap2\n      pop\n        /* \"#utility.yul\":7114:7231   */\n      pop\n        /* \"#utility.yul\":6909:7238   */\n      swap3\n      swap2\n      pop\n      pop\n      jump\t// out\n        /* \"#utility.yul\":7244:7424   */\n    tag_103:\n        /* \"#utility.yul\":7292:7369   */\n      0x4e487b7100000000000000000000000000000000000000000000000000000000\n        /* \"#utility.yul\":7289:7290   */\n      0x00\n        /* \"#utility.yul\":7282:7370   */\n      mstore\n        /* \"#utility.yul\":7389:7393   */\n      0x41\n        /* \"#utility.yul\":7386:7387   */\n      0x04\n        /* \"#utility.yul\":7379:7394   */\n      mstore\n        /* \"#utility.yul\":7413:7417   */\n      0x24\n        /* \"#utility.yul\":7410:7411   */\n      0x00\n        /* \"#utility.yul\":7403:7418   */\n      revert\n        /* \"#utility.yul\":7430:7610   */\n    tag_113:\n        /* \"#utility.yul\":7478:7555   */\n      0x4e487b7100000000000000000000000000000000000000000000000000000000\n        /* \"#utility.yul\":7475:7476   */\n      0x00\n        /* \"#utility.yul\":7468:7556   */\n      mstore\n        /* \"#utility.yul\":7575:7579   */\n      0x32\n        /* \"#utility.yul\":7572:7573   */\n      0x04\n        /* \"#utility.yul\":7565:7580   */\n      mstore\n        /* \"#utility.yul\":7599:7603   */\n      0x24\n        /* \"#utility.yul\":7596:7597   */\n      0x00\n        /* \"#utility.yul\":7589:7604   */\n      revert\n        /* \"#utility.yul\":7616:7785   */\n    tag_234:\n        /* \"#utility.yul\":7700:7711   */\n      0x00\n        /* \"#utility.yul\":7734:7740   */\n      dup3\n        /* \"#utility.yul\":7729:7732   */\n      dup3\n        /* \"#utility.yul\":7722:7741   */\n      mstore\n        /* \"#utility.yul\":7774:7778   */\n      0x20\n        /* \"#utility.yul\":7769:7772   */\n      dup3\n        /* \"#utility.yul\":7765:7779   */\n      add\n        /* \"#utility.yul\":7750:7779   */\n      swap1\n      pop\n        /* \"#utility.yul\":7616:7785   */\n      swap3\n      swap2\n      pop\n      pop\n      jump\t// out\n        /* \"#utility.yul\":7791:7958   */\n    tag_235:\n        /* \"#utility.yul\":7931:7950   */\n      0x41756374696f6e20696e6163746976652e000000000000000000000000000000\n        /* \"#utility.yul\":7927:7928   */\n      0x00\n        /* \"#utility.yul\":7919:7925   */\n      dup3\n        /* \"#utility.yul\":7915:7929   */\n      add\n        /* \"#utility.yul\":7908:7951   */\n      mstore\n        /* \"#utility.yul\":7791:7958   */\n      pop\n      jump\t// out\n        /* \"#utility.yul\":7964:8330   */\n    tag_236:\n        /* \"#utility.yul\":8106:8109   */\n      0x00\n        /* \"#utility.yul\":8127:8194   */\n      tag_340\n        /* \"#utility.yul\":8191:8193   */\n      0x11\n        /* \"#utility.yul\":8186:8189   */\n      dup4\n        /* \"#utility.yul\":8127:8194   */\n      tag_234\n      jump\t// in\n    tag_340:\n        /* \"#utility.yul\":8120:8194   */\n      swap2\n      pop\n        /* \"#utility.yul\":8203:8296   */\n      tag_341\n        /* \"#utility.yul\":8292:8295   */\n      dup3\n        /* \"#utility.yul\":8203:8296   */\n      tag_235\n      jump\t// in\n    tag_341:\n        /* \"#utility.yul\":8321:8323   */\n      0x20\n        /* \"#utility.yul\":8316:8319   */\n      dup3\n        /* \"#utility.yul\":8312:8324   */\n      add\n        /* \"#utility.yul\":8305:8324   */\n      swap1\n      pop\n        /* \"#utility.yul\":7964:8330   */\n      swap2\n      swap1\n      pop\n      jump\t// out\n        /* \"#utility.yul\":8336:8755   */\n    tag_123:\n        /* \"#utility.yul\":8502:8506   */\n      0x00\n        /* \"#utility.yul\":8540:8542   */\n      0x20\n        /* \"#utility.yul\":8529:8538   */\n      dup3\n        /* \"#utility.yul\":8525:8543   */\n      add\n        /* \"#utility.yul\":8517:8543   */\n      swap1\n      pop\n        /* \"#utility.yul\":8589:8598   */\n      dup2\n        /* \"#utility.yul\":8583:8587   */\n      dup2\n        /* \"#utility.yul\":8579:8599   */\n      sub\n        /* \"#utility.yul\":8575:8576   */\n      0x00\n        /* \"#utility.yul\":8564:8573   */\n      dup4\n        /* \"#utility.yul\":8560:8577   */\n      add\n        /* \"#utility.yul\":8553:8600   */\n      mstore\n        /* \"#utility.yul\":8617:8748   */\n      tag_343\n        /* \"#utility.yul\":8743:8747   */\n      dup2\n        /* \"#utility.yul\":8617:8748   */\n      tag_236\n      jump\t// in\n    tag_343:\n        /* \"#utility.yul\":8609:8748   */\n      swap1\n      pop\n        /* \"#utility.yul\":8336:8755   */\n      swap2\n      swap1\n      pop\n      jump\t// out\n        /* \"#utility.yul\":8761:8941   */\n    tag_237:\n        /* \"#utility.yul\":8809:8886   */\n      0x4e487b7100000000000000000000000000000000000000000000000000000000\n        /* \"#utility.yul\":8806:8807   */\n      0x00\n        /* \"#utility.yul\":8799:8887   */\n      mstore\n        /* \"#utility.yul\":8906:8910   */\n      0x11\n        /* \"#utility.yul\":8903:8904   */\n      0x04\n        /* \"#utility.yul\":8896:8911   */\n      mstore\n        /* \"#utility.yul\":8930:8934   */\n      0x24\n        /* \"#utility.yul\":8927:8928   */\n      0x00\n        /* \"#utility.yul\":8920:8935   */\n      revert\n        /* \"#utility.yul\":8947:9357   */\n    tag_126:\n        /* \"#utility.yul\":8987:8994   */\n      0x00\n        /* \"#utility.yul\":9010:9030   */\n      tag_346\n        /* \"#utility.yul\":9028:9029   */\n      dup3\n        /* \"#utility.yul\":9010:9030   */\n      tag_220\n      jump\t// in\n    tag_346:\n        /* \"#utility.yul\":9005:9030   */\n      swap2\n      pop\n        /* \"#utility.yul\":9044:9064   */\n      tag_347\n        /* \"#utility.yul\":9062:9063   */\n      dup4\n        /* \"#utility.yul\":9044:9064   */\n      tag_220\n      jump\t// in\n    tag_347:\n        /* \"#utility.yul\":9039:9064   */\n      swap3\n      pop\n        /* \"#utility.yul\":9099:9100   */\n      dup3\n        /* \"#utility.yul\":9096:9097   */\n      dup3\n        /* \"#utility.yul\":9092:9101   */\n      mul\n        /* \"#utility.yul\":9121:9151   */\n      tag_348\n        /* \"#utility.yul\":9139:9150   */\n      dup2\n        /* \"#utility.yul\":9121:9151   */\n      tag_220\n      jump\t// in\n    tag_348:\n        /* \"#utility.yul\":9110:9151   */\n      swap2\n      pop\n        /* \"#utility.yul\":9300:9301   */\n      dup3\n        /* \"#utility.yul\":9291:9298   */\n      dup3\n        /* \"#utility.yul\":9287:9302   */\n      div\n        /* \"#utility.yul\":9284:9285   */\n      dup5\n        /* \"#utility.yul\":9281:9303   */\n      eq\n        /* \"#utility.yul\":9261:9262   */\n      dup4\n        /* \"#utility.yul\":9254:9263   */\n      iszero\n        /* \"#utility.yul\":9234:9317   */\n      or\n        /* \"#utility.yul\":9211:9350   */\n      tag_349\n      jumpi\n        /* \"#utility.yul\":9330:9348   */\n      tag_350\n      tag_237\n      jump\t// in\n    tag_350:\n        /* \"#utility.yul\":9211:9350   */\n    tag_349:\n        /* \"#utility.yul\":8995:9357   */\n      pop\n        /* \"#utility.yul\":8947:9357   */\n      swap3\n      swap2\n      pop\n      pop\n      jump\t// out\n        /* \"#utility.yul\":9363:9543   */\n    tag_238:\n        /* \"#utility.yul\":9411:9488   */\n      0x4e487b7100000000000000000000000000000000000000000000000000000000\n        /* \"#utility.yul\":9408:9409   */\n      0x00\n        /* \"#utility.yul\":9401:9489   */\n      mstore\n        /* \"#utility.yul\":9508:9512   */\n      0x12\n        /* \"#utility.yul\":9505:9506   */\n      0x04\n        /* \"#utility.yul\":9498:9513   */\n      mstore\n        /* \"#utility.yul\":9532:9536   */\n      0x24\n        /* \"#utility.yul\":9529:9530   */\n      0x00\n        /* \"#utility.yul\":9522:9537   */\n      revert\n        /* \"#utility.yul\":9549:9734   */\n    tag_128:\n        /* \"#utility.yul\":9589:9590   */\n      0x00\n        /* \"#utility.yul\":9606:9626   */\n      tag_353\n        /* \"#utility.yul\":9624:9625   */\n      dup3\n        /* \"#utility.yul\":9606:9626   */\n      tag_220\n      jump\t// in\n    tag_353:\n        /* \"#utility.yul\":9601:9626   */\n      swap2\n      pop\n        /* \"#utility.yul\":9640:9660   */\n      tag_354\n        /* \"#utility.yul\":9658:9659   */\n      dup4\n        /* \"#utility.yul\":9640:9660   */\n      tag_220\n      jump\t// in\n    tag_354:\n        /* \"#utility.yul\":9635:9660   */\n      swap3\n      pop\n        /* \"#utility.yul\":9679:9680   */\n      dup3\n        /* \"#utility.yul\":9669:9704   */\n      tag_355\n      jumpi\n        /* \"#utility.yul\":9684:9702   */\n      tag_356\n      tag_238\n      jump\t// in\n    tag_356:\n        /* \"#utility.yul\":9669:9704   */\n    tag_355:\n        /* \"#utility.yul\":9726:9727   */\n      dup3\n        /* \"#utility.yul\":9723:9724   */\n      dup3\n        /* \"#utility.yul\":9719:9728   */\n      div\n        /* \"#utility.yul\":9714:9728   */\n      swap1\n      pop\n        /* \"#utility.yul\":9549:9734   */\n      swap3\n      swap2\n      pop\n      pop\n      jump\t// out\n        /* \"#utility.yul\":9740:9931   */\n    tag_130:\n        /* \"#utility.yul\":9780:9783   */\n      0x00\n        /* \"#utility.yul\":9799:9819   */\n      tag_358\n        /* \"#utility.yul\":9817:9818   */\n      dup3\n        /* \"#utility.yul\":9799:9819   */\n      tag_220\n      jump\t// in\n    tag_358:\n        /* \"#utility.yul\":9794:9819   */\n      swap2\n      pop\n        /* \"#utility.yul\":9833:9853   */\n      tag_359\n        /* \"#utility.yul\":9851:9852   */\n      dup4\n        /* \"#utility.yul\":9833:9853   */\n      tag_220\n      jump\t// in\n    tag_359:\n        /* \"#utility.yul\":9828:9853   */\n      swap3\n      pop\n        /* \"#utility.yul\":9876:9877   */\n      dup3\n        /* \"#utility.yul\":9873:9874   */\n      dup3\n        /* \"#utility.yul\":9869:9878   */\n      add\n        /* \"#utility.yul\":9862:9878   */\n      swap1\n      pop\n        /* \"#utility.yul\":9897:9900   */\n      dup1\n        /* \"#utility.yul\":9894:9895   */\n      dup3\n        /* \"#utility.yul\":9891:9901   */\n      gt\n        /* \"#utility.yul\":9888:9924   */\n      iszero\n      tag_360\n      jumpi\n        /* \"#utility.yul\":9904:9922   */\n      tag_361\n      tag_237\n      jump\t// in\n    tag_361:\n        /* \"#utility.yul\":9888:9924   */\n    tag_360:\n        /* \"#utility.yul\":9740:9931   */\n      swap3\n      swap2\n      pop\n      pop\n      jump\t// out\n        /* \"#utility.yul\":9937:10099   */\n    tag_239:\n        /* \"#utility.yul\":10077:10091   */\n      0x42696420746f6f206c6f772e0000000000000000000000000000000000000000\n        /* \"#utility.yul\":10073:10074   */\n      0x00\n        /* \"#utility.yul\":10065:10071   */\n      dup3\n        /* \"#utility.yul\":10061:10075   */\n      add\n        /* \"#utility.yul\":10054:10092   */\n      mstore\n        /* \"#utility.yul\":9937:10099   */\n      pop\n      jump\t// out\n        /* \"#utility.yul\":10105:10471   */\n    tag_240:\n        /* \"#utility.yul\":10247:10250   */\n      0x00\n        /* \"#utility.yul\":10268:10335   */\n      tag_364\n        /* \"#utility.yul\":10332:10334   */\n      0x0c\n        /* \"#utility.yul\":10327:10330   */\n      dup4\n        /* \"#utility.yul\":10268:10335   */\n      tag_234\n      jump\t// in\n    tag_364:\n        /* \"#utility.yul\":10261:10335   */\n      swap2\n      pop\n        /* \"#utility.yul\":10344:10437   */\n      tag_365\n        /* \"#utility.yul\":10433:10436   */\n      dup3\n        /* \"#utility.yul\":10344:10437   */\n      tag_239\n      jump\t// in\n    tag_365:\n        /* \"#utility.yul\":10462:10464   */\n      0x20\n        /* \"#utility.yul\":10457:10460   */\n      dup3\n        /* \"#utility.yul\":10453:10465   */\n      add\n        /* \"#utility.yul\":10446:10465   */\n      swap1\n      pop\n        /* \"#utility.yul\":10105:10471   */\n      swap2\n      swap1\n      pop\n      jump\t// out\n        /* \"#utility.yul\":10477:10896   */\n    tag_134:\n        /* \"#utility.yul\":10643:10647   */\n      0x00\n        /* \"#utility.yul\":10681:10683   */\n      0x20\n        /* \"#utility.yul\":10670:10679   */\n      dup3\n        /* \"#utility.yul\":10666:10684   */\n      add\n        /* \"#utility.yul\":10658:10684   */\n      swap1\n      pop\n        /* \"#utility.yul\":10730:10739   */\n      dup2\n        /* \"#utility.yul\":10724:10728   */\n      dup2\n        /* \"#utility.yul\":10720:10740   */\n      sub\n        /* \"#utility.yul\":10716:10717   */\n      0x00\n        /* \"#utility.yul\":10705:10714   */\n      dup4\n        /* \"#utility.yul\":10701:10718   */\n      add\n        /* \"#utility.yul\":10694:10741   */\n      mstore\n        /* \"#utility.yul\":10758:10889   */\n      tag_367\n        /* \"#utility.yul\":10884:10888   */\n      dup2\n        /* \"#utility.yul\":10758:10889   */\n      tag_240\n      jump\t// in\n    tag_367:\n        /* \"#utility.yul\":10750:10889   */\n      swap1\n      pop\n        /* \"#utility.yul\":10477:10896   */\n      swap2\n      swap1\n      pop\n      jump\t// out\n        /* \"#utility.yul\":10902:11096   */\n    tag_141:\n        /* \"#utility.yul\":10942:10946   */\n      0x00\n        /* \"#utility.yul\":10962:10982   */\n      tag_369\n        /* \"#utility.yul\":10980:10981   */\n      dup3\n        /* \"#utility.yul\":10962:10982   */\n      tag_220\n      jump\t// in\n    tag_369:\n        /* \"#utility.yul\":10957:10982   */\n      swap2\n      pop\n        /* \"#utility.yul\":10996:11016   */\n      tag_370\n        /* \"#utility.yul\":11014:11015   */\n      dup4\n        /* \"#utility.yul\":10996:11016   */\n      tag_220\n      jump\t// in\n    tag_370:\n        /* \"#utility.yul\":10991:11016   */\n      swap3\n      pop\n        /* \"#utility.yul\":11040:11041   */\n      dup3\n        /* \"#utility.yul\":11037:11038   */\n      dup3\n        /* \"#utility.yul\":11033:11042   */\n      sub\n        /* \"#utility.yul\":11025:11042   */\n      swap1\n      pop\n        /* \"#utility.yul\":11064:11065   */\n      dup2\n        /* \"#utility.yul\":11058:11062   */\n      dup2\n        /* \"#utility.yul\":11055:11066   */\n      gt\n        /* \"#utility.yul\":11052:11089   */\n      iszero\n      tag_371\n      jumpi\n        /* \"#utility.yul\":11069:11087   */\n      tag_372\n      tag_237\n      jump\t// in\n    tag_372:\n        /* \"#utility.yul\":11052:11089   */\n    tag_371:\n        /* \"#utility.yul\":10902:11096   */\n      swap3\n      swap2\n      pop\n      pop\n      jump\t// out\n        /* \"#utility.yul\":11102:11263   */\n    tag_241:\n        /* \"#utility.yul\":11242:11255   */\n      0x4f6e6c79206f776e65722e000000000000000000000000000000000000000000\n        /* \"#utility.yul\":11238:11239   */\n      0x00\n        /* \"#utility.yul\":11230:11236   */\n      dup3\n        /* \"#utility.yul\":11226:11240   */\n      add\n        /* \"#utility.yul\":11219:11256   */\n      mstore\n        /* \"#utility.yul\":11102:11263   */\n      pop\n      jump\t// out\n        /* \"#utility.yul\":11269:11635   */\n    tag_242:\n        /* \"#utility.yul\":11411:11414   */\n      0x00\n        /* \"#utility.yul\":11432:11499   */\n      tag_375\n        /* \"#utility.yul\":11496:11498   */\n      0x0b\n        /* \"#utility.yul\":11491:11494   */\n      dup4\n        /* \"#utility.yul\":11432:11499   */\n      tag_234\n      jump\t// in\n    tag_375:\n        /* \"#utility.yul\":11425:11499   */\n      swap2\n      pop\n        /* \"#utility.yul\":11508:11601   */\n      tag_376\n        /* \"#utility.yul\":11597:11600   */\n      dup3\n        /* \"#utility.yul\":11508:11601   */\n      tag_241\n      jump\t// in\n    tag_376:\n        /* \"#utility.yul\":11626:11628   */\n      0x20\n        /* \"#utility.yul\":11621:11624   */\n      dup3\n        /* \"#utility.yul\":11617:11629   */\n      add\n        /* \"#utility.yul\":11610:11629   */\n      swap1\n      pop\n        /* \"#utility.yul\":11269:11635   */\n      swap2\n      swap1\n      pop\n      jump\t// out\n        /* \"#utility.yul\":11641:12060   */\n    tag_149:\n        /* \"#utility.yul\":11807:11811   */\n      0x00\n        /* \"#utility.yul\":11845:11847   */\n      0x20\n        /* \"#utility.yul\":11834:11843   */\n      dup3\n        /* \"#utility.yul\":11830:11848   */\n      add\n        /* \"#utility.yul\":11822:11848   */\n      swap1\n      pop\n        /* \"#utility.yul\":11894:11903   */\n      dup2\n        /* \"#utility.yul\":11888:11892   */\n      dup2\n        /* \"#utility.yul\":11884:11904   */\n      sub\n        /* \"#utility.yul\":11880:11881   */\n      0x00\n        /* \"#utility.yul\":11869:11878   */\n      dup4\n        /* \"#utility.yul\":11865:11882   */\n      add\n        /* \"#utility.yul\":11858:11905   */\n      mstore\n        /* \"#utility.yul\":11922:12053   */\n      tag_378\n        /* \"#utility.yul\":12048:12052   */\n      dup2\n        /* \"#utility.yul\":11922:12053   */\n      tag_242\n      jump\t// in\n    tag_378:\n        /* \"#utility.yul\":11914:12053   */\n      swap1\n      pop\n        /* \"#utility.yul\":11641:12060   */\n      swap2\n      swap1\n      pop\n      jump\t// out\n        /* \"#utility.yul\":12066:12234   */\n    tag_243:\n        /* \"#utility.yul\":12206:12226   */\n      0x41756374696f6e206e6f7420656e6465642e0000000000000000000000000000\n        /* \"#utility.yul\":12202:12203   */\n      0x00\n        /* \"#utility.yul\":12194:12200   */\n      dup3\n        /* \"#utility.yul\":12190:12204   */\n      add\n        /* \"#utility.yul\":12183:12227   */\n      mstore\n        /* \"#utility.yul\":12066:12234   */\n      pop\n      jump\t// out\n        /* \"#utility.yul\":12240:12606   */\n    tag_244:\n        /* \"#utility.yul\":12382:12385   */\n      0x00\n        /* \"#utility.yul\":12403:12470   */\n      tag_381\n        /* \"#utility.yul\":12467:12469   */\n      0x12\n        /* \"#utility.yul\":12462:12465   */\n      dup4\n        /* \"#utility.yul\":12403:12470   */\n      tag_234\n      jump\t// in\n    tag_381:\n        /* \"#utility.yul\":12396:12470   */\n      swap2\n      pop\n        /* \"#utility.yul\":12479:12572   */\n      tag_382\n        /* \"#utility.yul\":12568:12571   */\n      dup3\n        /* \"#utility.yul\":12479:12572   */\n      tag_243\n      jump\t// in\n    tag_382:\n        /* \"#utility.yul\":12597:12599   */\n      0x20\n        /* \"#utility.yul\":12592:12595   */\n      dup3\n        /* \"#utility.yul\":12588:12600   */\n      add\n        /* \"#utility.yul\":12581:12600   */\n      swap1\n      pop\n        /* \"#utility.yul\":12240:12606   */\n      swap2\n      swap1\n      pop\n      jump\t// out\n        /* \"#utility.yul\":12612:13031   */\n    tag_154:\n        /* \"#utility.yul\":12778:12782   */\n      0x00\n        /* \"#utility.yul\":12816:12818   */\n      0x20\n        /* \"#utility.yul\":12805:12814   */\n      dup3\n        /* \"#utility.yul\":12801:12819   */\n      add\n        /* \"#utility.yul\":12793:12819   */\n      swap1\n      pop\n        /* \"#utility.yul\":12865:12874   */\n      dup2\n        /* \"#utility.yul\":12859:12863   */\n      dup2\n        /* \"#utility.yul\":12855:12875   */\n      sub\n        /* \"#utility.yul\":12851:12852   */\n      0x00\n        /* \"#utility.yul\":12840:12849   */\n      dup4\n        /* \"#utility.yul\":12836:12853   */\n      add\n        /* \"#utility.yul\":12829:12876   */\n      mstore\n        /* \"#utility.yul\":12893:13024   */\n      tag_384\n        /* \"#utility.yul\":13019:13023   */\n      dup2\n        /* \"#utility.yul\":12893:13024   */\n      tag_244\n      jump\t// in\n    tag_384:\n        /* \"#utility.yul\":12885:13024   */\n      swap1\n      pop\n        /* \"#utility.yul\":12612:13031   */\n      swap2\n      swap1\n      pop\n      jump\t// out\n        /* \"#utility.yul\":13037:13184   */\n    tag_245:\n        /* \"#utility.yul\":13138:13149   */\n      0x00\n        /* \"#utility.yul\":13175:13178   */\n      dup2\n        /* \"#utility.yul\":13160:13178   */\n      swap1\n      pop\n        /* \"#utility.yul\":13037:13184   */\n      swap3\n      swap2\n      pop\n      pop\n      jump\t// out\n        /* \"#utility.yul\":13190:13304   */\n    tag_246:\n      pop\n      jump\t// out\n        /* \"#utility.yul\":13310:13708   */\n    tag_247:\n        /* \"#utility.yul\":13469:13472   */\n      0x00\n        /* \"#utility.yul\":13490:13573   */\n      tag_388\n        /* \"#utility.yul\":13571:13572   */\n      0x00\n        /* \"#utility.yul\":13566:13569   */\n      dup4\n        /* \"#utility.yul\":13490:13573   */\n      tag_245\n      jump\t// in\n    tag_388:\n        /* \"#utility.yul\":13483:13573   */\n      swap2\n      pop\n        /* \"#utility.yul\":13582:13675   */\n      tag_389\n        /* \"#utility.yul\":13671:13674   */\n      dup3\n        /* \"#utility.yul\":13582:13675   */\n      tag_246\n      jump\t// in\n    tag_389:\n        /* \"#utility.yul\":13700:13701   */\n      0x00\n        /* \"#utility.yul\":13695:13698   */\n      dup3\n        /* \"#utility.yul\":13691:13702   */\n      add\n        /* \"#utility.yul\":13684:13702   */\n      swap1\n      pop\n        /* \"#utility.yul\":13310:13708   */\n      swap2\n      swap1\n      pop\n      jump\t// out\n        /* \"#utility.yul\":13714:14093   */\n    tag_168:\n        /* \"#utility.yul\":13898:13901   */\n      0x00\n        /* \"#utility.yul\":13920:14067   */\n      tag_391\n        /* \"#utility.yul\":14063:14066   */\n      dup3\n        /* \"#utility.yul\":13920:14067   */\n      tag_247\n      jump\t// in\n    tag_391:\n        /* \"#utility.yul\":13913:14067   */\n      swap2\n      pop\n        /* \"#utility.yul\":14084:14087   */\n      dup2\n        /* \"#utility.yul\":14077:14087   */\n      swap1\n      pop\n        /* \"#utility.yul\":13714:14093   */\n      swap2\n      swap1\n      pop\n      jump\t// out\n        /* \"#utility.yul\":14099:14263   */\n    tag_248:\n        /* \"#utility.yul\":14239:14255   */\n      0x526566756e64206661696c65642e000000000000000000000000000000000000\n        /* \"#utility.yul\":14235:14236   */\n      0x00\n        /* \"#utility.yul\":14227:14233   */\n      dup3\n        /* \"#utility.yul\":14223:14237   */\n      add\n        /* \"#utility.yul\":14216:14256   */\n      mstore\n        /* \"#utility.yul\":14099:14263   */\n      pop\n      jump\t// out\n        /* \"#utility.yul\":14269:14635   */\n    tag_249:\n        /* \"#utility.yul\":14411:14414   */\n      0x00\n        /* \"#utility.yul\":14432:14499   */\n      tag_394\n        /* \"#utility.yul\":14496:14498   */\n      0x0e\n        /* \"#utility.yul\":14491:14494   */\n      dup4\n        /* \"#utility.yul\":14432:14499   */\n      tag_234\n      jump\t// in\n    tag_394:\n        /* \"#utility.yul\":14425:14499   */\n      swap2\n      pop\n        /* \"#utility.yul\":14508:14601   */\n      tag_395\n        /* \"#utility.yul\":14597:14600   */\n      dup3\n        /* \"#utility.yul\":14508:14601   */\n      tag_248\n      jump\t// in\n    tag_395:\n        /* \"#utility.yul\":14626:14628   */\n      0x20\n        /* \"#utility.yul\":14621:14624   */\n      dup3\n        /* \"#utility.yul\":14617:14629   */\n      add\n        /* \"#utility.yul\":14610:14629   */\n      swap1\n      pop\n        /* \"#utility.yul\":14269:14635   */\n      swap2\n      swap1\n      pop\n      jump\t// out\n        /* \"#utility.yul\":14641:15060   */\n    tag_174:\n        /* \"#utility.yul\":14807:14811   */\n      0x00\n        /* \"#utility.yul\":14845:14847   */\n      0x20\n        /* \"#utility.yul\":14834:14843   */\n      dup3\n        /* \"#utility.yul\":14830:14848   */\n      add\n        /* \"#utility.yul\":14822:14848   */\n      swap1\n      pop\n        /* \"#utility.yul\":14894:14903   */\n      dup2\n        /* \"#utility.yul\":14888:14892   */\n      dup2\n        /* \"#utility.yul\":14884:14904   */\n      sub\n        /* \"#utility.yul\":14880:14881   */\n      0x00\n        /* \"#utility.yul\":14869:14878   */\n      dup4\n        /* \"#utility.yul\":14865:14882   */\n      add\n        /* \"#utility.yul\":14858:14905   */\n      mstore\n        /* \"#utility.yul\":14922:15053   */\n      tag_397\n        /* \"#utility.yul\":15048:15052   */\n      dup2\n        /* \"#utility.yul\":14922:15053   */\n      tag_249\n      jump\t// in\n    tag_397:\n        /* \"#utility.yul\":14914:15053   */\n      swap1\n      pop\n        /* \"#utility.yul\":14641:15060   */\n      swap2\n      swap1\n      pop\n      jump\t// out\n        /* \"#utility.yul\":15066:15234   */\n    tag_250:\n        /* \"#utility.yul\":15206:15226   */\n      0x4e6f20657863657373206465706f7369742e0000000000000000000000000000\n        /* \"#utility.yul\":15202:15203   */\n      0x00\n        /* \"#utility.yul\":15194:15200   */\n      dup3\n        /* \"#utility.yul\":15190:15204   */\n      add\n        /* \"#utility.yul\":15183:15227   */\n      mstore\n        /* \"#utility.yul\":15066:15234   */\n      pop\n      jump\t// out\n        /* \"#utility.yul\":15240:15606   */\n    tag_251:\n        /* \"#utility.yul\":15382:15385   */\n      0x00\n        /* \"#utility.yul\":15403:15470   */\n      tag_400\n        /* \"#utility.yul\":15467:15469   */\n      0x12\n        /* \"#utility.yul\":15462:15465   */\n      dup4\n        /* \"#utility.yul\":15403:15470   */\n      tag_234\n      jump\t// in\n    tag_400:\n        /* \"#utility.yul\":15396:15470   */\n      swap2\n      pop\n        /* \"#utility.yul\":15479:15572   */\n      tag_401\n        /* \"#utility.yul\":15568:15571   */\n      dup3\n        /* \"#utility.yul\":15479:15572   */\n      tag_250\n      jump\t// in\n    tag_401:\n        /* \"#utility.yul\":15597:15599   */\n      0x20\n        /* \"#utility.yul\":15592:15595   */\n      dup3\n        /* \"#utility.yul\":15588:15600   */\n      add\n        /* \"#utility.yul\":15581:15600   */\n      swap1\n      pop\n        /* \"#utility.yul\":15240:15606   */\n      swap2\n      swap1\n      pop\n      jump\t// out\n        /* \"#utility.yul\":15612:16031   */\n    tag_190:\n        /* \"#utility.yul\":15778:15782   */\n      0x00\n        /* \"#utility.yul\":15816:15818   */\n      0x20\n        /* \"#utility.yul\":15805:15814   */\n      dup3\n        /* \"#utility.yul\":15801:15819   */\n      add\n        /* \"#utility.yul\":15793:15819   */\n      swap1\n      pop\n        /* \"#utility.yul\":15865:15874   */\n      dup2\n        /* \"#utility.yul\":15859:15863   */\n      dup2\n        /* \"#utility.yul\":15855:15875   */\n      sub\n        /* \"#utility.yul\":15851:15852   */\n      0x00\n        /* \"#utility.yul\":15840:15849   */\n      dup4\n        /* \"#utility.yul\":15836:15853   */\n      add\n        /* \"#utility.yul\":15829:15876   */\n      mstore\n        /* \"#utility.yul\":15893:16024   */\n      tag_403\n        /* \"#utility.yul\":16019:16023   */\n      dup2\n        /* \"#utility.yul\":15893:16024   */\n      tag_251\n      jump\t// in\n    tag_403:\n        /* \"#utility.yul\":15885:16024   */\n      swap1\n      pop\n        /* \"#utility.yul\":15612:16031   */\n      swap2\n      swap1\n      pop\n      jump\t// out\n        /* \"#utility.yul\":16037:16213   */\n    tag_252:\n        /* \"#utility.yul\":16177:16205   */\n      0x5061727469616c207769746864726177616c206661696c65642e000000000000\n        /* \"#utility.yul\":16173:16174   */\n      0x00\n        /* \"#utility.yul\":16165:16171   */\n      dup3\n        /* \"#utility.yul\":16161:16175   */\n      add\n        /* \"#utility.yul\":16154:16206   */\n      mstore\n        /* \"#utility.yul\":16037:16213   */\n      pop\n      jump\t// out\n        /* \"#utility.yul\":16219:16585   */\n    tag_253:\n        /* \"#utility.yul\":16361:16364   */\n      0x00\n        /* \"#utility.yul\":16382:16449   */\n      tag_406\n        /* \"#utility.yul\":16446:16448   */\n      0x1a\n        /* \"#utility.yul\":16441:16444   */\n      dup4\n        /* \"#utility.yul\":16382:16449   */\n      tag_234\n      jump\t// in\n    tag_406:\n        /* \"#utility.yul\":16375:16449   */\n      swap2\n      pop\n        /* \"#utility.yul\":16458:16551   */\n      tag_407\n        /* \"#utility.yul\":16547:16550   */\n      dup3\n        /* \"#utility.yul\":16458:16551   */\n      tag_252\n      jump\t// in\n    tag_407:\n        /* \"#utility.yul\":16576:16578   */\n      0x20\n        /* \"#utility.yul\":16571:16574   */\n      dup3\n        /* \"#utility.yul\":16567:16579   */\n      add\n        /* \"#utility.yul\":16560:16579   */\n      swap1\n      pop\n        /* \"#utility.yul\":16219:16585   */\n      swap2\n      swap1\n      pop\n      jump\t// out\n        /* \"#utility.yul\":16591:17010   */\n    tag_198:\n        /* \"#utility.yul\":16757:16761   */\n      0x00\n        /* \"#utility.yul\":16795:16797   */\n      0x20\n        /* \"#utility.yul\":16784:16793   */\n      dup3\n        /* \"#utility.yul\":16780:16798   */\n      add\n        /* \"#utility.yul\":16772:16798   */\n      swap1\n      pop\n        /* \"#utility.yul\":16844:16853   */\n      dup2\n        /* \"#utility.yul\":16838:16842   */\n      dup2\n        /* \"#utility.yul\":16834:16854   */\n      sub\n        /* \"#utility.yul\":16830:16831   */\n      0x00\n        /* \"#utility.yul\":16819:16828   */\n      dup4\n        /* \"#utility.yul\":16815:16832   */\n      add\n        /* \"#utility.yul\":16808:16855   */\n      mstore\n        /* \"#utility.yul\":16872:17003   */\n      tag_409\n        /* \"#utility.yul\":16998:17002   */\n      dup2\n        /* \"#utility.yul\":16872:17003   */\n      tag_253\n      jump\t// in\n    tag_409:\n        /* \"#utility.yul\":16864:17003   */\n      swap1\n      pop\n        /* \"#utility.yul\":16591:17010   */\n      swap2\n      swap1\n      pop\n      jump\t// out\n        /* \"#utility.yul\":17016:17185   */\n    tag_254:\n        /* \"#utility.yul\":17156:17177   */\n      0x43616e6e6f7420656e642061756374696f6e2e00000000000000000000000000\n        /* \"#utility.yul\":17152:17153   */\n      0x00\n        /* \"#utility.yul\":17144:17150   */\n      dup3\n        /* \"#utility.yul\":17140:17154   */\n      add\n        /* \"#utility.yul\":17133:17178   */\n      mstore\n        /* \"#utility.yul\":17016:17185   */\n      pop\n      jump\t// out\n        /* \"#utility.yul\":17191:17557   */\n    tag_255:\n        /* \"#utility.yul\":17333:17336   */\n      0x00\n        /* \"#utility.yul\":17354:17421   */\n      tag_412\n        /* \"#utility.yul\":17418:17420   */\n      0x13\n        /* \"#utility.yul\":17413:17416   */\n      dup4\n        /* \"#utility.yul\":17354:17421   */\n      tag_234\n      jump\t// in\n    tag_412:\n        /* \"#utility.yul\":17347:17421   */\n      swap2\n      pop\n        /* \"#utility.yul\":17430:17523   */\n      tag_413\n        /* \"#utility.yul\":17519:17522   */\n      dup3\n        /* \"#utility.yul\":17430:17523   */\n      tag_254\n      jump\t// in\n    tag_413:\n        /* \"#utility.yul\":17548:17550   */\n      0x20\n        /* \"#utility.yul\":17543:17546   */\n      dup3\n        /* \"#utility.yul\":17539:17551   */\n      add\n        /* \"#utility.yul\":17532:17551   */\n      swap1\n      pop\n        /* \"#utility.yul\":17191:17557   */\n      swap2\n      swap1\n      pop\n      jump\t// out\n        /* \"#utility.yul\":17563:17982   */\n    tag_204:\n        /* \"#utility.yul\":17729:17733   */\n      0x00\n        /* \"#utility.yul\":17767:17769   */\n      0x20\n        /* \"#utility.yul\":17756:17765   */\n      dup3\n        /* \"#utility.yul\":17752:17770   */\n      add\n        /* \"#utility.yul\":17744:17770   */\n      swap1\n      pop\n        /* \"#utility.yul\":17816:17825   */\n      dup2\n        /* \"#utility.yul\":17810:17814   */\n      dup2\n        /* \"#utility.yul\":17806:17826   */\n      sub\n        /* \"#utility.yul\":17802:17803   */\n      0x00\n        /* \"#utility.yul\":17791:17800   */\n      dup4\n        /* \"#utility.yul\":17787:17804   */\n      add\n        /* \"#utility.yul\":17780:17827   */\n      mstore\n        /* \"#utility.yul\":17844:17975   */\n      tag_415\n        /* \"#utility.yul\":17970:17974   */\n      dup2\n        /* \"#utility.yul\":17844:17975   */\n      tag_255\n      jump\t// in\n    tag_415:\n        /* \"#utility.yul\":17836:17975   */\n      swap1\n      pop\n        /* \"#utility.yul\":17563:17982   */\n      swap2\n      swap1\n      pop\n      jump\t// out\n\n    auxdata: 0xa2646970667358221220fc91eb291af664957660ea56ce00a3d79bfd9603f9b3c8bb17b8fc4827c073e564736f6c634300081e0033\n}\n",
				"bytecode": {
					"linkReferences": {},
					"object": "608060405234801561000f575f5ffd5b50604051611c9b380380611c9b83398181016040528101906100319190610133565b335f5f6101000a81548173ffffffffffffffffffffffffffffffffffffffff021916908373ffffffffffffffffffffffffffffffffffffffff16021790555042600181905550603c81610084919061018b565b4261008f91906101cc565b6002819055505f6003819055505f60045f6101000a81548173ffffffffffffffffffffffffffffffffffffffff021916908373ffffffffffffffffffffffffffffffffffffffff1602179055505f600460146101000a81548160ff021916908315150217905550506101ff565b5f5ffd5b5f819050919050565b61011281610100565b811461011c575f5ffd5b50565b5f8151905061012d81610109565b92915050565b5f60208284031215610148576101476100fc565b5b5f6101558482850161011f565b91505092915050565b7f4e487b71000000000000000000000000000000000000000000000000000000005f52601160045260245ffd5b5f61019582610100565b91506101a083610100565b92508282026101ae81610100565b915082820484148315176101c5576101c461015e565b5b5092915050565b5f6101d682610100565b91506101e183610100565b92508282019050808211156101f9576101f861015e565b5b92915050565b611a8f8061020c5f395ff3fe608060405260043610610108575f3560e01c8063a013781b11610094578063c30aca9a11610063578063c30aca9a14610321578063d57bde7914610337578063eb54f9ec14610361578063fc7e286d1461038b578063fe67a54b146103c757610108565b8063a013781b14610266578063b033e086146102a2578063b7e03264146102cc578063bc996819146102f757610108565b806346e053a0116100db57806346e053a0146101815780634b449cba146101be5780635681104a146101e85780638da5cb5b1461021257806391f901571461023c57610108565b806312fa6feb1461010c57806314d2687c146101365780631998aeef14610161578063362e25651461016b575b5f5ffd5b348015610117575f5ffd5b506101206103dd565b60405161012d9190611223565b60405180910390f35b348015610141575f5ffd5b5061014a6103f0565b6040516101589291906113e3565b60405180910390f35b6101696105a0565b005b348015610176575f5ffd5b5061017f6109a5565b005b34801561018c575f5ffd5b506101a760048036038101906101a29190611446565b610d3c565b6040516101b592919061148f565b60405180910390f35b3480156101c9575f5ffd5b506101d2610d7b565b6040516101df91906114b6565b60405180910390f35b3480156101f3575f5ffd5b506101fc610d81565b60405161020991906114b6565b60405180910390f35b34801561021d575f5ffd5b50610226610d87565b60405161023391906114cf565b60405180910390f35b348015610247575f5ffd5b50610250610dab565b60405161025d91906114cf565b60405180910390f35b348015610271575f5ffd5b5061028c60048036038101906102879190611512565b610dd0565b60405161029991906114cf565b60405180910390f35b3480156102ad575f5ffd5b506102b6610e0b565b6040516102c391906114b6565b60405180910390f35b3480156102d7575f5ffd5b506102e0610e10565b6040516102ee92919061148f565b60405180910390f35b348015610302575f5ffd5b5061030b610e9b565b60405161031891906114b6565b60405180910390f35b34801561032c575f5ffd5b50610335610ea0565b005b348015610342575f5ffd5b5061034b611111565b60405161035891906114b6565b60405180910390f35b34801561036c575f5ffd5b50610375611117565b60405161038291906114b6565b60405180910390f35b348015610396575f5ffd5b506103b160048036038101906103ac9190611446565b61111d565b6040516103be91906114b6565b60405180910390f35b3480156103d2575f5ffd5b506103db611132565b005b600460149054906101000a900460ff1681565b6060805f60078054905090508067ffffffffffffffff8111156104165761041561153d565b5b6040519080825280602002602001820160405280156104445781602001602082028036833780820191505090505b5092508067ffffffffffffffff8111156104615761046061153d565b5b60405190808252806020026020018201604052801561048f5781602001602082028036833780820191505090505b5091505f5f5f90505b8281101561059957600781815481106104b4576104b361156a565b5b905f5260205f20015f9054906101000a900473ffffffffffffffffffffffffffffffffffffffff169150818582815181106104f2576104f161156a565b5b602002602001019073ffffffffffffffffffffffffffffffffffffffff16908173ffffffffffffffffffffffffffffffffffffffff168152505060065f8373ffffffffffffffffffffffffffffffffffffffff1673ffffffffffffffffffffffffffffffffffffffff1681526020019081526020015f20600101548482815181106105805761057f61156a565b5b6020026020010181815250508080600101915050610498565b5050509091565b600254421080156105be5750600460149054906101000a900460ff16155b6105fd576040517f08c379a00000000000000000000000000000000000000000000000000000000081526004016105f4906115f1565b60405180910390fd5b5f6064600560035461060f919061163c565b61061991906116aa565b60035461062691906116da565b90505f6003540361063657600190505b80341015610679576040517f08c379a000000000000000000000000000000000000000000000000000000000815260040161067090611757565b60405180910390fd5b60085f3373ffffffffffffffffffffffffffffffffffffffff1673ffffffffffffffffffffffffffffffffffffffff1681526020019081526020015f205f9054906101000a900460ff1661077d57600160085f3373ffffffffffffffffffffffffffffffffffffffff1673ffffffffffffffffffffffffffffffffffffffff1681526020019081526020015f205f6101000a81548160ff021916908315150217905550600733908060018154018082558091505060019003905f5260205f20015f9091909190916101000a81548173ffffffffffffffffffffffffffffffffffffffff021916908373ffffffffffffffffffffffffffffffffffffffff1602179055505b3460055f3373ffffffffffffffffffffffffffffffffffffffff1673ffffffffffffffffffffffffffffffffffffffff1681526020019081526020015f205f8282546107c991906116da565b9250508190555060035434111561082257346003819055503360045f6101000a81548173ffffffffffffffffffffffffffffffffffffffff021916908373ffffffffffffffffffffffffffffffffffffffff1602179055505b60405180604001604052803373ffffffffffffffffffffffffffffffffffffffff1681526020013481525060065f3373ffffffffffffffffffffffffffffffffffffffff1673ffffffffffffffffffffffffffffffffffffffff1681526020019081526020015f205f820151815f015f6101000a81548173ffffffffffffffffffffffffffffffffffffffff021916908373ffffffffffffffffffffffffffffffffffffffff160217905550602082015181600101559050503373ffffffffffffffffffffffffffffffffffffffff167fdd0b6c6a77960e2066c96171b4d7ac9e8b4c184011f38544afa36a5bb63ec59f3460405161092191906114b6565b60405180910390a26102584260025461093a9190611775565b11158015610949575060025442105b156109a25761025860025f82825461096191906116da565b925050819055507fc2b459809119087ca9d2bc10dea53a51b7d848b1a11075db037bdca58292c3e860025460405161099991906114b6565b60405180910390a15b50565b5f5f9054906101000a900473ffffffffffffffffffffffffffffffffffffffff1673ffffffffffffffffffffffffffffffffffffffff163373ffffffffffffffffffffffffffffffffffffffff1614610a33576040517f08c379a0000000000000000000000000000000000000000000000000000000008152600401610a2a906117f2565b60405180910390fd5b60025442101580610a505750600460149054906101000a900460ff165b610a8f576040517f08c379a0000000000000000000000000000000000000000000000000000000008152600401610a869061185a565b60405180910390fd5b5f5f90505b600780549050811015610d39575f60078281548110610ab657610ab561156a565b5b905f5260205f20015f9054906101000a900473ffffffffffffffffffffffffffffffffffffffff16905060045f9054906101000a900473ffffffffffffffffffffffffffffffffffffffff1673ffffffffffffffffffffffffffffffffffffffff168173ffffffffffffffffffffffffffffffffffffffff161480610b7757505f60055f8373ffffffffffffffffffffffffffffffffffffffff1673ffffffffffffffffffffffffffffffffffffffff1681526020019081526020015f2054145b15610b825750610d2c565b5f60055f8373ffffffffffffffffffffffffffffffffffffffff1673ffffffffffffffffffffffffffffffffffffffff1681526020019081526020015f205490505f6064600283610bd3919061163c565b610bdd91906116aa565b90505f8183610bec9190611775565b90505f60055f8673ffffffffffffffffffffffffffffffffffffffff1673ffffffffffffffffffffffffffffffffffffffff1681526020019081526020015f20819055505f8473ffffffffffffffffffffffffffffffffffffffff1682604051610c55906118a5565b5f6040518083038185875af1925050503d805f8114610c8f576040519150601f19603f3d011682016040523d82523d5f602084013e610c94565b606091505b5050905080610cd8576040517f08c379a0000000000000000000000000000000000000000000000000000000008152600401610ccf90611903565b60405180910390fd5b8473ffffffffffffffffffffffffffffffffffffffff167f698270f63d8b673ed55a5ca00d14001bd808b390dbe11d5b1b16624863f71f7783604051610d1e91906114b6565b60405180910390a250505050505b8080600101915050610a94565b50565b6006602052805f5260405f205f91509050805f015f9054906101000a900473ffffffffffffffffffffffffffffffffffffffff16908060010154905082565b60025481565b61025881565b5f5f9054906101000a900473ffffffffffffffffffffffffffffffffffffffff1681565b60045f9054906101000a900473ffffffffffffffffffffffffffffffffffffffff1681565b60078181548110610ddf575f80fd5b905f5260205f20015f915054906101000a900473ffffffffffffffffffffffffffffffffffffffff1681565b600281565b5f5f60025442101580610e2f5750600460149054906101000a900460ff165b610e6e576040517f08c379a0000000000000000000000000000000000000000000000000000000008152600401610e659061185a565b60405180910390fd5b60045f9054906101000a900473ffffffffffffffffffffffffffffffffffffffff16600354915091509091565b600581565b60025442108015610ebe5750600460149054906101000a900460ff16155b610efd576040517f08c379a0000000000000000000000000000000000000000000000000000000008152600401610ef4906115f1565b60405180910390fd5b5f60055f3373ffffffffffffffffffffffffffffffffffffffff1673ffffffffffffffffffffffffffffffffffffffff1681526020019081526020015f205490505f60065f3373ffffffffffffffffffffffffffffffffffffffff1673ffffffffffffffffffffffffffffffffffffffff1681526020019081526020015f20600101549050808211610fc4576040517f08c379a0000000000000000000000000000000000000000000000000000000008152600401610fbb9061196b565b60405180910390fd5b5f8183610fd19190611775565b90508160055f3373ffffffffffffffffffffffffffffffffffffffff1673ffffffffffffffffffffffffffffffffffffffff1681526020019081526020015f20819055505f3373ffffffffffffffffffffffffffffffffffffffff168260405161103a906118a5565b5f6040518083038185875af1925050503d805f8114611074576040519150601f19603f3d011682016040523d82523d5f602084013e611079565b606091505b50509050806110bd576040517f08c379a00000000000000000000000000000000000000000000000000000000081526004016110b4906119d3565b60405180910390fd5b3373ffffffffffffffffffffffffffffffffffffffff167f8468f8fa62fc679cf8165eab7662a1fa977705b501dd787e9ec07884885425f18360405161110391906114b6565b60405180910390a250505050565b60035481565b60015481565b6005602052805f5260405f205f915090505481565b60025442101580156111515750600460149054906101000a900460ff16155b611190576040517f08c379a000000000000000000000000000000000000000000000000000000000815260040161118790611a3b565b60405180910390fd5b6001600460146101000a81548160ff0219169083151502179055507fdaec4582d5d9595688c8c98545fdd1c696d41c6aeaeb636737e84ed2f5c00eda60045f9054906101000a900473ffffffffffffffffffffffffffffffffffffffff166003546040516111ff92919061148f565b60405180910390a1565b5f8115159050919050565b61121d81611209565b82525050565b5f6020820190506112365f830184611214565b92915050565b5f81519050919050565b5f82825260208201905092915050565b5f819050602082019050919050565b5f73ffffffffffffffffffffffffffffffffffffffff82169050919050565b5f61128e82611265565b9050919050565b61129e81611284565b82525050565b5f6112af8383611295565b60208301905092915050565b5f602082019050919050565b5f6112d18261123c565b6112db8185611246565b93506112e683611256565b805f5b838110156113165781516112fd88826112a4565b9750611308836112bb565b9250506001810190506112e9565b5085935050505092915050565b5f81519050919050565b5f82825260208201905092915050565b5f819050602082019050919050565b5f819050919050565b61135e8161134c565b82525050565b5f61136f8383611355565b60208301905092915050565b5f602082019050919050565b5f61139182611323565b61139b818561132d565b93506113a68361133d565b805f5b838110156113d65781516113bd8882611364565b97506113c88361137b565b9250506001810190506113a9565b5085935050505092915050565b5f6040820190508181035f8301526113fb81856112c7565b9050818103602083015261140f8184611387565b90509392505050565b5f5ffd5b61142581611284565b811461142f575f5ffd5b50565b5f813590506114408161141c565b92915050565b5f6020828403121561145b5761145a611418565b5b5f61146884828501611432565b91505092915050565b61147a81611284565b82525050565b6114898161134c565b82525050565b5f6040820190506114a25f830185611471565b6114af6020830184611480565b9392505050565b5f6020820190506114c95f830184611480565b92915050565b5f6020820190506114e25f830184611471565b92915050565b6114f18161134c565b81146114fb575f5ffd5b50565b5f8135905061150c816114e8565b92915050565b5f6020828403121561152757611526611418565b5b5f611534848285016114fe565b91505092915050565b7f4e487b71000000000000000000000000000000000000000000000000000000005f52604160045260245ffd5b7f4e487b71000000000000000000000000000000000000000000000000000000005f52603260045260245ffd5b5f82825260208201905092915050565b7f41756374696f6e20696e6163746976652e0000000000000000000000000000005f82015250565b5f6115db601183611597565b91506115e6826115a7565b602082019050919050565b5f6020820190508181035f830152611608816115cf565b9050919050565b7f4e487b71000000000000000000000000000000000000000000000000000000005f52601160045260245ffd5b5f6116468261134c565b91506116518361134c565b925082820261165f8161134c565b915082820484148315176116765761167561160f565b5b5092915050565b7f4e487b71000000000000000000000000000000000000000000000000000000005f52601260045260245ffd5b5f6116b48261134c565b91506116bf8361134c565b9250826116cf576116ce61167d565b5b828204905092915050565b5f6116e48261134c565b91506116ef8361134c565b92508282019050808211156117075761170661160f565b5b92915050565b7f42696420746f6f206c6f772e00000000000000000000000000000000000000005f82015250565b5f611741600c83611597565b915061174c8261170d565b602082019050919050565b5f6020820190508181035f83015261176e81611735565b9050919050565b5f61177f8261134c565b915061178a8361134c565b92508282039050818111156117a2576117a161160f565b5b92915050565b7f4f6e6c79206f776e65722e0000000000000000000000000000000000000000005f82015250565b5f6117dc600b83611597565b91506117e7826117a8565b602082019050919050565b5f6020820190508181035f830152611809816117d0565b9050919050565b7f41756374696f6e206e6f7420656e6465642e00000000000000000000000000005f82015250565b5f611844601283611597565b915061184f82611810565b602082019050919050565b5f6020820190508181035f83015261187181611838565b9050919050565b5f81905092915050565b50565b5f6118905f83611878565b915061189b82611882565b5f82019050919050565b5f6118af82611885565b9150819050919050565b7f526566756e64206661696c65642e0000000000000000000000000000000000005f82015250565b5f6118ed600e83611597565b91506118f8826118b9565b602082019050919050565b5f6020820190508181035f83015261191a816118e1565b9050919050565b7f4e6f20657863657373206465706f7369742e00000000000000000000000000005f82015250565b5f611955601283611597565b915061196082611921565b602082019050919050565b5f6020820190508181035f83015261198281611949565b9050919050565b7f5061727469616c207769746864726177616c206661696c65642e0000000000005f82015250565b5f6119bd601a83611597565b91506119c882611989565b602082019050919050565b5f6020820190508181035f8301526119ea816119b1565b9050919050565b7f43616e6e6f7420656e642061756374696f6e2e000000000000000000000000005f82015250565b5f611a25601383611597565b9150611a30826119f1565b602082019050919050565b5f6020820190508181035f830152611a5281611a19565b905091905056fea2646970667358221220fc91eb291af664957660ea56ce00a3d79bfd9603f9b3c8bb17b8fc4827c073e564736f6c634300081e0033",
					"opcodes": "PUSH1 0x80 PUSH1 0x40 MSTORE CALLVALUE DUP1 ISZERO PUSH2 0xF JUMPI PUSH0 PUSH0 REVERT JUMPDEST POP PUSH1 0x40 MLOAD PUSH2 0x1C9B CODESIZE SUB DUP1 PUSH2 0x1C9B DUP4 CODECOPY DUP2 DUP2 ADD PUSH1 0x40 MSTORE DUP2 ADD SWAP1 PUSH2 0x31 SWAP2 SWAP1 PUSH2 0x133 JUMP JUMPDEST CALLER PUSH0 PUSH0 PUSH2 0x100 EXP DUP2 SLOAD DUP2 PUSH20 0xFFFFFFFFFFFFFFFFFFFFFFFFFFFFFFFFFFFFFFFF MUL NOT AND SWAP1 DUP4 PUSH20 0xFFFFFFFFFFFFFFFFFFFFFFFFFFFFFFFFFFFFFFFF AND MUL OR SWAP1 SSTORE POP TIMESTAMP PUSH1 0x1 DUP2 SWAP1 SSTORE POP PUSH1 0x3C DUP2 PUSH2 0x84 SWAP2 SWAP1 PUSH2 0x18B JUMP JUMPDEST TIMESTAMP PUSH2 0x8F SWAP2 SWAP1 PUSH2 0x1CC JUMP JUMPDEST PUSH1 0x2 DUP2 SWAP1 SSTORE POP PUSH0 PUSH1 0x3 DUP2 SWAP1 SSTORE POP PUSH0 PUSH1 0x4 PUSH0 PUSH2 0x100 EXP DUP2 SLOAD DUP2 PUSH20 0xFFFFFFFFFFFFFFFFFFFFFFFFFFFFFFFFFFFFFFFF MUL NOT AND SWAP1 DUP4 PUSH20 0xFFFFFFFFFFFFFFFFFFFFFFFFFFFFFFFFFFFFFFFF AND MUL OR SWAP1 SSTORE POP PUSH0 PUSH1 0x4 PUSH1 0x14 PUSH2 0x100 EXP DUP2 SLOAD DUP2 PUSH1 0xFF MUL NOT AND SWAP1 DUP4 ISZERO ISZERO MUL OR SWAP1 SSTORE POP POP PUSH2 0x1FF JUMP JUMPDEST PUSH0 PUSH0 REVERT JUMPDEST PUSH0 DUP2 SWAP1 POP SWAP2 SWAP1 POP JUMP JUMPDEST PUSH2 0x112 DUP2 PUSH2 0x100 JUMP JUMPDEST DUP2 EQ PUSH2 0x11C JUMPI PUSH0 PUSH0 REVERT JUMPDEST POP JUMP JUMPDEST PUSH0 DUP2 MLOAD SWAP1 POP PUSH2 0x12D DUP2 PUSH2 0x109 JUMP JUMPDEST SWAP3 SWAP2 POP POP JUMP JUMPDEST PUSH0 PUSH1 0x20 DUP3 DUP5 SUB SLT ISZERO PUSH2 0x148 JUMPI PUSH2 0x147 PUSH2 0xFC JUMP JUMPDEST JUMPDEST PUSH0 PUSH2 0x155 DUP5 DUP3 DUP6 ADD PUSH2 0x11F JUMP JUMPDEST SWAP2 POP POP SWAP3 SWAP2 POP POP JUMP JUMPDEST PUSH32 0x4E487B7100000000000000000000000000000000000000000000000000000000 PUSH0 MSTORE PUSH1 0x11 PUSH1 0x4 MSTORE PUSH1 0x24 PUSH0 REVERT JUMPDEST PUSH0 PUSH2 0x195 DUP3 PUSH2 0x100 JUMP JUMPDEST SWAP2 POP PUSH2 0x1A0 DUP4 PUSH2 0x100 JUMP JUMPDEST SWAP3 POP DUP3 DUP3 MUL PUSH2 0x1AE DUP2 PUSH2 0x100 JUMP JUMPDEST SWAP2 POP DUP3 DUP3 DIV DUP5 EQ DUP4 ISZERO OR PUSH2 0x1C5 JUMPI PUSH2 0x1C4 PUSH2 0x15E JUMP JUMPDEST JUMPDEST POP SWAP3 SWAP2 POP POP JUMP JUMPDEST PUSH0 PUSH2 0x1D6 DUP3 PUSH2 0x100 JUMP JUMPDEST SWAP2 POP PUSH2 0x1E1 DUP4 PUSH2 0x100 JUMP JUMPDEST SWAP3 POP DUP3 DUP3 ADD SWAP1 POP DUP1 DUP3 GT ISZERO PUSH2 0x1F9 JUMPI PUSH2 0x1F8 PUSH2 0x15E JUMP JUMPDEST JUMPDEST SWAP3 SWAP2 POP POP JUMP JUMPDEST PUSH2 0x1A8F DUP1 PUSH2 0x20C PUSH0 CODECOPY PUSH0 RETURN INVALID PUSH1 0x80 PUSH1 0x40 MSTORE PUSH1 0x4 CALLDATASIZE LT PUSH2 0x108 JUMPI PUSH0 CALLDATALOAD PUSH1 0xE0 SHR DUP1 PUSH4 0xA013781B GT PUSH2 0x94 JUMPI DUP1 PUSH4 0xC30ACA9A GT PUSH2 0x63 JUMPI DUP1 PUSH4 0xC30ACA9A EQ PUSH2 0x321 JUMPI DUP1 PUSH4 0xD57BDE79 EQ PUSH2 0x337 JUMPI DUP1 PUSH4 0xEB54F9EC EQ PUSH2 0x361 JUMPI DUP1 PUSH4 0xFC7E286D EQ PUSH2 0x38B JUMPI DUP1 PUSH4 0xFE67A54B EQ PUSH2 0x3C7 JUMPI PUSH2 0x108 JUMP JUMPDEST DUP1 PUSH4 0xA013781B EQ PUSH2 0x266 JUMPI DUP1 PUSH4 0xB033E086 EQ PUSH2 0x2A2 JUMPI DUP1 PUSH4 0xB7E03264 EQ PUSH2 0x2CC JUMPI DUP1 PUSH4 0xBC996819 EQ PUSH2 0x2F7 JUMPI PUSH2 0x108 JUMP JUMPDEST DUP1 PUSH4 0x46E053A0 GT PUSH2 0xDB JUMPI DUP1 PUSH4 0x46E053A0 EQ PUSH2 0x181 JUMPI DUP1 PUSH4 0x4B449CBA EQ PUSH2 0x1BE JUMPI DUP1 PUSH4 0x5681104A EQ PUSH2 0x1E8 JUMPI DUP1 PUSH4 0x8DA5CB5B EQ PUSH2 0x212 JUMPI DUP1 PUSH4 0x91F90157 EQ PUSH2 0x23C JUMPI PUSH2 0x108 JUMP JUMPDEST DUP1 PUSH4 0x12FA6FEB EQ PUSH2 0x10C JUMPI DUP1 PUSH4 0x14D2687C EQ PUSH2 0x136 JUMPI DUP1 PUSH4 0x1998AEEF EQ PUSH2 0x161 JUMPI DUP1 PUSH4 0x362E2565 EQ PUSH2 0x16B JUMPI JUMPDEST PUSH0 PUSH0 REVERT JUMPDEST CALLVALUE DUP1 ISZERO PUSH2 0x117 JUMPI PUSH0 PUSH0 REVERT JUMPDEST POP PUSH2 0x120 PUSH2 0x3DD JUMP JUMPDEST PUSH1 0x40 MLOAD PUSH2 0x12D SWAP2 SWAP1 PUSH2 0x1223 JUMP JUMPDEST PUSH1 0x40 MLOAD DUP1 SWAP2 SUB SWAP1 RETURN JUMPDEST CALLVALUE DUP1 ISZERO PUSH2 0x141 JUMPI PUSH0 PUSH0 REVERT JUMPDEST POP PUSH2 0x14A PUSH2 0x3F0 JUMP JUMPDEST PUSH1 0x40 MLOAD PUSH2 0x158 SWAP3 SWAP2 SWAP1 PUSH2 0x13E3 JUMP JUMPDEST PUSH1 0x40 MLOAD DUP1 SWAP2 SUB SWAP1 RETURN JUMPDEST PUSH2 0x169 PUSH2 0x5A0 JUMP JUMPDEST STOP JUMPDEST CALLVALUE DUP1 ISZERO PUSH2 0x176 JUMPI PUSH0 PUSH0 REVERT JUMPDEST POP PUSH2 0x17F PUSH2 0x9A5 JUMP JUMPDEST STOP JUMPDEST CALLVALUE DUP1 ISZERO PUSH2 0x18C JUMPI PUSH0 PUSH0 REVERT JUMPDEST POP PUSH2 0x1A7 PUSH1 0x4 DUP1 CALLDATASIZE SUB DUP2 ADD SWAP1 PUSH2 0x1A2 SWAP2 SWAP1 PUSH2 0x1446 JUMP JUMPDEST PUSH2 0xD3C JUMP JUMPDEST PUSH1 0x40 MLOAD PUSH2 0x1B5 SWAP3 SWAP2 SWAP1 PUSH2 0x148F JUMP JUMPDEST PUSH1 0x40 MLOAD DUP1 SWAP2 SUB SWAP1 RETURN JUMPDEST CALLVALUE DUP1 ISZERO PUSH2 0x1C9 JUMPI PUSH0 PUSH0 REVERT JUMPDEST POP PUSH2 0x1D2 PUSH2 0xD7B JUMP JUMPDEST PUSH1 0x40 MLOAD PUSH2 0x1DF SWAP2 SWAP1 PUSH2 0x14B6 JUMP JUMPDEST PUSH1 0x40 MLOAD DUP1 SWAP2 SUB SWAP1 RETURN JUMPDEST CALLVALUE DUP1 ISZERO PUSH2 0x1F3 JUMPI PUSH0 PUSH0 REVERT JUMPDEST POP PUSH2 0x1FC PUSH2 0xD81 JUMP JUMPDEST PUSH1 0x40 MLOAD PUSH2 0x209 SWAP2 SWAP1 PUSH2 0x14B6 JUMP JUMPDEST PUSH1 0x40 MLOAD DUP1 SWAP2 SUB SWAP1 RETURN JUMPDEST CALLVALUE DUP1 ISZERO PUSH2 0x21D JUMPI PUSH0 PUSH0 REVERT JUMPDEST POP PUSH2 0x226 PUSH2 0xD87 JUMP JUMPDEST PUSH1 0x40 MLOAD PUSH2 0x233 SWAP2 SWAP1 PUSH2 0x14CF JUMP JUMPDEST PUSH1 0x40 MLOAD DUP1 SWAP2 SUB SWAP1 RETURN JUMPDEST CALLVALUE DUP1 ISZERO PUSH2 0x247 JUMPI PUSH0 PUSH0 REVERT JUMPDEST POP PUSH2 0x250 PUSH2 0xDAB JUMP JUMPDEST PUSH1 0x40 MLOAD PUSH2 0x25D SWAP2 SWAP1 PUSH2 0x14CF JUMP JUMPDEST PUSH1 0x40 MLOAD DUP1 SWAP2 SUB SWAP1 RETURN JUMPDEST CALLVALUE DUP1 ISZERO PUSH2 0x271 JUMPI PUSH0 PUSH0 REVERT JUMPDEST POP PUSH2 0x28C PUSH1 0x4 DUP1 CALLDATASIZE SUB DUP2 ADD SWAP1 PUSH2 0x287 SWAP2 SWAP1 PUSH2 0x1512 JUMP JUMPDEST PUSH2 0xDD0 JUMP JUMPDEST PUSH1 0x40 MLOAD PUSH2 0x299 SWAP2 SWAP1 PUSH2 0x14CF JUMP JUMPDEST PUSH1 0x40 MLOAD DUP1 SWAP2 SUB SWAP1 RETURN JUMPDEST CALLVALUE DUP1 ISZERO PUSH2 0x2AD JUMPI PUSH0 PUSH0 REVERT JUMPDEST POP PUSH2 0x2B6 PUSH2 0xE0B JUMP JUMPDEST PUSH1 0x40 MLOAD PUSH2 0x2C3 SWAP2 SWAP1 PUSH2 0x14B6 JUMP JUMPDEST PUSH1 0x40 MLOAD DUP1 SWAP2 SUB SWAP1 RETURN JUMPDEST CALLVALUE DUP1 ISZERO PUSH2 0x2D7 JUMPI PUSH0 PUSH0 REVERT JUMPDEST POP PUSH2 0x2E0 PUSH2 0xE10 JUMP JUMPDEST PUSH1 0x40 MLOAD PUSH2 0x2EE SWAP3 SWAP2 SWAP1 PUSH2 0x148F JUMP JUMPDEST PUSH1 0x40 MLOAD DUP1 SWAP2 SUB SWAP1 RETURN JUMPDEST CALLVALUE DUP1 ISZERO PUSH2 0x302 JUMPI PUSH0 PUSH0 REVERT JUMPDEST POP PUSH2 0x30B PUSH2 0xE9B JUMP JUMPDEST PUSH1 0x40 MLOAD PUSH2 0x318 SWAP2 SWAP1 PUSH2 0x14B6 JUMP JUMPDEST PUSH1 0x40 MLOAD DUP1 SWAP2 SUB SWAP1 RETURN JUMPDEST CALLVALUE DUP1 ISZERO PUSH2 0x32C JUMPI PUSH0 PUSH0 REVERT JUMPDEST POP PUSH2 0x335 PUSH2 0xEA0 JUMP JUMPDEST STOP JUMPDEST CALLVALUE DUP1 ISZERO PUSH2 0x342 JUMPI PUSH0 PUSH0 REVERT JUMPDEST POP PUSH2 0x34B PUSH2 0x1111 JUMP JUMPDEST PUSH1 0x40 MLOAD PUSH2 0x358 SWAP2 SWAP1 PUSH2 0x14B6 JUMP JUMPDEST PUSH1 0x40 MLOAD DUP1 SWAP2 SUB SWAP1 RETURN JUMPDEST CALLVALUE DUP1 ISZERO PUSH2 0x36C JUMPI PUSH0 PUSH0 REVERT JUMPDEST POP PUSH2 0x375 PUSH2 0x1117 JUMP JUMPDEST PUSH1 0x40 MLOAD PUSH2 0x382 SWAP2 SWAP1 PUSH2 0x14B6 JUMP JUMPDEST PUSH1 0x40 MLOAD DUP1 SWAP2 SUB SWAP1 RETURN JUMPDEST CALLVALUE DUP1 ISZERO PUSH2 0x396 JUMPI PUSH0 PUSH0 REVERT JUMPDEST POP PUSH2 0x3B1 PUSH1 0x4 DUP1 CALLDATASIZE SUB DUP2 ADD SWAP1 PUSH2 0x3AC SWAP2 SWAP1 PUSH2 0x1446 JUMP JUMPDEST PUSH2 0x111D JUMP JUMPDEST PUSH1 0x40 MLOAD PUSH2 0x3BE SWAP2 SWAP1 PUSH2 0x14B6 JUMP JUMPDEST PUSH1 0x40 MLOAD DUP1 SWAP2 SUB SWAP1 RETURN JUMPDEST CALLVALUE DUP1 ISZERO PUSH2 0x3D2 JUMPI PUSH0 PUSH0 REVERT JUMPDEST POP PUSH2 0x3DB PUSH2 0x1132 JUMP JUMPDEST STOP JUMPDEST PUSH1 0x4 PUSH1 0x14 SWAP1 SLOAD SWAP1 PUSH2 0x100 EXP SWAP1 DIV PUSH1 0xFF AND DUP2 JUMP JUMPDEST PUSH1 0x60 DUP1 PUSH0 PUSH1 0x7 DUP1 SLOAD SWAP1 POP SWAP1 POP DUP1 PUSH8 0xFFFFFFFFFFFFFFFF DUP2 GT ISZERO PUSH2 0x416 JUMPI PUSH2 0x415 PUSH2 0x153D JUMP JUMPDEST JUMPDEST PUSH1 0x40 MLOAD SWAP1 DUP1 DUP3 MSTORE DUP1 PUSH1 0x20 MUL PUSH1 0x20 ADD DUP3 ADD PUSH1 0x40 MSTORE DUP1 ISZERO PUSH2 0x444 JUMPI DUP2 PUSH1 0x20 ADD PUSH1 0x20 DUP3 MUL DUP1 CALLDATASIZE DUP4 CALLDATACOPY DUP1 DUP3 ADD SWAP2 POP POP SWAP1 POP JUMPDEST POP SWAP3 POP DUP1 PUSH8 0xFFFFFFFFFFFFFFFF DUP2 GT ISZERO PUSH2 0x461 JUMPI PUSH2 0x460 PUSH2 0x153D JUMP JUMPDEST JUMPDEST PUSH1 0x40 MLOAD SWAP1 DUP1 DUP3 MSTORE DUP1 PUSH1 0x20 MUL PUSH1 0x20 ADD DUP3 ADD PUSH1 0x40 MSTORE DUP1 ISZERO PUSH2 0x48F JUMPI DUP2 PUSH1 0x20 ADD PUSH1 0x20 DUP3 MUL DUP1 CALLDATASIZE DUP4 CALLDATACOPY DUP1 DUP3 ADD SWAP2 POP POP SWAP1 POP JUMPDEST POP SWAP2 POP PUSH0 PUSH0 PUSH0 SWAP1 POP JUMPDEST DUP3 DUP2 LT ISZERO PUSH2 0x599 JUMPI PUSH1 0x7 DUP2 DUP2 SLOAD DUP2 LT PUSH2 0x4B4 JUMPI PUSH2 0x4B3 PUSH2 0x156A JUMP JUMPDEST JUMPDEST SWAP1 PUSH0 MSTORE PUSH1 0x20 PUSH0 KECCAK256 ADD PUSH0 SWAP1 SLOAD SWAP1 PUSH2 0x100 EXP SWAP1 DIV PUSH20 0xFFFFFFFFFFFFFFFFFFFFFFFFFFFFFFFFFFFFFFFF AND SWAP2 POP DUP2 DUP6 DUP3 DUP2 MLOAD DUP2 LT PUSH2 0x4F2 JUMPI PUSH2 0x4F1 PUSH2 0x156A JUMP JUMPDEST JUMPDEST PUSH1 0x20 MUL PUSH1 0x20 ADD ADD SWAP1 PUSH20 0xFFFFFFFFFFFFFFFFFFFFFFFFFFFFFFFFFFFFFFFF AND SWAP1 DUP2 PUSH20 0xFFFFFFFFFFFFFFFFFFFFFFFFFFFFFFFFFFFFFFFF AND DUP2 MSTORE POP POP PUSH1 0x6 PUSH0 DUP4 PUSH20 0xFFFFFFFFFFFFFFFFFFFFFFFFFFFFFFFFFFFFFFFF AND PUSH20 0xFFFFFFFFFFFFFFFFFFFFFFFFFFFFFFFFFFFFFFFF AND DUP2 MSTORE PUSH1 0x20 ADD SWAP1 DUP2 MSTORE PUSH1 0x20 ADD PUSH0 KECCAK256 PUSH1 0x1 ADD SLOAD DUP5 DUP3 DUP2 MLOAD DUP2 LT PUSH2 0x580 JUMPI PUSH2 0x57F PUSH2 0x156A JUMP JUMPDEST JUMPDEST PUSH1 0x20 MUL PUSH1 0x20 ADD ADD DUP2 DUP2 MSTORE POP POP DUP1 DUP1 PUSH1 0x1 ADD SWAP2 POP POP PUSH2 0x498 JUMP JUMPDEST POP POP POP SWAP1 SWAP2 JUMP JUMPDEST PUSH1 0x2 SLOAD TIMESTAMP LT DUP1 ISZERO PUSH2 0x5BE JUMPI POP PUSH1 0x4 PUSH1 0x14 SWAP1 SLOAD SWAP1 PUSH2 0x100 EXP SWAP1 DIV PUSH1 0xFF AND ISZERO JUMPDEST PUSH2 0x5FD JUMPI PUSH1 0x40 MLOAD PUSH32 0x8C379A000000000000000000000000000000000000000000000000000000000 DUP2 MSTORE PUSH1 0x4 ADD PUSH2 0x5F4 SWAP1 PUSH2 0x15F1 JUMP JUMPDEST PUSH1 0x40 MLOAD DUP1 SWAP2 SUB SWAP1 REVERT JUMPDEST PUSH0 PUSH1 0x64 PUSH1 0x5 PUSH1 0x3 SLOAD PUSH2 0x60F SWAP2 SWAP1 PUSH2 0x163C JUMP JUMPDEST PUSH2 0x619 SWAP2 SWAP1 PUSH2 0x16AA JUMP JUMPDEST PUSH1 0x3 SLOAD PUSH2 0x626 SWAP2 SWAP1 PUSH2 0x16DA JUMP JUMPDEST SWAP1 POP PUSH0 PUSH1 0x3 SLOAD SUB PUSH2 0x636 JUMPI PUSH1 0x1 SWAP1 POP JUMPDEST DUP1 CALLVALUE LT ISZERO PUSH2 0x679 JUMPI PUSH1 0x40 MLOAD PUSH32 0x8C379A000000000000000000000000000000000000000000000000000000000 DUP2 MSTORE PUSH1 0x4 ADD PUSH2 0x670 SWAP1 PUSH2 0x1757 JUMP JUMPDEST PUSH1 0x40 MLOAD DUP1 SWAP2 SUB SWAP1 REVERT JUMPDEST PUSH1 0x8 PUSH0 CALLER PUSH20 0xFFFFFFFFFFFFFFFFFFFFFFFFFFFFFFFFFFFFFFFF AND PUSH20 0xFFFFFFFFFFFFFFFFFFFFFFFFFFFFFFFFFFFFFFFF AND DUP2 MSTORE PUSH1 0x20 ADD SWAP1 DUP2 MSTORE PUSH1 0x20 ADD PUSH0 KECCAK256 PUSH0 SWAP1 SLOAD SWAP1 PUSH2 0x100 EXP SWAP1 DIV PUSH1 0xFF AND PUSH2 0x77D JUMPI PUSH1 0x1 PUSH1 0x8 PUSH0 CALLER PUSH20 0xFFFFFFFFFFFFFFFFFFFFFFFFFFFFFFFFFFFFFFFF AND PUSH20 0xFFFFFFFFFFFFFFFFFFFFFFFFFFFFFFFFFFFFFFFF AND DUP2 MSTORE PUSH1 0x20 ADD SWAP1 DUP2 MSTORE PUSH1 0x20 ADD PUSH0 KECCAK256 PUSH0 PUSH2 0x100 EXP DUP2 SLOAD DUP2 PUSH1 0xFF MUL NOT AND SWAP1 DUP4 ISZERO ISZERO MUL OR SWAP1 SSTORE POP PUSH1 0x7 CALLER SWAP1 DUP1 PUSH1 0x1 DUP2 SLOAD ADD DUP1 DUP3 SSTORE DUP1 SWAP2 POP POP PUSH1 0x1 SWAP1 SUB SWAP1 PUSH0 MSTORE PUSH1 0x20 PUSH0 KECCAK256 ADD PUSH0 SWAP1 SWAP2 SWAP1 SWAP2 SWAP1 SWAP2 PUSH2 0x100 EXP DUP2 SLOAD DUP2 PUSH20 0xFFFFFFFFFFFFFFFFFFFFFFFFFFFFFFFFFFFFFFFF MUL NOT AND SWAP1 DUP4 PUSH20 0xFFFFFFFFFFFFFFFFFFFFFFFFFFFFFFFFFFFFFFFF AND MUL OR SWAP1 SSTORE POP JUMPDEST CALLVALUE PUSH1 0x5 PUSH0 CALLER PUSH20 0xFFFFFFFFFFFFFFFFFFFFFFFFFFFFFFFFFFFFFFFF AND PUSH20 0xFFFFFFFFFFFFFFFFFFFFFFFFFFFFFFFFFFFFFFFF AND DUP2 MSTORE PUSH1 0x20 ADD SWAP1 DUP2 MSTORE PUSH1 0x20 ADD PUSH0 KECCAK256 PUSH0 DUP3 DUP3 SLOAD PUSH2 0x7C9 SWAP2 SWAP1 PUSH2 0x16DA JUMP JUMPDEST SWAP3 POP POP DUP2 SWAP1 SSTORE POP PUSH1 0x3 SLOAD CALLVALUE GT ISZERO PUSH2 0x822 JUMPI CALLVALUE PUSH1 0x3 DUP2 SWAP1 SSTORE POP CALLER PUSH1 0x4 PUSH0 PUSH2 0x100 EXP DUP2 SLOAD DUP2 PUSH20 0xFFFFFFFFFFFFFFFFFFFFFFFFFFFFFFFFFFFFFFFF MUL NOT AND SWAP1 DUP4 PUSH20 0xFFFFFFFFFFFFFFFFFFFFFFFFFFFFFFFFFFFFFFFF AND MUL OR SWAP1 SSTORE POP JUMPDEST PUSH1 0x40 MLOAD DUP1 PUSH1 0x40 ADD PUSH1 0x40 MSTORE DUP1 CALLER PUSH20 0xFFFFFFFFFFFFFFFFFFFFFFFFFFFFFFFFFFFFFFFF AND DUP2 MSTORE PUSH1 0x20 ADD CALLVALUE DUP2 MSTORE POP PUSH1 0x6 PUSH0 CALLER PUSH20 0xFFFFFFFFFFFFFFFFFFFFFFFFFFFFFFFFFFFFFFFF AND PUSH20 0xFFFFFFFFFFFFFFFFFFFFFFFFFFFFFFFFFFFFFFFF AND DUP2 MSTORE PUSH1 0x20 ADD SWAP1 DUP2 MSTORE PUSH1 0x20 ADD PUSH0 KECCAK256 PUSH0 DUP3 ADD MLOAD DUP2 PUSH0 ADD PUSH0 PUSH2 0x100 EXP DUP2 SLOAD DUP2 PUSH20 0xFFFFFFFFFFFFFFFFFFFFFFFFFFFFFFFFFFFFFFFF MUL NOT AND SWAP1 DUP4 PUSH20 0xFFFFFFFFFFFFFFFFFFFFFFFFFFFFFFFFFFFFFFFF AND MUL OR SWAP1 SSTORE POP PUSH1 0x20 DUP3 ADD MLOAD DUP2 PUSH1 0x1 ADD SSTORE SWAP1 POP POP CALLER PUSH20 0xFFFFFFFFFFFFFFFFFFFFFFFFFFFFFFFFFFFFFFFF AND PUSH32 0xDD0B6C6A77960E2066C96171B4D7AC9E8B4C184011F38544AFA36A5BB63EC59F CALLVALUE PUSH1 0x40 MLOAD PUSH2 0x921 SWAP2 SWAP1 PUSH2 0x14B6 JUMP JUMPDEST PUSH1 0x40 MLOAD DUP1 SWAP2 SUB SWAP1 LOG2 PUSH2 0x258 TIMESTAMP PUSH1 0x2 SLOAD PUSH2 0x93A SWAP2 SWAP1 PUSH2 0x1775 JUMP JUMPDEST GT ISZERO DUP1 ISZERO PUSH2 0x949 JUMPI POP PUSH1 0x2 SLOAD TIMESTAMP LT JUMPDEST ISZERO PUSH2 0x9A2 JUMPI PUSH2 0x258 PUSH1 0x2 PUSH0 DUP3 DUP3 SLOAD PUSH2 0x961 SWAP2 SWAP1 PUSH2 0x16DA JUMP JUMPDEST SWAP3 POP POP DUP2 SWAP1 SSTORE POP PUSH32 0xC2B459809119087CA9D2BC10DEA53A51B7D848B1A11075DB037BDCA58292C3E8 PUSH1 0x2 SLOAD PUSH1 0x40 MLOAD PUSH2 0x999 SWAP2 SWAP1 PUSH2 0x14B6 JUMP JUMPDEST PUSH1 0x40 MLOAD DUP1 SWAP2 SUB SWAP1 LOG1 JUMPDEST POP JUMP JUMPDEST PUSH0 PUSH0 SWAP1 SLOAD SWAP1 PUSH2 0x100 EXP SWAP1 DIV PUSH20 0xFFFFFFFFFFFFFFFFFFFFFFFFFFFFFFFFFFFFFFFF AND PUSH20 0xFFFFFFFFFFFFFFFFFFFFFFFFFFFFFFFFFFFFFFFF AND CALLER PUSH20 0xFFFFFFFFFFFFFFFFFFFFFFFFFFFFFFFFFFFFFFFF AND EQ PUSH2 0xA33 JUMPI PUSH1 0x40 MLOAD PUSH32 0x8C379A000000000000000000000000000000000000000000000000000000000 DUP2 MSTORE PUSH1 0x4 ADD PUSH2 0xA2A SWAP1 PUSH2 0x17F2 JUMP JUMPDEST PUSH1 0x40 MLOAD DUP1 SWAP2 SUB SWAP1 REVERT JUMPDEST PUSH1 0x2 SLOAD TIMESTAMP LT ISZERO DUP1 PUSH2 0xA50 JUMPI POP PUSH1 0x4 PUSH1 0x14 SWAP1 SLOAD SWAP1 PUSH2 0x100 EXP SWAP1 DIV PUSH1 0xFF AND JUMPDEST PUSH2 0xA8F JUMPI PUSH1 0x40 MLOAD PUSH32 0x8C379A000000000000000000000000000000000000000000000000000000000 DUP2 MSTORE PUSH1 0x4 ADD PUSH2 0xA86 SWAP1 PUSH2 0x185A JUMP JUMPDEST PUSH1 0x40 MLOAD DUP1 SWAP2 SUB SWAP1 REVERT JUMPDEST PUSH0 PUSH0 SWAP1 POP JUMPDEST PUSH1 0x7 DUP1 SLOAD SWAP1 POP DUP2 LT ISZERO PUSH2 0xD39 JUMPI PUSH0 PUSH1 0x7 DUP3 DUP2 SLOAD DUP2 LT PUSH2 0xAB6 JUMPI PUSH2 0xAB5 PUSH2 0x156A JUMP JUMPDEST JUMPDEST SWAP1 PUSH0 MSTORE PUSH1 0x20 PUSH0 KECCAK256 ADD PUSH0 SWAP1 SLOAD SWAP1 PUSH2 0x100 EXP SWAP1 DIV PUSH20 0xFFFFFFFFFFFFFFFFFFFFFFFFFFFFFFFFFFFFFFFF AND SWAP1 POP PUSH1 0x4 PUSH0 SWAP1 SLOAD SWAP1 PUSH2 0x100 EXP SWAP1 DIV PUSH20 0xFFFFFFFFFFFFFFFFFFFFFFFFFFFFFFFFFFFFFFFF AND PUSH20 0xFFFFFFFFFFFFFFFFFFFFFFFFFFFFFFFFFFFFFFFF AND DUP2 PUSH20 0xFFFFFFFFFFFFFFFFFFFFFFFFFFFFFFFFFFFFFFFF AND EQ DUP1 PUSH2 0xB77 JUMPI POP PUSH0 PUSH1 0x5 PUSH0 DUP4 PUSH20 0xFFFFFFFFFFFFFFFFFFFFFFFFFFFFFFFFFFFFFFFF AND PUSH20 0xFFFFFFFFFFFFFFFFFFFFFFFFFFFFFFFFFFFFFFFF AND DUP2 MSTORE PUSH1 0x20 ADD SWAP1 DUP2 MSTORE PUSH1 0x20 ADD PUSH0 KECCAK256 SLOAD EQ JUMPDEST ISZERO PUSH2 0xB82 JUMPI POP PUSH2 0xD2C JUMP JUMPDEST PUSH0 PUSH1 0x5 PUSH0 DUP4 PUSH20 0xFFFFFFFFFFFFFFFFFFFFFFFFFFFFFFFFFFFFFFFF AND PUSH20 0xFFFFFFFFFFFFFFFFFFFFFFFFFFFFFFFFFFFFFFFF AND DUP2 MSTORE PUSH1 0x20 ADD SWAP1 DUP2 MSTORE PUSH1 0x20 ADD PUSH0 KECCAK256 SLOAD SWAP1 POP PUSH0 PUSH1 0x64 PUSH1 0x2 DUP4 PUSH2 0xBD3 SWAP2 SWAP1 PUSH2 0x163C JUMP JUMPDEST PUSH2 0xBDD SWAP2 SWAP1 PUSH2 0x16AA JUMP JUMPDEST SWAP1 POP PUSH0 DUP2 DUP4 PUSH2 0xBEC SWAP2 SWAP1 PUSH2 0x1775 JUMP JUMPDEST SWAP1 POP PUSH0 PUSH1 0x5 PUSH0 DUP7 PUSH20 0xFFFFFFFFFFFFFFFFFFFFFFFFFFFFFFFFFFFFFFFF AND PUSH20 0xFFFFFFFFFFFFFFFFFFFFFFFFFFFFFFFFFFFFFFFF AND DUP2 MSTORE PUSH1 0x20 ADD SWAP1 DUP2 MSTORE PUSH1 0x20 ADD PUSH0 KECCAK256 DUP2 SWAP1 SSTORE POP PUSH0 DUP5 PUSH20 0xFFFFFFFFFFFFFFFFFFFFFFFFFFFFFFFFFFFFFFFF AND DUP3 PUSH1 0x40 MLOAD PUSH2 0xC55 SWAP1 PUSH2 0x18A5 JUMP JUMPDEST PUSH0 PUSH1 0x40 MLOAD DUP1 DUP4 SUB DUP2 DUP6 DUP8 GAS CALL SWAP3 POP POP POP RETURNDATASIZE DUP1 PUSH0 DUP2 EQ PUSH2 0xC8F JUMPI PUSH1 0x40 MLOAD SWAP2 POP PUSH1 0x1F NOT PUSH1 0x3F RETURNDATASIZE ADD AND DUP3 ADD PUSH1 0x40 MSTORE RETURNDATASIZE DUP3 MSTORE RETURNDATASIZE PUSH0 PUSH1 0x20 DUP5 ADD RETURNDATACOPY PUSH2 0xC94 JUMP JUMPDEST PUSH1 0x60 SWAP2 POP JUMPDEST POP POP SWAP1 POP DUP1 PUSH2 0xCD8 JUMPI PUSH1 0x40 MLOAD PUSH32 0x8C379A000000000000000000000000000000000000000000000000000000000 DUP2 MSTORE PUSH1 0x4 ADD PUSH2 0xCCF SWAP1 PUSH2 0x1903 JUMP JUMPDEST PUSH1 0x40 MLOAD DUP1 SWAP2 SUB SWAP1 REVERT JUMPDEST DUP5 PUSH20 0xFFFFFFFFFFFFFFFFFFFFFFFFFFFFFFFFFFFFFFFF AND PUSH32 0x698270F63D8B673ED55A5CA00D14001BD808B390DBE11D5B1B16624863F71F77 DUP4 PUSH1 0x40 MLOAD PUSH2 0xD1E SWAP2 SWAP1 PUSH2 0x14B6 JUMP JUMPDEST PUSH1 0x40 MLOAD DUP1 SWAP2 SUB SWAP1 LOG2 POP POP POP POP POP JUMPDEST DUP1 DUP1 PUSH1 0x1 ADD SWAP2 POP POP PUSH2 0xA94 JUMP JUMPDEST POP JUMP JUMPDEST PUSH1 0x6 PUSH1 0x20 MSTORE DUP1 PUSH0 MSTORE PUSH1 0x40 PUSH0 KECCAK256 PUSH0 SWAP2 POP SWAP1 POP DUP1 PUSH0 ADD PUSH0 SWAP1 SLOAD SWAP1 PUSH2 0x100 EXP SWAP1 DIV PUSH20 0xFFFFFFFFFFFFFFFFFFFFFFFFFFFFFFFFFFFFFFFF AND SWAP1 DUP1 PUSH1 0x1 ADD SLOAD SWAP1 POP DUP3 JUMP JUMPDEST PUSH1 0x2 SLOAD DUP2 JUMP JUMPDEST PUSH2 0x258 DUP2 JUMP JUMPDEST PUSH0 PUSH0 SWAP1 SLOAD SWAP1 PUSH2 0x100 EXP SWAP1 DIV PUSH20 0xFFFFFFFFFFFFFFFFFFFFFFFFFFFFFFFFFFFFFFFF AND DUP2 JUMP JUMPDEST PUSH1 0x4 PUSH0 SWAP1 SLOAD SWAP1 PUSH2 0x100 EXP SWAP1 DIV PUSH20 0xFFFFFFFFFFFFFFFFFFFFFFFFFFFFFFFFFFFFFFFF AND DUP2 JUMP JUMPDEST PUSH1 0x7 DUP2 DUP2 SLOAD DUP2 LT PUSH2 0xDDF JUMPI PUSH0 DUP1 REVERT JUMPDEST SWAP1 PUSH0 MSTORE PUSH1 0x20 PUSH0 KECCAK256 ADD PUSH0 SWAP2 POP SLOAD SWAP1 PUSH2 0x100 EXP SWAP1 DIV PUSH20 0xFFFFFFFFFFFFFFFFFFFFFFFFFFFFFFFFFFFFFFFF AND DUP2 JUMP JUMPDEST PUSH1 0x2 DUP2 JUMP JUMPDEST PUSH0 PUSH0 PUSH1 0x2 SLOAD TIMESTAMP LT ISZERO DUP1 PUSH2 0xE2F JUMPI POP PUSH1 0x4 PUSH1 0x14 SWAP1 SLOAD SWAP1 PUSH2 0x100 EXP SWAP1 DIV PUSH1 0xFF AND JUMPDEST PUSH2 0xE6E JUMPI PUSH1 0x40 MLOAD PUSH32 0x8C379A000000000000000000000000000000000000000000000000000000000 DUP2 MSTORE PUSH1 0x4 ADD PUSH2 0xE65 SWAP1 PUSH2 0x185A JUMP JUMPDEST PUSH1 0x40 MLOAD DUP1 SWAP2 SUB SWAP1 REVERT JUMPDEST PUSH1 0x4 PUSH0 SWAP1 SLOAD SWAP1 PUSH2 0x100 EXP SWAP1 DIV PUSH20 0xFFFFFFFFFFFFFFFFFFFFFFFFFFFFFFFFFFFFFFFF AND PUSH1 0x3 SLOAD SWAP2 POP SWAP2 POP SWAP1 SWAP2 JUMP JUMPDEST PUSH1 0x5 DUP2 JUMP JUMPDEST PUSH1 0x2 SLOAD TIMESTAMP LT DUP1 ISZERO PUSH2 0xEBE JUMPI POP PUSH1 0x4 PUSH1 0x14 SWAP1 SLOAD SWAP1 PUSH2 0x100 EXP SWAP1 DIV PUSH1 0xFF AND ISZERO JUMPDEST PUSH2 0xEFD JUMPI PUSH1 0x40 MLOAD PUSH32 0x8C379A000000000000000000000000000000000000000000000000000000000 DUP2 MSTORE PUSH1 0x4 ADD PUSH2 0xEF4 SWAP1 PUSH2 0x15F1 JUMP JUMPDEST PUSH1 0x40 MLOAD DUP1 SWAP2 SUB SWAP1 REVERT JUMPDEST PUSH0 PUSH1 0x5 PUSH0 CALLER PUSH20 0xFFFFFFFFFFFFFFFFFFFFFFFFFFFFFFFFFFFFFFFF AND PUSH20 0xFFFFFFFFFFFFFFFFFFFFFFFFFFFFFFFFFFFFFFFF AND DUP2 MSTORE PUSH1 0x20 ADD SWAP1 DUP2 MSTORE PUSH1 0x20 ADD PUSH0 KECCAK256 SLOAD SWAP1 POP PUSH0 PUSH1 0x6 PUSH0 CALLER PUSH20 0xFFFFFFFFFFFFFFFFFFFFFFFFFFFFFFFFFFFFFFFF AND PUSH20 0xFFFFFFFFFFFFFFFFFFFFFFFFFFFFFFFFFFFFFFFF AND DUP2 MSTORE PUSH1 0x20 ADD SWAP1 DUP2 MSTORE PUSH1 0x20 ADD PUSH0 KECCAK256 PUSH1 0x1 ADD SLOAD SWAP1 POP DUP1 DUP3 GT PUSH2 0xFC4 JUMPI PUSH1 0x40 MLOAD PUSH32 0x8C379A000000000000000000000000000000000000000000000000000000000 DUP2 MSTORE PUSH1 0x4 ADD PUSH2 0xFBB SWAP1 PUSH2 0x196B JUMP JUMPDEST PUSH1 0x40 MLOAD DUP1 SWAP2 SUB SWAP1 REVERT JUMPDEST PUSH0 DUP2 DUP4 PUSH2 0xFD1 SWAP2 SWAP1 PUSH2 0x1775 JUMP JUMPDEST SWAP1 POP DUP2 PUSH1 0x5 PUSH0 CALLER PUSH20 0xFFFFFFFFFFFFFFFFFFFFFFFFFFFFFFFFFFFFFFFF AND PUSH20 0xFFFFFFFFFFFFFFFFFFFFFFFFFFFFFFFFFFFFFFFF AND DUP2 MSTORE PUSH1 0x20 ADD SWAP1 DUP2 MSTORE PUSH1 0x20 ADD PUSH0 KECCAK256 DUP2 SWAP1 SSTORE POP PUSH0 CALLER PUSH20 0xFFFFFFFFFFFFFFFFFFFFFFFFFFFFFFFFFFFFFFFF AND DUP3 PUSH1 0x40 MLOAD PUSH2 0x103A SWAP1 PUSH2 0x18A5 JUMP JUMPDEST PUSH0 PUSH1 0x40 MLOAD DUP1 DUP4 SUB DUP2 DUP6 DUP8 GAS CALL SWAP3 POP POP POP RETURNDATASIZE DUP1 PUSH0 DUP2 EQ PUSH2 0x1074 JUMPI PUSH1 0x40 MLOAD SWAP2 POP PUSH1 0x1F NOT PUSH1 0x3F RETURNDATASIZE ADD AND DUP3 ADD PUSH1 0x40 MSTORE RETURNDATASIZE DUP3 MSTORE RETURNDATASIZE PUSH0 PUSH1 0x20 DUP5 ADD RETURNDATACOPY PUSH2 0x1079 JUMP JUMPDEST PUSH1 0x60 SWAP2 POP JUMPDEST POP POP SWAP1 POP DUP1 PUSH2 0x10BD JUMPI PUSH1 0x40 MLOAD PUSH32 0x8C379A000000000000000000000000000000000000000000000000000000000 DUP2 MSTORE PUSH1 0x4 ADD PUSH2 0x10B4 SWAP1 PUSH2 0x19D3 JUMP JUMPDEST PUSH1 0x40 MLOAD DUP1 SWAP2 SUB SWAP1 REVERT JUMPDEST CALLER PUSH20 0xFFFFFFFFFFFFFFFFFFFFFFFFFFFFFFFFFFFFFFFF AND PUSH32 0x8468F8FA62FC679CF8165EAB7662A1FA977705B501DD787E9EC07884885425F1 DUP4 PUSH1 0x40 MLOAD PUSH2 0x1103 SWAP2 SWAP1 PUSH2 0x14B6 JUMP JUMPDEST PUSH1 0x40 MLOAD DUP1 SWAP2 SUB SWAP1 LOG2 POP POP POP POP JUMP JUMPDEST PUSH1 0x3 SLOAD DUP2 JUMP JUMPDEST PUSH1 0x1 SLOAD DUP2 JUMP JUMPDEST PUSH1 0x5 PUSH1 0x20 MSTORE DUP1 PUSH0 MSTORE PUSH1 0x40 PUSH0 KECCAK256 PUSH0 SWAP2 POP SWAP1 POP SLOAD DUP2 JUMP JUMPDEST PUSH1 0x2 SLOAD TIMESTAMP LT ISZERO DUP1 ISZERO PUSH2 0x1151 JUMPI POP PUSH1 0x4 PUSH1 0x14 SWAP1 SLOAD SWAP1 PUSH2 0x100 EXP SWAP1 DIV PUSH1 0xFF AND ISZERO JUMPDEST PUSH2 0x1190 JUMPI PUSH1 0x40 MLOAD PUSH32 0x8C379A000000000000000000000000000000000000000000000000000000000 DUP2 MSTORE PUSH1 0x4 ADD PUSH2 0x1187 SWAP1 PUSH2 0x1A3B JUMP JUMPDEST PUSH1 0x40 MLOAD DUP1 SWAP2 SUB SWAP1 REVERT JUMPDEST PUSH1 0x1 PUSH1 0x4 PUSH1 0x14 PUSH2 0x100 EXP DUP2 SLOAD DUP2 PUSH1 0xFF MUL NOT AND SWAP1 DUP4 ISZERO ISZERO MUL OR SWAP1 SSTORE POP PUSH32 0xDAEC4582D5D9595688C8C98545FDD1C696D41C6AEAEB636737E84ED2F5C00EDA PUSH1 0x4 PUSH0 SWAP1 SLOAD SWAP1 PUSH2 0x100 EXP SWAP1 DIV PUSH20 0xFFFFFFFFFFFFFFFFFFFFFFFFFFFFFFFFFFFFFFFF AND PUSH1 0x3 SLOAD PUSH1 0x40 MLOAD PUSH2 0x11FF SWAP3 SWAP2 SWAP1 PUSH2 0x148F JUMP JUMPDEST PUSH1 0x40 MLOAD DUP1 SWAP2 SUB SWAP1 LOG1 JUMP JUMPDEST PUSH0 DUP2 ISZERO ISZERO SWAP1 POP SWAP2 SWAP1 POP JUMP JUMPDEST PUSH2 0x121D DUP2 PUSH2 0x1209 JUMP JUMPDEST DUP3 MSTORE POP POP JUMP JUMPDEST PUSH0 PUSH1 0x20 DUP3 ADD SWAP1 POP PUSH2 0x1236 PUSH0 DUP4 ADD DUP5 PUSH2 0x1214 JUMP JUMPDEST SWAP3 SWAP2 POP POP JUMP JUMPDEST PUSH0 DUP2 MLOAD SWAP1 POP SWAP2 SWAP1 POP JUMP JUMPDEST PUSH0 DUP3 DUP3 MSTORE PUSH1 0x20 DUP3 ADD SWAP1 POP SWAP3 SWAP2 POP POP JUMP JUMPDEST PUSH0 DUP2 SWAP1 POP PUSH1 0x20 DUP3 ADD SWAP1 POP SWAP2 SWAP1 POP JUMP JUMPDEST PUSH0 PUSH20 0xFFFFFFFFFFFFFFFFFFFFFFFFFFFFFFFFFFFFFFFF DUP3 AND SWAP1 POP SWAP2 SWAP1 POP JUMP JUMPDEST PUSH0 PUSH2 0x128E DUP3 PUSH2 0x1265 JUMP JUMPDEST SWAP1 POP SWAP2 SWAP1 POP JUMP JUMPDEST PUSH2 0x129E DUP2 PUSH2 0x1284 JUMP JUMPDEST DUP3 MSTORE POP POP JUMP JUMPDEST PUSH0 PUSH2 0x12AF DUP4 DUP4 PUSH2 0x1295 JUMP JUMPDEST PUSH1 0x20 DUP4 ADD SWAP1 POP SWAP3 SWAP2 POP POP JUMP JUMPDEST PUSH0 PUSH1 0x20 DUP3 ADD SWAP1 POP SWAP2 SWAP1 POP JUMP JUMPDEST PUSH0 PUSH2 0x12D1 DUP3 PUSH2 0x123C JUMP JUMPDEST PUSH2 0x12DB DUP2 DUP6 PUSH2 0x1246 JUMP JUMPDEST SWAP4 POP PUSH2 0x12E6 DUP4 PUSH2 0x1256 JUMP JUMPDEST DUP1 PUSH0 JUMPDEST DUP4 DUP2 LT ISZERO PUSH2 0x1316 JUMPI DUP2 MLOAD PUSH2 0x12FD DUP9 DUP3 PUSH2 0x12A4 JUMP JUMPDEST SWAP8 POP PUSH2 0x1308 DUP4 PUSH2 0x12BB JUMP JUMPDEST SWAP3 POP POP PUSH1 0x1 DUP2 ADD SWAP1 POP PUSH2 0x12E9 JUMP JUMPDEST POP DUP6 SWAP4 POP POP POP POP SWAP3 SWAP2 POP POP JUMP JUMPDEST PUSH0 DUP2 MLOAD SWAP1 POP SWAP2 SWAP1 POP JUMP JUMPDEST PUSH0 DUP3 DUP3 MSTORE PUSH1 0x20 DUP3 ADD SWAP1 POP SWAP3 SWAP2 POP POP JUMP JUMPDEST PUSH0 DUP2 SWAP1 POP PUSH1 0x20 DUP3 ADD SWAP1 POP SWAP2 SWAP1 POP JUMP JUMPDEST PUSH0 DUP2 SWAP1 POP SWAP2 SWAP1 POP JUMP JUMPDEST PUSH2 0x135E DUP2 PUSH2 0x134C JUMP JUMPDEST DUP3 MSTORE POP POP JUMP JUMPDEST PUSH0 PUSH2 0x136F DUP4 DUP4 PUSH2 0x1355 JUMP JUMPDEST PUSH1 0x20 DUP4 ADD SWAP1 POP SWAP3 SWAP2 POP POP JUMP JUMPDEST PUSH0 PUSH1 0x20 DUP3 ADD SWAP1 POP SWAP2 SWAP1 POP JUMP JUMPDEST PUSH0 PUSH2 0x1391 DUP3 PUSH2 0x1323 JUMP JUMPDEST PUSH2 0x139B DUP2 DUP6 PUSH2 0x132D JUMP JUMPDEST SWAP4 POP PUSH2 0x13A6 DUP4 PUSH2 0x133D JUMP JUMPDEST DUP1 PUSH0 JUMPDEST DUP4 DUP2 LT ISZERO PUSH2 0x13D6 JUMPI DUP2 MLOAD PUSH2 0x13BD DUP9 DUP3 PUSH2 0x1364 JUMP JUMPDEST SWAP8 POP PUSH2 0x13C8 DUP4 PUSH2 0x137B JUMP JUMPDEST SWAP3 POP POP PUSH1 0x1 DUP2 ADD SWAP1 POP PUSH2 0x13A9 JUMP JUMPDEST POP DUP6 SWAP4 POP POP POP POP SWAP3 SWAP2 POP POP JUMP JUMPDEST PUSH0 PUSH1 0x40 DUP3 ADD SWAP1 POP DUP2 DUP2 SUB PUSH0 DUP4 ADD MSTORE PUSH2 0x13FB DUP2 DUP6 PUSH2 0x12C7 JUMP JUMPDEST SWAP1 POP DUP2 DUP2 SUB PUSH1 0x20 DUP4 ADD MSTORE PUSH2 0x140F DUP2 DUP5 PUSH2 0x1387 JUMP JUMPDEST SWAP1 POP SWAP4 SWAP3 POP POP POP JUMP JUMPDEST PUSH0 PUSH0 REVERT JUMPDEST PUSH2 0x1425 DUP2 PUSH2 0x1284 JUMP JUMPDEST DUP2 EQ PUSH2 0x142F JUMPI PUSH0 PUSH0 REVERT JUMPDEST POP JUMP JUMPDEST PUSH0 DUP2 CALLDATALOAD SWAP1 POP PUSH2 0x1440 DUP2 PUSH2 0x141C JUMP JUMPDEST SWAP3 SWAP2 POP POP JUMP JUMPDEST PUSH0 PUSH1 0x20 DUP3 DUP5 SUB SLT ISZERO PUSH2 0x145B JUMPI PUSH2 0x145A PUSH2 0x1418 JUMP JUMPDEST JUMPDEST PUSH0 PUSH2 0x1468 DUP5 DUP3 DUP6 ADD PUSH2 0x1432 JUMP JUMPDEST SWAP2 POP POP SWAP3 SWAP2 POP POP JUMP JUMPDEST PUSH2 0x147A DUP2 PUSH2 0x1284 JUMP JUMPDEST DUP3 MSTORE POP POP JUMP JUMPDEST PUSH2 0x1489 DUP2 PUSH2 0x134C JUMP JUMPDEST DUP3 MSTORE POP POP JUMP JUMPDEST PUSH0 PUSH1 0x40 DUP3 ADD SWAP1 POP PUSH2 0x14A2 PUSH0 DUP4 ADD DUP6 PUSH2 0x1471 JUMP JUMPDEST PUSH2 0x14AF PUSH1 0x20 DUP4 ADD DUP5 PUSH2 0x1480 JUMP JUMPDEST SWAP4 SWAP3 POP POP POP JUMP JUMPDEST PUSH0 PUSH1 0x20 DUP3 ADD SWAP1 POP PUSH2 0x14C9 PUSH0 DUP4 ADD DUP5 PUSH2 0x1480 JUMP JUMPDEST SWAP3 SWAP2 POP POP JUMP JUMPDEST PUSH0 PUSH1 0x20 DUP3 ADD SWAP1 POP PUSH2 0x14E2 PUSH0 DUP4 ADD DUP5 PUSH2 0x1471 JUMP JUMPDEST SWAP3 SWAP2 POP POP JUMP JUMPDEST PUSH2 0x14F1 DUP2 PUSH2 0x134C JUMP JUMPDEST DUP2 EQ PUSH2 0x14FB JUMPI PUSH0 PUSH0 REVERT JUMPDEST POP JUMP JUMPDEST PUSH0 DUP2 CALLDATALOAD SWAP1 POP PUSH2 0x150C DUP2 PUSH2 0x14E8 JUMP JUMPDEST SWAP3 SWAP2 POP POP JUMP JUMPDEST PUSH0 PUSH1 0x20 DUP3 DUP5 SUB SLT ISZERO PUSH2 0x1527 JUMPI PUSH2 0x1526 PUSH2 0x1418 JUMP JUMPDEST JUMPDEST PUSH0 PUSH2 0x1534 DUP5 DUP3 DUP6 ADD PUSH2 0x14FE JUMP JUMPDEST SWAP2 POP POP SWAP3 SWAP2 POP POP JUMP JUMPDEST PUSH32 0x4E487B7100000000000000000000000000000000000000000000000000000000 PUSH0 MSTORE PUSH1 0x41 PUSH1 0x4 MSTORE PUSH1 0x24 PUSH0 REVERT JUMPDEST PUSH32 0x4E487B7100000000000000000000000000000000000000000000000000000000 PUSH0 MSTORE PUSH1 0x32 PUSH1 0x4 MSTORE PUSH1 0x24 PUSH0 REVERT JUMPDEST PUSH0 DUP3 DUP3 MSTORE PUSH1 0x20 DUP3 ADD SWAP1 POP SWAP3 SWAP2 POP POP JUMP JUMPDEST PUSH32 0x41756374696F6E20696E6163746976652E000000000000000000000000000000 PUSH0 DUP3 ADD MSTORE POP JUMP JUMPDEST PUSH0 PUSH2 0x15DB PUSH1 0x11 DUP4 PUSH2 0x1597 JUMP JUMPDEST SWAP2 POP PUSH2 0x15E6 DUP3 PUSH2 0x15A7 JUMP JUMPDEST PUSH1 0x20 DUP3 ADD SWAP1 POP SWAP2 SWAP1 POP JUMP JUMPDEST PUSH0 PUSH1 0x20 DUP3 ADD SWAP1 POP DUP2 DUP2 SUB PUSH0 DUP4 ADD MSTORE PUSH2 0x1608 DUP2 PUSH2 0x15CF JUMP JUMPDEST SWAP1 POP SWAP2 SWAP1 POP JUMP JUMPDEST PUSH32 0x4E487B7100000000000000000000000000000000000000000000000000000000 PUSH0 MSTORE PUSH1 0x11 PUSH1 0x4 MSTORE PUSH1 0x24 PUSH0 REVERT JUMPDEST PUSH0 PUSH2 0x1646 DUP3 PUSH2 0x134C JUMP JUMPDEST SWAP2 POP PUSH2 0x1651 DUP4 PUSH2 0x134C JUMP JUMPDEST SWAP3 POP DUP3 DUP3 MUL PUSH2 0x165F DUP2 PUSH2 0x134C JUMP JUMPDEST SWAP2 POP DUP3 DUP3 DIV DUP5 EQ DUP4 ISZERO OR PUSH2 0x1676 JUMPI PUSH2 0x1675 PUSH2 0x160F JUMP JUMPDEST JUMPDEST POP SWAP3 SWAP2 POP POP JUMP JUMPDEST PUSH32 0x4E487B7100000000000000000000000000000000000000000000000000000000 PUSH0 MSTORE PUSH1 0x12 PUSH1 0x4 MSTORE PUSH1 0x24 PUSH0 REVERT JUMPDEST PUSH0 PUSH2 0x16B4 DUP3 PUSH2 0x134C JUMP JUMPDEST SWAP2 POP PUSH2 0x16BF DUP4 PUSH2 0x134C JUMP JUMPDEST SWAP3 POP DUP3 PUSH2 0x16CF JUMPI PUSH2 0x16CE PUSH2 0x167D JUMP JUMPDEST JUMPDEST DUP3 DUP3 DIV SWAP1 POP SWAP3 SWAP2 POP POP JUMP JUMPDEST PUSH0 PUSH2 0x16E4 DUP3 PUSH2 0x134C JUMP JUMPDEST SWAP2 POP PUSH2 0x16EF DUP4 PUSH2 0x134C JUMP JUMPDEST SWAP3 POP DUP3 DUP3 ADD SWAP1 POP DUP1 DUP3 GT ISZERO PUSH2 0x1707 JUMPI PUSH2 0x1706 PUSH2 0x160F JUMP JUMPDEST JUMPDEST SWAP3 SWAP2 POP POP JUMP JUMPDEST PUSH32 0x42696420746F6F206C6F772E0000000000000000000000000000000000000000 PUSH0 DUP3 ADD MSTORE POP JUMP JUMPDEST PUSH0 PUSH2 0x1741 PUSH1 0xC DUP4 PUSH2 0x1597 JUMP JUMPDEST SWAP2 POP PUSH2 0x174C DUP3 PUSH2 0x170D JUMP JUMPDEST PUSH1 0x20 DUP3 ADD SWAP1 POP SWAP2 SWAP1 POP JUMP JUMPDEST PUSH0 PUSH1 0x20 DUP3 ADD SWAP1 POP DUP2 DUP2 SUB PUSH0 DUP4 ADD MSTORE PUSH2 0x176E DUP2 PUSH2 0x1735 JUMP JUMPDEST SWAP1 POP SWAP2 SWAP1 POP JUMP JUMPDEST PUSH0 PUSH2 0x177F DUP3 PUSH2 0x134C JUMP JUMPDEST SWAP2 POP PUSH2 0x178A DUP4 PUSH2 0x134C JUMP JUMPDEST SWAP3 POP DUP3 DUP3 SUB SWAP1 POP DUP2 DUP2 GT ISZERO PUSH2 0x17A2 JUMPI PUSH2 0x17A1 PUSH2 0x160F JUMP JUMPDEST JUMPDEST SWAP3 SWAP2 POP POP JUMP JUMPDEST PUSH32 0x4F6E6C79206F776E65722E000000000000000000000000000000000000000000 PUSH0 DUP3 ADD MSTORE POP JUMP JUMPDEST PUSH0 PUSH2 0x17DC PUSH1 0xB DUP4 PUSH2 0x1597 JUMP JUMPDEST SWAP2 POP PUSH2 0x17E7 DUP3 PUSH2 0x17A8 JUMP JUMPDEST PUSH1 0x20 DUP3 ADD SWAP1 POP SWAP2 SWAP1 POP JUMP JUMPDEST PUSH0 PUSH1 0x20 DUP3 ADD SWAP1 POP DUP2 DUP2 SUB PUSH0 DUP4 ADD MSTORE PUSH2 0x1809 DUP2 PUSH2 0x17D0 JUMP JUMPDEST SWAP1 POP SWAP2 SWAP1 POP JUMP JUMPDEST PUSH32 0x41756374696F6E206E6F7420656E6465642E0000000000000000000000000000 PUSH0 DUP3 ADD MSTORE POP JUMP JUMPDEST PUSH0 PUSH2 0x1844 PUSH1 0x12 DUP4 PUSH2 0x1597 JUMP JUMPDEST SWAP2 POP PUSH2 0x184F DUP3 PUSH2 0x1810 JUMP JUMPDEST PUSH1 0x20 DUP3 ADD SWAP1 POP SWAP2 SWAP1 POP JUMP JUMPDEST PUSH0 PUSH1 0x20 DUP3 ADD SWAP1 POP DUP2 DUP2 SUB PUSH0 DUP4 ADD MSTORE PUSH2 0x1871 DUP2 PUSH2 0x1838 JUMP JUMPDEST SWAP1 POP SWAP2 SWAP1 POP JUMP JUMPDEST PUSH0 DUP2 SWAP1 POP SWAP3 SWAP2 POP POP JUMP JUMPDEST POP JUMP JUMPDEST PUSH0 PUSH2 0x1890 PUSH0 DUP4 PUSH2 0x1878 JUMP JUMPDEST SWAP2 POP PUSH2 0x189B DUP3 PUSH2 0x1882 JUMP JUMPDEST PUSH0 DUP3 ADD SWAP1 POP SWAP2 SWAP1 POP JUMP JUMPDEST PUSH0 PUSH2 0x18AF DUP3 PUSH2 0x1885 JUMP JUMPDEST SWAP2 POP DUP2 SWAP1 POP SWAP2 SWAP1 POP JUMP JUMPDEST PUSH32 0x526566756E64206661696C65642E000000000000000000000000000000000000 PUSH0 DUP3 ADD MSTORE POP JUMP JUMPDEST PUSH0 PUSH2 0x18ED PUSH1 0xE DUP4 PUSH2 0x1597 JUMP JUMPDEST SWAP2 POP PUSH2 0x18F8 DUP3 PUSH2 0x18B9 JUMP JUMPDEST PUSH1 0x20 DUP3 ADD SWAP1 POP SWAP2 SWAP1 POP JUMP JUMPDEST PUSH0 PUSH1 0x20 DUP3 ADD SWAP1 POP DUP2 DUP2 SUB PUSH0 DUP4 ADD MSTORE PUSH2 0x191A DUP2 PUSH2 0x18E1 JUMP JUMPDEST SWAP1 POP SWAP2 SWAP1 POP JUMP JUMPDEST PUSH32 0x4E6F20657863657373206465706F7369742E0000000000000000000000000000 PUSH0 DUP3 ADD MSTORE POP JUMP JUMPDEST PUSH0 PUSH2 0x1955 PUSH1 0x12 DUP4 PUSH2 0x1597 JUMP JUMPDEST SWAP2 POP PUSH2 0x1960 DUP3 PUSH2 0x1921 JUMP JUMPDEST PUSH1 0x20 DUP3 ADD SWAP1 POP SWAP2 SWAP1 POP JUMP JUMPDEST PUSH0 PUSH1 0x20 DUP3 ADD SWAP1 POP DUP2 DUP2 SUB PUSH0 DUP4 ADD MSTORE PUSH2 0x1982 DUP2 PUSH2 0x1949 JUMP JUMPDEST SWAP1 POP SWAP2 SWAP1 POP JUMP JUMPDEST PUSH32 0x5061727469616C207769746864726177616C206661696C65642E000000000000 PUSH0 DUP3 ADD MSTORE POP JUMP JUMPDEST PUSH0 PUSH2 0x19BD PUSH1 0x1A DUP4 PUSH2 0x1597 JUMP JUMPDEST SWAP2 POP PUSH2 0x19C8 DUP3 PUSH2 0x1989 JUMP JUMPDEST PUSH1 0x20 DUP3 ADD SWAP1 POP SWAP2 SWAP1 POP JUMP JUMPDEST PUSH0 PUSH1 0x20 DUP3 ADD SWAP1 POP DUP2 DUP2 SUB PUSH0 DUP4 ADD MSTORE PUSH2 0x19EA DUP2 PUSH2 0x19B1 JUMP JUMPDEST SWAP1 POP SWAP2 SWAP1 POP JUMP JUMPDEST PUSH32 0x43616E6E6F7420656E642061756374696F6E2E00000000000000000000000000 PUSH0 DUP3 ADD MSTORE POP JUMP JUMPDEST PUSH0 PUSH2 0x1A25 PUSH1 0x13 DUP4 PUSH2 0x1597 JUMP JUMPDEST SWAP2 POP PUSH2 0x1A30 DUP3 PUSH2 0x19F1 JUMP JUMPDEST PUSH1 0x20 DUP3 ADD SWAP1 POP SWAP2 SWAP1 POP JUMP JUMPDEST PUSH0 PUSH1 0x20 DUP3 ADD SWAP1 POP DUP2 DUP2 SUB PUSH0 DUP4 ADD MSTORE PUSH2 0x1A52 DUP2 PUSH2 0x1A19 JUMP JUMPDEST SWAP1 POP SWAP2 SWAP1 POP JUMP INVALID LOG2 PUSH5 0x6970667358 0x22 SLT KECCAK256 0xFC SWAP2 0xEB 0x29 BYTE 0xF6 PUSH5 0x957660EA56 0xCE STOP LOG3 0xD7 SWAP12 REVERT SWAP7 SUB EXTDELEGATECALL 0xB3 0xC8 0xBB OR 0xB8 0xFC BASEFEE 0x27 0xC0 PUSH20 0xE564736F6C634300081E00330000000000000000 "
				},
				"gasEstimates": {
					"creation": {
						"codeDepositCost": "1359800",
						"executionCost": "infinite",
						"totalCost": "infinite"
					},
					"external": {
						"EXTENSION_TIME()": "392",
						"GAS_COMMISSION_PERCENT()": "370",
						"MIN_BID_INCREMENT_PERCENT()": "414",
						"allBidders(uint256)": "4967",
						"auctionEndTime()": "2470",
						"auctionStartTime()": "2491",
						"bid()": "infinite",
						"deposits(address)": "2890",
						"endAuction()": "34738",
						"ended()": "2541",
						"highestBid()": "2469",
						"highestBidder()": "2619",
						"lastBids(address)": "infinite",
						"owner()": "2596",
						"partialWithdrawal()": "infinite",
						"returnDeposits()": "infinite",
						"showBids()": "infinite",
						"showWinner()": "9127"
					}
				},
				"methodIdentifiers": {
					"EXTENSION_TIME()": "5681104a",
					"GAS_COMMISSION_PERCENT()": "b033e086",
					"MIN_BID_INCREMENT_PERCENT()": "bc996819",
					"allBidders(uint256)": "a013781b",
					"auctionEndTime()": "4b449cba",
					"auctionStartTime()": "eb54f9ec",
					"bid()": "1998aeef",
					"deposits(address)": "fc7e286d",
					"endAuction()": "fe67a54b",
					"ended()": "12fa6feb",
					"highestBid()": "d57bde79",
					"highestBidder()": "91f90157",
					"lastBids(address)": "46e053a0",
					"owner()": "8da5cb5b",
					"partialWithdrawal()": "c30aca9a",
					"returnDeposits()": "362e2565",
					"showBids()": "14d2687c",
					"showWinner()": "b7e03264"
				}
			},
			"storageLayout": {
				"storage": [
					{
						"astId": 3,
						"contract": "AuctionWlady3.sol:Auction",
						"label": "owner",
						"offset": 0,
						"slot": "0",
						"type": "t_address"
					},
					{
						"astId": 5,
						"contract": "AuctionWlady3.sol:Auction",
						"label": "auctionStartTime",
						"offset": 0,
						"slot": "1",
						"type": "t_uint256"
					},
					{
						"astId": 7,
						"contract": "AuctionWlady3.sol:Auction",
						"label": "auctionEndTime",
						"offset": 0,
						"slot": "2",
						"type": "t_uint256"
					},
					{
						"astId": 9,
						"contract": "AuctionWlady3.sol:Auction",
						"label": "highestBid",
						"offset": 0,
						"slot": "3",
						"type": "t_uint256"
					},
					{
						"astId": 11,
						"contract": "AuctionWlady3.sol:Auction",
						"label": "highestBidder",
						"offset": 0,
						"slot": "4",
						"type": "t_address"
					},
					{
						"astId": 13,
						"contract": "AuctionWlady3.sol:Auction",
						"label": "ended",
						"offset": 20,
						"slot": "4",
						"type": "t_bool"
					},
					{
						"astId": 26,
						"contract": "AuctionWlady3.sol:Auction",
						"label": "deposits",
						"offset": 0,
						"slot": "5",
						"type": "t_mapping(t_address,t_uint256)"
					},
					{
						"astId": 31,
						"contract": "AuctionWlady3.sol:Auction",
						"label": "lastBids",
						"offset": 0,
						"slot": "6",
						"type": "t_mapping(t_address,t_struct(Bid)36_storage)"
					},
					{
						"astId": 39,
						"contract": "AuctionWlady3.sol:Auction",
						"label": "allBidders",
						"offset": 0,
						"slot": "7",
						"type": "t_array(t_address)dyn_storage"
					},
					{
						"astId": 43,
						"contract": "AuctionWlady3.sol:Auction",
						"label": "hasBidder",
						"offset": 0,
						"slot": "8",
						"type": "t_mapping(t_address,t_bool)"
					}
				],
				"types": {
					"t_address": {
						"encoding": "inplace",
						"label": "address",
						"numberOfBytes": "20"
					},
					"t_array(t_address)dyn_storage": {
						"base": "t_address",
						"encoding": "dynamic_array",
						"label": "address[]",
						"numberOfBytes": "32"
					},
					"t_bool": {
						"encoding": "inplace",
						"label": "bool",
						"numberOfBytes": "1"
					},
					"t_mapping(t_address,t_bool)": {
						"encoding": "mapping",
						"key": "t_address",
						"label": "mapping(address => bool)",
						"numberOfBytes": "32",
						"value": "t_bool"
					},
					"t_mapping(t_address,t_struct(Bid)36_storage)": {
						"encoding": "mapping",
						"key": "t_address",
						"label": "mapping(address => struct Auction.Bid)",
						"numberOfBytes": "32",
						"value": "t_struct(Bid)36_storage"
					},
					"t_mapping(t_address,t_uint256)": {
						"encoding": "mapping",
						"key": "t_address",
						"label": "mapping(address => uint256)",
						"numberOfBytes": "32",
						"value": "t_uint256"
					},
					"t_struct(Bid)36_storage": {
						"encoding": "inplace",
						"label": "struct Auction.Bid",
						"members": [
							{
								"astId": 33,
								"contract": "AuctionWlady3.sol:Auction",
								"label": "bidder",
								"offset": 0,
								"slot": "0",
								"type": "t_address"
							},
							{
								"astId": 35,
								"contract": "AuctionWlady3.sol:Auction",
								"label": "amount",
								"offset": 0,
								"slot": "1",
								"type": "t_uint256"
							}
						],
						"numberOfBytes": "64"
					},
					"t_uint256": {
						"encoding": "inplace",
						"label": "uint256",
						"numberOfBytes": "32"
					}
				}
			},
			"userdoc": {
				"kind": "user",
				"methods": {},
				"version": 1
			}
		}
	}
}