{
	"Auction.sol": {
		"Auction": {
			"abi": [
				{
					"inputs": [
						{
							"internalType": "uint256",
							"name": "_durationInMinutes",
							"type": "uint256"
						}
					],
					"stateMutability": "nonpayable",
					"type": "constructor"
				},
				{
					"anonymous": false,
					"inputs": [
						{
							"indexed": false,
							"internalType": "address",
							"name": "winner",
							"type": "address"
						},
						{
							"indexed": false,
							"internalType": "uint256",
							"name": "winningBid",
							"type": "uint256"
						}
					],
					"name": "AuctionEnded",
					"type": "event"
				},
				{
					"anonymous": false,
					"inputs": [
						{
							"indexed": false,
							"internalType": "uint256",
							"name": "newEndTime",
							"type": "uint256"
						}
					],
					"name": "AuctionExtended",
					"type": "event"
				},
				{
					"anonymous": false,
					"inputs": [
						{
							"indexed": true,
							"internalType": "address",
							"name": "beneficiary",
							"type": "address"
						},
						{
							"indexed": false,
							"internalType": "uint256",
							"name": "amount",
							"type": "uint256"
						}
					],
					"name": "DepositRefunded",
					"type": "event"
				},
				{
					"anonymous": false,
					"inputs": [
						{
							"indexed": true,
							"internalType": "address",
							"name": "bidder",
							"type": "address"
						},
						{
							"indexed": false,
							"internalType": "uint256",
							"name": "amount",
							"type": "uint256"
						}
					],
					"name": "NewBid",
					"type": "event"
				},
				{
					"anonymous": false,
					"inputs": [
						{
							"indexed": true,
							"internalType": "address",
							"name": "bidder",
							"type": "address"
						},
						{
							"indexed": false,
							"internalType": "uint256",
							"name": "amount",
							"type": "uint256"
						}
					],
					"name": "PartialWithdrawal",
					"type": "event"
				},
				{
					"inputs": [],
					"name": "EXTENSION_TIME",
					"outputs": [
						{
							"internalType": "uint256",
							"name": "",
							"type": "uint256"
						}
					],
					"stateMutability": "view",
					"type": "function"
				},
				{
					"inputs": [],
					"name": "GAS_COMMISSION_PERCENT",
					"outputs": [
						{
							"internalType": "uint256",
							"name": "",
							"type": "uint256"
						}
					],
					"stateMutability": "view",
					"type": "function"
				},
				{
					"inputs": [],
					"name": "MIN_BID_INCREMENT_PERCENT",
					"outputs": [
						{
							"internalType": "uint256",
							"name": "",
							"type": "uint256"
						}
					],
					"stateMutability": "view",
					"type": "function"
				},
				{
					"inputs": [
						{
							"internalType": "uint256",
							"name": "",
							"type": "uint256"
						}
					],
					"name": "allBidders",
					"outputs": [
						{
							"internalType": "address",
							"name": "",
							"type": "address"
						}
					],
					"stateMutability": "view",
					"type": "function"
				},
				{
					"inputs": [],
					"name": "auctionEndTime",
					"outputs": [
						{
							"internalType": "uint256",
							"name": "",
							"type": "uint256"
						}
					],
					"stateMutability": "view",
					"type": "function"
				},
				{
					"inputs": [],
					"name": "auctionStartTime",
					"outputs": [
						{
							"internalType": "uint256",
							"name": "",
							"type": "uint256"
						}
					],
					"stateMutability": "view",
					"type": "function"
				},
				{
					"inputs": [],
					"name": "bid",
					"outputs": [],
					"stateMutability": "payable",
					"type": "function"
				},
				{
					"inputs": [
						{
							"internalType": "address",
							"name": "",
							"type": "address"
						}
					],
					"name": "deposits",
					"outputs": [
						{
							"internalType": "uint256",
							"name": "",
							"type": "uint256"
						}
					],
					"stateMutability": "view",
					"type": "function"
				},
				{
					"inputs": [],
					"name": "endAuction",
					"outputs": [],
					"stateMutability": "nonpayable",
					"type": "function"
				},
				{
					"inputs": [],
					"name": "ended",
					"outputs": [
						{
							"internalType": "bool",
							"name": "",
							"type": "bool"
						}
					],
					"stateMutability": "view",
					"type": "function"
				},
				{
					"inputs": [],
					"name": "highestBid",
					"outputs": [
						{
							"internalType": "uint256",
							"name": "",
							"type": "uint256"
						}
					],
					"stateMutability": "view",
					"type": "function"
				},
				{
					"inputs": [],
					"name": "highestBidder",
					"outputs": [
						{
							"internalType": "address",
							"name": "",
							"type": "address"
						}
					],
					"stateMutability": "view",
					"type": "function"
				},
				{
					"inputs": [
						{
							"internalType": "address",
							"name": "",
							"type": "address"
						}
					],
					"name": "lastBids",
					"outputs": [
						{
							"internalType": "address",
							"name": "bidder",
							"type": "address"
						},
						{
							"internalType": "uint256",
							"name": "amount",
							"type": "uint256"
						}
					],
					"stateMutability": "view",
					"type": "function"
				},
				{
					"inputs": [],
					"name": "owner",
					"outputs": [
						{
							"internalType": "address",
							"name": "",
							"type": "address"
						}
					],
					"stateMutability": "view",
					"type": "function"
				},
				{
					"inputs": [],
					"name": "partialWithdrawal",
					"outputs": [],
					"stateMutability": "nonpayable",
					"type": "function"
				},
				{
					"inputs": [],
					"name": "returnDeposits",
					"outputs": [],
					"stateMutability": "nonpayable",
					"type": "function"
				},
				{
					"inputs": [],
					"name": "showBids",
					"outputs": [
						{
							"internalType": "address[]",
							"name": "bidders",
							"type": "address[]"
						},
						{
							"internalType": "uint256[]",
							"name": "amounts",
							"type": "uint256[]"
						}
					],
					"stateMutability": "view",
					"type": "function"
				},
				{
					"inputs": [],
					"name": "showWinner",
					"outputs": [
						{
							"internalType": "address",
							"name": "winner",
							"type": "address"
						},
						{
							"internalType": "uint256",
							"name": "winningBid",
							"type": "uint256"
						}
					],
					"stateMutability": "view",
					"type": "function"
				}
			],
			"devdoc": {
				"kind": "dev",
				"methods": {},
				"version": 1
			},
			"evm": {
				"assembly": "    /* \"Auction.sol\":57:7983  contract Auction {... */\n  mstore(0x40, 0x80)\n    /* \"Auction.sol\":1539:1818  constructor(uint256 _durationInMinutes) {... */\n  callvalue\n  dup1\n  iszero\n  tag_1\n  jumpi\n  revert(0x00, 0x00)\ntag_1:\n  pop\n  mload(0x40)\n  sub(codesize, bytecodeSize)\n  dup1\n  bytecodeSize\n  dup4\n  codecopy\n  dup2\n  dup2\n  add\n  0x40\n  mstore\n  dup2\n  add\n  swap1\n  tag_2\n  swap2\n  swap1\n  tag_3\n  jump\t// in\ntag_2:\n    /* \"Auction.sol\":1597:1607  msg.sender */\n  caller\n    /* \"Auction.sol\":1589:1594  owner */\n  0x00\n  0x00\n    /* \"Auction.sol\":1589:1607  owner = msg.sender */\n  0x0100\n  exp\n  dup2\n  sload\n  dup2\n  0xffffffffffffffffffffffffffffffffffffffff\n  mul\n  not\n  and\n  swap1\n  dup4\n  0xffffffffffffffffffffffffffffffffffffffff\n  and\n  mul\n  or\n  swap1\n  sstore\n  pop\n    /* \"Auction.sol\":1636:1651  block.timestamp */\n  timestamp\n    /* \"Auction.sol\":1617:1633  auctionStartTime */\n  0x01\n    /* \"Auction.sol\":1617:1651  auctionStartTime = block.timestamp */\n  dup2\n  swap1\n  sstore\n  pop\n    /* \"Auction.sol\":1718:1727  1 minutes */\n  0x3c\n    /* \"Auction.sol\":1697:1715  _durationInMinutes */\n  dup2\n    /* \"Auction.sol\":1697:1727  _durationInMinutes * 1 minutes */\n  tag_6\n  swap2\n  swap1\n  tag_7\n  jump\t// in\ntag_6:\n    /* \"Auction.sol\":1678:1693  block.timestamp */\n  timestamp\n    /* \"Auction.sol\":1678:1728  block.timestamp + (_durationInMinutes * 1 minutes) */\n  tag_8\n  swap2\n  swap1\n  tag_9\n  jump\t// in\ntag_8:\n    /* \"Auction.sol\":1661:1675  auctionEndTime */\n  0x02\n    /* \"Auction.sol\":1661:1728  auctionEndTime = block.timestamp + (_durationInMinutes * 1 minutes) */\n  dup2\n  swap1\n  sstore\n  pop\n    /* \"Auction.sol\":1751:1752  0 */\n  0x00\n    /* \"Auction.sol\":1738:1748  highestBid */\n  0x03\n    /* \"Auction.sol\":1738:1752  highestBid = 0 */\n  dup2\n  swap1\n  sstore\n  pop\n    /* \"Auction.sol\":1786:1787  0 */\n  0x00\n    /* \"Auction.sol\":1762:1775  highestBidder */\n  0x04\n  0x00\n    /* \"Auction.sol\":1762:1788  highestBidder = address(0) */\n  0x0100\n  exp\n  dup2\n  sload\n  dup2\n  0xffffffffffffffffffffffffffffffffffffffff\n  mul\n  not\n  and\n  swap1\n  dup4\n  0xffffffffffffffffffffffffffffffffffffffff\n  and\n  mul\n  or\n  swap1\n  sstore\n  pop\n    /* \"Auction.sol\":1806:1811  false */\n  0x00\n    /* \"Auction.sol\":1798:1803  ended */\n  0x04\n  0x14\n    /* \"Auction.sol\":1798:1811  ended = false */\n  0x0100\n  exp\n  dup2\n  sload\n  dup2\n  0xff\n  mul\n  not\n  and\n  swap1\n  dup4\n  iszero\n  iszero\n  mul\n  or\n  swap1\n  sstore\n  pop\n    /* \"Auction.sol\":1539:1818  constructor(uint256 _durationInMinutes) {... */\n  pop\n    /* \"Auction.sol\":57:7983  contract Auction {... */\n  jump(tag_10)\n    /* \"#utility.yul\":88:205   */\ntag_12:\n    /* \"#utility.yul\":197:198   */\n  0x00\n    /* \"#utility.yul\":194:195   */\n  0x00\n    /* \"#utility.yul\":187:199   */\n  revert\n    /* \"#utility.yul\":334:411   */\ntag_14:\n    /* \"#utility.yul\":371:378   */\n  0x00\n    /* \"#utility.yul\":400:405   */\n  dup2\n    /* \"#utility.yul\":389:405   */\n  swap1\n  pop\n    /* \"#utility.yul\":334:411   */\n  swap2\n  swap1\n  pop\n  jump\t// out\n    /* \"#utility.yul\":417:539   */\ntag_15:\n    /* \"#utility.yul\":490:514   */\n  tag_24\n    /* \"#utility.yul\":508:513   */\n  dup2\n    /* \"#utility.yul\":490:514   */\n  tag_14\n  jump\t// in\ntag_24:\n    /* \"#utility.yul\":483:488   */\n  dup2\n    /* \"#utility.yul\":480:515   */\n  eq\n    /* \"#utility.yul\":470:533   */\n  tag_25\n  jumpi\n    /* \"#utility.yul\":529:530   */\n  0x00\n    /* \"#utility.yul\":526:527   */\n  0x00\n    /* \"#utility.yul\":519:531   */\n  revert\n    /* \"#utility.yul\":470:533   */\ntag_25:\n    /* \"#utility.yul\":417:539   */\n  pop\n  jump\t// out\n    /* \"#utility.yul\":545:688   */\ntag_16:\n    /* \"#utility.yul\":602:607   */\n  0x00\n    /* \"#utility.yul\":633:639   */\n  dup2\n    /* \"#utility.yul\":627:640   */\n  mload\n    /* \"#utility.yul\":618:640   */\n  swap1\n  pop\n    /* \"#utility.yul\":649:682   */\n  tag_27\n    /* \"#utility.yul\":676:681   */\n  dup2\n    /* \"#utility.yul\":649:682   */\n  tag_15\n  jump\t// in\ntag_27:\n    /* \"#utility.yul\":545:688   */\n  swap3\n  swap2\n  pop\n  pop\n  jump\t// out\n    /* \"#utility.yul\":694:1045   */\ntag_3:\n    /* \"#utility.yul\":764:770   */\n  0x00\n    /* \"#utility.yul\":813:815   */\n  0x20\n    /* \"#utility.yul\":801:810   */\n  dup3\n    /* \"#utility.yul\":792:799   */\n  dup5\n    /* \"#utility.yul\":788:811   */\n  sub\n    /* \"#utility.yul\":784:816   */\n  slt\n    /* \"#utility.yul\":781:900   */\n  iszero\n  tag_29\n  jumpi\n    /* \"#utility.yul\":819:898   */\n  tag_30\n  tag_12\n  jump\t// in\ntag_30:\n    /* \"#utility.yul\":781:900   */\ntag_29:\n    /* \"#utility.yul\":939:940   */\n  0x00\n    /* \"#utility.yul\":964:1028   */\n  tag_31\n    /* \"#utility.yul\":1020:1027   */\n  dup5\n    /* \"#utility.yul\":1011:1017   */\n  dup3\n    /* \"#utility.yul\":1000:1009   */\n  dup6\n    /* \"#utility.yul\":996:1018   */\n  add\n    /* \"#utility.yul\":964:1028   */\n  tag_16\n  jump\t// in\ntag_31:\n    /* \"#utility.yul\":954:1028   */\n  swap2\n  pop\n    /* \"#utility.yul\":910:1038   */\n  pop\n    /* \"#utility.yul\":694:1045   */\n  swap3\n  swap2\n  pop\n  pop\n  jump\t// out\n    /* \"#utility.yul\":1051:1231   */\ntag_17:\n    /* \"#utility.yul\":1099:1176   */\n  0x4e487b7100000000000000000000000000000000000000000000000000000000\n    /* \"#utility.yul\":1096:1097   */\n  0x00\n    /* \"#utility.yul\":1089:1177   */\n  mstore\n    /* \"#utility.yul\":1196:1200   */\n  0x11\n    /* \"#utility.yul\":1193:1194   */\n  0x04\n    /* \"#utility.yul\":1186:1201   */\n  mstore\n    /* \"#utility.yul\":1220:1224   */\n  0x24\n    /* \"#utility.yul\":1217:1218   */\n  0x00\n    /* \"#utility.yul\":1210:1225   */\n  revert\n    /* \"#utility.yul\":1237:1647   */\ntag_7:\n    /* \"#utility.yul\":1277:1284   */\n  0x00\n    /* \"#utility.yul\":1300:1320   */\n  tag_34\n    /* \"#utility.yul\":1318:1319   */\n  dup3\n    /* \"#utility.yul\":1300:1320   */\n  tag_14\n  jump\t// in\ntag_34:\n    /* \"#utility.yul\":1295:1320   */\n  swap2\n  pop\n    /* \"#utility.yul\":1334:1354   */\n  tag_35\n    /* \"#utility.yul\":1352:1353   */\n  dup4\n    /* \"#utility.yul\":1334:1354   */\n  tag_14\n  jump\t// in\ntag_35:\n    /* \"#utility.yul\":1329:1354   */\n  swap3\n  pop\n    /* \"#utility.yul\":1389:1390   */\n  dup3\n    /* \"#utility.yul\":1386:1387   */\n  dup3\n    /* \"#utility.yul\":1382:1391   */\n  mul\n    /* \"#utility.yul\":1411:1441   */\n  tag_36\n    /* \"#utility.yul\":1429:1440   */\n  dup2\n    /* \"#utility.yul\":1411:1441   */\n  tag_14\n  jump\t// in\ntag_36:\n    /* \"#utility.yul\":1400:1441   */\n  swap2\n  pop\n    /* \"#utility.yul\":1590:1591   */\n  dup3\n    /* \"#utility.yul\":1581:1588   */\n  dup3\n    /* \"#utility.yul\":1577:1592   */\n  div\n    /* \"#utility.yul\":1574:1575   */\n  dup5\n    /* \"#utility.yul\":1571:1593   */\n  eq\n    /* \"#utility.yul\":1551:1552   */\n  dup4\n    /* \"#utility.yul\":1544:1553   */\n  iszero\n    /* \"#utility.yul\":1524:1607   */\n  or\n    /* \"#utility.yul\":1501:1640   */\n  tag_37\n  jumpi\n    /* \"#utility.yul\":1620:1638   */\n  tag_38\n  tag_17\n  jump\t// in\ntag_38:\n    /* \"#utility.yul\":1501:1640   */\ntag_37:\n    /* \"#utility.yul\":1285:1647   */\n  pop\n    /* \"#utility.yul\":1237:1647   */\n  swap3\n  swap2\n  pop\n  pop\n  jump\t// out\n    /* \"#utility.yul\":1653:1844   */\ntag_9:\n    /* \"#utility.yul\":1693:1696   */\n  0x00\n    /* \"#utility.yul\":1712:1732   */\n  tag_40\n    /* \"#utility.yul\":1730:1731   */\n  dup3\n    /* \"#utility.yul\":1712:1732   */\n  tag_14\n  jump\t// in\ntag_40:\n    /* \"#utility.yul\":1707:1732   */\n  swap2\n  pop\n    /* \"#utility.yul\":1746:1766   */\n  tag_41\n    /* \"#utility.yul\":1764:1765   */\n  dup4\n    /* \"#utility.yul\":1746:1766   */\n  tag_14\n  jump\t// in\ntag_41:\n    /* \"#utility.yul\":1741:1766   */\n  swap3\n  pop\n    /* \"#utility.yul\":1789:1790   */\n  dup3\n    /* \"#utility.yul\":1786:1787   */\n  dup3\n    /* \"#utility.yul\":1782:1791   */\n  add\n    /* \"#utility.yul\":1775:1791   */\n  swap1\n  pop\n    /* \"#utility.yul\":1810:1813   */\n  dup1\n    /* \"#utility.yul\":1807:1808   */\n  dup3\n    /* \"#utility.yul\":1804:1814   */\n  gt\n    /* \"#utility.yul\":1801:1837   */\n  iszero\n  tag_42\n  jumpi\n    /* \"#utility.yul\":1817:1835   */\n  tag_43\n  tag_17\n  jump\t// in\ntag_43:\n    /* \"#utility.yul\":1801:1837   */\ntag_42:\n    /* \"#utility.yul\":1653:1844   */\n  swap3\n  swap2\n  pop\n  pop\n  jump\t// out\n    /* \"Auction.sol\":57:7983  contract Auction {... */\ntag_10:\n  dataSize(sub_0)\n  dup1\n  dataOffset(sub_0)\n  0x00\n  codecopy\n  0x00\n  return\nstop\n\nsub_0: assembly {\n        /* \"Auction.sol\":57:7983  contract Auction {... */\n      mstore(0x40, 0x80)\n      jumpi(tag_1, lt(calldatasize, 0x04))\n      shr(0xe0, calldataload(0x00))\n      dup1\n      0xa013781b\n      gt\n      tag_20\n      jumpi\n      dup1\n      0xc30aca9a\n      gt\n      tag_21\n      jumpi\n      dup1\n      0xc30aca9a\n      eq\n      tag_15\n      jumpi\n      dup1\n      0xd57bde79\n      eq\n      tag_16\n      jumpi\n      dup1\n      0xeb54f9ec\n      eq\n      tag_17\n      jumpi\n      dup1\n      0xfc7e286d\n      eq\n      tag_18\n      jumpi\n      dup1\n      0xfe67a54b\n      eq\n      tag_19\n      jumpi\n      jump(tag_1)\n    tag_21:\n      dup1\n      0xa013781b\n      eq\n      tag_11\n      jumpi\n      dup1\n      0xb033e086\n      eq\n      tag_12\n      jumpi\n      dup1\n      0xb7e03264\n      eq\n      tag_13\n      jumpi\n      dup1\n      0xbc996819\n      eq\n      tag_14\n      jumpi\n      jump(tag_1)\n    tag_20:\n      dup1\n      0x46e053a0\n      gt\n      tag_22\n      jumpi\n      dup1\n      0x46e053a0\n      eq\n      tag_6\n      jumpi\n      dup1\n      0x4b449cba\n      eq\n      tag_7\n      jumpi\n      dup1\n      0x5681104a\n      eq\n      tag_8\n      jumpi\n      dup1\n      0x8da5cb5b\n      eq\n      tag_9\n      jumpi\n      dup1\n      0x91f90157\n      eq\n      tag_10\n      jumpi\n      jump(tag_1)\n    tag_22:\n      dup1\n      0x12fa6feb\n      eq\n      tag_2\n      jumpi\n      dup1\n      0x14d2687c\n      eq\n      tag_3\n      jumpi\n      dup1\n      0x1998aeef\n      eq\n      tag_4\n      jumpi\n      dup1\n      0x362e2565\n      eq\n      tag_5\n      jumpi\n    tag_1:\n      revert(0x00, 0x00)\n        /* \"Auction.sol\":278:295  bool public ended */\n    tag_2:\n      callvalue\n      dup1\n      iszero\n      tag_23\n      jumpi\n      revert(0x00, 0x00)\n    tag_23:\n      pop\n      tag_24\n      tag_25\n      jump\t// in\n    tag_24:\n      mload(0x40)\n      tag_26\n      swap2\n      swap1\n      tag_27\n      jump\t// in\n    tag_26:\n      mload(0x40)\n      dup1\n      swap2\n      sub\n      swap1\n      return\n        /* \"Auction.sol\":5029:5482  function showBids() public view returns (address[] memory bidders, uint256[] memory amounts) {... */\n    tag_3:\n      callvalue\n      dup1\n      iszero\n      tag_28\n      jumpi\n      revert(0x00, 0x00)\n    tag_28:\n      pop\n      tag_29\n      tag_30\n      jump\t// in\n    tag_29:\n      mload(0x40)\n      tag_31\n      swap3\n      swap2\n      swap1\n      tag_32\n      jump\t// in\n    tag_31:\n      mload(0x40)\n      dup1\n      swap2\n      sub\n      swap1\n      return\n        /* \"Auction.sol\":2892:3954  function bid() public payable auctionActive {... */\n    tag_4:\n      tag_33\n      tag_34\n      jump\t// in\n    tag_33:\n      stop\n        /* \"Auction.sol\":5668:6682  function returnDeposits() public auctionEnded {... */\n    tag_5:\n      callvalue\n      dup1\n      iszero\n      tag_35\n      jumpi\n      revert(0x00, 0x00)\n    tag_35:\n      pop\n      tag_36\n      tag_37\n      jump\t// in\n    tag_36:\n      stop\n        /* \"Auction.sol\":641:680  mapping(address => Bid) public lastBids */\n    tag_6:\n      callvalue\n      dup1\n      iszero\n      tag_38\n      jumpi\n      revert(0x00, 0x00)\n    tag_38:\n      pop\n      tag_39\n      0x04\n      dup1\n      calldatasize\n      sub\n      dup2\n      add\n      swap1\n      tag_40\n      swap2\n      swap1\n      tag_41\n      jump\t// in\n    tag_40:\n      tag_42\n      jump\t// in\n    tag_39:\n      mload(0x40)\n      tag_43\n      swap3\n      swap2\n      swap1\n      tag_44\n      jump\t// in\n    tag_43:\n      mload(0x40)\n      dup1\n      swap2\n      sub\n      swap1\n      return\n        /* \"Auction.sol\":178:207  uint256 public auctionEndTime */\n    tag_7:\n      callvalue\n      dup1\n      iszero\n      tag_45\n      jumpi\n      revert(0x00, 0x00)\n    tag_45:\n      pop\n      tag_46\n      tag_47\n      jump\t// in\n    tag_46:\n      mload(0x40)\n      tag_48\n      swap2\n      swap1\n      tag_49\n      jump\t// in\n    tag_48:\n      mload(0x40)\n      dup1\n      swap2\n      sub\n      swap1\n      return\n        /* \"Auction.sol\":980:1031  uint256 public constant EXTENSION_TIME = 10 minutes */\n    tag_8:\n      callvalue\n      dup1\n      iszero\n      tag_50\n      jumpi\n      revert(0x00, 0x00)\n    tag_50:\n      pop\n      tag_51\n      tag_52\n      jump\t// in\n    tag_51:\n      mload(0x40)\n      tag_53\n      swap2\n      swap1\n      tag_49\n      jump\t// in\n    tag_53:\n      mload(0x40)\n      dup1\n      swap2\n      sub\n      swap1\n      return\n        /* \"Auction.sol\":115:135  address public owner */\n    tag_9:\n      callvalue\n      dup1\n      iszero\n      tag_54\n      jumpi\n      revert(0x00, 0x00)\n    tag_54:\n      pop\n      tag_55\n      tag_56\n      jump\t// in\n    tag_55:\n      mload(0x40)\n      tag_57\n      swap2\n      swap1\n      tag_58\n      jump\t// in\n    tag_57:\n      mload(0x40)\n      dup1\n      swap2\n      sub\n      swap1\n      return\n        /* \"Auction.sol\":244:272  address public highestBidder */\n    tag_10:\n      callvalue\n      dup1\n      iszero\n      tag_59\n      jumpi\n      revert(0x00, 0x00)\n    tag_59:\n      pop\n      tag_60\n      tag_61\n      jump\t// in\n    tag_60:\n      mload(0x40)\n      tag_62\n      swap2\n      swap1\n      tag_58\n      jump\t// in\n    tag_62:\n      mload(0x40)\n      dup1\n      swap2\n      sub\n      swap1\n      return\n        /* \"Auction.sol\":759:786  address[] public allBidders */\n    tag_11:\n      callvalue\n      dup1\n      iszero\n      tag_63\n      jumpi\n      revert(0x00, 0x00)\n    tag_63:\n      pop\n      tag_64\n      0x04\n      dup1\n      calldatasize\n      sub\n      dup2\n      add\n      swap1\n      tag_65\n      swap2\n      swap1\n      tag_66\n      jump\t// in\n    tag_65:\n      tag_67\n      jump\t// in\n    tag_64:\n      mload(0x40)\n      tag_68\n      swap2\n      swap1\n      tag_58\n      jump\t// in\n    tag_68:\n      mload(0x40)\n      dup1\n      swap2\n      sub\n      swap1\n      return\n        /* \"Auction.sol\":1096:1146  uint256 public constant GAS_COMMISSION_PERCENT = 2 */\n    tag_12:\n      callvalue\n      dup1\n      iszero\n      tag_69\n      jumpi\n      revert(0x00, 0x00)\n    tag_69:\n      pop\n      tag_70\n      tag_71\n      jump\t// in\n    tag_70:\n      mload(0x40)\n      tag_72\n      swap2\n      swap1\n      tag_49\n      jump\t// in\n    tag_72:\n      mload(0x40)\n      dup1\n      swap2\n      sub\n      swap1\n      return\n        /* \"Auction.sol\":4610:4753  function showWinner() public view auctionEnded returns (address winner, uint256 winningBid) {... */\n    tag_13:\n      callvalue\n      dup1\n      iszero\n      tag_73\n      jumpi\n      revert(0x00, 0x00)\n    tag_73:\n      pop\n      tag_74\n      tag_75\n      jump\t// in\n    tag_74:\n      mload(0x40)\n      tag_76\n      swap3\n      swap2\n      swap1\n      tag_44\n      jump\t// in\n    tag_76:\n      mload(0x40)\n      dup1\n      swap2\n      sub\n      swap1\n      return\n        /* \"Auction.sol\":1037:1090  uint256 public constant MIN_BID_INCREMENT_PERCENT = 5 */\n    tag_14:\n      callvalue\n      dup1\n      iszero\n      tag_77\n      jumpi\n      revert(0x00, 0x00)\n    tag_77:\n      pop\n      tag_78\n      tag_79\n      jump\t// in\n    tag_78:\n      mload(0x40)\n      tag_80\n      swap2\n      swap1\n      tag_49\n      jump\t// in\n    tag_80:\n      mload(0x40)\n      dup1\n      swap2\n      sub\n      swap1\n      return\n        /* \"Auction.sol\":6885:7981  function partialWithdrawal() public auctionActive {... */\n    tag_15:\n      callvalue\n      dup1\n      iszero\n      tag_81\n      jumpi\n      revert(0x00, 0x00)\n    tag_81:\n      pop\n      tag_82\n      tag_83\n      jump\t// in\n    tag_82:\n      stop\n        /* \"Auction.sol\":213:238  uint256 public highestBid */\n    tag_16:\n      callvalue\n      dup1\n      iszero\n      tag_84\n      jumpi\n      revert(0x00, 0x00)\n    tag_84:\n      pop\n      tag_85\n      tag_86\n      jump\t// in\n    tag_85:\n      mload(0x40)\n      tag_87\n      swap2\n      swap1\n      tag_49\n      jump\t// in\n    tag_87:\n      mload(0x40)\n      dup1\n      swap2\n      sub\n      swap1\n      return\n        /* \"Auction.sol\":141:172  uint256 public auctionStartTime */\n    tag_17:\n      callvalue\n      dup1\n      iszero\n      tag_88\n      jumpi\n      revert(0x00, 0x00)\n    tag_88:\n      pop\n      tag_89\n      tag_90\n      jump\t// in\n    tag_89:\n      mload(0x40)\n      tag_91\n      swap2\n      swap1\n      tag_49\n      jump\t// in\n    tag_91:\n      mload(0x40)\n      dup1\n      swap2\n      sub\n      swap1\n      return\n        /* \"Auction.sol\":372:415  mapping(address => uint256) public deposits */\n    tag_18:\n      callvalue\n      dup1\n      iszero\n      tag_92\n      jumpi\n      revert(0x00, 0x00)\n    tag_92:\n      pop\n      tag_93\n      0x04\n      dup1\n      calldatasize\n      sub\n      dup2\n      add\n      swap1\n      tag_94\n      swap2\n      swap1\n      tag_41\n      jump\t// in\n    tag_94:\n      tag_95\n      jump\t// in\n    tag_93:\n      mload(0x40)\n      tag_96\n      swap2\n      swap1\n      tag_49\n      jump\t// in\n    tag_96:\n      mload(0x40)\n      dup1\n      swap2\n      sub\n      swap1\n      return\n        /* \"Auction.sol\":4101:4330  function endAuction() public {... */\n    tag_19:\n      callvalue\n      dup1\n      iszero\n      tag_97\n      jumpi\n      revert(0x00, 0x00)\n    tag_97:\n      pop\n      tag_98\n      tag_99\n      jump\t// in\n    tag_98:\n      stop\n        /* \"Auction.sol\":278:295  bool public ended */\n    tag_25:\n      0x04\n      0x14\n      swap1\n      sload\n      swap1\n      0x0100\n      exp\n      swap1\n      div\n      0xff\n      and\n      dup2\n      jump\t// out\n        /* \"Auction.sol\":5029:5482  function showBids() public view returns (address[] memory bidders, uint256[] memory amounts) {... */\n    tag_30:\n        /* \"Auction.sol\":5070:5094  address[] memory bidders */\n      0x60\n        /* \"Auction.sol\":5096:5120  uint256[] memory amounts */\n      dup1\n        /* \"Auction.sol\":5156:5166  allBidders */\n      0x07\n        /* \"Auction.sol\":5156:5173  allBidders.length */\n      dup1\n      sload\n      swap1\n      pop\n        /* \"Auction.sol\":5142:5174  new address[](allBidders.length) */\n      0xffffffffffffffff\n      dup2\n      gt\n      iszero\n      tag_101\n      jumpi\n      tag_102\n      tag_103\n      jump\t// in\n    tag_102:\n    tag_101:\n      mload(0x40)\n      swap1\n      dup1\n      dup3\n      mstore\n      dup1\n      0x20\n      mul\n      0x20\n      add\n      dup3\n      add\n      0x40\n      mstore\n      dup1\n      iszero\n      tag_104\n      jumpi\n      dup2\n      0x20\n      add\n      0x20\n      dup3\n      mul\n      dup1\n      calldatasize\n      dup4\n      calldatacopy\n      dup1\n      dup3\n      add\n      swap2\n      pop\n      pop\n      swap1\n      pop\n    tag_104:\n      pop\n        /* \"Auction.sol\":5132:5174  bidders = new address[](allBidders.length) */\n      swap2\n      pop\n        /* \"Auction.sol\":5208:5218  allBidders */\n      0x07\n        /* \"Auction.sol\":5208:5225  allBidders.length */\n      dup1\n      sload\n      swap1\n      pop\n        /* \"Auction.sol\":5194:5226  new uint256[](allBidders.length) */\n      0xffffffffffffffff\n      dup2\n      gt\n      iszero\n      tag_105\n      jumpi\n      tag_106\n      tag_103\n      jump\t// in\n    tag_106:\n    tag_105:\n      mload(0x40)\n      swap1\n      dup1\n      dup3\n      mstore\n      dup1\n      0x20\n      mul\n      0x20\n      add\n      dup3\n      add\n      0x40\n      mstore\n      dup1\n      iszero\n      tag_107\n      jumpi\n      dup2\n      0x20\n      add\n      0x20\n      dup3\n      mul\n      dup1\n      calldatasize\n      dup4\n      calldatacopy\n      dup1\n      dup3\n      add\n      swap2\n      pop\n      pop\n      swap1\n      pop\n    tag_107:\n      pop\n        /* \"Auction.sol\":5184:5226  amounts = new uint256[](allBidders.length) */\n      swap1\n      pop\n        /* \"Auction.sol\":5242:5248  uint i */\n      0x00\n        /* \"Auction.sol\":5251:5252  0 */\n      0x00\n        /* \"Auction.sol\":5242:5252  uint i = 0 */\n      swap1\n      pop\n        /* \"Auction.sol\":5237:5441  for (uint i = 0; i < allBidders.length; i++) {... */\n    tag_108:\n        /* \"Auction.sol\":5258:5268  allBidders */\n      0x07\n        /* \"Auction.sol\":5258:5275  allBidders.length */\n      dup1\n      sload\n      swap1\n      pop\n        /* \"Auction.sol\":5254:5255  i */\n      dup2\n        /* \"Auction.sol\":5254:5275  i < allBidders.length */\n      lt\n        /* \"Auction.sol\":5237:5441  for (uint i = 0; i < allBidders.length; i++) {... */\n      iszero\n      tag_109\n      jumpi\n        /* \"Auction.sol\":5296:5317  address currentBidder */\n      0x00\n        /* \"Auction.sol\":5320:5330  allBidders */\n      0x07\n        /* \"Auction.sol\":5331:5332  i */\n      dup3\n        /* \"Auction.sol\":5320:5333  allBidders[i] */\n      dup2\n      sload\n      dup2\n      lt\n      tag_111\n      jumpi\n      tag_112\n      tag_113\n      jump\t// in\n    tag_112:\n    tag_111:\n      swap1\n      0x00\n      mstore\n      keccak256(0x00, 0x20)\n      add\n      0x00\n      swap1\n      sload\n      swap1\n      0x0100\n      exp\n      swap1\n      div\n      0xffffffffffffffffffffffffffffffffffffffff\n      and\n        /* \"Auction.sol\":5296:5333  address currentBidder = allBidders[i] */\n      swap1\n      pop\n        /* \"Auction.sol\":5360:5373  currentBidder */\n      dup1\n        /* \"Auction.sol\":5347:5354  bidders */\n      dup5\n        /* \"Auction.sol\":5355:5356  i */\n      dup4\n        /* \"Auction.sol\":5347:5357  bidders[i] */\n      dup2\n      mload\n      dup2\n      lt\n      tag_115\n      jumpi\n      tag_116\n      tag_113\n      jump\t// in\n    tag_116:\n    tag_115:\n      0x20\n      mul\n      0x20\n      add\n      add\n        /* \"Auction.sol\":5347:5373  bidders[i] = currentBidder */\n      swap1\n      0xffffffffffffffffffffffffffffffffffffffff\n      and\n      swap1\n      dup2\n      0xffffffffffffffffffffffffffffffffffffffff\n      and\n      dup2\n      mstore\n      pop\n      pop\n        /* \"Auction.sol\":5400:5408  lastBids */\n      0x06\n        /* \"Auction.sol\":5400:5423  lastBids[currentBidder] */\n      0x00\n        /* \"Auction.sol\":5409:5422  currentBidder */\n      dup3\n        /* \"Auction.sol\":5400:5423  lastBids[currentBidder] */\n      0xffffffffffffffffffffffffffffffffffffffff\n      and\n      0xffffffffffffffffffffffffffffffffffffffff\n      and\n      dup2\n      mstore\n      0x20\n      add\n      swap1\n      dup2\n      mstore\n      0x20\n      add\n      0x00\n      keccak256\n        /* \"Auction.sol\":5400:5430  lastBids[currentBidder].amount */\n      0x01\n      add\n      sload\n        /* \"Auction.sol\":5387:5394  amounts */\n      dup4\n        /* \"Auction.sol\":5395:5396  i */\n      dup4\n        /* \"Auction.sol\":5387:5397  amounts[i] */\n      dup2\n      mload\n      dup2\n      lt\n      tag_117\n      jumpi\n      tag_118\n      tag_113\n      jump\t// in\n    tag_118:\n    tag_117:\n      0x20\n      mul\n      0x20\n      add\n      add\n        /* \"Auction.sol\":5387:5430  amounts[i] = lastBids[currentBidder].amount */\n      dup2\n      dup2\n      mstore\n      pop\n      pop\n        /* \"Auction.sol\":5282:5441  {... */\n      pop\n        /* \"Auction.sol\":5277:5280  i++ */\n      dup1\n      dup1\n      0x01\n      add\n      swap2\n      pop\n      pop\n        /* \"Auction.sol\":5237:5441  for (uint i = 0; i < allBidders.length; i++) {... */\n      jump(tag_108)\n    tag_109:\n      pop\n        /* \"Auction.sol\":5029:5482  function showBids() public view returns (address[] memory bidders, uint256[] memory amounts) {... */\n      swap1\n      swap2\n      jump\t// out\n        /* \"Auction.sol\":2892:3954  function bid() public payable auctionActive {... */\n    tag_34:\n        /* \"Auction.sol\":2270:2284  auctionEndTime */\n      sload(0x02)\n        /* \"Auction.sol\":2252:2267  block.timestamp */\n      timestamp\n        /* \"Auction.sol\":2252:2284  block.timestamp < auctionEndTime */\n      lt\n        /* \"Auction.sol\":2252:2294  block.timestamp < auctionEndTime && !ended */\n      dup1\n      iszero\n      tag_120\n      jumpi\n      pop\n        /* \"Auction.sol\":2289:2294  ended */\n      0x04\n      0x14\n      swap1\n      sload\n      swap1\n      0x0100\n      exp\n      swap1\n      div\n      0xff\n      and\n        /* \"Auction.sol\":2288:2294  !ended */\n      iszero\n        /* \"Auction.sol\":2252:2294  block.timestamp < auctionEndTime && !ended */\n    tag_120:\n        /* \"Auction.sol\":2244:2325  require(block.timestamp < auctionEndTime && !ended, \"La subasta no esta activa.\") */\n      tag_121\n      jumpi\n      mload(0x40)\n      0x08c379a000000000000000000000000000000000000000000000000000000000\n      dup2\n      mstore\n      0x04\n      add\n      tag_122\n      swap1\n      tag_123\n      jump\t// in\n    tag_122:\n      mload(0x40)\n      dup1\n      swap2\n      sub\n      swap1\n      revert\n    tag_121:\n        /* \"Auction.sol\":2946:2968  uint256 requiredMinBid */\n      0x00\n        /* \"Auction.sol\":3026:3029  100 */\n      0x64\n        /* \"Auction.sol\":1089:1090  5 */\n      0x05\n        /* \"Auction.sol\":2985:2995  highestBid */\n      sload(0x03)\n        /* \"Auction.sol\":2985:3023  highestBid * MIN_BID_INCREMENT_PERCENT */\n      tag_125\n      swap2\n      swap1\n      tag_126\n      jump\t// in\n    tag_125:\n        /* \"Auction.sol\":2985:3029  highestBid * MIN_BID_INCREMENT_PERCENT / 100 */\n      tag_127\n      swap2\n      swap1\n      tag_128\n      jump\t// in\n    tag_127:\n        /* \"Auction.sol\":2971:2981  highestBid */\n      sload(0x03)\n        /* \"Auction.sol\":2971:3030  highestBid + (highestBid * MIN_BID_INCREMENT_PERCENT / 100) */\n      tag_129\n      swap2\n      swap1\n      tag_130\n      jump\t// in\n    tag_129:\n        /* \"Auction.sol\":2946:3030  uint256 requiredMinBid = highestBid + (highestBid * MIN_BID_INCREMENT_PERCENT / 100) */\n      swap1\n      pop\n        /* \"Auction.sol\":3058:3059  0 */\n      0x00\n        /* \"Auction.sol\":3044:3054  highestBid */\n      sload(0x03)\n        /* \"Auction.sol\":3044:3059  highestBid == 0 */\n      sub\n        /* \"Auction.sol\":3040:3153  if (highestBid == 0) {... */\n      tag_131\n      jumpi\n        /* \"Auction.sol\":3092:3097  1 wei */\n      0x01\n        /* \"Auction.sol\":3075:3097  requiredMinBid = 1 wei */\n      swap1\n      pop\n        /* \"Auction.sol\":3040:3153  if (highestBid == 0) {... */\n    tag_131:\n        /* \"Auction.sol\":3184:3198  requiredMinBid */\n      dup1\n        /* \"Auction.sol\":3171:3180  msg.value */\n      callvalue\n        /* \"Auction.sol\":3171:3198  msg.value >= requiredMinBid */\n      lt\n      iszero\n        /* \"Auction.sol\":3163:3264  require(msg.value >= requiredMinBid, \"La oferta debe ser al menos un 5% mayor que la oferta actual.\") */\n      tag_132\n      jumpi\n      mload(0x40)\n      0x08c379a000000000000000000000000000000000000000000000000000000000\n      dup2\n      mstore\n      0x04\n      add\n      tag_133\n      swap1\n      tag_134\n      jump\t// in\n    tag_133:\n      mload(0x40)\n      dup1\n      swap2\n      sub\n      swap1\n      revert\n    tag_132:\n        /* \"Auction.sol\":3348:3357  hasBidder */\n      0x08\n        /* \"Auction.sol\":3348:3369  hasBidder[msg.sender] */\n      0x00\n        /* \"Auction.sol\":3358:3368  msg.sender */\n      caller\n        /* \"Auction.sol\":3348:3369  hasBidder[msg.sender] */\n      0xffffffffffffffffffffffffffffffffffffffff\n      and\n      0xffffffffffffffffffffffffffffffffffffffff\n      and\n      dup2\n      mstore\n      0x20\n      add\n      swap1\n      dup2\n      mstore\n      0x20\n      add\n      0x00\n      keccak256\n      0x00\n      swap1\n      sload\n      swap1\n      0x0100\n      exp\n      swap1\n      div\n      0xff\n      and\n        /* \"Auction.sol\":3343:3465  if (!hasBidder[msg.sender]) {... */\n      tag_135\n      jumpi\n        /* \"Auction.sol\":3409:3413  true */\n      0x01\n        /* \"Auction.sol\":3385:3394  hasBidder */\n      0x08\n        /* \"Auction.sol\":3385:3406  hasBidder[msg.sender] */\n      0x00\n        /* \"Auction.sol\":3395:3405  msg.sender */\n      caller\n        /* \"Auction.sol\":3385:3406  hasBidder[msg.sender] */\n      0xffffffffffffffffffffffffffffffffffffffff\n      and\n      0xffffffffffffffffffffffffffffffffffffffff\n      and\n      dup2\n      mstore\n      0x20\n      add\n      swap1\n      dup2\n      mstore\n      0x20\n      add\n      0x00\n      keccak256\n      0x00\n        /* \"Auction.sol\":3385:3413  hasBidder[msg.sender] = true */\n      0x0100\n      exp\n      dup2\n      sload\n      dup2\n      0xff\n      mul\n      not\n      and\n      swap1\n      dup4\n      iszero\n      iszero\n      mul\n      or\n      swap1\n      sstore\n      pop\n        /* \"Auction.sol\":3427:3437  allBidders */\n      0x07\n        /* \"Auction.sol\":3443:3453  msg.sender */\n      caller\n        /* \"Auction.sol\":3427:3454  allBidders.push(msg.sender) */\n      swap1\n      dup1\n      0x01\n      dup2\n      sload\n      add\n      dup1\n      dup3\n      sstore\n      dup1\n      swap2\n      pop\n      pop\n      0x01\n      swap1\n      sub\n      swap1\n      0x00\n      mstore\n      keccak256(0x00, 0x20)\n      add\n      0x00\n      swap1\n      swap2\n      swap1\n      swap2\n      swap1\n      swap2\n      0x0100\n      exp\n      dup2\n      sload\n      dup2\n      0xffffffffffffffffffffffffffffffffffffffff\n      mul\n      not\n      and\n      swap1\n      dup4\n      0xffffffffffffffffffffffffffffffffffffffff\n      and\n      mul\n      or\n      swap1\n      sstore\n      pop\n        /* \"Auction.sol\":3343:3465  if (!hasBidder[msg.sender]) {... */\n    tag_135:\n        /* \"Auction.sol\":3499:3508  msg.value */\n      callvalue\n        /* \"Auction.sol\":3475:3483  deposits */\n      0x05\n        /* \"Auction.sol\":3475:3495  deposits[msg.sender] */\n      0x00\n        /* \"Auction.sol\":3484:3494  msg.sender */\n      caller\n        /* \"Auction.sol\":3475:3495  deposits[msg.sender] */\n      0xffffffffffffffffffffffffffffffffffffffff\n      and\n      0xffffffffffffffffffffffffffffffffffffffff\n      and\n      dup2\n      mstore\n      0x20\n      add\n      swap1\n      dup2\n      mstore\n      0x20\n      add\n      0x00\n      keccak256\n      0x00\n        /* \"Auction.sol\":3475:3508  deposits[msg.sender] += msg.value */\n      dup3\n      dup3\n      sload\n      tag_137\n      swap2\n      swap1\n      tag_130\n      jump\t// in\n    tag_137:\n      swap3\n      pop\n      pop\n      dup2\n      swap1\n      sstore\n      pop\n        /* \"Auction.sol\":3535:3545  highestBid */\n      sload(0x03)\n        /* \"Auction.sol\":3523:3532  msg.value */\n      callvalue\n        /* \"Auction.sol\":3523:3545  msg.value > highestBid */\n      gt\n        /* \"Auction.sol\":3519:3634  if (msg.value > highestBid) {... */\n      iszero\n      tag_138\n      jumpi\n        /* \"Auction.sol\":3574:3583  msg.value */\n      callvalue\n        /* \"Auction.sol\":3561:3571  highestBid */\n      0x03\n        /* \"Auction.sol\":3561:3583  highestBid = msg.value */\n      dup2\n      swap1\n      sstore\n      pop\n        /* \"Auction.sol\":3613:3623  msg.sender */\n      caller\n        /* \"Auction.sol\":3597:3610  highestBidder */\n      0x04\n      0x00\n        /* \"Auction.sol\":3597:3623  highestBidder = msg.sender */\n      0x0100\n      exp\n      dup2\n      sload\n      dup2\n      0xffffffffffffffffffffffffffffffffffffffff\n      mul\n      not\n      and\n      swap1\n      dup4\n      0xffffffffffffffffffffffffffffffffffffffff\n      and\n      mul\n      or\n      swap1\n      sstore\n      pop\n        /* \"Auction.sol\":3519:3634  if (msg.value > highestBid) {... */\n    tag_138:\n        /* \"Auction.sol\":3667:3693  Bid(msg.sender, msg.value) */\n      mload(0x40)\n      dup1\n      0x40\n      add\n      0x40\n      mstore\n      dup1\n        /* \"Auction.sol\":3671:3681  msg.sender */\n      caller\n        /* \"Auction.sol\":3667:3693  Bid(msg.sender, msg.value) */\n      0xffffffffffffffffffffffffffffffffffffffff\n      and\n      dup2\n      mstore\n      0x20\n      add\n        /* \"Auction.sol\":3683:3692  msg.value */\n      callvalue\n        /* \"Auction.sol\":3667:3693  Bid(msg.sender, msg.value) */\n      dup2\n      mstore\n      pop\n        /* \"Auction.sol\":3644:3652  lastBids */\n      0x06\n        /* \"Auction.sol\":3644:3664  lastBids[msg.sender] */\n      0x00\n        /* \"Auction.sol\":3653:3663  msg.sender */\n      caller\n        /* \"Auction.sol\":3644:3664  lastBids[msg.sender] */\n      0xffffffffffffffffffffffffffffffffffffffff\n      and\n      0xffffffffffffffffffffffffffffffffffffffff\n      and\n      dup2\n      mstore\n      0x20\n      add\n      swap1\n      dup2\n      mstore\n      0x20\n      add\n      0x00\n      keccak256\n        /* \"Auction.sol\":3644:3693  lastBids[msg.sender] = Bid(msg.sender, msg.value) */\n      0x00\n      dup3\n      add\n      mload\n      dup2\n      0x00\n      add\n      exp(0x0100, 0x00)\n      dup2\n      sload\n      dup2\n      0xffffffffffffffffffffffffffffffffffffffff\n      mul\n      not\n      and\n      swap1\n      dup4\n      0xffffffffffffffffffffffffffffffffffffffff\n      and\n      mul\n      or\n      swap1\n      sstore\n      pop\n      0x20\n      dup3\n      add\n      mload\n      dup2\n      0x01\n      add\n      sstore\n      swap1\n      pop\n      pop\n        /* \"Auction.sol\":3716:3726  msg.sender */\n      caller\n        /* \"Auction.sol\":3709:3738  NewBid(msg.sender, msg.value) */\n      0xffffffffffffffffffffffffffffffffffffffff\n      and\n      0xdd0b6c6a77960e2066c96171b4d7ac9e8b4c184011f38544afa36a5bb63ec59f\n        /* \"Auction.sol\":3728:3737  msg.value */\n      callvalue\n        /* \"Auction.sol\":3709:3738  NewBid(msg.sender, msg.value) */\n      mload(0x40)\n      tag_139\n      swap2\n      swap1\n      tag_49\n      jump\t// in\n    tag_139:\n      mload(0x40)\n      dup1\n      swap2\n      sub\n      swap1\n      log2\n        /* \"Auction.sol\":1021:1031  10 minutes */\n      0x0258\n        /* \"Auction.sol\":3770:3785  block.timestamp */\n      timestamp\n        /* \"Auction.sol\":3753:3767  auctionEndTime */\n      sload(0x02)\n        /* \"Auction.sol\":3753:3785  auctionEndTime - block.timestamp */\n      tag_140\n      swap2\n      swap1\n      tag_141\n      jump\t// in\n    tag_140:\n        /* \"Auction.sol\":3753:3803  auctionEndTime - block.timestamp <= EXTENSION_TIME */\n      gt\n      iszero\n        /* \"Auction.sol\":3753:3839  auctionEndTime - block.timestamp <= EXTENSION_TIME && block.timestamp < auctionEndTime */\n      dup1\n      iszero\n      tag_142\n      jumpi\n      pop\n        /* \"Auction.sol\":3825:3839  auctionEndTime */\n      sload(0x02)\n        /* \"Auction.sol\":3807:3822  block.timestamp */\n      timestamp\n        /* \"Auction.sol\":3807:3839  block.timestamp < auctionEndTime */\n      lt\n        /* \"Auction.sol\":3753:3839  auctionEndTime - block.timestamp <= EXTENSION_TIME && block.timestamp < auctionEndTime */\n    tag_142:\n        /* \"Auction.sol\":3749:3948  if (auctionEndTime - block.timestamp <= EXTENSION_TIME && block.timestamp < auctionEndTime) {... */\n      iszero\n      tag_143\n      jumpi\n        /* \"Auction.sol\":1021:1031  10 minutes */\n      0x0258\n        /* \"Auction.sol\":3855:3869  auctionEndTime */\n      0x02\n      0x00\n        /* \"Auction.sol\":3855:3887  auctionEndTime += EXTENSION_TIME */\n      dup3\n      dup3\n      sload\n      tag_144\n      swap2\n      swap1\n      tag_130\n      jump\t// in\n    tag_144:\n      swap3\n      pop\n      pop\n      dup2\n      swap1\n      sstore\n      pop\n        /* \"Auction.sol\":3906:3937  AuctionExtended(auctionEndTime) */\n      0xc2b459809119087ca9d2bc10dea53a51b7d848b1a11075db037bdca58292c3e8\n        /* \"Auction.sol\":3922:3936  auctionEndTime */\n      sload(0x02)\n        /* \"Auction.sol\":3906:3937  AuctionExtended(auctionEndTime) */\n      mload(0x40)\n      tag_145\n      swap2\n      swap1\n      tag_49\n      jump\t// in\n    tag_145:\n      mload(0x40)\n      dup1\n      swap2\n      sub\n      swap1\n      log1\n        /* \"Auction.sol\":3749:3948  if (auctionEndTime - block.timestamp <= EXTENSION_TIME && block.timestamp < auctionEndTime) {... */\n    tag_143:\n        /* \"Auction.sol\":2936:3954  {... */\n      pop\n        /* \"Auction.sol\":2892:3954  function bid() public payable auctionActive {... */\n      jump\t// out\n        /* \"Auction.sol\":5668:6682  function returnDeposits() public auctionEnded {... */\n    tag_37:\n        /* \"Auction.sol\":2488:2502  auctionEndTime */\n      sload(0x02)\n        /* \"Auction.sol\":2469:2484  block.timestamp */\n      timestamp\n        /* \"Auction.sol\":2469:2502  block.timestamp >= auctionEndTime */\n      lt\n      iszero\n        /* \"Auction.sol\":2469:2511  block.timestamp >= auctionEndTime || ended */\n      dup1\n      tag_147\n      jumpi\n      pop\n        /* \"Auction.sol\":2506:2511  ended */\n      0x04\n      0x14\n      swap1\n      sload\n      swap1\n      0x0100\n      exp\n      swap1\n      div\n      0xff\n      and\n        /* \"Auction.sol\":2469:2511  block.timestamp >= auctionEndTime || ended */\n    tag_147:\n        /* \"Auction.sol\":2461:2544  require(block.timestamp >= auctionEndTime || ended, \"La subasta no ha finalizado.\") */\n      tag_148\n      jumpi\n      mload(0x40)\n      0x08c379a000000000000000000000000000000000000000000000000000000000\n      dup2\n      mstore\n      0x04\n      add\n      tag_149\n      swap1\n      tag_150\n      jump\t// in\n    tag_149:\n      mload(0x40)\n      dup1\n      swap2\n      sub\n      swap1\n      revert\n    tag_148:\n        /* \"Auction.sol\":5805:5818  highestBidder */\n      0x04\n      0x00\n      swap1\n      sload\n      swap1\n      0x0100\n      exp\n      swap1\n      div\n      0xffffffffffffffffffffffffffffffffffffffff\n      and\n        /* \"Auction.sol\":5791:5818  msg.sender != highestBidder */\n      0xffffffffffffffffffffffffffffffffffffffff\n      and\n        /* \"Auction.sol\":5791:5801  msg.sender */\n      caller\n        /* \"Auction.sol\":5791:5818  msg.sender != highestBidder */\n      0xffffffffffffffffffffffffffffffffffffffff\n      and\n      sub\n        /* \"Auction.sol\":5783:5876  require(msg.sender != highestBidder, \"El ganador no puede reclamar un deposito de perdedor.\") */\n      tag_152\n      jumpi\n      mload(0x40)\n      0x08c379a000000000000000000000000000000000000000000000000000000000\n      dup2\n      mstore\n      0x04\n      add\n      tag_153\n      swap1\n      tag_154\n      jump\t// in\n    tag_153:\n      mload(0x40)\n      dup1\n      swap2\n      sub\n      swap1\n      revert\n    tag_152:\n        /* \"Auction.sol\":5960:5982  uint256 amountToRefund */\n      0x00\n        /* \"Auction.sol\":5985:5993  deposits */\n      0x05\n        /* \"Auction.sol\":5985:6005  deposits[msg.sender] */\n      0x00\n        /* \"Auction.sol\":5994:6004  msg.sender */\n      caller\n        /* \"Auction.sol\":5985:6005  deposits[msg.sender] */\n      0xffffffffffffffffffffffffffffffffffffffff\n      and\n      0xffffffffffffffffffffffffffffffffffffffff\n      and\n      dup2\n      mstore\n      0x20\n      add\n      swap1\n      dup2\n      mstore\n      0x20\n      add\n      0x00\n      keccak256\n      sload\n        /* \"Auction.sol\":5960:6005  uint256 amountToRefund = deposits[msg.sender] */\n      swap1\n      pop\n        /* \"Auction.sol\":6040:6041  0 */\n      0x00\n        /* \"Auction.sol\":6023:6037  amountToRefund */\n      dup2\n        /* \"Auction.sol\":6023:6041  amountToRefund > 0 */\n      gt\n        /* \"Auction.sol\":6015:6080  require(amountToRefund > 0, \"No tienes depositos para reclamar.\") */\n      tag_155\n      jumpi\n      mload(0x40)\n      0x08c379a000000000000000000000000000000000000000000000000000000000\n      dup2\n      mstore\n      0x04\n      add\n      tag_156\n      swap1\n      tag_157\n      jump\t// in\n    tag_156:\n      mload(0x40)\n      dup1\n      swap2\n      sub\n      swap1\n      revert\n    tag_155:\n        /* \"Auction.sol\":6163:6181  uint256 commission */\n      0x00\n        /* \"Auction.sol\":6228:6231  100 */\n      0x64\n        /* \"Auction.sol\":1145:1146  2 */\n      0x02\n        /* \"Auction.sol\":6185:6199  amountToRefund */\n      dup4\n        /* \"Auction.sol\":6185:6224  amountToRefund * GAS_COMMISSION_PERCENT */\n      tag_158\n      swap2\n      swap1\n      tag_126\n      jump\t// in\n    tag_158:\n        /* \"Auction.sol\":6184:6231  (amountToRefund * GAS_COMMISSION_PERCENT) / 100 */\n      tag_159\n      swap2\n      swap1\n      tag_128\n      jump\t// in\n    tag_159:\n        /* \"Auction.sol\":6163:6231  uint256 commission = (amountToRefund * GAS_COMMISSION_PERCENT) / 100 */\n      swap1\n      pop\n        /* \"Auction.sol\":6241:6258  uint256 netRefund */\n      0x00\n        /* \"Auction.sol\":6278:6288  commission */\n      dup2\n        /* \"Auction.sol\":6261:6275  amountToRefund */\n      dup4\n        /* \"Auction.sol\":6261:6288  amountToRefund - commission */\n      tag_160\n      swap2\n      swap1\n      tag_141\n      jump\t// in\n    tag_160:\n        /* \"Auction.sol\":6241:6288  uint256 netRefund = amountToRefund - commission */\n      swap1\n      pop\n        /* \"Auction.sol\":6423:6424  0 */\n      0x00\n        /* \"Auction.sol\":6400:6408  deposits */\n      0x05\n        /* \"Auction.sol\":6400:6420  deposits[msg.sender] */\n      0x00\n        /* \"Auction.sol\":6409:6419  msg.sender */\n      caller\n        /* \"Auction.sol\":6400:6420  deposits[msg.sender] */\n      0xffffffffffffffffffffffffffffffffffffffff\n      and\n      0xffffffffffffffffffffffffffffffffffffffff\n      and\n      dup2\n      mstore\n      0x20\n      add\n      swap1\n      dup2\n      mstore\n      0x20\n      add\n      0x00\n      keccak256\n        /* \"Auction.sol\":6400:6424  deposits[msg.sender] = 0 */\n      dup2\n      swap1\n      sstore\n      pop\n        /* \"Auction.sol\":6490:6502  bool success */\n      0x00\n        /* \"Auction.sol\":6516:6526  msg.sender */\n      caller\n        /* \"Auction.sol\":6508:6532  payable(msg.sender).call */\n      0xffffffffffffffffffffffffffffffffffffffff\n      and\n        /* \"Auction.sol\":6540:6549  netRefund */\n      dup3\n        /* \"Auction.sol\":6508:6554  payable(msg.sender).call{value: netRefund}(\"\") */\n      mload(0x40)\n      tag_161\n      swap1\n      tag_162\n      jump\t// in\n    tag_161:\n      0x00\n      mload(0x40)\n      dup1\n      dup4\n      sub\n      dup2\n      dup6\n      dup8\n      gas\n      call\n      swap3\n      pop\n      pop\n      pop\n      returndatasize\n      dup1\n      0x00\n      dup2\n      eq\n      tag_165\n      jumpi\n      mload(0x40)\n      swap2\n      pop\n      and(add(returndatasize, 0x3f), not(0x1f))\n      dup3\n      add\n      0x40\n      mstore\n      returndatasize\n      dup3\n      mstore\n      returndatasize\n      0x00\n      0x20\n      dup5\n      add\n      returndatacopy\n      jump(tag_164)\n    tag_165:\n      0x60\n      swap2\n      pop\n    tag_164:\n      pop\n        /* \"Auction.sol\":6489:6554  (bool success, ) = payable(msg.sender).call{value: netRefund}(\"\") */\n      pop\n      swap1\n      pop\n        /* \"Auction.sol\":6572:6579  success */\n      dup1\n        /* \"Auction.sol\":6564:6621  require(success, \"Fallo la transferencia del reembolso.\") */\n      tag_166\n      jumpi\n      mload(0x40)\n      0x08c379a000000000000000000000000000000000000000000000000000000000\n      dup2\n      mstore\n      0x04\n      add\n      tag_167\n      swap1\n      tag_168\n      jump\t// in\n    tag_167:\n      mload(0x40)\n      dup1\n      swap2\n      sub\n      swap1\n      revert\n    tag_166:\n        /* \"Auction.sol\":6653:6663  msg.sender */\n      caller\n        /* \"Auction.sol\":6637:6675  DepositRefunded(msg.sender, netRefund) */\n      0xffffffffffffffffffffffffffffffffffffffff\n      and\n      0x698270f63d8b673ed55a5ca00d14001bd808b390dbe11d5b1b16624863f71f77\n        /* \"Auction.sol\":6665:6674  netRefund */\n      dup4\n        /* \"Auction.sol\":6637:6675  DepositRefunded(msg.sender, netRefund) */\n      mload(0x40)\n      tag_169\n      swap2\n      swap1\n      tag_49\n      jump\t// in\n    tag_169:\n      mload(0x40)\n      dup1\n      swap2\n      sub\n      swap1\n      log2\n        /* \"Auction.sol\":5714:6682  {... */\n      pop\n      pop\n      pop\n      pop\n        /* \"Auction.sol\":5668:6682  function returnDeposits() public auctionEnded {... */\n      jump\t// out\n        /* \"Auction.sol\":641:680  mapping(address => Bid) public lastBids */\n    tag_42:\n      mstore(0x20, 0x06)\n      dup1\n      0x00\n      mstore\n      keccak256(0x00, 0x40)\n      0x00\n      swap2\n      pop\n      swap1\n      pop\n      dup1\n      0x00\n      add\n      0x00\n      swap1\n      sload\n      swap1\n      0x0100\n      exp\n      swap1\n      div\n      0xffffffffffffffffffffffffffffffffffffffff\n      and\n      swap1\n      dup1\n      0x01\n      add\n      sload\n      swap1\n      pop\n      dup3\n      jump\t// out\n        /* \"Auction.sol\":178:207  uint256 public auctionEndTime */\n    tag_47:\n      sload(0x02)\n      dup2\n      jump\t// out\n        /* \"Auction.sol\":980:1031  uint256 public constant EXTENSION_TIME = 10 minutes */\n    tag_52:\n        /* \"Auction.sol\":1021:1031  10 minutes */\n      0x0258\n        /* \"Auction.sol\":980:1031  uint256 public constant EXTENSION_TIME = 10 minutes */\n      dup2\n      jump\t// out\n        /* \"Auction.sol\":115:135  address public owner */\n    tag_56:\n      0x00\n      0x00\n      swap1\n      sload\n      swap1\n      0x0100\n      exp\n      swap1\n      div\n      0xffffffffffffffffffffffffffffffffffffffff\n      and\n      dup2\n      jump\t// out\n        /* \"Auction.sol\":244:272  address public highestBidder */\n    tag_61:\n      0x04\n      0x00\n      swap1\n      sload\n      swap1\n      0x0100\n      exp\n      swap1\n      div\n      0xffffffffffffffffffffffffffffffffffffffff\n      and\n      dup2\n      jump\t// out\n        /* \"Auction.sol\":759:786  address[] public allBidders */\n    tag_67:\n      0x07\n      dup2\n      dup2\n      sload\n      dup2\n      lt\n      tag_170\n      jumpi\n      0x00\n      dup1\n      revert\n    tag_170:\n      swap1\n      0x00\n      mstore\n      keccak256(0x00, 0x20)\n      add\n      0x00\n      swap2\n      pop\n      sload\n      swap1\n      0x0100\n      exp\n      swap1\n      div\n      0xffffffffffffffffffffffffffffffffffffffff\n      and\n      dup2\n      jump\t// out\n        /* \"Auction.sol\":1096:1146  uint256 public constant GAS_COMMISSION_PERCENT = 2 */\n    tag_71:\n        /* \"Auction.sol\":1145:1146  2 */\n      0x02\n        /* \"Auction.sol\":1096:1146  uint256 public constant GAS_COMMISSION_PERCENT = 2 */\n      dup2\n      jump\t// out\n        /* \"Auction.sol\":4610:4753  function showWinner() public view auctionEnded returns (address winner, uint256 winningBid) {... */\n    tag_75:\n        /* \"Auction.sol\":4666:4680  address winner */\n      0x00\n        /* \"Auction.sol\":4682:4700  uint256 winningBid */\n      0x00\n        /* \"Auction.sol\":2488:2502  auctionEndTime */\n      sload(0x02)\n        /* \"Auction.sol\":2469:2484  block.timestamp */\n      timestamp\n        /* \"Auction.sol\":2469:2502  block.timestamp >= auctionEndTime */\n      lt\n      iszero\n        /* \"Auction.sol\":2469:2511  block.timestamp >= auctionEndTime || ended */\n      dup1\n      tag_173\n      jumpi\n      pop\n        /* \"Auction.sol\":2506:2511  ended */\n      0x04\n      0x14\n      swap1\n      sload\n      swap1\n      0x0100\n      exp\n      swap1\n      div\n      0xff\n      and\n        /* \"Auction.sol\":2469:2511  block.timestamp >= auctionEndTime || ended */\n    tag_173:\n        /* \"Auction.sol\":2461:2544  require(block.timestamp >= auctionEndTime || ended, \"La subasta no ha finalizado.\") */\n      tag_174\n      jumpi\n      mload(0x40)\n      0x08c379a000000000000000000000000000000000000000000000000000000000\n      dup2\n      mstore\n      0x04\n      add\n      tag_175\n      swap1\n      tag_150\n      jump\t// in\n    tag_175:\n      mload(0x40)\n      dup1\n      swap2\n      sub\n      swap1\n      revert\n    tag_174:\n        /* \"Auction.sol\":4720:4733  highestBidder */\n      0x04\n      0x00\n      swap1\n      sload\n      swap1\n      0x0100\n      exp\n      swap1\n      div\n      0xffffffffffffffffffffffffffffffffffffffff\n      and\n        /* \"Auction.sol\":4735:4745  highestBid */\n      sload(0x03)\n        /* \"Auction.sol\":4712:4746  return (highestBidder, highestBid) */\n      swap2\n      pop\n      swap2\n      pop\n        /* \"Auction.sol\":4610:4753  function showWinner() public view auctionEnded returns (address winner, uint256 winningBid) {... */\n      swap1\n      swap2\n      jump\t// out\n        /* \"Auction.sol\":1037:1090  uint256 public constant MIN_BID_INCREMENT_PERCENT = 5 */\n    tag_79:\n        /* \"Auction.sol\":1089:1090  5 */\n      0x05\n        /* \"Auction.sol\":1037:1090  uint256 public constant MIN_BID_INCREMENT_PERCENT = 5 */\n      dup2\n      jump\t// out\n        /* \"Auction.sol\":6885:7981  function partialWithdrawal() public auctionActive {... */\n    tag_83:\n        /* \"Auction.sol\":2270:2284  auctionEndTime */\n      sload(0x02)\n        /* \"Auction.sol\":2252:2267  block.timestamp */\n      timestamp\n        /* \"Auction.sol\":2252:2284  block.timestamp < auctionEndTime */\n      lt\n        /* \"Auction.sol\":2252:2294  block.timestamp < auctionEndTime && !ended */\n      dup1\n      iszero\n      tag_178\n      jumpi\n      pop\n        /* \"Auction.sol\":2289:2294  ended */\n      0x04\n      0x14\n      swap1\n      sload\n      swap1\n      0x0100\n      exp\n      swap1\n      div\n      0xff\n      and\n        /* \"Auction.sol\":2288:2294  !ended */\n      iszero\n        /* \"Auction.sol\":2252:2294  block.timestamp < auctionEndTime && !ended */\n    tag_178:\n        /* \"Auction.sol\":2244:2325  require(block.timestamp < auctionEndTime && !ended, \"La subasta no esta activa.\") */\n      tag_179\n      jumpi\n      mload(0x40)\n      0x08c379a000000000000000000000000000000000000000000000000000000000\n      dup2\n      mstore\n      0x04\n      add\n      tag_180\n      swap1\n      tag_123\n      jump\t// in\n    tag_180:\n      mload(0x40)\n      dup1\n      swap2\n      sub\n      swap1\n      revert\n    tag_179:\n        /* \"Auction.sol\":7001:7023  uint256 currentDeposit */\n      0x00\n        /* \"Auction.sol\":7026:7034  deposits */\n      0x05\n        /* \"Auction.sol\":7026:7046  deposits[msg.sender] */\n      0x00\n        /* \"Auction.sol\":7035:7045  msg.sender */\n      caller\n        /* \"Auction.sol\":7026:7046  deposits[msg.sender] */\n      0xffffffffffffffffffffffffffffffffffffffff\n      and\n      0xffffffffffffffffffffffffffffffffffffffff\n      and\n      dup2\n      mstore\n      0x20\n      add\n      swap1\n      dup2\n      mstore\n      0x20\n      add\n      0x00\n      keccak256\n      sload\n        /* \"Auction.sol\":7001:7046  uint256 currentDeposit = deposits[msg.sender] */\n      swap1\n      pop\n        /* \"Auction.sol\":7109:7130  uint256 lastBidAmount */\n      0x00\n        /* \"Auction.sol\":7133:7141  lastBids */\n      0x06\n        /* \"Auction.sol\":7133:7153  lastBids[msg.sender] */\n      0x00\n        /* \"Auction.sol\":7142:7152  msg.sender */\n      caller\n        /* \"Auction.sol\":7133:7153  lastBids[msg.sender] */\n      0xffffffffffffffffffffffffffffffffffffffff\n      and\n      0xffffffffffffffffffffffffffffffffffffffff\n      and\n      dup2\n      mstore\n      0x20\n      add\n      swap1\n      dup2\n      mstore\n      0x20\n      add\n      0x00\n      keccak256\n        /* \"Auction.sol\":7133:7160  lastBids[msg.sender].amount */\n      0x01\n      add\n      sload\n        /* \"Auction.sol\":7109:7160  uint256 lastBidAmount = lastBids[msg.sender].amount */\n      swap1\n      pop\n        /* \"Auction.sol\":7299:7312  lastBidAmount */\n      dup1\n        /* \"Auction.sol\":7282:7296  currentDeposit */\n      dup3\n        /* \"Auction.sol\":7282:7312  currentDeposit > lastBidAmount */\n      gt\n        /* \"Auction.sol\":7274:7353  require(currentDeposit > lastBidAmount, \"No hay monto excedente para retirar.\") */\n      tag_182\n      jumpi\n      mload(0x40)\n      0x08c379a000000000000000000000000000000000000000000000000000000000\n      dup2\n      mstore\n      0x04\n      add\n      tag_183\n      swap1\n      tag_184\n      jump\t// in\n    tag_183:\n      mload(0x40)\n      dup1\n      swap2\n      sub\n      swap1\n      revert\n    tag_182:\n        /* \"Auction.sol\":7439:7463  uint256 amountToWithdraw */\n      0x00\n        /* \"Auction.sol\":7483:7496  lastBidAmount */\n      dup2\n        /* \"Auction.sol\":7466:7480  currentDeposit */\n      dup4\n        /* \"Auction.sol\":7466:7496  currentDeposit - lastBidAmount */\n      tag_185\n      swap2\n      swap1\n      tag_141\n      jump\t// in\n    tag_185:\n        /* \"Auction.sol\":7439:7496  uint256 amountToWithdraw = currentDeposit - lastBidAmount */\n      swap1\n      pop\n        /* \"Auction.sol\":7703:7716  lastBidAmount */\n      dup2\n        /* \"Auction.sol\":7680:7688  deposits */\n      0x05\n        /* \"Auction.sol\":7680:7700  deposits[msg.sender] */\n      0x00\n        /* \"Auction.sol\":7689:7699  msg.sender */\n      caller\n        /* \"Auction.sol\":7680:7700  deposits[msg.sender] */\n      0xffffffffffffffffffffffffffffffffffffffff\n      and\n      0xffffffffffffffffffffffffffffffffffffffff\n      and\n      dup2\n      mstore\n      0x20\n      add\n      swap1\n      dup2\n      mstore\n      0x20\n      add\n      0x00\n      keccak256\n        /* \"Auction.sol\":7680:7716  deposits[msg.sender] = lastBidAmount */\n      dup2\n      swap1\n      sstore\n      pop\n        /* \"Auction.sol\":7786:7798  bool success */\n      0x00\n        /* \"Auction.sol\":7812:7822  msg.sender */\n      caller\n        /* \"Auction.sol\":7804:7828  payable(msg.sender).call */\n      0xffffffffffffffffffffffffffffffffffffffff\n      and\n        /* \"Auction.sol\":7836:7852  amountToWithdraw */\n      dup3\n        /* \"Auction.sol\":7804:7857  payable(msg.sender).call{value: amountToWithdraw}(\"\") */\n      mload(0x40)\n      tag_186\n      swap1\n      tag_162\n      jump\t// in\n    tag_186:\n      0x00\n      mload(0x40)\n      dup1\n      dup4\n      sub\n      dup2\n      dup6\n      dup8\n      gas\n      call\n      swap3\n      pop\n      pop\n      pop\n      returndatasize\n      dup1\n      0x00\n      dup2\n      eq\n      tag_189\n      jumpi\n      mload(0x40)\n      swap2\n      pop\n      and(add(returndatasize, 0x3f), not(0x1f))\n      dup3\n      add\n      0x40\n      mstore\n      returndatasize\n      dup3\n      mstore\n      returndatasize\n      0x00\n      0x20\n      dup5\n      add\n      returndatacopy\n      jump(tag_188)\n    tag_189:\n      0x60\n      swap2\n      pop\n    tag_188:\n      pop\n        /* \"Auction.sol\":7785:7857  (bool success, ) = payable(msg.sender).call{value: amountToWithdraw}(\"\") */\n      pop\n      swap1\n      pop\n        /* \"Auction.sol\":7875:7882  success */\n      dup1\n        /* \"Auction.sol\":7867:7911  require(success, \"Fallo el retiro parcial.\") */\n      tag_190\n      jumpi\n      mload(0x40)\n      0x08c379a000000000000000000000000000000000000000000000000000000000\n      dup2\n      mstore\n      0x04\n      add\n      tag_191\n      swap1\n      tag_192\n      jump\t// in\n    tag_191:\n      mload(0x40)\n      dup1\n      swap2\n      sub\n      swap1\n      revert\n    tag_190:\n        /* \"Auction.sol\":7945:7955  msg.sender */\n      caller\n        /* \"Auction.sol\":7927:7974  PartialWithdrawal(msg.sender, amountToWithdraw) */\n      0xffffffffffffffffffffffffffffffffffffffff\n      and\n      0x8468f8fa62fc679cf8165eab7662a1fa977705b501dd787e9ec07884885425f1\n        /* \"Auction.sol\":7957:7973  amountToWithdraw */\n      dup4\n        /* \"Auction.sol\":7927:7974  PartialWithdrawal(msg.sender, amountToWithdraw) */\n      mload(0x40)\n      tag_193\n      swap2\n      swap1\n      tag_49\n      jump\t// in\n    tag_193:\n      mload(0x40)\n      dup1\n      swap2\n      sub\n      swap1\n      log2\n        /* \"Auction.sol\":6935:7981  {... */\n      pop\n      pop\n      pop\n      pop\n        /* \"Auction.sol\":6885:7981  function partialWithdrawal() public auctionActive {... */\n      jump\t// out\n        /* \"Auction.sol\":213:238  uint256 public highestBid */\n    tag_86:\n      sload(0x03)\n      dup2\n      jump\t// out\n        /* \"Auction.sol\":141:172  uint256 public auctionStartTime */\n    tag_90:\n      sload(0x01)\n      dup2\n      jump\t// out\n        /* \"Auction.sol\":372:415  mapping(address => uint256) public deposits */\n    tag_95:\n      mstore(0x20, 0x05)\n      dup1\n      0x00\n      mstore\n      keccak256(0x00, 0x40)\n      0x00\n      swap2\n      pop\n      swap1\n      pop\n      sload\n      dup2\n      jump\t// out\n        /* \"Auction.sol\":4101:4330  function endAuction() public {... */\n    tag_99:\n        /* \"Auction.sol\":4167:4181  auctionEndTime */\n      sload(0x02)\n        /* \"Auction.sol\":4148:4163  block.timestamp */\n      timestamp\n        /* \"Auction.sol\":4148:4181  block.timestamp >= auctionEndTime */\n      lt\n      iszero\n        /* \"Auction.sol\":4148:4191  block.timestamp >= auctionEndTime && !ended */\n      dup1\n      iszero\n      tag_195\n      jumpi\n      pop\n        /* \"Auction.sol\":4186:4191  ended */\n      0x04\n      0x14\n      swap1\n      sload\n      swap1\n      0x0100\n      exp\n      swap1\n      div\n      0xff\n      and\n        /* \"Auction.sol\":4185:4191  !ended */\n      iszero\n        /* \"Auction.sol\":4148:4191  block.timestamp >= auctionEndTime && !ended */\n    tag_195:\n        /* \"Auction.sol\":4140:4247  require(block.timestamp >= auctionEndTime && !ended, \"La subasta no puede finalizarse o ya ha finalizado.\") */\n      tag_196\n      jumpi\n      mload(0x40)\n      0x08c379a000000000000000000000000000000000000000000000000000000000\n      dup2\n      mstore\n      0x04\n      add\n      tag_197\n      swap1\n      tag_198\n      jump\t// in\n    tag_197:\n      mload(0x40)\n      dup1\n      swap2\n      sub\n      swap1\n      revert\n    tag_196:\n        /* \"Auction.sol\":4265:4269  true */\n      0x01\n        /* \"Auction.sol\":4257:4262  ended */\n      0x04\n      0x14\n        /* \"Auction.sol\":4257:4269  ended = true */\n      0x0100\n      exp\n      dup2\n      sload\n      dup2\n      0xff\n      mul\n      not\n      and\n      swap1\n      dup4\n      iszero\n      iszero\n      mul\n      or\n      swap1\n      sstore\n      pop\n        /* \"Auction.sol\":4284:4323  AuctionEnded(highestBidder, highestBid) */\n      0xdaec4582d5d9595688c8c98545fdd1c696d41c6aeaeb636737e84ed2f5c00eda\n        /* \"Auction.sol\":4297:4310  highestBidder */\n      0x04\n      0x00\n      swap1\n      sload\n      swap1\n      0x0100\n      exp\n      swap1\n      div\n      0xffffffffffffffffffffffffffffffffffffffff\n      and\n        /* \"Auction.sol\":4312:4322  highestBid */\n      sload(0x03)\n        /* \"Auction.sol\":4284:4323  AuctionEnded(highestBidder, highestBid) */\n      mload(0x40)\n      tag_199\n      swap3\n      swap2\n      swap1\n      tag_44\n      jump\t// in\n    tag_199:\n      mload(0x40)\n      dup1\n      swap2\n      sub\n      swap1\n      log1\n        /* \"Auction.sol\":4101:4330  function endAuction() public {... */\n      jump\t// out\n        /* \"#utility.yul\":7:97   */\n    tag_200:\n        /* \"#utility.yul\":41:48   */\n      0x00\n        /* \"#utility.yul\":84:89   */\n      dup2\n        /* \"#utility.yul\":77:90   */\n      iszero\n        /* \"#utility.yul\":70:91   */\n      iszero\n        /* \"#utility.yul\":59:91   */\n      swap1\n      pop\n        /* \"#utility.yul\":7:97   */\n      swap2\n      swap1\n      pop\n      jump\t// out\n        /* \"#utility.yul\":103:212   */\n    tag_201:\n        /* \"#utility.yul\":184:205   */\n      tag_255\n        /* \"#utility.yul\":199:204   */\n      dup2\n        /* \"#utility.yul\":184:205   */\n      tag_200\n      jump\t// in\n    tag_255:\n        /* \"#utility.yul\":179:182   */\n      dup3\n        /* \"#utility.yul\":172:206   */\n      mstore\n        /* \"#utility.yul\":103:212   */\n      pop\n      pop\n      jump\t// out\n        /* \"#utility.yul\":218:428   */\n    tag_27:\n        /* \"#utility.yul\":305:309   */\n      0x00\n        /* \"#utility.yul\":343:345   */\n      0x20\n        /* \"#utility.yul\":332:341   */\n      dup3\n        /* \"#utility.yul\":328:346   */\n      add\n        /* \"#utility.yul\":320:346   */\n      swap1\n      pop\n        /* \"#utility.yul\":356:421   */\n      tag_257\n        /* \"#utility.yul\":418:419   */\n      0x00\n        /* \"#utility.yul\":407:416   */\n      dup4\n        /* \"#utility.yul\":403:420   */\n      add\n        /* \"#utility.yul\":394:400   */\n      dup5\n        /* \"#utility.yul\":356:421   */\n      tag_201\n      jump\t// in\n    tag_257:\n        /* \"#utility.yul\":218:428   */\n      swap3\n      swap2\n      pop\n      pop\n      jump\t// out\n        /* \"#utility.yul\":434:548   */\n    tag_202:\n        /* \"#utility.yul\":501:507   */\n      0x00\n        /* \"#utility.yul\":535:540   */\n      dup2\n        /* \"#utility.yul\":529:541   */\n      mload\n        /* \"#utility.yul\":519:541   */\n      swap1\n      pop\n        /* \"#utility.yul\":434:548   */\n      swap2\n      swap1\n      pop\n      jump\t// out\n        /* \"#utility.yul\":554:738   */\n    tag_203:\n        /* \"#utility.yul\":653:664   */\n      0x00\n        /* \"#utility.yul\":687:693   */\n      dup3\n        /* \"#utility.yul\":682:685   */\n      dup3\n        /* \"#utility.yul\":675:694   */\n      mstore\n        /* \"#utility.yul\":727:731   */\n      0x20\n        /* \"#utility.yul\":722:725   */\n      dup3\n        /* \"#utility.yul\":718:732   */\n      add\n        /* \"#utility.yul\":703:732   */\n      swap1\n      pop\n        /* \"#utility.yul\":554:738   */\n      swap3\n      swap2\n      pop\n      pop\n      jump\t// out\n        /* \"#utility.yul\":744:876   */\n    tag_204:\n        /* \"#utility.yul\":811:815   */\n      0x00\n        /* \"#utility.yul\":834:837   */\n      dup2\n        /* \"#utility.yul\":826:837   */\n      swap1\n      pop\n        /* \"#utility.yul\":864:868   */\n      0x20\n        /* \"#utility.yul\":859:862   */\n      dup3\n        /* \"#utility.yul\":855:869   */\n      add\n        /* \"#utility.yul\":847:869   */\n      swap1\n      pop\n        /* \"#utility.yul\":744:876   */\n      swap2\n      swap1\n      pop\n      jump\t// out\n        /* \"#utility.yul\":882:1008   */\n    tag_205:\n        /* \"#utility.yul\":919:926   */\n      0x00\n        /* \"#utility.yul\":959:1001   */\n      0xffffffffffffffffffffffffffffffffffffffff\n        /* \"#utility.yul\":952:957   */\n      dup3\n        /* \"#utility.yul\":948:1002   */\n      and\n        /* \"#utility.yul\":937:1002   */\n      swap1\n      pop\n        /* \"#utility.yul\":882:1008   */\n      swap2\n      swap1\n      pop\n      jump\t// out\n        /* \"#utility.yul\":1014:1110   */\n    tag_206:\n        /* \"#utility.yul\":1051:1058   */\n      0x00\n        /* \"#utility.yul\":1080:1104   */\n      tag_263\n        /* \"#utility.yul\":1098:1103   */\n      dup3\n        /* \"#utility.yul\":1080:1104   */\n      tag_205\n      jump\t// in\n    tag_263:\n        /* \"#utility.yul\":1069:1104   */\n      swap1\n      pop\n        /* \"#utility.yul\":1014:1110   */\n      swap2\n      swap1\n      pop\n      jump\t// out\n        /* \"#utility.yul\":1116:1224   */\n    tag_207:\n        /* \"#utility.yul\":1193:1217   */\n      tag_265\n        /* \"#utility.yul\":1211:1216   */\n      dup2\n        /* \"#utility.yul\":1193:1217   */\n      tag_206\n      jump\t// in\n    tag_265:\n        /* \"#utility.yul\":1188:1191   */\n      dup3\n        /* \"#utility.yul\":1181:1218   */\n      mstore\n        /* \"#utility.yul\":1116:1224   */\n      pop\n      pop\n      jump\t// out\n        /* \"#utility.yul\":1230:1409   */\n    tag_208:\n        /* \"#utility.yul\":1299:1309   */\n      0x00\n        /* \"#utility.yul\":1320:1366   */\n      tag_267\n        /* \"#utility.yul\":1362:1365   */\n      dup4\n        /* \"#utility.yul\":1354:1360   */\n      dup4\n        /* \"#utility.yul\":1320:1366   */\n      tag_207\n      jump\t// in\n    tag_267:\n        /* \"#utility.yul\":1398:1402   */\n      0x20\n        /* \"#utility.yul\":1393:1396   */\n      dup4\n        /* \"#utility.yul\":1389:1403   */\n      add\n        /* \"#utility.yul\":1375:1403   */\n      swap1\n      pop\n        /* \"#utility.yul\":1230:1409   */\n      swap3\n      swap2\n      pop\n      pop\n      jump\t// out\n        /* \"#utility.yul\":1415:1528   */\n    tag_209:\n        /* \"#utility.yul\":1485:1489   */\n      0x00\n        /* \"#utility.yul\":1517:1521   */\n      0x20\n        /* \"#utility.yul\":1512:1515   */\n      dup3\n        /* \"#utility.yul\":1508:1522   */\n      add\n        /* \"#utility.yul\":1500:1522   */\n      swap1\n      pop\n        /* \"#utility.yul\":1415:1528   */\n      swap2\n      swap1\n      pop\n      jump\t// out\n        /* \"#utility.yul\":1564:2296   */\n    tag_210:\n        /* \"#utility.yul\":1683:1686   */\n      0x00\n        /* \"#utility.yul\":1712:1766   */\n      tag_270\n        /* \"#utility.yul\":1760:1765   */\n      dup3\n        /* \"#utility.yul\":1712:1766   */\n      tag_202\n      jump\t// in\n    tag_270:\n        /* \"#utility.yul\":1782:1868   */\n      tag_271\n        /* \"#utility.yul\":1861:1867   */\n      dup2\n        /* \"#utility.yul\":1856:1859   */\n      dup6\n        /* \"#utility.yul\":1782:1868   */\n      tag_203\n      jump\t// in\n    tag_271:\n        /* \"#utility.yul\":1775:1868   */\n      swap4\n      pop\n        /* \"#utility.yul\":1892:1948   */\n      tag_272\n        /* \"#utility.yul\":1942:1947   */\n      dup4\n        /* \"#utility.yul\":1892:1948   */\n      tag_204\n      jump\t// in\n    tag_272:\n        /* \"#utility.yul\":1971:1978   */\n      dup1\n        /* \"#utility.yul\":2002:2003   */\n      0x00\n        /* \"#utility.yul\":1987:2271   */\n    tag_273:\n        /* \"#utility.yul\":2012:2018   */\n      dup4\n        /* \"#utility.yul\":2009:2010   */\n      dup2\n        /* \"#utility.yul\":2006:2019   */\n      lt\n        /* \"#utility.yul\":1987:2271   */\n      iszero\n      tag_275\n      jumpi\n        /* \"#utility.yul\":2088:2094   */\n      dup2\n        /* \"#utility.yul\":2082:2095   */\n      mload\n        /* \"#utility.yul\":2115:2178   */\n      tag_276\n        /* \"#utility.yul\":2174:2177   */\n      dup9\n        /* \"#utility.yul\":2159:2172   */\n      dup3\n        /* \"#utility.yul\":2115:2178   */\n      tag_208\n      jump\t// in\n    tag_276:\n        /* \"#utility.yul\":2108:2178   */\n      swap8\n      pop\n        /* \"#utility.yul\":2201:2261   */\n      tag_277\n        /* \"#utility.yul\":2254:2260   */\n      dup4\n        /* \"#utility.yul\":2201:2261   */\n      tag_209\n      jump\t// in\n    tag_277:\n        /* \"#utility.yul\":2191:2261   */\n      swap3\n      pop\n        /* \"#utility.yul\":2047:2271   */\n      pop\n        /* \"#utility.yul\":2034:2035   */\n      0x01\n        /* \"#utility.yul\":2031:2032   */\n      dup2\n        /* \"#utility.yul\":2027:2036   */\n      add\n        /* \"#utility.yul\":2022:2036   */\n      swap1\n      pop\n        /* \"#utility.yul\":1987:2271   */\n      jump(tag_273)\n    tag_275:\n        /* \"#utility.yul\":1991:2005   */\n      pop\n        /* \"#utility.yul\":2287:2290   */\n      dup6\n        /* \"#utility.yul\":2280:2290   */\n      swap4\n      pop\n        /* \"#utility.yul\":1688:2296   */\n      pop\n      pop\n      pop\n        /* \"#utility.yul\":1564:2296   */\n      swap3\n      swap2\n      pop\n      pop\n      jump\t// out\n        /* \"#utility.yul\":2302:2416   */\n    tag_211:\n        /* \"#utility.yul\":2369:2375   */\n      0x00\n        /* \"#utility.yul\":2403:2408   */\n      dup2\n        /* \"#utility.yul\":2397:2409   */\n      mload\n        /* \"#utility.yul\":2387:2409   */\n      swap1\n      pop\n        /* \"#utility.yul\":2302:2416   */\n      swap2\n      swap1\n      pop\n      jump\t// out\n        /* \"#utility.yul\":2422:2606   */\n    tag_212:\n        /* \"#utility.yul\":2521:2532   */\n      0x00\n        /* \"#utility.yul\":2555:2561   */\n      dup3\n        /* \"#utility.yul\":2550:2553   */\n      dup3\n        /* \"#utility.yul\":2543:2562   */\n      mstore\n        /* \"#utility.yul\":2595:2599   */\n      0x20\n        /* \"#utility.yul\":2590:2593   */\n      dup3\n        /* \"#utility.yul\":2586:2600   */\n      add\n        /* \"#utility.yul\":2571:2600   */\n      swap1\n      pop\n        /* \"#utility.yul\":2422:2606   */\n      swap3\n      swap2\n      pop\n      pop\n      jump\t// out\n        /* \"#utility.yul\":2612:2744   */\n    tag_213:\n        /* \"#utility.yul\":2679:2683   */\n      0x00\n        /* \"#utility.yul\":2702:2705   */\n      dup2\n        /* \"#utility.yul\":2694:2705   */\n      swap1\n      pop\n        /* \"#utility.yul\":2732:2736   */\n      0x20\n        /* \"#utility.yul\":2727:2730   */\n      dup3\n        /* \"#utility.yul\":2723:2737   */\n      add\n        /* \"#utility.yul\":2715:2737   */\n      swap1\n      pop\n        /* \"#utility.yul\":2612:2744   */\n      swap2\n      swap1\n      pop\n      jump\t// out\n        /* \"#utility.yul\":2750:2827   */\n    tag_214:\n        /* \"#utility.yul\":2787:2794   */\n      0x00\n        /* \"#utility.yul\":2816:2821   */\n      dup2\n        /* \"#utility.yul\":2805:2821   */\n      swap1\n      pop\n        /* \"#utility.yul\":2750:2827   */\n      swap2\n      swap1\n      pop\n      jump\t// out\n        /* \"#utility.yul\":2833:2941   */\n    tag_215:\n        /* \"#utility.yul\":2910:2934   */\n      tag_283\n        /* \"#utility.yul\":2928:2933   */\n      dup2\n        /* \"#utility.yul\":2910:2934   */\n      tag_214\n      jump\t// in\n    tag_283:\n        /* \"#utility.yul\":2905:2908   */\n      dup3\n        /* \"#utility.yul\":2898:2935   */\n      mstore\n        /* \"#utility.yul\":2833:2941   */\n      pop\n      pop\n      jump\t// out\n        /* \"#utility.yul\":2947:3126   */\n    tag_216:\n        /* \"#utility.yul\":3016:3026   */\n      0x00\n        /* \"#utility.yul\":3037:3083   */\n      tag_285\n        /* \"#utility.yul\":3079:3082   */\n      dup4\n        /* \"#utility.yul\":3071:3077   */\n      dup4\n        /* \"#utility.yul\":3037:3083   */\n      tag_215\n      jump\t// in\n    tag_285:\n        /* \"#utility.yul\":3115:3119   */\n      0x20\n        /* \"#utility.yul\":3110:3113   */\n      dup4\n        /* \"#utility.yul\":3106:3120   */\n      add\n        /* \"#utility.yul\":3092:3120   */\n      swap1\n      pop\n        /* \"#utility.yul\":2947:3126   */\n      swap3\n      swap2\n      pop\n      pop\n      jump\t// out\n        /* \"#utility.yul\":3132:3245   */\n    tag_217:\n        /* \"#utility.yul\":3202:3206   */\n      0x00\n        /* \"#utility.yul\":3234:3238   */\n      0x20\n        /* \"#utility.yul\":3229:3232   */\n      dup3\n        /* \"#utility.yul\":3225:3239   */\n      add\n        /* \"#utility.yul\":3217:3239   */\n      swap1\n      pop\n        /* \"#utility.yul\":3132:3245   */\n      swap2\n      swap1\n      pop\n      jump\t// out\n        /* \"#utility.yul\":3281:4013   */\n    tag_218:\n        /* \"#utility.yul\":3400:3403   */\n      0x00\n        /* \"#utility.yul\":3429:3483   */\n      tag_288\n        /* \"#utility.yul\":3477:3482   */\n      dup3\n        /* \"#utility.yul\":3429:3483   */\n      tag_211\n      jump\t// in\n    tag_288:\n        /* \"#utility.yul\":3499:3585   */\n      tag_289\n        /* \"#utility.yul\":3578:3584   */\n      dup2\n        /* \"#utility.yul\":3573:3576   */\n      dup6\n        /* \"#utility.yul\":3499:3585   */\n      tag_212\n      jump\t// in\n    tag_289:\n        /* \"#utility.yul\":3492:3585   */\n      swap4\n      pop\n        /* \"#utility.yul\":3609:3665   */\n      tag_290\n        /* \"#utility.yul\":3659:3664   */\n      dup4\n        /* \"#utility.yul\":3609:3665   */\n      tag_213\n      jump\t// in\n    tag_290:\n        /* \"#utility.yul\":3688:3695   */\n      dup1\n        /* \"#utility.yul\":3719:3720   */\n      0x00\n        /* \"#utility.yul\":3704:3988   */\n    tag_291:\n        /* \"#utility.yul\":3729:3735   */\n      dup4\n        /* \"#utility.yul\":3726:3727   */\n      dup2\n        /* \"#utility.yul\":3723:3736   */\n      lt\n        /* \"#utility.yul\":3704:3988   */\n      iszero\n      tag_293\n      jumpi\n        /* \"#utility.yul\":3805:3811   */\n      dup2\n        /* \"#utility.yul\":3799:3812   */\n      mload\n        /* \"#utility.yul\":3832:3895   */\n      tag_294\n        /* \"#utility.yul\":3891:3894   */\n      dup9\n        /* \"#utility.yul\":3876:3889   */\n      dup3\n        /* \"#utility.yul\":3832:3895   */\n      tag_216\n      jump\t// in\n    tag_294:\n        /* \"#utility.yul\":3825:3895   */\n      swap8\n      pop\n        /* \"#utility.yul\":3918:3978   */\n      tag_295\n        /* \"#utility.yul\":3971:3977   */\n      dup4\n        /* \"#utility.yul\":3918:3978   */\n      tag_217\n      jump\t// in\n    tag_295:\n        /* \"#utility.yul\":3908:3978   */\n      swap3\n      pop\n        /* \"#utility.yul\":3764:3988   */\n      pop\n        /* \"#utility.yul\":3751:3752   */\n      0x01\n        /* \"#utility.yul\":3748:3749   */\n      dup2\n        /* \"#utility.yul\":3744:3753   */\n      add\n        /* \"#utility.yul\":3739:3753   */\n      swap1\n      pop\n        /* \"#utility.yul\":3704:3988   */\n      jump(tag_291)\n    tag_293:\n        /* \"#utility.yul\":3708:3722   */\n      pop\n        /* \"#utility.yul\":4004:4007   */\n      dup6\n        /* \"#utility.yul\":3997:4007   */\n      swap4\n      pop\n        /* \"#utility.yul\":3405:4013   */\n      pop\n      pop\n      pop\n        /* \"#utility.yul\":3281:4013   */\n      swap3\n      swap2\n      pop\n      pop\n      jump\t// out\n        /* \"#utility.yul\":4019:4653   */\n    tag_32:\n        /* \"#utility.yul\":4240:4244   */\n      0x00\n        /* \"#utility.yul\":4278:4280   */\n      0x40\n        /* \"#utility.yul\":4267:4276   */\n      dup3\n        /* \"#utility.yul\":4263:4281   */\n      add\n        /* \"#utility.yul\":4255:4281   */\n      swap1\n      pop\n        /* \"#utility.yul\":4327:4336   */\n      dup2\n        /* \"#utility.yul\":4321:4325   */\n      dup2\n        /* \"#utility.yul\":4317:4337   */\n      sub\n        /* \"#utility.yul\":4313:4314   */\n      0x00\n        /* \"#utility.yul\":4302:4311   */\n      dup4\n        /* \"#utility.yul\":4298:4315   */\n      add\n        /* \"#utility.yul\":4291:4338   */\n      mstore\n        /* \"#utility.yul\":4355:4463   */\n      tag_297\n        /* \"#utility.yul\":4458:4462   */\n      dup2\n        /* \"#utility.yul\":4449:4455   */\n      dup6\n        /* \"#utility.yul\":4355:4463   */\n      tag_210\n      jump\t// in\n    tag_297:\n        /* \"#utility.yul\":4347:4463   */\n      swap1\n      pop\n        /* \"#utility.yul\":4510:4519   */\n      dup2\n        /* \"#utility.yul\":4504:4508   */\n      dup2\n        /* \"#utility.yul\":4500:4520   */\n      sub\n        /* \"#utility.yul\":4495:4497   */\n      0x20\n        /* \"#utility.yul\":4484:4493   */\n      dup4\n        /* \"#utility.yul\":4480:4498   */\n      add\n        /* \"#utility.yul\":4473:4521   */\n      mstore\n        /* \"#utility.yul\":4538:4646   */\n      tag_298\n        /* \"#utility.yul\":4641:4645   */\n      dup2\n        /* \"#utility.yul\":4632:4638   */\n      dup5\n        /* \"#utility.yul\":4538:4646   */\n      tag_218\n      jump\t// in\n    tag_298:\n        /* \"#utility.yul\":4530:4646   */\n      swap1\n      pop\n        /* \"#utility.yul\":4019:4653   */\n      swap4\n      swap3\n      pop\n      pop\n      pop\n      jump\t// out\n        /* \"#utility.yul\":4740:4857   */\n    tag_220:\n        /* \"#utility.yul\":4849:4850   */\n      0x00\n        /* \"#utility.yul\":4846:4847   */\n      0x00\n        /* \"#utility.yul\":4839:4851   */\n      revert\n        /* \"#utility.yul\":4986:5108   */\n    tag_222:\n        /* \"#utility.yul\":5059:5083   */\n      tag_303\n        /* \"#utility.yul\":5077:5082   */\n      dup2\n        /* \"#utility.yul\":5059:5083   */\n      tag_206\n      jump\t// in\n    tag_303:\n        /* \"#utility.yul\":5052:5057   */\n      dup2\n        /* \"#utility.yul\":5049:5084   */\n      eq\n        /* \"#utility.yul\":5039:5102   */\n      tag_304\n      jumpi\n        /* \"#utility.yul\":5098:5099   */\n      0x00\n        /* \"#utility.yul\":5095:5096   */\n      0x00\n        /* \"#utility.yul\":5088:5100   */\n      revert\n        /* \"#utility.yul\":5039:5102   */\n    tag_304:\n        /* \"#utility.yul\":4986:5108   */\n      pop\n      jump\t// out\n        /* \"#utility.yul\":5114:5253   */\n    tag_223:\n        /* \"#utility.yul\":5160:5165   */\n      0x00\n        /* \"#utility.yul\":5198:5204   */\n      dup2\n        /* \"#utility.yul\":5185:5205   */\n      calldataload\n        /* \"#utility.yul\":5176:5205   */\n      swap1\n      pop\n        /* \"#utility.yul\":5214:5247   */\n      tag_306\n        /* \"#utility.yul\":5241:5246   */\n      dup2\n        /* \"#utility.yul\":5214:5247   */\n      tag_222\n      jump\t// in\n    tag_306:\n        /* \"#utility.yul\":5114:5253   */\n      swap3\n      swap2\n      pop\n      pop\n      jump\t// out\n        /* \"#utility.yul\":5259:5588   */\n    tag_41:\n        /* \"#utility.yul\":5318:5324   */\n      0x00\n        /* \"#utility.yul\":5367:5369   */\n      0x20\n        /* \"#utility.yul\":5355:5364   */\n      dup3\n        /* \"#utility.yul\":5346:5353   */\n      dup5\n        /* \"#utility.yul\":5342:5365   */\n      sub\n        /* \"#utility.yul\":5338:5370   */\n      slt\n        /* \"#utility.yul\":5335:5454   */\n      iszero\n      tag_308\n      jumpi\n        /* \"#utility.yul\":5373:5452   */\n      tag_309\n      tag_220\n      jump\t// in\n    tag_309:\n        /* \"#utility.yul\":5335:5454   */\n    tag_308:\n        /* \"#utility.yul\":5493:5494   */\n      0x00\n        /* \"#utility.yul\":5518:5571   */\n      tag_310\n        /* \"#utility.yul\":5563:5570   */\n      dup5\n        /* \"#utility.yul\":5554:5560   */\n      dup3\n        /* \"#utility.yul\":5543:5552   */\n      dup6\n        /* \"#utility.yul\":5539:5561   */\n      add\n        /* \"#utility.yul\":5518:5571   */\n      tag_223\n      jump\t// in\n    tag_310:\n        /* \"#utility.yul\":5508:5571   */\n      swap2\n      pop\n        /* \"#utility.yul\":5464:5581   */\n      pop\n        /* \"#utility.yul\":5259:5588   */\n      swap3\n      swap2\n      pop\n      pop\n      jump\t// out\n        /* \"#utility.yul\":5594:5712   */\n    tag_224:\n        /* \"#utility.yul\":5681:5705   */\n      tag_312\n        /* \"#utility.yul\":5699:5704   */\n      dup2\n        /* \"#utility.yul\":5681:5705   */\n      tag_206\n      jump\t// in\n    tag_312:\n        /* \"#utility.yul\":5676:5679   */\n      dup3\n        /* \"#utility.yul\":5669:5706   */\n      mstore\n        /* \"#utility.yul\":5594:5712   */\n      pop\n      pop\n      jump\t// out\n        /* \"#utility.yul\":5718:5836   */\n    tag_225:\n        /* \"#utility.yul\":5805:5829   */\n      tag_314\n        /* \"#utility.yul\":5823:5828   */\n      dup2\n        /* \"#utility.yul\":5805:5829   */\n      tag_214\n      jump\t// in\n    tag_314:\n        /* \"#utility.yul\":5800:5803   */\n      dup3\n        /* \"#utility.yul\":5793:5830   */\n      mstore\n        /* \"#utility.yul\":5718:5836   */\n      pop\n      pop\n      jump\t// out\n        /* \"#utility.yul\":5842:6174   */\n    tag_44:\n        /* \"#utility.yul\":5963:5967   */\n      0x00\n        /* \"#utility.yul\":6001:6003   */\n      0x40\n        /* \"#utility.yul\":5990:5999   */\n      dup3\n        /* \"#utility.yul\":5986:6004   */\n      add\n        /* \"#utility.yul\":5978:6004   */\n      swap1\n      pop\n        /* \"#utility.yul\":6014:6085   */\n      tag_316\n        /* \"#utility.yul\":6082:6083   */\n      0x00\n        /* \"#utility.yul\":6071:6080   */\n      dup4\n        /* \"#utility.yul\":6067:6084   */\n      add\n        /* \"#utility.yul\":6058:6064   */\n      dup6\n        /* \"#utility.yul\":6014:6085   */\n      tag_224\n      jump\t// in\n    tag_316:\n        /* \"#utility.yul\":6095:6167   */\n      tag_317\n        /* \"#utility.yul\":6163:6165   */\n      0x20\n        /* \"#utility.yul\":6152:6161   */\n      dup4\n        /* \"#utility.yul\":6148:6166   */\n      add\n        /* \"#utility.yul\":6139:6145   */\n      dup5\n        /* \"#utility.yul\":6095:6167   */\n      tag_225\n      jump\t// in\n    tag_317:\n        /* \"#utility.yul\":5842:6174   */\n      swap4\n      swap3\n      pop\n      pop\n      pop\n      jump\t// out\n        /* \"#utility.yul\":6180:6402   */\n    tag_49:\n        /* \"#utility.yul\":6273:6277   */\n      0x00\n        /* \"#utility.yul\":6311:6313   */\n      0x20\n        /* \"#utility.yul\":6300:6309   */\n      dup3\n        /* \"#utility.yul\":6296:6314   */\n      add\n        /* \"#utility.yul\":6288:6314   */\n      swap1\n      pop\n        /* \"#utility.yul\":6324:6395   */\n      tag_319\n        /* \"#utility.yul\":6392:6393   */\n      0x00\n        /* \"#utility.yul\":6381:6390   */\n      dup4\n        /* \"#utility.yul\":6377:6394   */\n      add\n        /* \"#utility.yul\":6368:6374   */\n      dup5\n        /* \"#utility.yul\":6324:6395   */\n      tag_225\n      jump\t// in\n    tag_319:\n        /* \"#utility.yul\":6180:6402   */\n      swap3\n      swap2\n      pop\n      pop\n      jump\t// out\n        /* \"#utility.yul\":6408:6630   */\n    tag_58:\n        /* \"#utility.yul\":6501:6505   */\n      0x00\n        /* \"#utility.yul\":6539:6541   */\n      0x20\n        /* \"#utility.yul\":6528:6537   */\n      dup3\n        /* \"#utility.yul\":6524:6542   */\n      add\n        /* \"#utility.yul\":6516:6542   */\n      swap1\n      pop\n        /* \"#utility.yul\":6552:6623   */\n      tag_321\n        /* \"#utility.yul\":6620:6621   */\n      0x00\n        /* \"#utility.yul\":6609:6618   */\n      dup4\n        /* \"#utility.yul\":6605:6622   */\n      add\n        /* \"#utility.yul\":6596:6602   */\n      dup5\n        /* \"#utility.yul\":6552:6623   */\n      tag_224\n      jump\t// in\n    tag_321:\n        /* \"#utility.yul\":6408:6630   */\n      swap3\n      swap2\n      pop\n      pop\n      jump\t// out\n        /* \"#utility.yul\":6636:6758   */\n    tag_226:\n        /* \"#utility.yul\":6709:6733   */\n      tag_323\n        /* \"#utility.yul\":6727:6732   */\n      dup2\n        /* \"#utility.yul\":6709:6733   */\n      tag_214\n      jump\t// in\n    tag_323:\n        /* \"#utility.yul\":6702:6707   */\n      dup2\n        /* \"#utility.yul\":6699:6734   */\n      eq\n        /* \"#utility.yul\":6689:6752   */\n      tag_324\n      jumpi\n        /* \"#utility.yul\":6748:6749   */\n      0x00\n        /* \"#utility.yul\":6745:6746   */\n      0x00\n        /* \"#utility.yul\":6738:6750   */\n      revert\n        /* \"#utility.yul\":6689:6752   */\n    tag_324:\n        /* \"#utility.yul\":6636:6758   */\n      pop\n      jump\t// out\n        /* \"#utility.yul\":6764:6903   */\n    tag_227:\n        /* \"#utility.yul\":6810:6815   */\n      0x00\n        /* \"#utility.yul\":6848:6854   */\n      dup2\n        /* \"#utility.yul\":6835:6855   */\n      calldataload\n        /* \"#utility.yul\":6826:6855   */\n      swap1\n      pop\n        /* \"#utility.yul\":6864:6897   */\n      tag_326\n        /* \"#utility.yul\":6891:6896   */\n      dup2\n        /* \"#utility.yul\":6864:6897   */\n      tag_226\n      jump\t// in\n    tag_326:\n        /* \"#utility.yul\":6764:6903   */\n      swap3\n      swap2\n      pop\n      pop\n      jump\t// out\n        /* \"#utility.yul\":6909:7238   */\n    tag_66:\n        /* \"#utility.yul\":6968:6974   */\n      0x00\n        /* \"#utility.yul\":7017:7019   */\n      0x20\n        /* \"#utility.yul\":7005:7014   */\n      dup3\n        /* \"#utility.yul\":6996:7003   */\n      dup5\n        /* \"#utility.yul\":6992:7015   */\n      sub\n        /* \"#utility.yul\":6988:7020   */\n      slt\n        /* \"#utility.yul\":6985:7104   */\n      iszero\n      tag_328\n      jumpi\n        /* \"#utility.yul\":7023:7102   */\n      tag_329\n      tag_220\n      jump\t// in\n    tag_329:\n        /* \"#utility.yul\":6985:7104   */\n    tag_328:\n        /* \"#utility.yul\":7143:7144   */\n      0x00\n        /* \"#utility.yul\":7168:7221   */\n      tag_330\n        /* \"#utility.yul\":7213:7220   */\n      dup5\n        /* \"#utility.yul\":7204:7210   */\n      dup3\n        /* \"#utility.yul\":7193:7202   */\n      dup6\n        /* \"#utility.yul\":7189:7211   */\n      add\n        /* \"#utility.yul\":7168:7221   */\n      tag_227\n      jump\t// in\n    tag_330:\n        /* \"#utility.yul\":7158:7221   */\n      swap2\n      pop\n        /* \"#utility.yul\":7114:7231   */\n      pop\n        /* \"#utility.yul\":6909:7238   */\n      swap3\n      swap2\n      pop\n      pop\n      jump\t// out\n        /* \"#utility.yul\":7244:7424   */\n    tag_103:\n        /* \"#utility.yul\":7292:7369   */\n      0x4e487b7100000000000000000000000000000000000000000000000000000000\n        /* \"#utility.yul\":7289:7290   */\n      0x00\n        /* \"#utility.yul\":7282:7370   */\n      mstore\n        /* \"#utility.yul\":7389:7393   */\n      0x41\n        /* \"#utility.yul\":7386:7387   */\n      0x04\n        /* \"#utility.yul\":7379:7394   */\n      mstore\n        /* \"#utility.yul\":7413:7417   */\n      0x24\n        /* \"#utility.yul\":7410:7411   */\n      0x00\n        /* \"#utility.yul\":7403:7418   */\n      revert\n        /* \"#utility.yul\":7430:7610   */\n    tag_113:\n        /* \"#utility.yul\":7478:7555   */\n      0x4e487b7100000000000000000000000000000000000000000000000000000000\n        /* \"#utility.yul\":7475:7476   */\n      0x00\n        /* \"#utility.yul\":7468:7556   */\n      mstore\n        /* \"#utility.yul\":7575:7579   */\n      0x32\n        /* \"#utility.yul\":7572:7573   */\n      0x04\n        /* \"#utility.yul\":7565:7580   */\n      mstore\n        /* \"#utility.yul\":7599:7603   */\n      0x24\n        /* \"#utility.yul\":7596:7597   */\n      0x00\n        /* \"#utility.yul\":7589:7604   */\n      revert\n        /* \"#utility.yul\":7616:7785   */\n    tag_228:\n        /* \"#utility.yul\":7700:7711   */\n      0x00\n        /* \"#utility.yul\":7734:7740   */\n      dup3\n        /* \"#utility.yul\":7729:7732   */\n      dup3\n        /* \"#utility.yul\":7722:7741   */\n      mstore\n        /* \"#utility.yul\":7774:7778   */\n      0x20\n        /* \"#utility.yul\":7769:7772   */\n      dup3\n        /* \"#utility.yul\":7765:7779   */\n      add\n        /* \"#utility.yul\":7750:7779   */\n      swap1\n      pop\n        /* \"#utility.yul\":7616:7785   */\n      swap3\n      swap2\n      pop\n      pop\n      jump\t// out\n        /* \"#utility.yul\":7791:7967   */\n    tag_229:\n        /* \"#utility.yul\":7931:7959   */\n      0x4c612073756261737461206e6f2065737461206163746976612e000000000000\n        /* \"#utility.yul\":7927:7928   */\n      0x00\n        /* \"#utility.yul\":7919:7925   */\n      dup3\n        /* \"#utility.yul\":7915:7929   */\n      add\n        /* \"#utility.yul\":7908:7960   */\n      mstore\n        /* \"#utility.yul\":7791:7967   */\n      pop\n      jump\t// out\n        /* \"#utility.yul\":7973:8339   */\n    tag_230:\n        /* \"#utility.yul\":8115:8118   */\n      0x00\n        /* \"#utility.yul\":8136:8203   */\n      tag_336\n        /* \"#utility.yul\":8200:8202   */\n      0x1a\n        /* \"#utility.yul\":8195:8198   */\n      dup4\n        /* \"#utility.yul\":8136:8203   */\n      tag_228\n      jump\t// in\n    tag_336:\n        /* \"#utility.yul\":8129:8203   */\n      swap2\n      pop\n        /* \"#utility.yul\":8212:8305   */\n      tag_337\n        /* \"#utility.yul\":8301:8304   */\n      dup3\n        /* \"#utility.yul\":8212:8305   */\n      tag_229\n      jump\t// in\n    tag_337:\n        /* \"#utility.yul\":8330:8332   */\n      0x20\n        /* \"#utility.yul\":8325:8328   */\n      dup3\n        /* \"#utility.yul\":8321:8333   */\n      add\n        /* \"#utility.yul\":8314:8333   */\n      swap1\n      pop\n        /* \"#utility.yul\":7973:8339   */\n      swap2\n      swap1\n      pop\n      jump\t// out\n        /* \"#utility.yul\":8345:8764   */\n    tag_123:\n        /* \"#utility.yul\":8511:8515   */\n      0x00\n        /* \"#utility.yul\":8549:8551   */\n      0x20\n        /* \"#utility.yul\":8538:8547   */\n      dup3\n        /* \"#utility.yul\":8534:8552   */\n      add\n        /* \"#utility.yul\":8526:8552   */\n      swap1\n      pop\n        /* \"#utility.yul\":8598:8607   */\n      dup2\n        /* \"#utility.yul\":8592:8596   */\n      dup2\n        /* \"#utility.yul\":8588:8608   */\n      sub\n        /* \"#utility.yul\":8584:8585   */\n      0x00\n        /* \"#utility.yul\":8573:8582   */\n      dup4\n        /* \"#utility.yul\":8569:8586   */\n      add\n        /* \"#utility.yul\":8562:8609   */\n      mstore\n        /* \"#utility.yul\":8626:8757   */\n      tag_339\n        /* \"#utility.yul\":8752:8756   */\n      dup2\n        /* \"#utility.yul\":8626:8757   */\n      tag_230\n      jump\t// in\n    tag_339:\n        /* \"#utility.yul\":8618:8757   */\n      swap1\n      pop\n        /* \"#utility.yul\":8345:8764   */\n      swap2\n      swap1\n      pop\n      jump\t// out\n        /* \"#utility.yul\":8770:8950   */\n    tag_231:\n        /* \"#utility.yul\":8818:8895   */\n      0x4e487b7100000000000000000000000000000000000000000000000000000000\n        /* \"#utility.yul\":8815:8816   */\n      0x00\n        /* \"#utility.yul\":8808:8896   */\n      mstore\n        /* \"#utility.yul\":8915:8919   */\n      0x11\n        /* \"#utility.yul\":8912:8913   */\n      0x04\n        /* \"#utility.yul\":8905:8920   */\n      mstore\n        /* \"#utility.yul\":8939:8943   */\n      0x24\n        /* \"#utility.yul\":8936:8937   */\n      0x00\n        /* \"#utility.yul\":8929:8944   */\n      revert\n        /* \"#utility.yul\":8956:9366   */\n    tag_126:\n        /* \"#utility.yul\":8996:9003   */\n      0x00\n        /* \"#utility.yul\":9019:9039   */\n      tag_342\n        /* \"#utility.yul\":9037:9038   */\n      dup3\n        /* \"#utility.yul\":9019:9039   */\n      tag_214\n      jump\t// in\n    tag_342:\n        /* \"#utility.yul\":9014:9039   */\n      swap2\n      pop\n        /* \"#utility.yul\":9053:9073   */\n      tag_343\n        /* \"#utility.yul\":9071:9072   */\n      dup4\n        /* \"#utility.yul\":9053:9073   */\n      tag_214\n      jump\t// in\n    tag_343:\n        /* \"#utility.yul\":9048:9073   */\n      swap3\n      pop\n        /* \"#utility.yul\":9108:9109   */\n      dup3\n        /* \"#utility.yul\":9105:9106   */\n      dup3\n        /* \"#utility.yul\":9101:9110   */\n      mul\n        /* \"#utility.yul\":9130:9160   */\n      tag_344\n        /* \"#utility.yul\":9148:9159   */\n      dup2\n        /* \"#utility.yul\":9130:9160   */\n      tag_214\n      jump\t// in\n    tag_344:\n        /* \"#utility.yul\":9119:9160   */\n      swap2\n      pop\n        /* \"#utility.yul\":9309:9310   */\n      dup3\n        /* \"#utility.yul\":9300:9307   */\n      dup3\n        /* \"#utility.yul\":9296:9311   */\n      div\n        /* \"#utility.yul\":9293:9294   */\n      dup5\n        /* \"#utility.yul\":9290:9312   */\n      eq\n        /* \"#utility.yul\":9270:9271   */\n      dup4\n        /* \"#utility.yul\":9263:9272   */\n      iszero\n        /* \"#utility.yul\":9243:9326   */\n      or\n        /* \"#utility.yul\":9220:9359   */\n      tag_345\n      jumpi\n        /* \"#utility.yul\":9339:9357   */\n      tag_346\n      tag_231\n      jump\t// in\n    tag_346:\n        /* \"#utility.yul\":9220:9359   */\n    tag_345:\n        /* \"#utility.yul\":9004:9366   */\n      pop\n        /* \"#utility.yul\":8956:9366   */\n      swap3\n      swap2\n      pop\n      pop\n      jump\t// out\n        /* \"#utility.yul\":9372:9552   */\n    tag_232:\n        /* \"#utility.yul\":9420:9497   */\n      0x4e487b7100000000000000000000000000000000000000000000000000000000\n        /* \"#utility.yul\":9417:9418   */\n      0x00\n        /* \"#utility.yul\":9410:9498   */\n      mstore\n        /* \"#utility.yul\":9517:9521   */\n      0x12\n        /* \"#utility.yul\":9514:9515   */\n      0x04\n        /* \"#utility.yul\":9507:9522   */\n      mstore\n        /* \"#utility.yul\":9541:9545   */\n      0x24\n        /* \"#utility.yul\":9538:9539   */\n      0x00\n        /* \"#utility.yul\":9531:9546   */\n      revert\n        /* \"#utility.yul\":9558:9743   */\n    tag_128:\n        /* \"#utility.yul\":9598:9599   */\n      0x00\n        /* \"#utility.yul\":9615:9635   */\n      tag_349\n        /* \"#utility.yul\":9633:9634   */\n      dup3\n        /* \"#utility.yul\":9615:9635   */\n      tag_214\n      jump\t// in\n    tag_349:\n        /* \"#utility.yul\":9610:9635   */\n      swap2\n      pop\n        /* \"#utility.yul\":9649:9669   */\n      tag_350\n        /* \"#utility.yul\":9667:9668   */\n      dup4\n        /* \"#utility.yul\":9649:9669   */\n      tag_214\n      jump\t// in\n    tag_350:\n        /* \"#utility.yul\":9644:9669   */\n      swap3\n      pop\n        /* \"#utility.yul\":9688:9689   */\n      dup3\n        /* \"#utility.yul\":9678:9713   */\n      tag_351\n      jumpi\n        /* \"#utility.yul\":9693:9711   */\n      tag_352\n      tag_232\n      jump\t// in\n    tag_352:\n        /* \"#utility.yul\":9678:9713   */\n    tag_351:\n        /* \"#utility.yul\":9735:9736   */\n      dup3\n        /* \"#utility.yul\":9732:9733   */\n      dup3\n        /* \"#utility.yul\":9728:9737   */\n      div\n        /* \"#utility.yul\":9723:9737   */\n      swap1\n      pop\n        /* \"#utility.yul\":9558:9743   */\n      swap3\n      swap2\n      pop\n      pop\n      jump\t// out\n        /* \"#utility.yul\":9749:9940   */\n    tag_130:\n        /* \"#utility.yul\":9789:9792   */\n      0x00\n        /* \"#utility.yul\":9808:9828   */\n      tag_354\n        /* \"#utility.yul\":9826:9827   */\n      dup3\n        /* \"#utility.yul\":9808:9828   */\n      tag_214\n      jump\t// in\n    tag_354:\n        /* \"#utility.yul\":9803:9828   */\n      swap2\n      pop\n        /* \"#utility.yul\":9842:9862   */\n      tag_355\n        /* \"#utility.yul\":9860:9861   */\n      dup4\n        /* \"#utility.yul\":9842:9862   */\n      tag_214\n      jump\t// in\n    tag_355:\n        /* \"#utility.yul\":9837:9862   */\n      swap3\n      pop\n        /* \"#utility.yul\":9885:9886   */\n      dup3\n        /* \"#utility.yul\":9882:9883   */\n      dup3\n        /* \"#utility.yul\":9878:9887   */\n      add\n        /* \"#utility.yul\":9871:9887   */\n      swap1\n      pop\n        /* \"#utility.yul\":9906:9909   */\n      dup1\n        /* \"#utility.yul\":9903:9904   */\n      dup3\n        /* \"#utility.yul\":9900:9910   */\n      gt\n        /* \"#utility.yul\":9897:9933   */\n      iszero\n      tag_356\n      jumpi\n        /* \"#utility.yul\":9913:9931   */\n      tag_357\n      tag_231\n      jump\t// in\n    tag_357:\n        /* \"#utility.yul\":9897:9933   */\n    tag_356:\n        /* \"#utility.yul\":9749:9940   */\n      swap3\n      swap2\n      pop\n      pop\n      jump\t// out\n        /* \"#utility.yul\":9946:10194   */\n    tag_233:\n        /* \"#utility.yul\":10086:10120   */\n      0x4c61206f666572746120646562652073657220616c206d656e6f7320756e2035\n        /* \"#utility.yul\":10082:10083   */\n      0x00\n        /* \"#utility.yul\":10074:10080   */\n      dup3\n        /* \"#utility.yul\":10070:10084   */\n      add\n        /* \"#utility.yul\":10063:10121   */\n      mstore\n        /* \"#utility.yul\":10155:10186   */\n      0x25206d61796f7220717565206c61206f66657274612061637475616c2e000000\n        /* \"#utility.yul\":10150:10152   */\n      0x20\n        /* \"#utility.yul\":10142:10148   */\n      dup3\n        /* \"#utility.yul\":10138:10153   */\n      add\n        /* \"#utility.yul\":10131:10187   */\n      mstore\n        /* \"#utility.yul\":9946:10194   */\n      pop\n      jump\t// out\n        /* \"#utility.yul\":10200:10566   */\n    tag_234:\n        /* \"#utility.yul\":10342:10345   */\n      0x00\n        /* \"#utility.yul\":10363:10430   */\n      tag_360\n        /* \"#utility.yul\":10427:10429   */\n      0x3d\n        /* \"#utility.yul\":10422:10425   */\n      dup4\n        /* \"#utility.yul\":10363:10430   */\n      tag_228\n      jump\t// in\n    tag_360:\n        /* \"#utility.yul\":10356:10430   */\n      swap2\n      pop\n        /* \"#utility.yul\":10439:10532   */\n      tag_361\n        /* \"#utility.yul\":10528:10531   */\n      dup3\n        /* \"#utility.yul\":10439:10532   */\n      tag_233\n      jump\t// in\n    tag_361:\n        /* \"#utility.yul\":10557:10559   */\n      0x40\n        /* \"#utility.yul\":10552:10555   */\n      dup3\n        /* \"#utility.yul\":10548:10560   */\n      add\n        /* \"#utility.yul\":10541:10560   */\n      swap1\n      pop\n        /* \"#utility.yul\":10200:10566   */\n      swap2\n      swap1\n      pop\n      jump\t// out\n        /* \"#utility.yul\":10572:10991   */\n    tag_134:\n        /* \"#utility.yul\":10738:10742   */\n      0x00\n        /* \"#utility.yul\":10776:10778   */\n      0x20\n        /* \"#utility.yul\":10765:10774   */\n      dup3\n        /* \"#utility.yul\":10761:10779   */\n      add\n        /* \"#utility.yul\":10753:10779   */\n      swap1\n      pop\n        /* \"#utility.yul\":10825:10834   */\n      dup2\n        /* \"#utility.yul\":10819:10823   */\n      dup2\n        /* \"#utility.yul\":10815:10835   */\n      sub\n        /* \"#utility.yul\":10811:10812   */\n      0x00\n        /* \"#utility.yul\":10800:10809   */\n      dup4\n        /* \"#utility.yul\":10796:10813   */\n      add\n        /* \"#utility.yul\":10789:10836   */\n      mstore\n        /* \"#utility.yul\":10853:10984   */\n      tag_363\n        /* \"#utility.yul\":10979:10983   */\n      dup2\n        /* \"#utility.yul\":10853:10984   */\n      tag_234\n      jump\t// in\n    tag_363:\n        /* \"#utility.yul\":10845:10984   */\n      swap1\n      pop\n        /* \"#utility.yul\":10572:10991   */\n      swap2\n      swap1\n      pop\n      jump\t// out\n        /* \"#utility.yul\":10997:11191   */\n    tag_141:\n        /* \"#utility.yul\":11037:11041   */\n      0x00\n        /* \"#utility.yul\":11057:11077   */\n      tag_365\n        /* \"#utility.yul\":11075:11076   */\n      dup3\n        /* \"#utility.yul\":11057:11077   */\n      tag_214\n      jump\t// in\n    tag_365:\n        /* \"#utility.yul\":11052:11077   */\n      swap2\n      pop\n        /* \"#utility.yul\":11091:11111   */\n      tag_366\n        /* \"#utility.yul\":11109:11110   */\n      dup4\n        /* \"#utility.yul\":11091:11111   */\n      tag_214\n      jump\t// in\n    tag_366:\n        /* \"#utility.yul\":11086:11111   */\n      swap3\n      pop\n        /* \"#utility.yul\":11135:11136   */\n      dup3\n        /* \"#utility.yul\":11132:11133   */\n      dup3\n        /* \"#utility.yul\":11128:11137   */\n      sub\n        /* \"#utility.yul\":11120:11137   */\n      swap1\n      pop\n        /* \"#utility.yul\":11159:11160   */\n      dup2\n        /* \"#utility.yul\":11153:11157   */\n      dup2\n        /* \"#utility.yul\":11150:11161   */\n      gt\n        /* \"#utility.yul\":11147:11184   */\n      iszero\n      tag_367\n      jumpi\n        /* \"#utility.yul\":11164:11182   */\n      tag_368\n      tag_231\n      jump\t// in\n    tag_368:\n        /* \"#utility.yul\":11147:11184   */\n    tag_367:\n        /* \"#utility.yul\":10997:11191   */\n      swap3\n      swap2\n      pop\n      pop\n      jump\t// out\n        /* \"#utility.yul\":11197:11375   */\n    tag_235:\n        /* \"#utility.yul\":11337:11367   */\n      0x4c612073756261737461206e6f2068612066696e616c697a61646f2e00000000\n        /* \"#utility.yul\":11333:11334   */\n      0x00\n        /* \"#utility.yul\":11325:11331   */\n      dup3\n        /* \"#utility.yul\":11321:11335   */\n      add\n        /* \"#utility.yul\":11314:11368   */\n      mstore\n        /* \"#utility.yul\":11197:11375   */\n      pop\n      jump\t// out\n        /* \"#utility.yul\":11381:11747   */\n    tag_236:\n        /* \"#utility.yul\":11523:11526   */\n      0x00\n        /* \"#utility.yul\":11544:11611   */\n      tag_371\n        /* \"#utility.yul\":11608:11610   */\n      0x1c\n        /* \"#utility.yul\":11603:11606   */\n      dup4\n        /* \"#utility.yul\":11544:11611   */\n      tag_228\n      jump\t// in\n    tag_371:\n        /* \"#utility.yul\":11537:11611   */\n      swap2\n      pop\n        /* \"#utility.yul\":11620:11713   */\n      tag_372\n        /* \"#utility.yul\":11709:11712   */\n      dup3\n        /* \"#utility.yul\":11620:11713   */\n      tag_235\n      jump\t// in\n    tag_372:\n        /* \"#utility.yul\":11738:11740   */\n      0x20\n        /* \"#utility.yul\":11733:11736   */\n      dup3\n        /* \"#utility.yul\":11729:11741   */\n      add\n        /* \"#utility.yul\":11722:11741   */\n      swap1\n      pop\n        /* \"#utility.yul\":11381:11747   */\n      swap2\n      swap1\n      pop\n      jump\t// out\n        /* \"#utility.yul\":11753:12172   */\n    tag_150:\n        /* \"#utility.yul\":11919:11923   */\n      0x00\n        /* \"#utility.yul\":11957:11959   */\n      0x20\n        /* \"#utility.yul\":11946:11955   */\n      dup3\n        /* \"#utility.yul\":11942:11960   */\n      add\n        /* \"#utility.yul\":11934:11960   */\n      swap1\n      pop\n        /* \"#utility.yul\":12006:12015   */\n      dup2\n        /* \"#utility.yul\":12000:12004   */\n      dup2\n        /* \"#utility.yul\":11996:12016   */\n      sub\n        /* \"#utility.yul\":11992:11993   */\n      0x00\n        /* \"#utility.yul\":11981:11990   */\n      dup4\n        /* \"#utility.yul\":11977:11994   */\n      add\n        /* \"#utility.yul\":11970:12017   */\n      mstore\n        /* \"#utility.yul\":12034:12165   */\n      tag_374\n        /* \"#utility.yul\":12160:12164   */\n      dup2\n        /* \"#utility.yul\":12034:12165   */\n      tag_236\n      jump\t// in\n    tag_374:\n        /* \"#utility.yul\":12026:12165   */\n      swap1\n      pop\n        /* \"#utility.yul\":11753:12172   */\n      swap2\n      swap1\n      pop\n      jump\t// out\n        /* \"#utility.yul\":12178:12418   */\n    tag_237:\n        /* \"#utility.yul\":12318:12352   */\n      0x456c2067616e61646f72206e6f207075656465207265636c616d617220756e20\n        /* \"#utility.yul\":12314:12315   */\n      0x00\n        /* \"#utility.yul\":12306:12312   */\n      dup3\n        /* \"#utility.yul\":12302:12316   */\n      add\n        /* \"#utility.yul\":12295:12353   */\n      mstore\n        /* \"#utility.yul\":12387:12410   */\n      0x6465706f7369746f206465207065726465646f722e0000000000000000000000\n        /* \"#utility.yul\":12382:12384   */\n      0x20\n        /* \"#utility.yul\":12374:12380   */\n      dup3\n        /* \"#utility.yul\":12370:12385   */\n      add\n        /* \"#utility.yul\":12363:12411   */\n      mstore\n        /* \"#utility.yul\":12178:12418   */\n      pop\n      jump\t// out\n        /* \"#utility.yul\":12424:12790   */\n    tag_238:\n        /* \"#utility.yul\":12566:12569   */\n      0x00\n        /* \"#utility.yul\":12587:12654   */\n      tag_377\n        /* \"#utility.yul\":12651:12653   */\n      0x35\n        /* \"#utility.yul\":12646:12649   */\n      dup4\n        /* \"#utility.yul\":12587:12654   */\n      tag_228\n      jump\t// in\n    tag_377:\n        /* \"#utility.yul\":12580:12654   */\n      swap2\n      pop\n        /* \"#utility.yul\":12663:12756   */\n      tag_378\n        /* \"#utility.yul\":12752:12755   */\n      dup3\n        /* \"#utility.yul\":12663:12756   */\n      tag_237\n      jump\t// in\n    tag_378:\n        /* \"#utility.yul\":12781:12783   */\n      0x40\n        /* \"#utility.yul\":12776:12779   */\n      dup3\n        /* \"#utility.yul\":12772:12784   */\n      add\n        /* \"#utility.yul\":12765:12784   */\n      swap1\n      pop\n        /* \"#utility.yul\":12424:12790   */\n      swap2\n      swap1\n      pop\n      jump\t// out\n        /* \"#utility.yul\":12796:13215   */\n    tag_154:\n        /* \"#utility.yul\":12962:12966   */\n      0x00\n        /* \"#utility.yul\":13000:13002   */\n      0x20\n        /* \"#utility.yul\":12989:12998   */\n      dup3\n        /* \"#utility.yul\":12985:13003   */\n      add\n        /* \"#utility.yul\":12977:13003   */\n      swap1\n      pop\n        /* \"#utility.yul\":13049:13058   */\n      dup2\n        /* \"#utility.yul\":13043:13047   */\n      dup2\n        /* \"#utility.yul\":13039:13059   */\n      sub\n        /* \"#utility.yul\":13035:13036   */\n      0x00\n        /* \"#utility.yul\":13024:13033   */\n      dup4\n        /* \"#utility.yul\":13020:13037   */\n      add\n        /* \"#utility.yul\":13013:13060   */\n      mstore\n        /* \"#utility.yul\":13077:13208   */\n      tag_380\n        /* \"#utility.yul\":13203:13207   */\n      dup2\n        /* \"#utility.yul\":13077:13208   */\n      tag_238\n      jump\t// in\n    tag_380:\n        /* \"#utility.yul\":13069:13208   */\n      swap1\n      pop\n        /* \"#utility.yul\":12796:13215   */\n      swap2\n      swap1\n      pop\n      jump\t// out\n        /* \"#utility.yul\":13221:13442   */\n    tag_239:\n        /* \"#utility.yul\":13361:13395   */\n      0x4e6f207469656e6573206465706f7369746f732070617261207265636c616d61\n        /* \"#utility.yul\":13357:13358   */\n      0x00\n        /* \"#utility.yul\":13349:13355   */\n      dup3\n        /* \"#utility.yul\":13345:13359   */\n      add\n        /* \"#utility.yul\":13338:13396   */\n      mstore\n        /* \"#utility.yul\":13430:13434   */\n      0x722e000000000000000000000000000000000000000000000000000000000000\n        /* \"#utility.yul\":13425:13427   */\n      0x20\n        /* \"#utility.yul\":13417:13423   */\n      dup3\n        /* \"#utility.yul\":13413:13428   */\n      add\n        /* \"#utility.yul\":13406:13435   */\n      mstore\n        /* \"#utility.yul\":13221:13442   */\n      pop\n      jump\t// out\n        /* \"#utility.yul\":13448:13814   */\n    tag_240:\n        /* \"#utility.yul\":13590:13593   */\n      0x00\n        /* \"#utility.yul\":13611:13678   */\n      tag_383\n        /* \"#utility.yul\":13675:13677   */\n      0x22\n        /* \"#utility.yul\":13670:13673   */\n      dup4\n        /* \"#utility.yul\":13611:13678   */\n      tag_228\n      jump\t// in\n    tag_383:\n        /* \"#utility.yul\":13604:13678   */\n      swap2\n      pop\n        /* \"#utility.yul\":13687:13780   */\n      tag_384\n        /* \"#utility.yul\":13776:13779   */\n      dup3\n        /* \"#utility.yul\":13687:13780   */\n      tag_239\n      jump\t// in\n    tag_384:\n        /* \"#utility.yul\":13805:13807   */\n      0x40\n        /* \"#utility.yul\":13800:13803   */\n      dup3\n        /* \"#utility.yul\":13796:13808   */\n      add\n        /* \"#utility.yul\":13789:13808   */\n      swap1\n      pop\n        /* \"#utility.yul\":13448:13814   */\n      swap2\n      swap1\n      pop\n      jump\t// out\n        /* \"#utility.yul\":13820:14239   */\n    tag_157:\n        /* \"#utility.yul\":13986:13990   */\n      0x00\n        /* \"#utility.yul\":14024:14026   */\n      0x20\n        /* \"#utility.yul\":14013:14022   */\n      dup3\n        /* \"#utility.yul\":14009:14027   */\n      add\n        /* \"#utility.yul\":14001:14027   */\n      swap1\n      pop\n        /* \"#utility.yul\":14073:14082   */\n      dup2\n        /* \"#utility.yul\":14067:14071   */\n      dup2\n        /* \"#utility.yul\":14063:14083   */\n      sub\n        /* \"#utility.yul\":14059:14060   */\n      0x00\n        /* \"#utility.yul\":14048:14057   */\n      dup4\n        /* \"#utility.yul\":14044:14061   */\n      add\n        /* \"#utility.yul\":14037:14084   */\n      mstore\n        /* \"#utility.yul\":14101:14232   */\n      tag_386\n        /* \"#utility.yul\":14227:14231   */\n      dup2\n        /* \"#utility.yul\":14101:14232   */\n      tag_240\n      jump\t// in\n    tag_386:\n        /* \"#utility.yul\":14093:14232   */\n      swap1\n      pop\n        /* \"#utility.yul\":13820:14239   */\n      swap2\n      swap1\n      pop\n      jump\t// out\n        /* \"#utility.yul\":14245:14392   */\n    tag_241:\n        /* \"#utility.yul\":14346:14357   */\n      0x00\n        /* \"#utility.yul\":14383:14386   */\n      dup2\n        /* \"#utility.yul\":14368:14386   */\n      swap1\n      pop\n        /* \"#utility.yul\":14245:14392   */\n      swap3\n      swap2\n      pop\n      pop\n      jump\t// out\n        /* \"#utility.yul\":14398:14512   */\n    tag_242:\n      pop\n      jump\t// out\n        /* \"#utility.yul\":14518:14916   */\n    tag_243:\n        /* \"#utility.yul\":14677:14680   */\n      0x00\n        /* \"#utility.yul\":14698:14781   */\n      tag_390\n        /* \"#utility.yul\":14779:14780   */\n      0x00\n        /* \"#utility.yul\":14774:14777   */\n      dup4\n        /* \"#utility.yul\":14698:14781   */\n      tag_241\n      jump\t// in\n    tag_390:\n        /* \"#utility.yul\":14691:14781   */\n      swap2\n      pop\n        /* \"#utility.yul\":14790:14883   */\n      tag_391\n        /* \"#utility.yul\":14879:14882   */\n      dup3\n        /* \"#utility.yul\":14790:14883   */\n      tag_242\n      jump\t// in\n    tag_391:\n        /* \"#utility.yul\":14908:14909   */\n      0x00\n        /* \"#utility.yul\":14903:14906   */\n      dup3\n        /* \"#utility.yul\":14899:14910   */\n      add\n        /* \"#utility.yul\":14892:14910   */\n      swap1\n      pop\n        /* \"#utility.yul\":14518:14916   */\n      swap2\n      swap1\n      pop\n      jump\t// out\n        /* \"#utility.yul\":14922:15301   */\n    tag_162:\n        /* \"#utility.yul\":15106:15109   */\n      0x00\n        /* \"#utility.yul\":15128:15275   */\n      tag_393\n        /* \"#utility.yul\":15271:15274   */\n      dup3\n        /* \"#utility.yul\":15128:15275   */\n      tag_243\n      jump\t// in\n    tag_393:\n        /* \"#utility.yul\":15121:15275   */\n      swap2\n      pop\n        /* \"#utility.yul\":15292:15295   */\n      dup2\n        /* \"#utility.yul\":15285:15295   */\n      swap1\n      pop\n        /* \"#utility.yul\":14922:15301   */\n      swap2\n      swap1\n      pop\n      jump\t// out\n        /* \"#utility.yul\":15307:15531   */\n    tag_244:\n        /* \"#utility.yul\":15447:15481   */\n      0x46616c6c6f206c61207472616e73666572656e6369612064656c207265656d62\n        /* \"#utility.yul\":15443:15444   */\n      0x00\n        /* \"#utility.yul\":15435:15441   */\n      dup3\n        /* \"#utility.yul\":15431:15445   */\n      add\n        /* \"#utility.yul\":15424:15482   */\n      mstore\n        /* \"#utility.yul\":15516:15523   */\n      0x6f6c736f2e000000000000000000000000000000000000000000000000000000\n        /* \"#utility.yul\":15511:15513   */\n      0x20\n        /* \"#utility.yul\":15503:15509   */\n      dup3\n        /* \"#utility.yul\":15499:15514   */\n      add\n        /* \"#utility.yul\":15492:15524   */\n      mstore\n        /* \"#utility.yul\":15307:15531   */\n      pop\n      jump\t// out\n        /* \"#utility.yul\":15537:15903   */\n    tag_245:\n        /* \"#utility.yul\":15679:15682   */\n      0x00\n        /* \"#utility.yul\":15700:15767   */\n      tag_396\n        /* \"#utility.yul\":15764:15766   */\n      0x25\n        /* \"#utility.yul\":15759:15762   */\n      dup4\n        /* \"#utility.yul\":15700:15767   */\n      tag_228\n      jump\t// in\n    tag_396:\n        /* \"#utility.yul\":15693:15767   */\n      swap2\n      pop\n        /* \"#utility.yul\":15776:15869   */\n      tag_397\n        /* \"#utility.yul\":15865:15868   */\n      dup3\n        /* \"#utility.yul\":15776:15869   */\n      tag_244\n      jump\t// in\n    tag_397:\n        /* \"#utility.yul\":15894:15896   */\n      0x40\n        /* \"#utility.yul\":15889:15892   */\n      dup3\n        /* \"#utility.yul\":15885:15897   */\n      add\n        /* \"#utility.yul\":15878:15897   */\n      swap1\n      pop\n        /* \"#utility.yul\":15537:15903   */\n      swap2\n      swap1\n      pop\n      jump\t// out\n        /* \"#utility.yul\":15909:16328   */\n    tag_168:\n        /* \"#utility.yul\":16075:16079   */\n      0x00\n        /* \"#utility.yul\":16113:16115   */\n      0x20\n        /* \"#utility.yul\":16102:16111   */\n      dup3\n        /* \"#utility.yul\":16098:16116   */\n      add\n        /* \"#utility.yul\":16090:16116   */\n      swap1\n      pop\n        /* \"#utility.yul\":16162:16171   */\n      dup2\n        /* \"#utility.yul\":16156:16160   */\n      dup2\n        /* \"#utility.yul\":16152:16172   */\n      sub\n        /* \"#utility.yul\":16148:16149   */\n      0x00\n        /* \"#utility.yul\":16137:16146   */\n      dup4\n        /* \"#utility.yul\":16133:16150   */\n      add\n        /* \"#utility.yul\":16126:16173   */\n      mstore\n        /* \"#utility.yul\":16190:16321   */\n      tag_399\n        /* \"#utility.yul\":16316:16320   */\n      dup2\n        /* \"#utility.yul\":16190:16321   */\n      tag_245\n      jump\t// in\n    tag_399:\n        /* \"#utility.yul\":16182:16321   */\n      swap1\n      pop\n        /* \"#utility.yul\":15909:16328   */\n      swap2\n      swap1\n      pop\n      jump\t// out\n        /* \"#utility.yul\":16334:16557   */\n    tag_246:\n        /* \"#utility.yul\":16474:16508   */\n      0x4e6f20686179206d6f6e746f206578636564656e746520706172612072657469\n        /* \"#utility.yul\":16470:16471   */\n      0x00\n        /* \"#utility.yul\":16462:16468   */\n      dup3\n        /* \"#utility.yul\":16458:16472   */\n      add\n        /* \"#utility.yul\":16451:16509   */\n      mstore\n        /* \"#utility.yul\":16543:16549   */\n      0x7261722e00000000000000000000000000000000000000000000000000000000\n        /* \"#utility.yul\":16538:16540   */\n      0x20\n        /* \"#utility.yul\":16530:16536   */\n      dup3\n        /* \"#utility.yul\":16526:16541   */\n      add\n        /* \"#utility.yul\":16519:16550   */\n      mstore\n        /* \"#utility.yul\":16334:16557   */\n      pop\n      jump\t// out\n        /* \"#utility.yul\":16563:16929   */\n    tag_247:\n        /* \"#utility.yul\":16705:16708   */\n      0x00\n        /* \"#utility.yul\":16726:16793   */\n      tag_402\n        /* \"#utility.yul\":16790:16792   */\n      0x24\n        /* \"#utility.yul\":16785:16788   */\n      dup4\n        /* \"#utility.yul\":16726:16793   */\n      tag_228\n      jump\t// in\n    tag_402:\n        /* \"#utility.yul\":16719:16793   */\n      swap2\n      pop\n        /* \"#utility.yul\":16802:16895   */\n      tag_403\n        /* \"#utility.yul\":16891:16894   */\n      dup3\n        /* \"#utility.yul\":16802:16895   */\n      tag_246\n      jump\t// in\n    tag_403:\n        /* \"#utility.yul\":16920:16922   */\n      0x40\n        /* \"#utility.yul\":16915:16918   */\n      dup3\n        /* \"#utility.yul\":16911:16923   */\n      add\n        /* \"#utility.yul\":16904:16923   */\n      swap1\n      pop\n        /* \"#utility.yul\":16563:16929   */\n      swap2\n      swap1\n      pop\n      jump\t// out\n        /* \"#utility.yul\":16935:17354   */\n    tag_184:\n        /* \"#utility.yul\":17101:17105   */\n      0x00\n        /* \"#utility.yul\":17139:17141   */\n      0x20\n        /* \"#utility.yul\":17128:17137   */\n      dup3\n        /* \"#utility.yul\":17124:17142   */\n      add\n        /* \"#utility.yul\":17116:17142   */\n      swap1\n      pop\n        /* \"#utility.yul\":17188:17197   */\n      dup2\n        /* \"#utility.yul\":17182:17186   */\n      dup2\n        /* \"#utility.yul\":17178:17198   */\n      sub\n        /* \"#utility.yul\":17174:17175   */\n      0x00\n        /* \"#utility.yul\":17163:17172   */\n      dup4\n        /* \"#utility.yul\":17159:17176   */\n      add\n        /* \"#utility.yul\":17152:17199   */\n      mstore\n        /* \"#utility.yul\":17216:17347   */\n      tag_405\n        /* \"#utility.yul\":17342:17346   */\n      dup2\n        /* \"#utility.yul\":17216:17347   */\n      tag_247\n      jump\t// in\n    tag_405:\n        /* \"#utility.yul\":17208:17347   */\n      swap1\n      pop\n        /* \"#utility.yul\":16935:17354   */\n      swap2\n      swap1\n      pop\n      jump\t// out\n        /* \"#utility.yul\":17360:17534   */\n    tag_248:\n        /* \"#utility.yul\":17500:17526   */\n      0x46616c6c6f20656c2072657469726f207061726369616c2e0000000000000000\n        /* \"#utility.yul\":17496:17497   */\n      0x00\n        /* \"#utility.yul\":17488:17494   */\n      dup3\n        /* \"#utility.yul\":17484:17498   */\n      add\n        /* \"#utility.yul\":17477:17527   */\n      mstore\n        /* \"#utility.yul\":17360:17534   */\n      pop\n      jump\t// out\n        /* \"#utility.yul\":17540:17906   */\n    tag_249:\n        /* \"#utility.yul\":17682:17685   */\n      0x00\n        /* \"#utility.yul\":17703:17770   */\n      tag_408\n        /* \"#utility.yul\":17767:17769   */\n      0x18\n        /* \"#utility.yul\":17762:17765   */\n      dup4\n        /* \"#utility.yul\":17703:17770   */\n      tag_228\n      jump\t// in\n    tag_408:\n        /* \"#utility.yul\":17696:17770   */\n      swap2\n      pop\n        /* \"#utility.yul\":17779:17872   */\n      tag_409\n        /* \"#utility.yul\":17868:17871   */\n      dup3\n        /* \"#utility.yul\":17779:17872   */\n      tag_248\n      jump\t// in\n    tag_409:\n        /* \"#utility.yul\":17897:17899   */\n      0x20\n        /* \"#utility.yul\":17892:17895   */\n      dup3\n        /* \"#utility.yul\":17888:17900   */\n      add\n        /* \"#utility.yul\":17881:17900   */\n      swap1\n      pop\n        /* \"#utility.yul\":17540:17906   */\n      swap2\n      swap1\n      pop\n      jump\t// out\n        /* \"#utility.yul\":17912:18331   */\n    tag_192:\n        /* \"#utility.yul\":18078:18082   */\n      0x00\n        /* \"#utility.yul\":18116:18118   */\n      0x20\n        /* \"#utility.yul\":18105:18114   */\n      dup3\n        /* \"#utility.yul\":18101:18119   */\n      add\n        /* \"#utility.yul\":18093:18119   */\n      swap1\n      pop\n        /* \"#utility.yul\":18165:18174   */\n      dup2\n        /* \"#utility.yul\":18159:18163   */\n      dup2\n        /* \"#utility.yul\":18155:18175   */\n      sub\n        /* \"#utility.yul\":18151:18152   */\n      0x00\n        /* \"#utility.yul\":18140:18149   */\n      dup4\n        /* \"#utility.yul\":18136:18153   */\n      add\n        /* \"#utility.yul\":18129:18176   */\n      mstore\n        /* \"#utility.yul\":18193:18324   */\n      tag_411\n        /* \"#utility.yul\":18319:18323   */\n      dup2\n        /* \"#utility.yul\":18193:18324   */\n      tag_249\n      jump\t// in\n    tag_411:\n        /* \"#utility.yul\":18185:18324   */\n      swap1\n      pop\n        /* \"#utility.yul\":17912:18331   */\n      swap2\n      swap1\n      pop\n      jump\t// out\n        /* \"#utility.yul\":18337:18575   */\n    tag_250:\n        /* \"#utility.yul\":18477:18511   */\n      0x4c612073756261737461206e6f2070756564652066696e616c697a6172736520\n        /* \"#utility.yul\":18473:18474   */\n      0x00\n        /* \"#utility.yul\":18465:18471   */\n      dup3\n        /* \"#utility.yul\":18461:18475   */\n      add\n        /* \"#utility.yul\":18454:18512   */\n      mstore\n        /* \"#utility.yul\":18546:18567   */\n      0x6f2079612068612066696e616c697a61646f2e00000000000000000000000000\n        /* \"#utility.yul\":18541:18543   */\n      0x20\n        /* \"#utility.yul\":18533:18539   */\n      dup3\n        /* \"#utility.yul\":18529:18544   */\n      add\n        /* \"#utility.yul\":18522:18568   */\n      mstore\n        /* \"#utility.yul\":18337:18575   */\n      pop\n      jump\t// out\n        /* \"#utility.yul\":18581:18947   */\n    tag_251:\n        /* \"#utility.yul\":18723:18726   */\n      0x00\n        /* \"#utility.yul\":18744:18811   */\n      tag_414\n        /* \"#utility.yul\":18808:18810   */\n      0x33\n        /* \"#utility.yul\":18803:18806   */\n      dup4\n        /* \"#utility.yul\":18744:18811   */\n      tag_228\n      jump\t// in\n    tag_414:\n        /* \"#utility.yul\":18737:18811   */\n      swap2\n      pop\n        /* \"#utility.yul\":18820:18913   */\n      tag_415\n        /* \"#utility.yul\":18909:18912   */\n      dup3\n        /* \"#utility.yul\":18820:18913   */\n      tag_250\n      jump\t// in\n    tag_415:\n        /* \"#utility.yul\":18938:18940   */\n      0x40\n        /* \"#utility.yul\":18933:18936   */\n      dup3\n        /* \"#utility.yul\":18929:18941   */\n      add\n        /* \"#utility.yul\":18922:18941   */\n      swap1\n      pop\n        /* \"#utility.yul\":18581:18947   */\n      swap2\n      swap1\n      pop\n      jump\t// out\n        /* \"#utility.yul\":18953:19372   */\n    tag_198:\n        /* \"#utility.yul\":19119:19123   */\n      0x00\n        /* \"#utility.yul\":19157:19159   */\n      0x20\n        /* \"#utility.yul\":19146:19155   */\n      dup3\n        /* \"#utility.yul\":19142:19160   */\n      add\n        /* \"#utility.yul\":19134:19160   */\n      swap1\n      pop\n        /* \"#utility.yul\":19206:19215   */\n      dup2\n        /* \"#utility.yul\":19200:19204   */\n      dup2\n        /* \"#utility.yul\":19196:19216   */\n      sub\n        /* \"#utility.yul\":19192:19193   */\n      0x00\n        /* \"#utility.yul\":19181:19190   */\n      dup4\n        /* \"#utility.yul\":19177:19194   */\n      add\n        /* \"#utility.yul\":19170:19217   */\n      mstore\n        /* \"#utility.yul\":19234:19365   */\n      tag_417\n        /* \"#utility.yul\":19360:19364   */\n      dup2\n        /* \"#utility.yul\":19234:19365   */\n      tag_251\n      jump\t// in\n    tag_417:\n        /* \"#utility.yul\":19226:19365   */\n      swap1\n      pop\n        /* \"#utility.yul\":18953:19372   */\n      swap2\n      swap1\n      pop\n      jump\t// out\n\n    auxdata: 0xa2646970667358221220a1cab81faaf41d3fabc47e072aa135c94ec20886cbb3a2a5265767b89db661a964736f6c634300081e0033\n}\n",
				"bytecode": {
					"linkReferences": {},
					"object": "608060405234801561000f575f5ffd5b50604051611d2c380380611d2c83398181016040528101906100319190610133565b335f5f6101000a81548173ffffffffffffffffffffffffffffffffffffffff021916908373ffffffffffffffffffffffffffffffffffffffff16021790555042600181905550603c81610084919061018b565b4261008f91906101cc565b6002819055505f6003819055505f60045f6101000a81548173ffffffffffffffffffffffffffffffffffffffff021916908373ffffffffffffffffffffffffffffffffffffffff1602179055505f600460146101000a81548160ff021916908315150217905550506101ff565b5f5ffd5b5f819050919050565b61011281610100565b811461011c575f5ffd5b50565b5f8151905061012d81610109565b92915050565b5f60208284031215610148576101476100fc565b5b5f6101558482850161011f565b91505092915050565b7f4e487b71000000000000000000000000000000000000000000000000000000005f52601160045260245ffd5b5f61019582610100565b91506101a083610100565b92508282026101ae81610100565b915082820484148315176101c5576101c461015e565b5b5092915050565b5f6101d682610100565b91506101e183610100565b92508282019050808211156101f9576101f861015e565b5b92915050565b611b208061020c5f395ff3fe608060405260043610610108575f3560e01c8063a013781b11610094578063c30aca9a11610063578063c30aca9a14610321578063d57bde7914610337578063eb54f9ec14610361578063fc7e286d1461038b578063fe67a54b146103c757610108565b8063a013781b14610266578063b033e086146102a2578063b7e03264146102cc578063bc996819146102f757610108565b806346e053a0116100db57806346e053a0146101815780634b449cba146101be5780635681104a146101e85780638da5cb5b1461021257806391f901571461023c57610108565b806312fa6feb1461010c57806314d2687c146101365780631998aeef14610161578063362e25651461016b575b5f5ffd5b348015610117575f5ffd5b506101206103dd565b60405161012d9190611168565b60405180910390f35b348015610141575f5ffd5b5061014a6103f0565b604051610158929190611328565b60405180910390f35b6101696105a5565b005b348015610176575f5ffd5b5061017f6109aa565b005b34801561018c575f5ffd5b506101a760048036038101906101a2919061138b565b610c81565b6040516101b59291906113d4565b60405180910390f35b3480156101c9575f5ffd5b506101d2610cc0565b6040516101df91906113fb565b60405180910390f35b3480156101f3575f5ffd5b506101fc610cc6565b60405161020991906113fb565b60405180910390f35b34801561021d575f5ffd5b50610226610ccc565b6040516102339190611414565b60405180910390f35b348015610247575f5ffd5b50610250610cf0565b60405161025d9190611414565b60405180910390f35b348015610271575f5ffd5b5061028c60048036038101906102879190611457565b610d15565b6040516102999190611414565b60405180910390f35b3480156102ad575f5ffd5b506102b6610d50565b6040516102c391906113fb565b60405180910390f35b3480156102d7575f5ffd5b506102e0610d55565b6040516102ee9291906113d4565b60405180910390f35b348015610302575f5ffd5b5061030b610de0565b60405161031891906113fb565b60405180910390f35b34801561032c575f5ffd5b50610335610de5565b005b348015610342575f5ffd5b5061034b611056565b60405161035891906113fb565b60405180910390f35b34801561036c575f5ffd5b5061037561105c565b60405161038291906113fb565b60405180910390f35b348015610396575f5ffd5b506103b160048036038101906103ac919061138b565b611062565b6040516103be91906113fb565b60405180910390f35b3480156103d2575f5ffd5b506103db611077565b005b600460149054906101000a900460ff1681565b60608060078054905067ffffffffffffffff81111561041257610411611482565b5b6040519080825280602002602001820160405280156104405781602001602082028036833780820191505090505b50915060078054905067ffffffffffffffff81111561046257610461611482565b5b6040519080825280602002602001820160405280156104905781602001602082028036833780820191505090505b5090505f5f90505b6007805490508110156105a0575f600782815481106104ba576104b96114af565b5b905f5260205f20015f9054906101000a900473ffffffffffffffffffffffffffffffffffffffff169050808483815181106104f8576104f76114af565b5b602002602001019073ffffffffffffffffffffffffffffffffffffffff16908173ffffffffffffffffffffffffffffffffffffffff168152505060065f8273ffffffffffffffffffffffffffffffffffffffff1673ffffffffffffffffffffffffffffffffffffffff1681526020019081526020015f2060010154838381518110610586576105856114af565b5b602002602001018181525050508080600101915050610498565b509091565b600254421080156105c35750600460149054906101000a900460ff16155b610602576040517f08c379a00000000000000000000000000000000000000000000000000000000081526004016105f990611536565b60405180910390fd5b5f606460056003546106149190611581565b61061e91906115ef565b60035461062b919061161f565b90505f6003540361063b57600190505b8034101561067e576040517f08c379a0000000000000000000000000000000000000000000000000000000008152600401610675906116c2565b60405180910390fd5b60085f3373ffffffffffffffffffffffffffffffffffffffff1673ffffffffffffffffffffffffffffffffffffffff1681526020019081526020015f205f9054906101000a900460ff1661078257600160085f3373ffffffffffffffffffffffffffffffffffffffff1673ffffffffffffffffffffffffffffffffffffffff1681526020019081526020015f205f6101000a81548160ff021916908315150217905550600733908060018154018082558091505060019003905f5260205f20015f9091909190916101000a81548173ffffffffffffffffffffffffffffffffffffffff021916908373ffffffffffffffffffffffffffffffffffffffff1602179055505b3460055f3373ffffffffffffffffffffffffffffffffffffffff1673ffffffffffffffffffffffffffffffffffffffff1681526020019081526020015f205f8282546107ce919061161f565b9250508190555060035434111561082757346003819055503360045f6101000a81548173ffffffffffffffffffffffffffffffffffffffff021916908373ffffffffffffffffffffffffffffffffffffffff1602179055505b60405180604001604052803373ffffffffffffffffffffffffffffffffffffffff1681526020013481525060065f3373ffffffffffffffffffffffffffffffffffffffff1673ffffffffffffffffffffffffffffffffffffffff1681526020019081526020015f205f820151815f015f6101000a81548173ffffffffffffffffffffffffffffffffffffffff021916908373ffffffffffffffffffffffffffffffffffffffff160217905550602082015181600101559050503373ffffffffffffffffffffffffffffffffffffffff167fdd0b6c6a77960e2066c96171b4d7ac9e8b4c184011f38544afa36a5bb63ec59f3460405161092691906113fb565b60405180910390a26102584260025461093f91906116e0565b1115801561094e575060025442105b156109a75761025860025f828254610966919061161f565b925050819055507fc2b459809119087ca9d2bc10dea53a51b7d848b1a11075db037bdca58292c3e860025460405161099e91906113fb565b60405180910390a15b50565b600254421015806109c75750600460149054906101000a900460ff165b610a06576040517f08c379a00000000000000000000000000000000000000000000000000000000081526004016109fd9061175d565b60405180910390fd5b60045f9054906101000a900473ffffffffffffffffffffffffffffffffffffffff1673ffffffffffffffffffffffffffffffffffffffff163373ffffffffffffffffffffffffffffffffffffffff1603610a95576040517f08c379a0000000000000000000000000000000000000000000000000000000008152600401610a8c906117eb565b60405180910390fd5b5f60055f3373ffffffffffffffffffffffffffffffffffffffff1673ffffffffffffffffffffffffffffffffffffffff1681526020019081526020015f205490505f8111610b18576040517f08c379a0000000000000000000000000000000000000000000000000000000008152600401610b0f90611879565b60405180910390fd5b5f6064600283610b289190611581565b610b3291906115ef565b90505f8183610b4191906116e0565b90505f60055f3373ffffffffffffffffffffffffffffffffffffffff1673ffffffffffffffffffffffffffffffffffffffff1681526020019081526020015f20819055505f3373ffffffffffffffffffffffffffffffffffffffff1682604051610baa906118c4565b5f6040518083038185875af1925050503d805f8114610be4576040519150601f19603f3d011682016040523d82523d5f602084013e610be9565b606091505b5050905080610c2d576040517f08c379a0000000000000000000000000000000000000000000000000000000008152600401610c2490611948565b60405180910390fd5b3373ffffffffffffffffffffffffffffffffffffffff167f698270f63d8b673ed55a5ca00d14001bd808b390dbe11d5b1b16624863f71f7783604051610c7391906113fb565b60405180910390a250505050565b6006602052805f5260405f205f91509050805f015f9054906101000a900473ffffffffffffffffffffffffffffffffffffffff16908060010154905082565b60025481565b61025881565b5f5f9054906101000a900473ffffffffffffffffffffffffffffffffffffffff1681565b60045f9054906101000a900473ffffffffffffffffffffffffffffffffffffffff1681565b60078181548110610d24575f80fd5b905f5260205f20015f915054906101000a900473ffffffffffffffffffffffffffffffffffffffff1681565b600281565b5f5f60025442101580610d745750600460149054906101000a900460ff165b610db3576040517f08c379a0000000000000000000000000000000000000000000000000000000008152600401610daa9061175d565b60405180910390fd5b60045f9054906101000a900473ffffffffffffffffffffffffffffffffffffffff16600354915091509091565b600581565b60025442108015610e035750600460149054906101000a900460ff16155b610e42576040517f08c379a0000000000000000000000000000000000000000000000000000000008152600401610e3990611536565b60405180910390fd5b5f60055f3373ffffffffffffffffffffffffffffffffffffffff1673ffffffffffffffffffffffffffffffffffffffff1681526020019081526020015f205490505f60065f3373ffffffffffffffffffffffffffffffffffffffff1673ffffffffffffffffffffffffffffffffffffffff1681526020019081526020015f20600101549050808211610f09576040517f08c379a0000000000000000000000000000000000000000000000000000000008152600401610f00906119d6565b60405180910390fd5b5f8183610f1691906116e0565b90508160055f3373ffffffffffffffffffffffffffffffffffffffff1673ffffffffffffffffffffffffffffffffffffffff1681526020019081526020015f20819055505f3373ffffffffffffffffffffffffffffffffffffffff1682604051610f7f906118c4565b5f6040518083038185875af1925050503d805f8114610fb9576040519150601f19603f3d011682016040523d82523d5f602084013e610fbe565b606091505b5050905080611002576040517f08c379a0000000000000000000000000000000000000000000000000000000008152600401610ff990611a3e565b60405180910390fd5b3373ffffffffffffffffffffffffffffffffffffffff167f8468f8fa62fc679cf8165eab7662a1fa977705b501dd787e9ec07884885425f18360405161104891906113fb565b60405180910390a250505050565b60035481565b60015481565b6005602052805f5260405f205f915090505481565b60025442101580156110965750600460149054906101000a900460ff16155b6110d5576040517f08c379a00000000000000000000000000000000000000000000000000000000081526004016110cc90611acc565b60405180910390fd5b6001600460146101000a81548160ff0219169083151502179055507fdaec4582d5d9595688c8c98545fdd1c696d41c6aeaeb636737e84ed2f5c00eda60045f9054906101000a900473ffffffffffffffffffffffffffffffffffffffff166003546040516111449291906113d4565b60405180910390a1565b5f8115159050919050565b6111628161114e565b82525050565b5f60208201905061117b5f830184611159565b92915050565b5f81519050919050565b5f82825260208201905092915050565b5f819050602082019050919050565b5f73ffffffffffffffffffffffffffffffffffffffff82169050919050565b5f6111d3826111aa565b9050919050565b6111e3816111c9565b82525050565b5f6111f483836111da565b60208301905092915050565b5f602082019050919050565b5f61121682611181565b611220818561118b565b935061122b8361119b565b805f5b8381101561125b57815161124288826111e9565b975061124d83611200565b92505060018101905061122e565b5085935050505092915050565b5f81519050919050565b5f82825260208201905092915050565b5f819050602082019050919050565b5f819050919050565b6112a381611291565b82525050565b5f6112b4838361129a565b60208301905092915050565b5f602082019050919050565b5f6112d682611268565b6112e08185611272565b93506112eb83611282565b805f5b8381101561131b57815161130288826112a9565b975061130d836112c0565b9250506001810190506112ee565b5085935050505092915050565b5f6040820190508181035f830152611340818561120c565b9050818103602083015261135481846112cc565b90509392505050565b5f5ffd5b61136a816111c9565b8114611374575f5ffd5b50565b5f8135905061138581611361565b92915050565b5f602082840312156113a05761139f61135d565b5b5f6113ad84828501611377565b91505092915050565b6113bf816111c9565b82525050565b6113ce81611291565b82525050565b5f6040820190506113e75f8301856113b6565b6113f460208301846113c5565b9392505050565b5f60208201905061140e5f8301846113c5565b92915050565b5f6020820190506114275f8301846113b6565b92915050565b61143681611291565b8114611440575f5ffd5b50565b5f813590506114518161142d565b92915050565b5f6020828403121561146c5761146b61135d565b5b5f61147984828501611443565b91505092915050565b7f4e487b71000000000000000000000000000000000000000000000000000000005f52604160045260245ffd5b7f4e487b71000000000000000000000000000000000000000000000000000000005f52603260045260245ffd5b5f82825260208201905092915050565b7f4c612073756261737461206e6f2065737461206163746976612e0000000000005f82015250565b5f611520601a836114dc565b915061152b826114ec565b602082019050919050565b5f6020820190508181035f83015261154d81611514565b9050919050565b7f4e487b71000000000000000000000000000000000000000000000000000000005f52601160045260245ffd5b5f61158b82611291565b915061159683611291565b92508282026115a481611291565b915082820484148315176115bb576115ba611554565b5b5092915050565b7f4e487b71000000000000000000000000000000000000000000000000000000005f52601260045260245ffd5b5f6115f982611291565b915061160483611291565b925082611614576116136115c2565b5b828204905092915050565b5f61162982611291565b915061163483611291565b925082820190508082111561164c5761164b611554565b5b92915050565b7f4c61206f666572746120646562652073657220616c206d656e6f7320756e20355f8201527f25206d61796f7220717565206c61206f66657274612061637475616c2e000000602082015250565b5f6116ac603d836114dc565b91506116b782611652565b604082019050919050565b5f6020820190508181035f8301526116d9816116a0565b9050919050565b5f6116ea82611291565b91506116f583611291565b925082820390508181111561170d5761170c611554565b5b92915050565b7f4c612073756261737461206e6f2068612066696e616c697a61646f2e000000005f82015250565b5f611747601c836114dc565b915061175282611713565b602082019050919050565b5f6020820190508181035f8301526117748161173b565b9050919050565b7f456c2067616e61646f72206e6f207075656465207265636c616d617220756e205f8201527f6465706f7369746f206465207065726465646f722e0000000000000000000000602082015250565b5f6117d56035836114dc565b91506117e08261177b565b604082019050919050565b5f6020820190508181035f830152611802816117c9565b9050919050565b7f4e6f207469656e6573206465706f7369746f732070617261207265636c616d615f8201527f722e000000000000000000000000000000000000000000000000000000000000602082015250565b5f6118636022836114dc565b915061186e82611809565b604082019050919050565b5f6020820190508181035f83015261189081611857565b9050919050565b5f81905092915050565b50565b5f6118af5f83611897565b91506118ba826118a1565b5f82019050919050565b5f6118ce826118a4565b9150819050919050565b7f46616c6c6f206c61207472616e73666572656e6369612064656c207265656d625f8201527f6f6c736f2e000000000000000000000000000000000000000000000000000000602082015250565b5f6119326025836114dc565b915061193d826118d8565b604082019050919050565b5f6020820190508181035f83015261195f81611926565b9050919050565b7f4e6f20686179206d6f6e746f206578636564656e7465207061726120726574695f8201527f7261722e00000000000000000000000000000000000000000000000000000000602082015250565b5f6119c06024836114dc565b91506119cb82611966565b604082019050919050565b5f6020820190508181035f8301526119ed816119b4565b9050919050565b7f46616c6c6f20656c2072657469726f207061726369616c2e00000000000000005f82015250565b5f611a286018836114dc565b9150611a33826119f4565b602082019050919050565b5f6020820190508181035f830152611a5581611a1c565b9050919050565b7f4c612073756261737461206e6f2070756564652066696e616c697a61727365205f8201527f6f2079612068612066696e616c697a61646f2e00000000000000000000000000602082015250565b5f611ab66033836114dc565b9150611ac182611a5c565b604082019050919050565b5f6020820190508181035f830152611ae381611aaa565b905091905056fea2646970667358221220a1cab81faaf41d3fabc47e072aa135c94ec20886cbb3a2a5265767b89db661a964736f6c634300081e0033",
					"opcodes": "PUSH1 0x80 PUSH1 0x40 MSTORE CALLVALUE DUP1 ISZERO PUSH2 0xF JUMPI PUSH0 PUSH0 REVERT JUMPDEST POP PUSH1 0x40 MLOAD PUSH2 0x1D2C CODESIZE SUB DUP1 PUSH2 0x1D2C DUP4 CODECOPY DUP2 DUP2 ADD PUSH1 0x40 MSTORE DUP2 ADD SWAP1 PUSH2 0x31 SWAP2 SWAP1 PUSH2 0x133 JUMP JUMPDEST CALLER PUSH0 PUSH0 PUSH2 0x100 EXP DUP2 SLOAD DUP2 PUSH20 0xFFFFFFFFFFFFFFFFFFFFFFFFFFFFFFFFFFFFFFFF MUL NOT AND SWAP1 DUP4 PUSH20 0xFFFFFFFFFFFFFFFFFFFFFFFFFFFFFFFFFFFFFFFF AND MUL OR SWAP1 SSTORE POP TIMESTAMP PUSH1 0x1 DUP2 SWAP1 SSTORE POP PUSH1 0x3C DUP2 PUSH2 0x84 SWAP2 SWAP1 PUSH2 0x18B JUMP JUMPDEST TIMESTAMP PUSH2 0x8F SWAP2 SWAP1 PUSH2 0x1CC JUMP JUMPDEST PUSH1 0x2 DUP2 SWAP1 SSTORE POP PUSH0 PUSH1 0x3 DUP2 SWAP1 SSTORE POP PUSH0 PUSH1 0x4 PUSH0 PUSH2 0x100 EXP DUP2 SLOAD DUP2 PUSH20 0xFFFFFFFFFFFFFFFFFFFFFFFFFFFFFFFFFFFFFFFF MUL NOT AND SWAP1 DUP4 PUSH20 0xFFFFFFFFFFFFFFFFFFFFFFFFFFFFFFFFFFFFFFFF AND MUL OR SWAP1 SSTORE POP PUSH0 PUSH1 0x4 PUSH1 0x14 PUSH2 0x100 EXP DUP2 SLOAD DUP2 PUSH1 0xFF MUL NOT AND SWAP1 DUP4 ISZERO ISZERO MUL OR SWAP1 SSTORE POP POP PUSH2 0x1FF JUMP JUMPDEST PUSH0 PUSH0 REVERT JUMPDEST PUSH0 DUP2 SWAP1 POP SWAP2 SWAP1 POP JUMP JUMPDEST PUSH2 0x112 DUP2 PUSH2 0x100 JUMP JUMPDEST DUP2 EQ PUSH2 0x11C JUMPI PUSH0 PUSH0 REVERT JUMPDEST POP JUMP JUMPDEST PUSH0 DUP2 MLOAD SWAP1 POP PUSH2 0x12D DUP2 PUSH2 0x109 JUMP JUMPDEST SWAP3 SWAP2 POP POP JUMP JUMPDEST PUSH0 PUSH1 0x20 DUP3 DUP5 SUB SLT ISZERO PUSH2 0x148 JUMPI PUSH2 0x147 PUSH2 0xFC JUMP JUMPDEST JUMPDEST PUSH0 PUSH2 0x155 DUP5 DUP3 DUP6 ADD PUSH2 0x11F JUMP JUMPDEST SWAP2 POP POP SWAP3 SWAP2 POP POP JUMP JUMPDEST PUSH32 0x4E487B7100000000000000000000000000000000000000000000000000000000 PUSH0 MSTORE PUSH1 0x11 PUSH1 0x4 MSTORE PUSH1 0x24 PUSH0 REVERT JUMPDEST PUSH0 PUSH2 0x195 DUP3 PUSH2 0x100 JUMP JUMPDEST SWAP2 POP PUSH2 0x1A0 DUP4 PUSH2 0x100 JUMP JUMPDEST SWAP3 POP DUP3 DUP3 MUL PUSH2 0x1AE DUP2 PUSH2 0x100 JUMP JUMPDEST SWAP2 POP DUP3 DUP3 DIV DUP5 EQ DUP4 ISZERO OR PUSH2 0x1C5 JUMPI PUSH2 0x1C4 PUSH2 0x15E JUMP JUMPDEST JUMPDEST POP SWAP3 SWAP2 POP POP JUMP JUMPDEST PUSH0 PUSH2 0x1D6 DUP3 PUSH2 0x100 JUMP JUMPDEST SWAP2 POP PUSH2 0x1E1 DUP4 PUSH2 0x100 JUMP JUMPDEST SWAP3 POP DUP3 DUP3 ADD SWAP1 POP DUP1 DUP3 GT ISZERO PUSH2 0x1F9 JUMPI PUSH2 0x1F8 PUSH2 0x15E JUMP JUMPDEST JUMPDEST SWAP3 SWAP2 POP POP JUMP JUMPDEST PUSH2 0x1B20 DUP1 PUSH2 0x20C PUSH0 CODECOPY PUSH0 RETURN INVALID PUSH1 0x80 PUSH1 0x40 MSTORE PUSH1 0x4 CALLDATASIZE LT PUSH2 0x108 JUMPI PUSH0 CALLDATALOAD PUSH1 0xE0 SHR DUP1 PUSH4 0xA013781B GT PUSH2 0x94 JUMPI DUP1 PUSH4 0xC30ACA9A GT PUSH2 0x63 JUMPI DUP1 PUSH4 0xC30ACA9A EQ PUSH2 0x321 JUMPI DUP1 PUSH4 0xD57BDE79 EQ PUSH2 0x337 JUMPI DUP1 PUSH4 0xEB54F9EC EQ PUSH2 0x361 JUMPI DUP1 PUSH4 0xFC7E286D EQ PUSH2 0x38B JUMPI DUP1 PUSH4 0xFE67A54B EQ PUSH2 0x3C7 JUMPI PUSH2 0x108 JUMP JUMPDEST DUP1 PUSH4 0xA013781B EQ PUSH2 0x266 JUMPI DUP1 PUSH4 0xB033E086 EQ PUSH2 0x2A2 JUMPI DUP1 PUSH4 0xB7E03264 EQ PUSH2 0x2CC JUMPI DUP1 PUSH4 0xBC996819 EQ PUSH2 0x2F7 JUMPI PUSH2 0x108 JUMP JUMPDEST DUP1 PUSH4 0x46E053A0 GT PUSH2 0xDB JUMPI DUP1 PUSH4 0x46E053A0 EQ PUSH2 0x181 JUMPI DUP1 PUSH4 0x4B449CBA EQ PUSH2 0x1BE JUMPI DUP1 PUSH4 0x5681104A EQ PUSH2 0x1E8 JUMPI DUP1 PUSH4 0x8DA5CB5B EQ PUSH2 0x212 JUMPI DUP1 PUSH4 0x91F90157 EQ PUSH2 0x23C JUMPI PUSH2 0x108 JUMP JUMPDEST DUP1 PUSH4 0x12FA6FEB EQ PUSH2 0x10C JUMPI DUP1 PUSH4 0x14D2687C EQ PUSH2 0x136 JUMPI DUP1 PUSH4 0x1998AEEF EQ PUSH2 0x161 JUMPI DUP1 PUSH4 0x362E2565 EQ PUSH2 0x16B JUMPI JUMPDEST PUSH0 PUSH0 REVERT JUMPDEST CALLVALUE DUP1 ISZERO PUSH2 0x117 JUMPI PUSH0 PUSH0 REVERT JUMPDEST POP PUSH2 0x120 PUSH2 0x3DD JUMP JUMPDEST PUSH1 0x40 MLOAD PUSH2 0x12D SWAP2 SWAP1 PUSH2 0x1168 JUMP JUMPDEST PUSH1 0x40 MLOAD DUP1 SWAP2 SUB SWAP1 RETURN JUMPDEST CALLVALUE DUP1 ISZERO PUSH2 0x141 JUMPI PUSH0 PUSH0 REVERT JUMPDEST POP PUSH2 0x14A PUSH2 0x3F0 JUMP JUMPDEST PUSH1 0x40 MLOAD PUSH2 0x158 SWAP3 SWAP2 SWAP1 PUSH2 0x1328 JUMP JUMPDEST PUSH1 0x40 MLOAD DUP1 SWAP2 SUB SWAP1 RETURN JUMPDEST PUSH2 0x169 PUSH2 0x5A5 JUMP JUMPDEST STOP JUMPDEST CALLVALUE DUP1 ISZERO PUSH2 0x176 JUMPI PUSH0 PUSH0 REVERT JUMPDEST POP PUSH2 0x17F PUSH2 0x9AA JUMP JUMPDEST STOP JUMPDEST CALLVALUE DUP1 ISZERO PUSH2 0x18C JUMPI PUSH0 PUSH0 REVERT JUMPDEST POP PUSH2 0x1A7 PUSH1 0x4 DUP1 CALLDATASIZE SUB DUP2 ADD SWAP1 PUSH2 0x1A2 SWAP2 SWAP1 PUSH2 0x138B JUMP JUMPDEST PUSH2 0xC81 JUMP JUMPDEST PUSH1 0x40 MLOAD PUSH2 0x1B5 SWAP3 SWAP2 SWAP1 PUSH2 0x13D4 JUMP JUMPDEST PUSH1 0x40 MLOAD DUP1 SWAP2 SUB SWAP1 RETURN JUMPDEST CALLVALUE DUP1 ISZERO PUSH2 0x1C9 JUMPI PUSH0 PUSH0 REVERT JUMPDEST POP PUSH2 0x1D2 PUSH2 0xCC0 JUMP JUMPDEST PUSH1 0x40 MLOAD PUSH2 0x1DF SWAP2 SWAP1 PUSH2 0x13FB JUMP JUMPDEST PUSH1 0x40 MLOAD DUP1 SWAP2 SUB SWAP1 RETURN JUMPDEST CALLVALUE DUP1 ISZERO PUSH2 0x1F3 JUMPI PUSH0 PUSH0 REVERT JUMPDEST POP PUSH2 0x1FC PUSH2 0xCC6 JUMP JUMPDEST PUSH1 0x40 MLOAD PUSH2 0x209 SWAP2 SWAP1 PUSH2 0x13FB JUMP JUMPDEST PUSH1 0x40 MLOAD DUP1 SWAP2 SUB SWAP1 RETURN JUMPDEST CALLVALUE DUP1 ISZERO PUSH2 0x21D JUMPI PUSH0 PUSH0 REVERT JUMPDEST POP PUSH2 0x226 PUSH2 0xCCC JUMP JUMPDEST PUSH1 0x40 MLOAD PUSH2 0x233 SWAP2 SWAP1 PUSH2 0x1414 JUMP JUMPDEST PUSH1 0x40 MLOAD DUP1 SWAP2 SUB SWAP1 RETURN JUMPDEST CALLVALUE DUP1 ISZERO PUSH2 0x247 JUMPI PUSH0 PUSH0 REVERT JUMPDEST POP PUSH2 0x250 PUSH2 0xCF0 JUMP JUMPDEST PUSH1 0x40 MLOAD PUSH2 0x25D SWAP2 SWAP1 PUSH2 0x1414 JUMP JUMPDEST PUSH1 0x40 MLOAD DUP1 SWAP2 SUB SWAP1 RETURN JUMPDEST CALLVALUE DUP1 ISZERO PUSH2 0x271 JUMPI PUSH0 PUSH0 REVERT JUMPDEST POP PUSH2 0x28C PUSH1 0x4 DUP1 CALLDATASIZE SUB DUP2 ADD SWAP1 PUSH2 0x287 SWAP2 SWAP1 PUSH2 0x1457 JUMP JUMPDEST PUSH2 0xD15 JUMP JUMPDEST PUSH1 0x40 MLOAD PUSH2 0x299 SWAP2 SWAP1 PUSH2 0x1414 JUMP JUMPDEST PUSH1 0x40 MLOAD DUP1 SWAP2 SUB SWAP1 RETURN JUMPDEST CALLVALUE DUP1 ISZERO PUSH2 0x2AD JUMPI PUSH0 PUSH0 REVERT JUMPDEST POP PUSH2 0x2B6 PUSH2 0xD50 JUMP JUMPDEST PUSH1 0x40 MLOAD PUSH2 0x2C3 SWAP2 SWAP1 PUSH2 0x13FB JUMP JUMPDEST PUSH1 0x40 MLOAD DUP1 SWAP2 SUB SWAP1 RETURN JUMPDEST CALLVALUE DUP1 ISZERO PUSH2 0x2D7 JUMPI PUSH0 PUSH0 REVERT JUMPDEST POP PUSH2 0x2E0 PUSH2 0xD55 JUMP JUMPDEST PUSH1 0x40 MLOAD PUSH2 0x2EE SWAP3 SWAP2 SWAP1 PUSH2 0x13D4 JUMP JUMPDEST PUSH1 0x40 MLOAD DUP1 SWAP2 SUB SWAP1 RETURN JUMPDEST CALLVALUE DUP1 ISZERO PUSH2 0x302 JUMPI PUSH0 PUSH0 REVERT JUMPDEST POP PUSH2 0x30B PUSH2 0xDE0 JUMP JUMPDEST PUSH1 0x40 MLOAD PUSH2 0x318 SWAP2 SWAP1 PUSH2 0x13FB JUMP JUMPDEST PUSH1 0x40 MLOAD DUP1 SWAP2 SUB SWAP1 RETURN JUMPDEST CALLVALUE DUP1 ISZERO PUSH2 0x32C JUMPI PUSH0 PUSH0 REVERT JUMPDEST POP PUSH2 0x335 PUSH2 0xDE5 JUMP JUMPDEST STOP JUMPDEST CALLVALUE DUP1 ISZERO PUSH2 0x342 JUMPI PUSH0 PUSH0 REVERT JUMPDEST POP PUSH2 0x34B PUSH2 0x1056 JUMP JUMPDEST PUSH1 0x40 MLOAD PUSH2 0x358 SWAP2 SWAP1 PUSH2 0x13FB JUMP JUMPDEST PUSH1 0x40 MLOAD DUP1 SWAP2 SUB SWAP1 RETURN JUMPDEST CALLVALUE DUP1 ISZERO PUSH2 0x36C JUMPI PUSH0 PUSH0 REVERT JUMPDEST POP PUSH2 0x375 PUSH2 0x105C JUMP JUMPDEST PUSH1 0x40 MLOAD PUSH2 0x382 SWAP2 SWAP1 PUSH2 0x13FB JUMP JUMPDEST PUSH1 0x40 MLOAD DUP1 SWAP2 SUB SWAP1 RETURN JUMPDEST CALLVALUE DUP1 ISZERO PUSH2 0x396 JUMPI PUSH0 PUSH0 REVERT JUMPDEST POP PUSH2 0x3B1 PUSH1 0x4 DUP1 CALLDATASIZE SUB DUP2 ADD SWAP1 PUSH2 0x3AC SWAP2 SWAP1 PUSH2 0x138B JUMP JUMPDEST PUSH2 0x1062 JUMP JUMPDEST PUSH1 0x40 MLOAD PUSH2 0x3BE SWAP2 SWAP1 PUSH2 0x13FB JUMP JUMPDEST PUSH1 0x40 MLOAD DUP1 SWAP2 SUB SWAP1 RETURN JUMPDEST CALLVALUE DUP1 ISZERO PUSH2 0x3D2 JUMPI PUSH0 PUSH0 REVERT JUMPDEST POP PUSH2 0x3DB PUSH2 0x1077 JUMP JUMPDEST STOP JUMPDEST PUSH1 0x4 PUSH1 0x14 SWAP1 SLOAD SWAP1 PUSH2 0x100 EXP SWAP1 DIV PUSH1 0xFF AND DUP2 JUMP JUMPDEST PUSH1 0x60 DUP1 PUSH1 0x7 DUP1 SLOAD SWAP1 POP PUSH8 0xFFFFFFFFFFFFFFFF DUP2 GT ISZERO PUSH2 0x412 JUMPI PUSH2 0x411 PUSH2 0x1482 JUMP JUMPDEST JUMPDEST PUSH1 0x40 MLOAD SWAP1 DUP1 DUP3 MSTORE DUP1 PUSH1 0x20 MUL PUSH1 0x20 ADD DUP3 ADD PUSH1 0x40 MSTORE DUP1 ISZERO PUSH2 0x440 JUMPI DUP2 PUSH1 0x20 ADD PUSH1 0x20 DUP3 MUL DUP1 CALLDATASIZE DUP4 CALLDATACOPY DUP1 DUP3 ADD SWAP2 POP POP SWAP1 POP JUMPDEST POP SWAP2 POP PUSH1 0x7 DUP1 SLOAD SWAP1 POP PUSH8 0xFFFFFFFFFFFFFFFF DUP2 GT ISZERO PUSH2 0x462 JUMPI PUSH2 0x461 PUSH2 0x1482 JUMP JUMPDEST JUMPDEST PUSH1 0x40 MLOAD SWAP1 DUP1 DUP3 MSTORE DUP1 PUSH1 0x20 MUL PUSH1 0x20 ADD DUP3 ADD PUSH1 0x40 MSTORE DUP1 ISZERO PUSH2 0x490 JUMPI DUP2 PUSH1 0x20 ADD PUSH1 0x20 DUP3 MUL DUP1 CALLDATASIZE DUP4 CALLDATACOPY DUP1 DUP3 ADD SWAP2 POP POP SWAP1 POP JUMPDEST POP SWAP1 POP PUSH0 PUSH0 SWAP1 POP JUMPDEST PUSH1 0x7 DUP1 SLOAD SWAP1 POP DUP2 LT ISZERO PUSH2 0x5A0 JUMPI PUSH0 PUSH1 0x7 DUP3 DUP2 SLOAD DUP2 LT PUSH2 0x4BA JUMPI PUSH2 0x4B9 PUSH2 0x14AF JUMP JUMPDEST JUMPDEST SWAP1 PUSH0 MSTORE PUSH1 0x20 PUSH0 KECCAK256 ADD PUSH0 SWAP1 SLOAD SWAP1 PUSH2 0x100 EXP SWAP1 DIV PUSH20 0xFFFFFFFFFFFFFFFFFFFFFFFFFFFFFFFFFFFFFFFF AND SWAP1 POP DUP1 DUP5 DUP4 DUP2 MLOAD DUP2 LT PUSH2 0x4F8 JUMPI PUSH2 0x4F7 PUSH2 0x14AF JUMP JUMPDEST JUMPDEST PUSH1 0x20 MUL PUSH1 0x20 ADD ADD SWAP1 PUSH20 0xFFFFFFFFFFFFFFFFFFFFFFFFFFFFFFFFFFFFFFFF AND SWAP1 DUP2 PUSH20 0xFFFFFFFFFFFFFFFFFFFFFFFFFFFFFFFFFFFFFFFF AND DUP2 MSTORE POP POP PUSH1 0x6 PUSH0 DUP3 PUSH20 0xFFFFFFFFFFFFFFFFFFFFFFFFFFFFFFFFFFFFFFFF AND PUSH20 0xFFFFFFFFFFFFFFFFFFFFFFFFFFFFFFFFFFFFFFFF AND DUP2 MSTORE PUSH1 0x20 ADD SWAP1 DUP2 MSTORE PUSH1 0x20 ADD PUSH0 KECCAK256 PUSH1 0x1 ADD SLOAD DUP4 DUP4 DUP2 MLOAD DUP2 LT PUSH2 0x586 JUMPI PUSH2 0x585 PUSH2 0x14AF JUMP JUMPDEST JUMPDEST PUSH1 0x20 MUL PUSH1 0x20 ADD ADD DUP2 DUP2 MSTORE POP POP POP DUP1 DUP1 PUSH1 0x1 ADD SWAP2 POP POP PUSH2 0x498 JUMP JUMPDEST POP SWAP1 SWAP2 JUMP JUMPDEST PUSH1 0x2 SLOAD TIMESTAMP LT DUP1 ISZERO PUSH2 0x5C3 JUMPI POP PUSH1 0x4 PUSH1 0x14 SWAP1 SLOAD SWAP1 PUSH2 0x100 EXP SWAP1 DIV PUSH1 0xFF AND ISZERO JUMPDEST PUSH2 0x602 JUMPI PUSH1 0x40 MLOAD PUSH32 0x8C379A000000000000000000000000000000000000000000000000000000000 DUP2 MSTORE PUSH1 0x4 ADD PUSH2 0x5F9 SWAP1 PUSH2 0x1536 JUMP JUMPDEST PUSH1 0x40 MLOAD DUP1 SWAP2 SUB SWAP1 REVERT JUMPDEST PUSH0 PUSH1 0x64 PUSH1 0x5 PUSH1 0x3 SLOAD PUSH2 0x614 SWAP2 SWAP1 PUSH2 0x1581 JUMP JUMPDEST PUSH2 0x61E SWAP2 SWAP1 PUSH2 0x15EF JUMP JUMPDEST PUSH1 0x3 SLOAD PUSH2 0x62B SWAP2 SWAP1 PUSH2 0x161F JUMP JUMPDEST SWAP1 POP PUSH0 PUSH1 0x3 SLOAD SUB PUSH2 0x63B JUMPI PUSH1 0x1 SWAP1 POP JUMPDEST DUP1 CALLVALUE LT ISZERO PUSH2 0x67E JUMPI PUSH1 0x40 MLOAD PUSH32 0x8C379A000000000000000000000000000000000000000000000000000000000 DUP2 MSTORE PUSH1 0x4 ADD PUSH2 0x675 SWAP1 PUSH2 0x16C2 JUMP JUMPDEST PUSH1 0x40 MLOAD DUP1 SWAP2 SUB SWAP1 REVERT JUMPDEST PUSH1 0x8 PUSH0 CALLER PUSH20 0xFFFFFFFFFFFFFFFFFFFFFFFFFFFFFFFFFFFFFFFF AND PUSH20 0xFFFFFFFFFFFFFFFFFFFFFFFFFFFFFFFFFFFFFFFF AND DUP2 MSTORE PUSH1 0x20 ADD SWAP1 DUP2 MSTORE PUSH1 0x20 ADD PUSH0 KECCAK256 PUSH0 SWAP1 SLOAD SWAP1 PUSH2 0x100 EXP SWAP1 DIV PUSH1 0xFF AND PUSH2 0x782 JUMPI PUSH1 0x1 PUSH1 0x8 PUSH0 CALLER PUSH20 0xFFFFFFFFFFFFFFFFFFFFFFFFFFFFFFFFFFFFFFFF AND PUSH20 0xFFFFFFFFFFFFFFFFFFFFFFFFFFFFFFFFFFFFFFFF AND DUP2 MSTORE PUSH1 0x20 ADD SWAP1 DUP2 MSTORE PUSH1 0x20 ADD PUSH0 KECCAK256 PUSH0 PUSH2 0x100 EXP DUP2 SLOAD DUP2 PUSH1 0xFF MUL NOT AND SWAP1 DUP4 ISZERO ISZERO MUL OR SWAP1 SSTORE POP PUSH1 0x7 CALLER SWAP1 DUP1 PUSH1 0x1 DUP2 SLOAD ADD DUP1 DUP3 SSTORE DUP1 SWAP2 POP POP PUSH1 0x1 SWAP1 SUB SWAP1 PUSH0 MSTORE PUSH1 0x20 PUSH0 KECCAK256 ADD PUSH0 SWAP1 SWAP2 SWAP1 SWAP2 SWAP1 SWAP2 PUSH2 0x100 EXP DUP2 SLOAD DUP2 PUSH20 0xFFFFFFFFFFFFFFFFFFFFFFFFFFFFFFFFFFFFFFFF MUL NOT AND SWAP1 DUP4 PUSH20 0xFFFFFFFFFFFFFFFFFFFFFFFFFFFFFFFFFFFFFFFF AND MUL OR SWAP1 SSTORE POP JUMPDEST CALLVALUE PUSH1 0x5 PUSH0 CALLER PUSH20 0xFFFFFFFFFFFFFFFFFFFFFFFFFFFFFFFFFFFFFFFF AND PUSH20 0xFFFFFFFFFFFFFFFFFFFFFFFFFFFFFFFFFFFFFFFF AND DUP2 MSTORE PUSH1 0x20 ADD SWAP1 DUP2 MSTORE PUSH1 0x20 ADD PUSH0 KECCAK256 PUSH0 DUP3 DUP3 SLOAD PUSH2 0x7CE SWAP2 SWAP1 PUSH2 0x161F JUMP JUMPDEST SWAP3 POP POP DUP2 SWAP1 SSTORE POP PUSH1 0x3 SLOAD CALLVALUE GT ISZERO PUSH2 0x827 JUMPI CALLVALUE PUSH1 0x3 DUP2 SWAP1 SSTORE POP CALLER PUSH1 0x4 PUSH0 PUSH2 0x100 EXP DUP2 SLOAD DUP2 PUSH20 0xFFFFFFFFFFFFFFFFFFFFFFFFFFFFFFFFFFFFFFFF MUL NOT AND SWAP1 DUP4 PUSH20 0xFFFFFFFFFFFFFFFFFFFFFFFFFFFFFFFFFFFFFFFF AND MUL OR SWAP1 SSTORE POP JUMPDEST PUSH1 0x40 MLOAD DUP1 PUSH1 0x40 ADD PUSH1 0x40 MSTORE DUP1 CALLER PUSH20 0xFFFFFFFFFFFFFFFFFFFFFFFFFFFFFFFFFFFFFFFF AND DUP2 MSTORE PUSH1 0x20 ADD CALLVALUE DUP2 MSTORE POP PUSH1 0x6 PUSH0 CALLER PUSH20 0xFFFFFFFFFFFFFFFFFFFFFFFFFFFFFFFFFFFFFFFF AND PUSH20 0xFFFFFFFFFFFFFFFFFFFFFFFFFFFFFFFFFFFFFFFF AND DUP2 MSTORE PUSH1 0x20 ADD SWAP1 DUP2 MSTORE PUSH1 0x20 ADD PUSH0 KECCAK256 PUSH0 DUP3 ADD MLOAD DUP2 PUSH0 ADD PUSH0 PUSH2 0x100 EXP DUP2 SLOAD DUP2 PUSH20 0xFFFFFFFFFFFFFFFFFFFFFFFFFFFFFFFFFFFFFFFF MUL NOT AND SWAP1 DUP4 PUSH20 0xFFFFFFFFFFFFFFFFFFFFFFFFFFFFFFFFFFFFFFFF AND MUL OR SWAP1 SSTORE POP PUSH1 0x20 DUP3 ADD MLOAD DUP2 PUSH1 0x1 ADD SSTORE SWAP1 POP POP CALLER PUSH20 0xFFFFFFFFFFFFFFFFFFFFFFFFFFFFFFFFFFFFFFFF AND PUSH32 0xDD0B6C6A77960E2066C96171B4D7AC9E8B4C184011F38544AFA36A5BB63EC59F CALLVALUE PUSH1 0x40 MLOAD PUSH2 0x926 SWAP2 SWAP1 PUSH2 0x13FB JUMP JUMPDEST PUSH1 0x40 MLOAD DUP1 SWAP2 SUB SWAP1 LOG2 PUSH2 0x258 TIMESTAMP PUSH1 0x2 SLOAD PUSH2 0x93F SWAP2 SWAP1 PUSH2 0x16E0 JUMP JUMPDEST GT ISZERO DUP1 ISZERO PUSH2 0x94E JUMPI POP PUSH1 0x2 SLOAD TIMESTAMP LT JUMPDEST ISZERO PUSH2 0x9A7 JUMPI PUSH2 0x258 PUSH1 0x2 PUSH0 DUP3 DUP3 SLOAD PUSH2 0x966 SWAP2 SWAP1 PUSH2 0x161F JUMP JUMPDEST SWAP3 POP POP DUP2 SWAP1 SSTORE POP PUSH32 0xC2B459809119087CA9D2BC10DEA53A51B7D848B1A11075DB037BDCA58292C3E8 PUSH1 0x2 SLOAD PUSH1 0x40 MLOAD PUSH2 0x99E SWAP2 SWAP1 PUSH2 0x13FB JUMP JUMPDEST PUSH1 0x40 MLOAD DUP1 SWAP2 SUB SWAP1 LOG1 JUMPDEST POP JUMP JUMPDEST PUSH1 0x2 SLOAD TIMESTAMP LT ISZERO DUP1 PUSH2 0x9C7 JUMPI POP PUSH1 0x4 PUSH1 0x14 SWAP1 SLOAD SWAP1 PUSH2 0x100 EXP SWAP1 DIV PUSH1 0xFF AND JUMPDEST PUSH2 0xA06 JUMPI PUSH1 0x40 MLOAD PUSH32 0x8C379A000000000000000000000000000000000000000000000000000000000 DUP2 MSTORE PUSH1 0x4 ADD PUSH2 0x9FD SWAP1 PUSH2 0x175D JUMP JUMPDEST PUSH1 0x40 MLOAD DUP1 SWAP2 SUB SWAP1 REVERT JUMPDEST PUSH1 0x4 PUSH0 SWAP1 SLOAD SWAP1 PUSH2 0x100 EXP SWAP1 DIV PUSH20 0xFFFFFFFFFFFFFFFFFFFFFFFFFFFFFFFFFFFFFFFF AND PUSH20 0xFFFFFFFFFFFFFFFFFFFFFFFFFFFFFFFFFFFFFFFF AND CALLER PUSH20 0xFFFFFFFFFFFFFFFFFFFFFFFFFFFFFFFFFFFFFFFF AND SUB PUSH2 0xA95 JUMPI PUSH1 0x40 MLOAD PUSH32 0x8C379A000000000000000000000000000000000000000000000000000000000 DUP2 MSTORE PUSH1 0x4 ADD PUSH2 0xA8C SWAP1 PUSH2 0x17EB JUMP JUMPDEST PUSH1 0x40 MLOAD DUP1 SWAP2 SUB SWAP1 REVERT JUMPDEST PUSH0 PUSH1 0x5 PUSH0 CALLER PUSH20 0xFFFFFFFFFFFFFFFFFFFFFFFFFFFFFFFFFFFFFFFF AND PUSH20 0xFFFFFFFFFFFFFFFFFFFFFFFFFFFFFFFFFFFFFFFF AND DUP2 MSTORE PUSH1 0x20 ADD SWAP1 DUP2 MSTORE PUSH1 0x20 ADD PUSH0 KECCAK256 SLOAD SWAP1 POP PUSH0 DUP2 GT PUSH2 0xB18 JUMPI PUSH1 0x40 MLOAD PUSH32 0x8C379A000000000000000000000000000000000000000000000000000000000 DUP2 MSTORE PUSH1 0x4 ADD PUSH2 0xB0F SWAP1 PUSH2 0x1879 JUMP JUMPDEST PUSH1 0x40 MLOAD DUP1 SWAP2 SUB SWAP1 REVERT JUMPDEST PUSH0 PUSH1 0x64 PUSH1 0x2 DUP4 PUSH2 0xB28 SWAP2 SWAP1 PUSH2 0x1581 JUMP JUMPDEST PUSH2 0xB32 SWAP2 SWAP1 PUSH2 0x15EF JUMP JUMPDEST SWAP1 POP PUSH0 DUP2 DUP4 PUSH2 0xB41 SWAP2 SWAP1 PUSH2 0x16E0 JUMP JUMPDEST SWAP1 POP PUSH0 PUSH1 0x5 PUSH0 CALLER PUSH20 0xFFFFFFFFFFFFFFFFFFFFFFFFFFFFFFFFFFFFFFFF AND PUSH20 0xFFFFFFFFFFFFFFFFFFFFFFFFFFFFFFFFFFFFFFFF AND DUP2 MSTORE PUSH1 0x20 ADD SWAP1 DUP2 MSTORE PUSH1 0x20 ADD PUSH0 KECCAK256 DUP2 SWAP1 SSTORE POP PUSH0 CALLER PUSH20 0xFFFFFFFFFFFFFFFFFFFFFFFFFFFFFFFFFFFFFFFF AND DUP3 PUSH1 0x40 MLOAD PUSH2 0xBAA SWAP1 PUSH2 0x18C4 JUMP JUMPDEST PUSH0 PUSH1 0x40 MLOAD DUP1 DUP4 SUB DUP2 DUP6 DUP8 GAS CALL SWAP3 POP POP POP RETURNDATASIZE DUP1 PUSH0 DUP2 EQ PUSH2 0xBE4 JUMPI PUSH1 0x40 MLOAD SWAP2 POP PUSH1 0x1F NOT PUSH1 0x3F RETURNDATASIZE ADD AND DUP3 ADD PUSH1 0x40 MSTORE RETURNDATASIZE DUP3 MSTORE RETURNDATASIZE PUSH0 PUSH1 0x20 DUP5 ADD RETURNDATACOPY PUSH2 0xBE9 JUMP JUMPDEST PUSH1 0x60 SWAP2 POP JUMPDEST POP POP SWAP1 POP DUP1 PUSH2 0xC2D JUMPI PUSH1 0x40 MLOAD PUSH32 0x8C379A000000000000000000000000000000000000000000000000000000000 DUP2 MSTORE PUSH1 0x4 ADD PUSH2 0xC24 SWAP1 PUSH2 0x1948 JUMP JUMPDEST PUSH1 0x40 MLOAD DUP1 SWAP2 SUB SWAP1 REVERT JUMPDEST CALLER PUSH20 0xFFFFFFFFFFFFFFFFFFFFFFFFFFFFFFFFFFFFFFFF AND PUSH32 0x698270F63D8B673ED55A5CA00D14001BD808B390DBE11D5B1B16624863F71F77 DUP4 PUSH1 0x40 MLOAD PUSH2 0xC73 SWAP2 SWAP1 PUSH2 0x13FB JUMP JUMPDEST PUSH1 0x40 MLOAD DUP1 SWAP2 SUB SWAP1 LOG2 POP POP POP POP JUMP JUMPDEST PUSH1 0x6 PUSH1 0x20 MSTORE DUP1 PUSH0 MSTORE PUSH1 0x40 PUSH0 KECCAK256 PUSH0 SWAP2 POP SWAP1 POP DUP1 PUSH0 ADD PUSH0 SWAP1 SLOAD SWAP1 PUSH2 0x100 EXP SWAP1 DIV PUSH20 0xFFFFFFFFFFFFFFFFFFFFFFFFFFFFFFFFFFFFFFFF AND SWAP1 DUP1 PUSH1 0x1 ADD SLOAD SWAP1 POP DUP3 JUMP JUMPDEST PUSH1 0x2 SLOAD DUP2 JUMP JUMPDEST PUSH2 0x258 DUP2 JUMP JUMPDEST PUSH0 PUSH0 SWAP1 SLOAD SWAP1 PUSH2 0x100 EXP SWAP1 DIV PUSH20 0xFFFFFFFFFFFFFFFFFFFFFFFFFFFFFFFFFFFFFFFF AND DUP2 JUMP JUMPDEST PUSH1 0x4 PUSH0 SWAP1 SLOAD SWAP1 PUSH2 0x100 EXP SWAP1 DIV PUSH20 0xFFFFFFFFFFFFFFFFFFFFFFFFFFFFFFFFFFFFFFFF AND DUP2 JUMP JUMPDEST PUSH1 0x7 DUP2 DUP2 SLOAD DUP2 LT PUSH2 0xD24 JUMPI PUSH0 DUP1 REVERT JUMPDEST SWAP1 PUSH0 MSTORE PUSH1 0x20 PUSH0 KECCAK256 ADD PUSH0 SWAP2 POP SLOAD SWAP1 PUSH2 0x100 EXP SWAP1 DIV PUSH20 0xFFFFFFFFFFFFFFFFFFFFFFFFFFFFFFFFFFFFFFFF AND DUP2 JUMP JUMPDEST PUSH1 0x2 DUP2 JUMP JUMPDEST PUSH0 PUSH0 PUSH1 0x2 SLOAD TIMESTAMP LT ISZERO DUP1 PUSH2 0xD74 JUMPI POP PUSH1 0x4 PUSH1 0x14 SWAP1 SLOAD SWAP1 PUSH2 0x100 EXP SWAP1 DIV PUSH1 0xFF AND JUMPDEST PUSH2 0xDB3 JUMPI PUSH1 0x40 MLOAD PUSH32 0x8C379A000000000000000000000000000000000000000000000000000000000 DUP2 MSTORE PUSH1 0x4 ADD PUSH2 0xDAA SWAP1 PUSH2 0x175D JUMP JUMPDEST PUSH1 0x40 MLOAD DUP1 SWAP2 SUB SWAP1 REVERT JUMPDEST PUSH1 0x4 PUSH0 SWAP1 SLOAD SWAP1 PUSH2 0x100 EXP SWAP1 DIV PUSH20 0xFFFFFFFFFFFFFFFFFFFFFFFFFFFFFFFFFFFFFFFF AND PUSH1 0x3 SLOAD SWAP2 POP SWAP2 POP SWAP1 SWAP2 JUMP JUMPDEST PUSH1 0x5 DUP2 JUMP JUMPDEST PUSH1 0x2 SLOAD TIMESTAMP LT DUP1 ISZERO PUSH2 0xE03 JUMPI POP PUSH1 0x4 PUSH1 0x14 SWAP1 SLOAD SWAP1 PUSH2 0x100 EXP SWAP1 DIV PUSH1 0xFF AND ISZERO JUMPDEST PUSH2 0xE42 JUMPI PUSH1 0x40 MLOAD PUSH32 0x8C379A000000000000000000000000000000000000000000000000000000000 DUP2 MSTORE PUSH1 0x4 ADD PUSH2 0xE39 SWAP1 PUSH2 0x1536 JUMP JUMPDEST PUSH1 0x40 MLOAD DUP1 SWAP2 SUB SWAP1 REVERT JUMPDEST PUSH0 PUSH1 0x5 PUSH0 CALLER PUSH20 0xFFFFFFFFFFFFFFFFFFFFFFFFFFFFFFFFFFFFFFFF AND PUSH20 0xFFFFFFFFFFFFFFFFFFFFFFFFFFFFFFFFFFFFFFFF AND DUP2 MSTORE PUSH1 0x20 ADD SWAP1 DUP2 MSTORE PUSH1 0x20 ADD PUSH0 KECCAK256 SLOAD SWAP1 POP PUSH0 PUSH1 0x6 PUSH0 CALLER PUSH20 0xFFFFFFFFFFFFFFFFFFFFFFFFFFFFFFFFFFFFFFFF AND PUSH20 0xFFFFFFFFFFFFFFFFFFFFFFFFFFFFFFFFFFFFFFFF AND DUP2 MSTORE PUSH1 0x20 ADD SWAP1 DUP2 MSTORE PUSH1 0x20 ADD PUSH0 KECCAK256 PUSH1 0x1 ADD SLOAD SWAP1 POP DUP1 DUP3 GT PUSH2 0xF09 JUMPI PUSH1 0x40 MLOAD PUSH32 0x8C379A000000000000000000000000000000000000000000000000000000000 DUP2 MSTORE PUSH1 0x4 ADD PUSH2 0xF00 SWAP1 PUSH2 0x19D6 JUMP JUMPDEST PUSH1 0x40 MLOAD DUP1 SWAP2 SUB SWAP1 REVERT JUMPDEST PUSH0 DUP2 DUP4 PUSH2 0xF16 SWAP2 SWAP1 PUSH2 0x16E0 JUMP JUMPDEST SWAP1 POP DUP2 PUSH1 0x5 PUSH0 CALLER PUSH20 0xFFFFFFFFFFFFFFFFFFFFFFFFFFFFFFFFFFFFFFFF AND PUSH20 0xFFFFFFFFFFFFFFFFFFFFFFFFFFFFFFFFFFFFFFFF AND DUP2 MSTORE PUSH1 0x20 ADD SWAP1 DUP2 MSTORE PUSH1 0x20 ADD PUSH0 KECCAK256 DUP2 SWAP1 SSTORE POP PUSH0 CALLER PUSH20 0xFFFFFFFFFFFFFFFFFFFFFFFFFFFFFFFFFFFFFFFF AND DUP3 PUSH1 0x40 MLOAD PUSH2 0xF7F SWAP1 PUSH2 0x18C4 JUMP JUMPDEST PUSH0 PUSH1 0x40 MLOAD DUP1 DUP4 SUB DUP2 DUP6 DUP8 GAS CALL SWAP3 POP POP POP RETURNDATASIZE DUP1 PUSH0 DUP2 EQ PUSH2 0xFB9 JUMPI PUSH1 0x40 MLOAD SWAP2 POP PUSH1 0x1F NOT PUSH1 0x3F RETURNDATASIZE ADD AND DUP3 ADD PUSH1 0x40 MSTORE RETURNDATASIZE DUP3 MSTORE RETURNDATASIZE PUSH0 PUSH1 0x20 DUP5 ADD RETURNDATACOPY PUSH2 0xFBE JUMP JUMPDEST PUSH1 0x60 SWAP2 POP JUMPDEST POP POP SWAP1 POP DUP1 PUSH2 0x1002 JUMPI PUSH1 0x40 MLOAD PUSH32 0x8C379A000000000000000000000000000000000000000000000000000000000 DUP2 MSTORE PUSH1 0x4 ADD PUSH2 0xFF9 SWAP1 PUSH2 0x1A3E JUMP JUMPDEST PUSH1 0x40 MLOAD DUP1 SWAP2 SUB SWAP1 REVERT JUMPDEST CALLER PUSH20 0xFFFFFFFFFFFFFFFFFFFFFFFFFFFFFFFFFFFFFFFF AND PUSH32 0x8468F8FA62FC679CF8165EAB7662A1FA977705B501DD787E9EC07884885425F1 DUP4 PUSH1 0x40 MLOAD PUSH2 0x1048 SWAP2 SWAP1 PUSH2 0x13FB JUMP JUMPDEST PUSH1 0x40 MLOAD DUP1 SWAP2 SUB SWAP1 LOG2 POP POP POP POP JUMP JUMPDEST PUSH1 0x3 SLOAD DUP2 JUMP JUMPDEST PUSH1 0x1 SLOAD DUP2 JUMP JUMPDEST PUSH1 0x5 PUSH1 0x20 MSTORE DUP1 PUSH0 MSTORE PUSH1 0x40 PUSH0 KECCAK256 PUSH0 SWAP2 POP SWAP1 POP SLOAD DUP2 JUMP JUMPDEST PUSH1 0x2 SLOAD TIMESTAMP LT ISZERO DUP1 ISZERO PUSH2 0x1096 JUMPI POP PUSH1 0x4 PUSH1 0x14 SWAP1 SLOAD SWAP1 PUSH2 0x100 EXP SWAP1 DIV PUSH1 0xFF AND ISZERO JUMPDEST PUSH2 0x10D5 JUMPI PUSH1 0x40 MLOAD PUSH32 0x8C379A000000000000000000000000000000000000000000000000000000000 DUP2 MSTORE PUSH1 0x4 ADD PUSH2 0x10CC SWAP1 PUSH2 0x1ACC JUMP JUMPDEST PUSH1 0x40 MLOAD DUP1 SWAP2 SUB SWAP1 REVERT JUMPDEST PUSH1 0x1 PUSH1 0x4 PUSH1 0x14 PUSH2 0x100 EXP DUP2 SLOAD DUP2 PUSH1 0xFF MUL NOT AND SWAP1 DUP4 ISZERO ISZERO MUL OR SWAP1 SSTORE POP PUSH32 0xDAEC4582D5D9595688C8C98545FDD1C696D41C6AEAEB636737E84ED2F5C00EDA PUSH1 0x4 PUSH0 SWAP1 SLOAD SWAP1 PUSH2 0x100 EXP SWAP1 DIV PUSH20 0xFFFFFFFFFFFFFFFFFFFFFFFFFFFFFFFFFFFFFFFF AND PUSH1 0x3 SLOAD PUSH1 0x40 MLOAD PUSH2 0x1144 SWAP3 SWAP2 SWAP1 PUSH2 0x13D4 JUMP JUMPDEST PUSH1 0x40 MLOAD DUP1 SWAP2 SUB SWAP1 LOG1 JUMP JUMPDEST PUSH0 DUP2 ISZERO ISZERO SWAP1 POP SWAP2 SWAP1 POP JUMP JUMPDEST PUSH2 0x1162 DUP2 PUSH2 0x114E JUMP JUMPDEST DUP3 MSTORE POP POP JUMP JUMPDEST PUSH0 PUSH1 0x20 DUP3 ADD SWAP1 POP PUSH2 0x117B PUSH0 DUP4 ADD DUP5 PUSH2 0x1159 JUMP JUMPDEST SWAP3 SWAP2 POP POP JUMP JUMPDEST PUSH0 DUP2 MLOAD SWAP1 POP SWAP2 SWAP1 POP JUMP JUMPDEST PUSH0 DUP3 DUP3 MSTORE PUSH1 0x20 DUP3 ADD SWAP1 POP SWAP3 SWAP2 POP POP JUMP JUMPDEST PUSH0 DUP2 SWAP1 POP PUSH1 0x20 DUP3 ADD SWAP1 POP SWAP2 SWAP1 POP JUMP JUMPDEST PUSH0 PUSH20 0xFFFFFFFFFFFFFFFFFFFFFFFFFFFFFFFFFFFFFFFF DUP3 AND SWAP1 POP SWAP2 SWAP1 POP JUMP JUMPDEST PUSH0 PUSH2 0x11D3 DUP3 PUSH2 0x11AA JUMP JUMPDEST SWAP1 POP SWAP2 SWAP1 POP JUMP JUMPDEST PUSH2 0x11E3 DUP2 PUSH2 0x11C9 JUMP JUMPDEST DUP3 MSTORE POP POP JUMP JUMPDEST PUSH0 PUSH2 0x11F4 DUP4 DUP4 PUSH2 0x11DA JUMP JUMPDEST PUSH1 0x20 DUP4 ADD SWAP1 POP SWAP3 SWAP2 POP POP JUMP JUMPDEST PUSH0 PUSH1 0x20 DUP3 ADD SWAP1 POP SWAP2 SWAP1 POP JUMP JUMPDEST PUSH0 PUSH2 0x1216 DUP3 PUSH2 0x1181 JUMP JUMPDEST PUSH2 0x1220 DUP2 DUP6 PUSH2 0x118B JUMP JUMPDEST SWAP4 POP PUSH2 0x122B DUP4 PUSH2 0x119B JUMP JUMPDEST DUP1 PUSH0 JUMPDEST DUP4 DUP2 LT ISZERO PUSH2 0x125B JUMPI DUP2 MLOAD PUSH2 0x1242 DUP9 DUP3 PUSH2 0x11E9 JUMP JUMPDEST SWAP8 POP PUSH2 0x124D DUP4 PUSH2 0x1200 JUMP JUMPDEST SWAP3 POP POP PUSH1 0x1 DUP2 ADD SWAP1 POP PUSH2 0x122E JUMP JUMPDEST POP DUP6 SWAP4 POP POP POP POP SWAP3 SWAP2 POP POP JUMP JUMPDEST PUSH0 DUP2 MLOAD SWAP1 POP SWAP2 SWAP1 POP JUMP JUMPDEST PUSH0 DUP3 DUP3 MSTORE PUSH1 0x20 DUP3 ADD SWAP1 POP SWAP3 SWAP2 POP POP JUMP JUMPDEST PUSH0 DUP2 SWAP1 POP PUSH1 0x20 DUP3 ADD SWAP1 POP SWAP2 SWAP1 POP JUMP JUMPDEST PUSH0 DUP2 SWAP1 POP SWAP2 SWAP1 POP JUMP JUMPDEST PUSH2 0x12A3 DUP2 PUSH2 0x1291 JUMP JUMPDEST DUP3 MSTORE POP POP JUMP JUMPDEST PUSH0 PUSH2 0x12B4 DUP4 DUP4 PUSH2 0x129A JUMP JUMPDEST PUSH1 0x20 DUP4 ADD SWAP1 POP SWAP3 SWAP2 POP POP JUMP JUMPDEST PUSH0 PUSH1 0x20 DUP3 ADD SWAP1 POP SWAP2 SWAP1 POP JUMP JUMPDEST PUSH0 PUSH2 0x12D6 DUP3 PUSH2 0x1268 JUMP JUMPDEST PUSH2 0x12E0 DUP2 DUP6 PUSH2 0x1272 JUMP JUMPDEST SWAP4 POP PUSH2 0x12EB DUP4 PUSH2 0x1282 JUMP JUMPDEST DUP1 PUSH0 JUMPDEST DUP4 DUP2 LT ISZERO PUSH2 0x131B JUMPI DUP2 MLOAD PUSH2 0x1302 DUP9 DUP3 PUSH2 0x12A9 JUMP JUMPDEST SWAP8 POP PUSH2 0x130D DUP4 PUSH2 0x12C0 JUMP JUMPDEST SWAP3 POP POP PUSH1 0x1 DUP2 ADD SWAP1 POP PUSH2 0x12EE JUMP JUMPDEST POP DUP6 SWAP4 POP POP POP POP SWAP3 SWAP2 POP POP JUMP JUMPDEST PUSH0 PUSH1 0x40 DUP3 ADD SWAP1 POP DUP2 DUP2 SUB PUSH0 DUP4 ADD MSTORE PUSH2 0x1340 DUP2 DUP6 PUSH2 0x120C JUMP JUMPDEST SWAP1 POP DUP2 DUP2 SUB PUSH1 0x20 DUP4 ADD MSTORE PUSH2 0x1354 DUP2 DUP5 PUSH2 0x12CC JUMP JUMPDEST SWAP1 POP SWAP4 SWAP3 POP POP POP JUMP JUMPDEST PUSH0 PUSH0 REVERT JUMPDEST PUSH2 0x136A DUP2 PUSH2 0x11C9 JUMP JUMPDEST DUP2 EQ PUSH2 0x1374 JUMPI PUSH0 PUSH0 REVERT JUMPDEST POP JUMP JUMPDEST PUSH0 DUP2 CALLDATALOAD SWAP1 POP PUSH2 0x1385 DUP2 PUSH2 0x1361 JUMP JUMPDEST SWAP3 SWAP2 POP POP JUMP JUMPDEST PUSH0 PUSH1 0x20 DUP3 DUP5 SUB SLT ISZERO PUSH2 0x13A0 JUMPI PUSH2 0x139F PUSH2 0x135D JUMP JUMPDEST JUMPDEST PUSH0 PUSH2 0x13AD DUP5 DUP3 DUP6 ADD PUSH2 0x1377 JUMP JUMPDEST SWAP2 POP POP SWAP3 SWAP2 POP POP JUMP JUMPDEST PUSH2 0x13BF DUP2 PUSH2 0x11C9 JUMP JUMPDEST DUP3 MSTORE POP POP JUMP JUMPDEST PUSH2 0x13CE DUP2 PUSH2 0x1291 JUMP JUMPDEST DUP3 MSTORE POP POP JUMP JUMPDEST PUSH0 PUSH1 0x40 DUP3 ADD SWAP1 POP PUSH2 0x13E7 PUSH0 DUP4 ADD DUP6 PUSH2 0x13B6 JUMP JUMPDEST PUSH2 0x13F4 PUSH1 0x20 DUP4 ADD DUP5 PUSH2 0x13C5 JUMP JUMPDEST SWAP4 SWAP3 POP POP POP JUMP JUMPDEST PUSH0 PUSH1 0x20 DUP3 ADD SWAP1 POP PUSH2 0x140E PUSH0 DUP4 ADD DUP5 PUSH2 0x13C5 JUMP JUMPDEST SWAP3 SWAP2 POP POP JUMP JUMPDEST PUSH0 PUSH1 0x20 DUP3 ADD SWAP1 POP PUSH2 0x1427 PUSH0 DUP4 ADD DUP5 PUSH2 0x13B6 JUMP JUMPDEST SWAP3 SWAP2 POP POP JUMP JUMPDEST PUSH2 0x1436 DUP2 PUSH2 0x1291 JUMP JUMPDEST DUP2 EQ PUSH2 0x1440 JUMPI PUSH0 PUSH0 REVERT JUMPDEST POP JUMP JUMPDEST PUSH0 DUP2 CALLDATALOAD SWAP1 POP PUSH2 0x1451 DUP2 PUSH2 0x142D JUMP JUMPDEST SWAP3 SWAP2 POP POP JUMP JUMPDEST PUSH0 PUSH1 0x20 DUP3 DUP5 SUB SLT ISZERO PUSH2 0x146C JUMPI PUSH2 0x146B PUSH2 0x135D JUMP JUMPDEST JUMPDEST PUSH0 PUSH2 0x1479 DUP5 DUP3 DUP6 ADD PUSH2 0x1443 JUMP JUMPDEST SWAP2 POP POP SWAP3 SWAP2 POP POP JUMP JUMPDEST PUSH32 0x4E487B7100000000000000000000000000000000000000000000000000000000 PUSH0 MSTORE PUSH1 0x41 PUSH1 0x4 MSTORE PUSH1 0x24 PUSH0 REVERT JUMPDEST PUSH32 0x4E487B7100000000000000000000000000000000000000000000000000000000 PUSH0 MSTORE PUSH1 0x32 PUSH1 0x4 MSTORE PUSH1 0x24 PUSH0 REVERT JUMPDEST PUSH0 DUP3 DUP3 MSTORE PUSH1 0x20 DUP3 ADD SWAP1 POP SWAP3 SWAP2 POP POP JUMP JUMPDEST PUSH32 0x4C612073756261737461206E6F2065737461206163746976612E000000000000 PUSH0 DUP3 ADD MSTORE POP JUMP JUMPDEST PUSH0 PUSH2 0x1520 PUSH1 0x1A DUP4 PUSH2 0x14DC JUMP JUMPDEST SWAP2 POP PUSH2 0x152B DUP3 PUSH2 0x14EC JUMP JUMPDEST PUSH1 0x20 DUP3 ADD SWAP1 POP SWAP2 SWAP1 POP JUMP JUMPDEST PUSH0 PUSH1 0x20 DUP3 ADD SWAP1 POP DUP2 DUP2 SUB PUSH0 DUP4 ADD MSTORE PUSH2 0x154D DUP2 PUSH2 0x1514 JUMP JUMPDEST SWAP1 POP SWAP2 SWAP1 POP JUMP JUMPDEST PUSH32 0x4E487B7100000000000000000000000000000000000000000000000000000000 PUSH0 MSTORE PUSH1 0x11 PUSH1 0x4 MSTORE PUSH1 0x24 PUSH0 REVERT JUMPDEST PUSH0 PUSH2 0x158B DUP3 PUSH2 0x1291 JUMP JUMPDEST SWAP2 POP PUSH2 0x1596 DUP4 PUSH2 0x1291 JUMP JUMPDEST SWAP3 POP DUP3 DUP3 MUL PUSH2 0x15A4 DUP2 PUSH2 0x1291 JUMP JUMPDEST SWAP2 POP DUP3 DUP3 DIV DUP5 EQ DUP4 ISZERO OR PUSH2 0x15BB JUMPI PUSH2 0x15BA PUSH2 0x1554 JUMP JUMPDEST JUMPDEST POP SWAP3 SWAP2 POP POP JUMP JUMPDEST PUSH32 0x4E487B7100000000000000000000000000000000000000000000000000000000 PUSH0 MSTORE PUSH1 0x12 PUSH1 0x4 MSTORE PUSH1 0x24 PUSH0 REVERT JUMPDEST PUSH0 PUSH2 0x15F9 DUP3 PUSH2 0x1291 JUMP JUMPDEST SWAP2 POP PUSH2 0x1604 DUP4 PUSH2 0x1291 JUMP JUMPDEST SWAP3 POP DUP3 PUSH2 0x1614 JUMPI PUSH2 0x1613 PUSH2 0x15C2 JUMP JUMPDEST JUMPDEST DUP3 DUP3 DIV SWAP1 POP SWAP3 SWAP2 POP POP JUMP JUMPDEST PUSH0 PUSH2 0x1629 DUP3 PUSH2 0x1291 JUMP JUMPDEST SWAP2 POP PUSH2 0x1634 DUP4 PUSH2 0x1291 JUMP JUMPDEST SWAP3 POP DUP3 DUP3 ADD SWAP1 POP DUP1 DUP3 GT ISZERO PUSH2 0x164C JUMPI PUSH2 0x164B PUSH2 0x1554 JUMP JUMPDEST JUMPDEST SWAP3 SWAP2 POP POP JUMP JUMPDEST PUSH32 0x4C61206F666572746120646562652073657220616C206D656E6F7320756E2035 PUSH0 DUP3 ADD MSTORE PUSH32 0x25206D61796F7220717565206C61206F66657274612061637475616C2E000000 PUSH1 0x20 DUP3 ADD MSTORE POP JUMP JUMPDEST PUSH0 PUSH2 0x16AC PUSH1 0x3D DUP4 PUSH2 0x14DC JUMP JUMPDEST SWAP2 POP PUSH2 0x16B7 DUP3 PUSH2 0x1652 JUMP JUMPDEST PUSH1 0x40 DUP3 ADD SWAP1 POP SWAP2 SWAP1 POP JUMP JUMPDEST PUSH0 PUSH1 0x20 DUP3 ADD SWAP1 POP DUP2 DUP2 SUB PUSH0 DUP4 ADD MSTORE PUSH2 0x16D9 DUP2 PUSH2 0x16A0 JUMP JUMPDEST SWAP1 POP SWAP2 SWAP1 POP JUMP JUMPDEST PUSH0 PUSH2 0x16EA DUP3 PUSH2 0x1291 JUMP JUMPDEST SWAP2 POP PUSH2 0x16F5 DUP4 PUSH2 0x1291 JUMP JUMPDEST SWAP3 POP DUP3 DUP3 SUB SWAP1 POP DUP2 DUP2 GT ISZERO PUSH2 0x170D JUMPI PUSH2 0x170C PUSH2 0x1554 JUMP JUMPDEST JUMPDEST SWAP3 SWAP2 POP POP JUMP JUMPDEST PUSH32 0x4C612073756261737461206E6F2068612066696E616C697A61646F2E00000000 PUSH0 DUP3 ADD MSTORE POP JUMP JUMPDEST PUSH0 PUSH2 0x1747 PUSH1 0x1C DUP4 PUSH2 0x14DC JUMP JUMPDEST SWAP2 POP PUSH2 0x1752 DUP3 PUSH2 0x1713 JUMP JUMPDEST PUSH1 0x20 DUP3 ADD SWAP1 POP SWAP2 SWAP1 POP JUMP JUMPDEST PUSH0 PUSH1 0x20 DUP3 ADD SWAP1 POP DUP2 DUP2 SUB PUSH0 DUP4 ADD MSTORE PUSH2 0x1774 DUP2 PUSH2 0x173B JUMP JUMPDEST SWAP1 POP SWAP2 SWAP1 POP JUMP JUMPDEST PUSH32 0x456C2067616E61646F72206E6F207075656465207265636C616D617220756E20 PUSH0 DUP3 ADD MSTORE PUSH32 0x6465706F7369746F206465207065726465646F722E0000000000000000000000 PUSH1 0x20 DUP3 ADD MSTORE POP JUMP JUMPDEST PUSH0 PUSH2 0x17D5 PUSH1 0x35 DUP4 PUSH2 0x14DC JUMP JUMPDEST SWAP2 POP PUSH2 0x17E0 DUP3 PUSH2 0x177B JUMP JUMPDEST PUSH1 0x40 DUP3 ADD SWAP1 POP SWAP2 SWAP1 POP JUMP JUMPDEST PUSH0 PUSH1 0x20 DUP3 ADD SWAP1 POP DUP2 DUP2 SUB PUSH0 DUP4 ADD MSTORE PUSH2 0x1802 DUP2 PUSH2 0x17C9 JUMP JUMPDEST SWAP1 POP SWAP2 SWAP1 POP JUMP JUMPDEST PUSH32 0x4E6F207469656E6573206465706F7369746F732070617261207265636C616D61 PUSH0 DUP3 ADD MSTORE PUSH32 0x722E000000000000000000000000000000000000000000000000000000000000 PUSH1 0x20 DUP3 ADD MSTORE POP JUMP JUMPDEST PUSH0 PUSH2 0x1863 PUSH1 0x22 DUP4 PUSH2 0x14DC JUMP JUMPDEST SWAP2 POP PUSH2 0x186E DUP3 PUSH2 0x1809 JUMP JUMPDEST PUSH1 0x40 DUP3 ADD SWAP1 POP SWAP2 SWAP1 POP JUMP JUMPDEST PUSH0 PUSH1 0x20 DUP3 ADD SWAP1 POP DUP2 DUP2 SUB PUSH0 DUP4 ADD MSTORE PUSH2 0x1890 DUP2 PUSH2 0x1857 JUMP JUMPDEST SWAP1 POP SWAP2 SWAP1 POP JUMP JUMPDEST PUSH0 DUP2 SWAP1 POP SWAP3 SWAP2 POP POP JUMP JUMPDEST POP JUMP JUMPDEST PUSH0 PUSH2 0x18AF PUSH0 DUP4 PUSH2 0x1897 JUMP JUMPDEST SWAP2 POP PUSH2 0x18BA DUP3 PUSH2 0x18A1 JUMP JUMPDEST PUSH0 DUP3 ADD SWAP1 POP SWAP2 SWAP1 POP JUMP JUMPDEST PUSH0 PUSH2 0x18CE DUP3 PUSH2 0x18A4 JUMP JUMPDEST SWAP2 POP DUP2 SWAP1 POP SWAP2 SWAP1 POP JUMP JUMPDEST PUSH32 0x46616C6C6F206C61207472616E73666572656E6369612064656C207265656D62 PUSH0 DUP3 ADD MSTORE PUSH32 0x6F6C736F2E000000000000000000000000000000000000000000000000000000 PUSH1 0x20 DUP3 ADD MSTORE POP JUMP JUMPDEST PUSH0 PUSH2 0x1932 PUSH1 0x25 DUP4 PUSH2 0x14DC JUMP JUMPDEST SWAP2 POP PUSH2 0x193D DUP3 PUSH2 0x18D8 JUMP JUMPDEST PUSH1 0x40 DUP3 ADD SWAP1 POP SWAP2 SWAP1 POP JUMP JUMPDEST PUSH0 PUSH1 0x20 DUP3 ADD SWAP1 POP DUP2 DUP2 SUB PUSH0 DUP4 ADD MSTORE PUSH2 0x195F DUP2 PUSH2 0x1926 JUMP JUMPDEST SWAP1 POP SWAP2 SWAP1 POP JUMP JUMPDEST PUSH32 0x4E6F20686179206D6F6E746F206578636564656E746520706172612072657469 PUSH0 DUP3 ADD MSTORE PUSH32 0x7261722E00000000000000000000000000000000000000000000000000000000 PUSH1 0x20 DUP3 ADD MSTORE POP JUMP JUMPDEST PUSH0 PUSH2 0x19C0 PUSH1 0x24 DUP4 PUSH2 0x14DC JUMP JUMPDEST SWAP2 POP PUSH2 0x19CB DUP3 PUSH2 0x1966 JUMP JUMPDEST PUSH1 0x40 DUP3 ADD SWAP1 POP SWAP2 SWAP1 POP JUMP JUMPDEST PUSH0 PUSH1 0x20 DUP3 ADD SWAP1 POP DUP2 DUP2 SUB PUSH0 DUP4 ADD MSTORE PUSH2 0x19ED DUP2 PUSH2 0x19B4 JUMP JUMPDEST SWAP1 POP SWAP2 SWAP1 POP JUMP JUMPDEST PUSH32 0x46616C6C6F20656C2072657469726F207061726369616C2E0000000000000000 PUSH0 DUP3 ADD MSTORE POP JUMP JUMPDEST PUSH0 PUSH2 0x1A28 PUSH1 0x18 DUP4 PUSH2 0x14DC JUMP JUMPDEST SWAP2 POP PUSH2 0x1A33 DUP3 PUSH2 0x19F4 JUMP JUMPDEST PUSH1 0x20 DUP3 ADD SWAP1 POP SWAP2 SWAP1 POP JUMP JUMPDEST PUSH0 PUSH1 0x20 DUP3 ADD SWAP1 POP DUP2 DUP2 SUB PUSH0 DUP4 ADD MSTORE PUSH2 0x1A55 DUP2 PUSH2 0x1A1C JUMP JUMPDEST SWAP1 POP SWAP2 SWAP1 POP JUMP JUMPDEST PUSH32 0x4C612073756261737461206E6F2070756564652066696E616C697A6172736520 PUSH0 DUP3 ADD MSTORE PUSH32 0x6F2079612068612066696E616C697A61646F2E00000000000000000000000000 PUSH1 0x20 DUP3 ADD MSTORE POP JUMP JUMPDEST PUSH0 PUSH2 0x1AB6 PUSH1 0x33 DUP4 PUSH2 0x14DC JUMP JUMPDEST SWAP2 POP PUSH2 0x1AC1 DUP3 PUSH2 0x1A5C JUMP JUMPDEST PUSH1 0x40 DUP3 ADD SWAP1 POP SWAP2 SWAP1 POP JUMP JUMPDEST PUSH0 PUSH1 0x20 DUP3 ADD SWAP1 POP DUP2 DUP2 SUB PUSH0 DUP4 ADD MSTORE PUSH2 0x1AE3 DUP2 PUSH2 0x1AAA JUMP JUMPDEST SWAP1 POP SWAP2 SWAP1 POP JUMP INVALID LOG2 PUSH5 0x6970667358 0x22 SLT KECCAK256 LOG1 0xCA 0xB8 0x1F 0xAA DELEGATECALL SAR EXTCODEHASH 0xAB 0xC4 PUSH31 0x72AA135C94EC20886CBB3A2A5265767B89DB661A964736F6C634300081E00 CALLER "
				},
				"gasEstimates": {
					"creation": {
						"codeDepositCost": "1388800",
						"executionCost": "infinite",
						"totalCost": "infinite"
					},
					"external": {
						"EXTENSION_TIME()": "392",
						"GAS_COMMISSION_PERCENT()": "370",
						"MIN_BID_INCREMENT_PERCENT()": "414",
						"allBidders(uint256)": "4967",
						"auctionEndTime()": "2470",
						"auctionStartTime()": "2491",
						"bid()": "infinite",
						"deposits(address)": "2890",
						"endAuction()": "34738",
						"ended()": "2541",
						"highestBid()": "2469",
						"highestBidder()": "2619",
						"lastBids(address)": "infinite",
						"owner()": "2596",
						"partialWithdrawal()": "infinite",
						"returnDeposits()": "infinite",
						"showBids()": "infinite",
						"showWinner()": "9127"
					}
				},
				"methodIdentifiers": {
					"EXTENSION_TIME()": "5681104a",
					"GAS_COMMISSION_PERCENT()": "b033e086",
					"MIN_BID_INCREMENT_PERCENT()": "bc996819",
					"allBidders(uint256)": "a013781b",
					"auctionEndTime()": "4b449cba",
					"auctionStartTime()": "eb54f9ec",
					"bid()": "1998aeef",
					"deposits(address)": "fc7e286d",
					"endAuction()": "fe67a54b",
					"ended()": "12fa6feb",
					"highestBid()": "d57bde79",
					"highestBidder()": "91f90157",
					"lastBids(address)": "46e053a0",
					"owner()": "8da5cb5b",
					"partialWithdrawal()": "c30aca9a",
					"returnDeposits()": "362e2565",
					"showBids()": "14d2687c",
					"showWinner()": "b7e03264"
				}
			},
			"storageLayout": {
				"storage": [
					{
						"astId": 3,
						"contract": "Auction.sol:Auction",
						"label": "owner",
						"offset": 0,
						"slot": "0",
						"type": "t_address"
					},
					{
						"astId": 5,
						"contract": "Auction.sol:Auction",
						"label": "auctionStartTime",
						"offset": 0,
						"slot": "1",
						"type": "t_uint256"
					},
					{
						"astId": 7,
						"contract": "Auction.sol:Auction",
						"label": "auctionEndTime",
						"offset": 0,
						"slot": "2",
						"type": "t_uint256"
					},
					{
						"astId": 9,
						"contract": "Auction.sol:Auction",
						"label": "highestBid",
						"offset": 0,
						"slot": "3",
						"type": "t_uint256"
					},
					{
						"astId": 11,
						"contract": "Auction.sol:Auction",
						"label": "highestBidder",
						"offset": 0,
						"slot": "4",
						"type": "t_address"
					},
					{
						"astId": 13,
						"contract": "Auction.sol:Auction",
						"label": "ended",
						"offset": 20,
						"slot": "4",
						"type": "t_bool"
					},
					{
						"astId": 17,
						"contract": "Auction.sol:Auction",
						"label": "deposits",
						"offset": 0,
						"slot": "5",
						"type": "t_mapping(t_address,t_uint256)"
					},
					{
						"astId": 27,
						"contract": "Auction.sol:Auction",
						"label": "lastBids",
						"offset": 0,
						"slot": "6",
						"type": "t_mapping(t_address,t_struct(Bid)22_storage)"
					},
					{
						"astId": 30,
						"contract": "Auction.sol:Auction",
						"label": "allBidders",
						"offset": 0,
						"slot": "7",
						"type": "t_array(t_address)dyn_storage"
					},
					{
						"astId": 34,
						"contract": "Auction.sol:Auction",
						"label": "hasBidder",
						"offset": 0,
						"slot": "8",
						"type": "t_mapping(t_address,t_bool)"
					}
				],
				"types": {
					"t_address": {
						"encoding": "inplace",
						"label": "address",
						"numberOfBytes": "20"
					},
					"t_array(t_address)dyn_storage": {
						"base": "t_address",
						"encoding": "dynamic_array",
						"label": "address[]",
						"numberOfBytes": "32"
					},
					"t_bool": {
						"encoding": "inplace",
						"label": "bool",
						"numberOfBytes": "1"
					},
					"t_mapping(t_address,t_bool)": {
						"encoding": "mapping",
						"key": "t_address",
						"label": "mapping(address => bool)",
						"numberOfBytes": "32",
						"value": "t_bool"
					},
					"t_mapping(t_address,t_struct(Bid)22_storage)": {
						"encoding": "mapping",
						"key": "t_address",
						"label": "mapping(address => struct Auction.Bid)",
						"numberOfBytes": "32",
						"value": "t_struct(Bid)22_storage"
					},
					"t_mapping(t_address,t_uint256)": {
						"encoding": "mapping",
						"key": "t_address",
						"label": "mapping(address => uint256)",
						"numberOfBytes": "32",
						"value": "t_uint256"
					},
					"t_struct(Bid)22_storage": {
						"encoding": "inplace",
						"label": "struct Auction.Bid",
						"members": [
							{
								"astId": 19,
								"contract": "Auction.sol:Auction",
								"label": "bidder",
								"offset": 0,
								"slot": "0",
								"type": "t_address"
							},
							{
								"astId": 21,
								"contract": "Auction.sol:Auction",
								"label": "amount",
								"offset": 0,
								"slot": "1",
								"type": "t_uint256"
							}
						],
						"numberOfBytes": "64"
					},
					"t_uint256": {
						"encoding": "inplace",
						"label": "uint256",
						"numberOfBytes": "32"
					}
				}
			},
			"userdoc": {
				"kind": "user",
				"methods": {},
				"version": 1
			}
		}
	}
}