{
	"AuctionWlady4.sol": {
		"Auction": {
			"abi": [
				{
					"inputs": [
						{
							"internalType": "uint256",
							"name": "_durationInMinutes",
							"type": "uint256"
						}
					],
					"stateMutability": "nonpayable",
					"type": "constructor"
				},
				{
					"anonymous": false,
					"inputs": [
						{
							"indexed": false,
							"internalType": "address",
							"name": "winner",
							"type": "address"
						},
						{
							"indexed": false,
							"internalType": "uint256",
							"name": "winningBid",
							"type": "uint256"
						}
					],
					"name": "AuctionEnded",
					"type": "event"
				},
				{
					"anonymous": false,
					"inputs": [
						{
							"indexed": false,
							"internalType": "uint256",
							"name": "newEndTime",
							"type": "uint256"
						}
					],
					"name": "AuctionExtended",
					"type": "event"
				},
				{
					"anonymous": false,
					"inputs": [
						{
							"indexed": true,
							"internalType": "address",
							"name": "to",
							"type": "address"
						},
						{
							"indexed": false,
							"internalType": "uint256",
							"name": "amount",
							"type": "uint256"
						}
					],
					"name": "FundsTransferred",
					"type": "event"
				},
				{
					"anonymous": false,
					"inputs": [
						{
							"indexed": true,
							"internalType": "address",
							"name": "bidder",
							"type": "address"
						},
						{
							"indexed": false,
							"internalType": "uint256",
							"name": "amount",
							"type": "uint256"
						}
					],
					"name": "NewBid",
					"type": "event"
				},
				{
					"anonymous": false,
					"inputs": [
						{
							"indexed": true,
							"internalType": "address",
							"name": "bidder",
							"type": "address"
						},
						{
							"indexed": false,
							"internalType": "uint256",
							"name": "amount",
							"type": "uint256"
						}
					],
					"name": "PartialWithdrawal",
					"type": "event"
				},
				{
					"inputs": [],
					"name": "EXTENSION_TIME",
					"outputs": [
						{
							"internalType": "uint256",
							"name": "",
							"type": "uint256"
						}
					],
					"stateMutability": "view",
					"type": "function"
				},
				{
					"inputs": [],
					"name": "MIN_BID_INCREMENT_PERCENT",
					"outputs": [
						{
							"internalType": "uint256",
							"name": "",
							"type": "uint256"
						}
					],
					"stateMutability": "view",
					"type": "function"
				},
				{
					"inputs": [],
					"name": "OWNER_COMMISSION_PERCENT",
					"outputs": [
						{
							"internalType": "uint256",
							"name": "",
							"type": "uint256"
						}
					],
					"stateMutability": "view",
					"type": "function"
				},
				{
					"inputs": [
						{
							"internalType": "uint256",
							"name": "",
							"type": "uint256"
						}
					],
					"name": "allBidders",
					"outputs": [
						{
							"internalType": "address",
							"name": "",
							"type": "address"
						}
					],
					"stateMutability": "view",
					"type": "function"
				},
				{
					"inputs": [],
					"name": "auctionEndTime",
					"outputs": [
						{
							"internalType": "uint256",
							"name": "",
							"type": "uint256"
						}
					],
					"stateMutability": "view",
					"type": "function"
				},
				{
					"inputs": [],
					"name": "auctionStartTime",
					"outputs": [
						{
							"internalType": "uint256",
							"name": "",
							"type": "uint256"
						}
					],
					"stateMutability": "view",
					"type": "function"
				},
				{
					"inputs": [],
					"name": "bid",
					"outputs": [],
					"stateMutability": "payable",
					"type": "function"
				},
				{
					"inputs": [
						{
							"internalType": "address",
							"name": "",
							"type": "address"
						}
					],
					"name": "deposits",
					"outputs": [
						{
							"internalType": "uint256",
							"name": "",
							"type": "uint256"
						}
					],
					"stateMutability": "view",
					"type": "function"
				},
				{
					"inputs": [],
					"name": "endAuction",
					"outputs": [],
					"stateMutability": "nonpayable",
					"type": "function"
				},
				{
					"inputs": [],
					"name": "ended",
					"outputs": [
						{
							"internalType": "bool",
							"name": "",
							"type": "bool"
						}
					],
					"stateMutability": "view",
					"type": "function"
				},
				{
					"inputs": [],
					"name": "highestBid",
					"outputs": [
						{
							"internalType": "uint256",
							"name": "",
							"type": "uint256"
						}
					],
					"stateMutability": "view",
					"type": "function"
				},
				{
					"inputs": [],
					"name": "highestBidder",
					"outputs": [
						{
							"internalType": "address",
							"name": "",
							"type": "address"
						}
					],
					"stateMutability": "view",
					"type": "function"
				},
				{
					"inputs": [
						{
							"internalType": "address",
							"name": "",
							"type": "address"
						}
					],
					"name": "lastBids",
					"outputs": [
						{
							"internalType": "address",
							"name": "bidder",
							"type": "address"
						},
						{
							"internalType": "uint256",
							"name": "amount",
							"type": "uint256"
						}
					],
					"stateMutability": "view",
					"type": "function"
				},
				{
					"inputs": [],
					"name": "owner",
					"outputs": [
						{
							"internalType": "address",
							"name": "",
							"type": "address"
						}
					],
					"stateMutability": "view",
					"type": "function"
				},
				{
					"inputs": [],
					"name": "partialWithdrawal",
					"outputs": [],
					"stateMutability": "nonpayable",
					"type": "function"
				},
				{
					"inputs": [],
					"name": "returnDeposits",
					"outputs": [],
					"stateMutability": "nonpayable",
					"type": "function"
				},
				{
					"inputs": [],
					"name": "showBids",
					"outputs": [
						{
							"internalType": "address[]",
							"name": "bidders",
							"type": "address[]"
						},
						{
							"internalType": "uint256[]",
							"name": "amounts",
							"type": "uint256[]"
						}
					],
					"stateMutability": "view",
					"type": "function"
				},
				{
					"inputs": [],
					"name": "showWinner",
					"outputs": [
						{
							"internalType": "address",
							"name": "winner",
							"type": "address"
						},
						{
							"internalType": "uint256",
							"name": "winningBid",
							"type": "uint256"
						}
					],
					"stateMutability": "view",
					"type": "function"
				}
			],
			"devdoc": {
				"kind": "dev",
				"methods": {
					"bid()": {
						"details": "Allows a participant to place a bid. The Ether amount is sent with the transaction (msg.value). A bid must be at least 5% higher than the current highest bid. Extends the auction deadline if the bid is placed in the last 10 minutes."
					},
					"constructor": {
						"details": "Initializes the auction with the necessary parameters.",
						"params": {
							"_durationInMinutes": "The duration of the auction in minutes."
						}
					},
					"endAuction()": {
						"details": "Marks the auction as ended if the time has expired. Anyone can call this function to end the auction."
					},
					"partialWithdrawal()": {
						"details": "Allows participants to withdraw the amount exceeding their last valid bid during the auction. Can only be called while the auction is active."
					},
					"returnDeposits()": {
						"details": "Allows the owner to process refunds for non-winning bidders and claim the winning bid. Can only be called by the owner after the auction has ended."
					},
					"showBids()": {
						"details": "Shows the list of bidders and their respective last offered amounts.",
						"returns": {
							"amounts": "Array of the last offered amounts by each bidder.",
							"bidders": "Array of bidder addresses."
						}
					},
					"showWinner()": {
						"details": "Shows the address of the winning bidder and the winning bid amount. Can only be called once the auction has ended.",
						"returns": {
							"winner": "The address of the winning bidder.",
							"winningBid": "The amount of the winning bid."
						}
					}
				},
				"version": 1
			},
			"evm": {
				"assembly": "    /* \"AuctionWlady4.sol\":211:9328  contract Auction {... */\n  mstore(0x40, 0x80)\n    /* \"AuctionWlady4.sol\":1781:2067  constructor(uint256 _durationInMinutes) {... */\n  callvalue\n  dup1\n  iszero\n  tag_1\n  jumpi\n  revert(0x00, 0x00)\ntag_1:\n  pop\n  mload(0x40)\n  sub(codesize, bytecodeSize)\n  dup1\n  bytecodeSize\n  dup4\n  codecopy\n  dup2\n  dup2\n  add\n  0x40\n  mstore\n  dup2\n  add\n  swap1\n  tag_2\n  swap2\n  swap1\n  tag_3\n  jump\t// in\ntag_2:\n    /* \"AuctionWlady4.sol\":1840:1850  msg.sender */\n  caller\n    /* \"AuctionWlady4.sol\":1832:1837  owner */\n  0x00\n  0x00\n    /* \"AuctionWlady4.sol\":1832:1850  owner = msg.sender */\n  0x0100\n  exp\n  dup2\n  sload\n  dup2\n  0xffffffffffffffffffffffffffffffffffffffff\n  mul\n  not\n  and\n  swap1\n  dup4\n  0xffffffffffffffffffffffffffffffffffffffff\n  and\n  mul\n  or\n  swap1\n  sstore\n  pop\n    /* \"AuctionWlady4.sol\":1880:1895  block.timestamp */\n  timestamp\n    /* \"AuctionWlady4.sol\":1861:1877  auctionStartTime */\n  0x01\n    /* \"AuctionWlady4.sol\":1861:1895  auctionStartTime = block.timestamp */\n  dup2\n  swap1\n  sstore\n  pop\n    /* \"AuctionWlady4.sol\":1963:1972  1 minutes */\n  0x3c\n    /* \"AuctionWlady4.sol\":1942:1960  _durationInMinutes */\n  dup2\n    /* \"AuctionWlady4.sol\":1942:1972  _durationInMinutes * 1 minutes */\n  tag_6\n  swap2\n  swap1\n  tag_7\n  jump\t// in\ntag_6:\n    /* \"AuctionWlady4.sol\":1923:1938  block.timestamp */\n  timestamp\n    /* \"AuctionWlady4.sol\":1923:1973  block.timestamp + (_durationInMinutes * 1 minutes) */\n  tag_8\n  swap2\n  swap1\n  tag_9\n  jump\t// in\ntag_8:\n    /* \"AuctionWlady4.sol\":1906:1920  auctionEndTime */\n  0x02\n    /* \"AuctionWlady4.sol\":1906:1973  auctionEndTime = block.timestamp + (_durationInMinutes * 1 minutes) */\n  dup2\n  swap1\n  sstore\n  pop\n    /* \"AuctionWlady4.sol\":1997:1998  0 */\n  0x00\n    /* \"AuctionWlady4.sol\":1984:1994  highestBid */\n  0x03\n    /* \"AuctionWlady4.sol\":1984:1998  highestBid = 0 */\n  dup2\n  swap1\n  sstore\n  pop\n    /* \"AuctionWlady4.sol\":2033:2034  0 */\n  0x00\n    /* \"AuctionWlady4.sol\":2009:2022  highestBidder */\n  0x04\n  0x00\n    /* \"AuctionWlady4.sol\":2009:2035  highestBidder = address(0) */\n  0x0100\n  exp\n  dup2\n  sload\n  dup2\n  0xffffffffffffffffffffffffffffffffffffffff\n  mul\n  not\n  and\n  swap1\n  dup4\n  0xffffffffffffffffffffffffffffffffffffffff\n  and\n  mul\n  or\n  swap1\n  sstore\n  pop\n    /* \"AuctionWlady4.sol\":2054:2059  false */\n  0x00\n    /* \"AuctionWlady4.sol\":2046:2051  ended */\n  0x04\n  0x14\n    /* \"AuctionWlady4.sol\":2046:2059  ended = false */\n  0x0100\n  exp\n  dup2\n  sload\n  dup2\n  0xff\n  mul\n  not\n  and\n  swap1\n  dup4\n  iszero\n  iszero\n  mul\n  or\n  swap1\n  sstore\n  pop\n    /* \"AuctionWlady4.sol\":1781:2067  constructor(uint256 _durationInMinutes) {... */\n  pop\n    /* \"AuctionWlady4.sol\":211:9328  contract Auction {... */\n  jump(tag_10)\n    /* \"#utility.yul\":88:205   */\ntag_12:\n    /* \"#utility.yul\":197:198   */\n  0x00\n    /* \"#utility.yul\":194:195   */\n  0x00\n    /* \"#utility.yul\":187:199   */\n  revert\n    /* \"#utility.yul\":334:411   */\ntag_14:\n    /* \"#utility.yul\":371:378   */\n  0x00\n    /* \"#utility.yul\":400:405   */\n  dup2\n    /* \"#utility.yul\":389:405   */\n  swap1\n  pop\n    /* \"#utility.yul\":334:411   */\n  swap2\n  swap1\n  pop\n  jump\t// out\n    /* \"#utility.yul\":417:539   */\ntag_15:\n    /* \"#utility.yul\":490:514   */\n  tag_24\n    /* \"#utility.yul\":508:513   */\n  dup2\n    /* \"#utility.yul\":490:514   */\n  tag_14\n  jump\t// in\ntag_24:\n    /* \"#utility.yul\":483:488   */\n  dup2\n    /* \"#utility.yul\":480:515   */\n  eq\n    /* \"#utility.yul\":470:533   */\n  tag_25\n  jumpi\n    /* \"#utility.yul\":529:530   */\n  0x00\n    /* \"#utility.yul\":526:527   */\n  0x00\n    /* \"#utility.yul\":519:531   */\n  revert\n    /* \"#utility.yul\":470:533   */\ntag_25:\n    /* \"#utility.yul\":417:539   */\n  pop\n  jump\t// out\n    /* \"#utility.yul\":545:688   */\ntag_16:\n    /* \"#utility.yul\":602:607   */\n  0x00\n    /* \"#utility.yul\":633:639   */\n  dup2\n    /* \"#utility.yul\":627:640   */\n  mload\n    /* \"#utility.yul\":618:640   */\n  swap1\n  pop\n    /* \"#utility.yul\":649:682   */\n  tag_27\n    /* \"#utility.yul\":676:681   */\n  dup2\n    /* \"#utility.yul\":649:682   */\n  tag_15\n  jump\t// in\ntag_27:\n    /* \"#utility.yul\":545:688   */\n  swap3\n  swap2\n  pop\n  pop\n  jump\t// out\n    /* \"#utility.yul\":694:1045   */\ntag_3:\n    /* \"#utility.yul\":764:770   */\n  0x00\n    /* \"#utility.yul\":813:815   */\n  0x20\n    /* \"#utility.yul\":801:810   */\n  dup3\n    /* \"#utility.yul\":792:799   */\n  dup5\n    /* \"#utility.yul\":788:811   */\n  sub\n    /* \"#utility.yul\":784:816   */\n  slt\n    /* \"#utility.yul\":781:900   */\n  iszero\n  tag_29\n  jumpi\n    /* \"#utility.yul\":819:898   */\n  tag_30\n  tag_12\n  jump\t// in\ntag_30:\n    /* \"#utility.yul\":781:900   */\ntag_29:\n    /* \"#utility.yul\":939:940   */\n  0x00\n    /* \"#utility.yul\":964:1028   */\n  tag_31\n    /* \"#utility.yul\":1020:1027   */\n  dup5\n    /* \"#utility.yul\":1011:1017   */\n  dup3\n    /* \"#utility.yul\":1000:1009   */\n  dup6\n    /* \"#utility.yul\":996:1018   */\n  add\n    /* \"#utility.yul\":964:1028   */\n  tag_16\n  jump\t// in\ntag_31:\n    /* \"#utility.yul\":954:1028   */\n  swap2\n  pop\n    /* \"#utility.yul\":910:1038   */\n  pop\n    /* \"#utility.yul\":694:1045   */\n  swap3\n  swap2\n  pop\n  pop\n  jump\t// out\n    /* \"#utility.yul\":1051:1231   */\ntag_17:\n    /* \"#utility.yul\":1099:1176   */\n  0x4e487b7100000000000000000000000000000000000000000000000000000000\n    /* \"#utility.yul\":1096:1097   */\n  0x00\n    /* \"#utility.yul\":1089:1177   */\n  mstore\n    /* \"#utility.yul\":1196:1200   */\n  0x11\n    /* \"#utility.yul\":1193:1194   */\n  0x04\n    /* \"#utility.yul\":1186:1201   */\n  mstore\n    /* \"#utility.yul\":1220:1224   */\n  0x24\n    /* \"#utility.yul\":1217:1218   */\n  0x00\n    /* \"#utility.yul\":1210:1225   */\n  revert\n    /* \"#utility.yul\":1237:1647   */\ntag_7:\n    /* \"#utility.yul\":1277:1284   */\n  0x00\n    /* \"#utility.yul\":1300:1320   */\n  tag_34\n    /* \"#utility.yul\":1318:1319   */\n  dup3\n    /* \"#utility.yul\":1300:1320   */\n  tag_14\n  jump\t// in\ntag_34:\n    /* \"#utility.yul\":1295:1320   */\n  swap2\n  pop\n    /* \"#utility.yul\":1334:1354   */\n  tag_35\n    /* \"#utility.yul\":1352:1353   */\n  dup4\n    /* \"#utility.yul\":1334:1354   */\n  tag_14\n  jump\t// in\ntag_35:\n    /* \"#utility.yul\":1329:1354   */\n  swap3\n  pop\n    /* \"#utility.yul\":1389:1390   */\n  dup3\n    /* \"#utility.yul\":1386:1387   */\n  dup3\n    /* \"#utility.yul\":1382:1391   */\n  mul\n    /* \"#utility.yul\":1411:1441   */\n  tag_36\n    /* \"#utility.yul\":1429:1440   */\n  dup2\n    /* \"#utility.yul\":1411:1441   */\n  tag_14\n  jump\t// in\ntag_36:\n    /* \"#utility.yul\":1400:1441   */\n  swap2\n  pop\n    /* \"#utility.yul\":1590:1591   */\n  dup3\n    /* \"#utility.yul\":1581:1588   */\n  dup3\n    /* \"#utility.yul\":1577:1592   */\n  div\n    /* \"#utility.yul\":1574:1575   */\n  dup5\n    /* \"#utility.yul\":1571:1593   */\n  eq\n    /* \"#utility.yul\":1551:1552   */\n  dup4\n    /* \"#utility.yul\":1544:1553   */\n  iszero\n    /* \"#utility.yul\":1524:1607   */\n  or\n    /* \"#utility.yul\":1501:1640   */\n  tag_37\n  jumpi\n    /* \"#utility.yul\":1620:1638   */\n  tag_38\n  tag_17\n  jump\t// in\ntag_38:\n    /* \"#utility.yul\":1501:1640   */\ntag_37:\n    /* \"#utility.yul\":1285:1647   */\n  pop\n    /* \"#utility.yul\":1237:1647   */\n  swap3\n  swap2\n  pop\n  pop\n  jump\t// out\n    /* \"#utility.yul\":1653:1844   */\ntag_9:\n    /* \"#utility.yul\":1693:1696   */\n  0x00\n    /* \"#utility.yul\":1712:1732   */\n  tag_40\n    /* \"#utility.yul\":1730:1731   */\n  dup3\n    /* \"#utility.yul\":1712:1732   */\n  tag_14\n  jump\t// in\ntag_40:\n    /* \"#utility.yul\":1707:1732   */\n  swap2\n  pop\n    /* \"#utility.yul\":1746:1766   */\n  tag_41\n    /* \"#utility.yul\":1764:1765   */\n  dup4\n    /* \"#utility.yul\":1746:1766   */\n  tag_14\n  jump\t// in\ntag_41:\n    /* \"#utility.yul\":1741:1766   */\n  swap3\n  pop\n    /* \"#utility.yul\":1789:1790   */\n  dup3\n    /* \"#utility.yul\":1786:1787   */\n  dup3\n    /* \"#utility.yul\":1782:1791   */\n  add\n    /* \"#utility.yul\":1775:1791   */\n  swap1\n  pop\n    /* \"#utility.yul\":1810:1813   */\n  dup1\n    /* \"#utility.yul\":1807:1808   */\n  dup3\n    /* \"#utility.yul\":1804:1814   */\n  gt\n    /* \"#utility.yul\":1801:1837   */\n  iszero\n  tag_42\n  jumpi\n    /* \"#utility.yul\":1817:1835   */\n  tag_43\n  tag_17\n  jump\t// in\ntag_43:\n    /* \"#utility.yul\":1801:1837   */\ntag_42:\n    /* \"#utility.yul\":1653:1844   */\n  swap3\n  swap2\n  pop\n  pop\n  jump\t// out\n    /* \"AuctionWlady4.sol\":211:9328  contract Auction {... */\ntag_10:\n  dataSize(sub_0)\n  dup1\n  dataOffset(sub_0)\n  0x00\n  codecopy\n  0x00\n  return\nstop\n\nsub_0: assembly {\n        /* \"AuctionWlady4.sol\":211:9328  contract Auction {... */\n      mstore(0x40, 0x80)\n      jumpi(tag_1, lt(calldatasize, 0x04))\n      shr(0xe0, calldataload(0x00))\n      dup1\n      0x91f90157\n      gt\n      tag_20\n      jumpi\n      dup1\n      0xc30aca9a\n      gt\n      tag_21\n      jumpi\n      dup1\n      0xc30aca9a\n      eq\n      tag_15\n      jumpi\n      dup1\n      0xd57bde79\n      eq\n      tag_16\n      jumpi\n      dup1\n      0xeb54f9ec\n      eq\n      tag_17\n      jumpi\n      dup1\n      0xfc7e286d\n      eq\n      tag_18\n      jumpi\n      dup1\n      0xfe67a54b\n      eq\n      tag_19\n      jumpi\n      jump(tag_1)\n    tag_21:\n      dup1\n      0x91f90157\n      eq\n      tag_11\n      jumpi\n      dup1\n      0xa013781b\n      eq\n      tag_12\n      jumpi\n      dup1\n      0xb7e03264\n      eq\n      tag_13\n      jumpi\n      dup1\n      0xbc996819\n      eq\n      tag_14\n      jumpi\n      jump(tag_1)\n    tag_20:\n      dup1\n      0x362e2565\n      gt\n      tag_22\n      jumpi\n      dup1\n      0x362e2565\n      eq\n      tag_6\n      jumpi\n      dup1\n      0x46e053a0\n      eq\n      tag_7\n      jumpi\n      dup1\n      0x4b449cba\n      eq\n      tag_8\n      jumpi\n      dup1\n      0x5681104a\n      eq\n      tag_9\n      jumpi\n      dup1\n      0x8da5cb5b\n      eq\n      tag_10\n      jumpi\n      jump(tag_1)\n    tag_22:\n      dup1\n      0x11da74b0\n      eq\n      tag_2\n      jumpi\n      dup1\n      0x12fa6feb\n      eq\n      tag_3\n      jumpi\n      dup1\n      0x14d2687c\n      eq\n      tag_4\n      jumpi\n      dup1\n      0x1998aeef\n      eq\n      tag_5\n      jumpi\n    tag_1:\n      revert(0x00, 0x00)\n        /* \"AuctionWlady4.sol\":691:743  uint256 public constant OWNER_COMMISSION_PERCENT = 2 */\n    tag_2:\n      callvalue\n      dup1\n      iszero\n      tag_23\n      jumpi\n      revert(0x00, 0x00)\n    tag_23:\n      pop\n      tag_24\n      tag_25\n      jump\t// in\n    tag_24:\n      mload(0x40)\n      tag_26\n      swap2\n      swap1\n      tag_27\n      jump\t// in\n    tag_26:\n      mload(0x40)\n      dup1\n      swap2\n      sub\n      swap1\n      return\n        /* \"AuctionWlady4.sol\":511:528  bool public ended */\n    tag_3:\n      callvalue\n      dup1\n      iszero\n      tag_28\n      jumpi\n      revert(0x00, 0x00)\n    tag_28:\n      pop\n      tag_29\n      tag_30\n      jump\t// in\n    tag_29:\n      mload(0x40)\n      tag_31\n      swap2\n      swap1\n      tag_32\n      jump\t// in\n    tag_31:\n      mload(0x40)\n      dup1\n      swap2\n      sub\n      swap1\n      return\n        /* \"AuctionWlady4.sol\":5359:5938  function showBids() public view returns (address[] memory bidders, uint256[] memory amounts) {... */\n    tag_4:\n      callvalue\n      dup1\n      iszero\n      tag_33\n      jumpi\n      revert(0x00, 0x00)\n    tag_33:\n      pop\n      tag_34\n      tag_35\n      jump\t// in\n    tag_34:\n      mload(0x40)\n      tag_36\n      swap3\n      swap2\n      swap1\n      tag_37\n      jump\t// in\n    tag_36:\n      mload(0x40)\n      dup1\n      swap2\n      sub\n      swap1\n      return\n        /* \"AuctionWlady4.sol\":3060:4376  function bid() public payable auctionActive {... */\n    tag_5:\n      tag_38\n      tag_39\n      jump\t// in\n    tag_38:\n      stop\n        /* \"AuctionWlady4.sol\":6117:8048  function returnDeposits() public onlyOwner auctionEnded {... */\n    tag_6:\n      callvalue\n      dup1\n      iszero\n      tag_40\n      jumpi\n      revert(0x00, 0x00)\n    tag_40:\n      pop\n      tag_41\n      tag_42\n      jump\t// in\n    tag_41:\n      stop\n        /* \"AuctionWlady4.sol\":936:975  mapping(address => Bid) public lastBids */\n    tag_7:\n      callvalue\n      dup1\n      iszero\n      tag_43\n      jumpi\n      revert(0x00, 0x00)\n    tag_43:\n      pop\n      tag_44\n      0x04\n      dup1\n      calldatasize\n      sub\n      dup2\n      add\n      swap1\n      tag_45\n      swap2\n      swap1\n      tag_46\n      jump\t// in\n    tag_45:\n      tag_47\n      jump\t// in\n    tag_44:\n      mload(0x40)\n      tag_48\n      swap3\n      swap2\n      swap1\n      tag_49\n      jump\t// in\n    tag_48:\n      mload(0x40)\n      dup1\n      swap2\n      sub\n      swap1\n      return\n        /* \"AuctionWlady4.sol\":367:396  uint256 public auctionEndTime */\n    tag_8:\n      callvalue\n      dup1\n      iszero\n      tag_50\n      jumpi\n      revert(0x00, 0x00)\n    tag_50:\n      pop\n      tag_51\n      tag_52\n      jump\t// in\n    tag_51:\n      mload(0x40)\n      tag_53\n      swap2\n      swap1\n      tag_27\n      jump\t// in\n    tag_53:\n      mload(0x40)\n      dup1\n      swap2\n      sub\n      swap1\n      return\n        /* \"AuctionWlady4.sol\":573:624  uint256 public constant EXTENSION_TIME = 10 minutes */\n    tag_9:\n      callvalue\n      dup1\n      iszero\n      tag_54\n      jumpi\n      revert(0x00, 0x00)\n    tag_54:\n      pop\n      tag_55\n      tag_56\n      jump\t// in\n    tag_55:\n      mload(0x40)\n      tag_57\n      swap2\n      swap1\n      tag_27\n      jump\t// in\n    tag_57:\n      mload(0x40)\n      dup1\n      swap2\n      sub\n      swap1\n      return\n        /* \"AuctionWlady4.sol\":302:322  address public owner */\n    tag_10:\n      callvalue\n      dup1\n      iszero\n      tag_58\n      jumpi\n      revert(0x00, 0x00)\n    tag_58:\n      pop\n      tag_59\n      tag_60\n      jump\t// in\n    tag_59:\n      mload(0x40)\n      tag_61\n      swap2\n      swap1\n      tag_62\n      jump\t// in\n    tag_61:\n      mload(0x40)\n      dup1\n      swap2\n      sub\n      swap1\n      return\n        /* \"AuctionWlady4.sol\":476:504  address public highestBidder */\n    tag_11:\n      callvalue\n      dup1\n      iszero\n      tag_63\n      jumpi\n      revert(0x00, 0x00)\n    tag_63:\n      pop\n      tag_64\n      tag_65\n      jump\t// in\n    tag_64:\n      mload(0x40)\n      tag_66\n      swap2\n      swap1\n      tag_62\n      jump\t// in\n    tag_66:\n      mload(0x40)\n      dup1\n      swap2\n      sub\n      swap1\n      return\n        /* \"AuctionWlady4.sol\":1206:1233  address[] public allBidders */\n    tag_12:\n      callvalue\n      dup1\n      iszero\n      tag_67\n      jumpi\n      revert(0x00, 0x00)\n    tag_67:\n      pop\n      tag_68\n      0x04\n      dup1\n      calldatasize\n      sub\n      dup2\n      add\n      swap1\n      tag_69\n      swap2\n      swap1\n      tag_70\n      jump\t// in\n    tag_69:\n      tag_71\n      jump\t// in\n    tag_68:\n      mload(0x40)\n      tag_72\n      swap2\n      swap1\n      tag_62\n      jump\t// in\n    tag_72:\n      mload(0x40)\n      dup1\n      swap2\n      sub\n      swap1\n      return\n        /* \"AuctionWlady4.sol\":4996:5141  function showWinner() public view auctionEnded returns (address winner, uint256 winningBid) {... */\n    tag_13:\n      callvalue\n      dup1\n      iszero\n      tag_73\n      jumpi\n      revert(0x00, 0x00)\n    tag_73:\n      pop\n      tag_74\n      tag_75\n      jump\t// in\n    tag_74:\n      mload(0x40)\n      tag_76\n      swap3\n      swap2\n      swap1\n      tag_49\n      jump\t// in\n    tag_76:\n      mload(0x40)\n      dup1\n      swap2\n      sub\n      swap1\n      return\n        /* \"AuctionWlady4.sol\":631:684  uint256 public constant MIN_BID_INCREMENT_PERCENT = 5 */\n    tag_14:\n      callvalue\n      dup1\n      iszero\n      tag_77\n      jumpi\n      revert(0x00, 0x00)\n    tag_77:\n      pop\n      tag_78\n      tag_79\n      jump\t// in\n    tag_78:\n      mload(0x40)\n      tag_80\n      swap2\n      swap1\n      tag_27\n      jump\t// in\n    tag_80:\n      mload(0x40)\n      dup1\n      swap2\n      sub\n      swap1\n      return\n        /* \"AuctionWlady4.sol\":8223:9325  function partialWithdrawal() public auctionActive {... */\n    tag_15:\n      callvalue\n      dup1\n      iszero\n      tag_81\n      jumpi\n      revert(0x00, 0x00)\n    tag_81:\n      pop\n      tag_82\n      tag_83\n      jump\t// in\n    tag_82:\n      stop\n        /* \"AuctionWlady4.sol\":444:469  uint256 public highestBid */\n    tag_16:\n      callvalue\n      dup1\n      iszero\n      tag_84\n      jumpi\n      revert(0x00, 0x00)\n    tag_84:\n      pop\n      tag_85\n      tag_86\n      jump\t// in\n    tag_85:\n      mload(0x40)\n      tag_87\n      swap2\n      swap1\n      tag_27\n      jump\t// in\n    tag_87:\n      mload(0x40)\n      dup1\n      swap2\n      sub\n      swap1\n      return\n        /* \"AuctionWlady4.sol\":329:360  uint256 public auctionStartTime */\n    tag_17:\n      callvalue\n      dup1\n      iszero\n      tag_88\n      jumpi\n      revert(0x00, 0x00)\n    tag_88:\n      pop\n      tag_89\n      tag_90\n      jump\t// in\n    tag_89:\n      mload(0x40)\n      tag_91\n      swap2\n      swap1\n      tag_27\n      jump\t// in\n    tag_91:\n      mload(0x40)\n      dup1\n      swap2\n      sub\n      swap1\n      return\n        /* \"AuctionWlady4.sol\":843:886  mapping(address => uint256) public deposits */\n    tag_18:\n      callvalue\n      dup1\n      iszero\n      tag_92\n      jumpi\n      revert(0x00, 0x00)\n    tag_92:\n      pop\n      tag_93\n      0x04\n      dup1\n      calldatasize\n      sub\n      dup2\n      add\n      swap1\n      tag_94\n      swap2\n      swap1\n      tag_46\n      jump\t// in\n    tag_94:\n      tag_95\n      jump\t// in\n    tag_93:\n      mload(0x40)\n      tag_96\n      swap2\n      swap1\n      tag_27\n      jump\t// in\n    tag_96:\n      mload(0x40)\n      dup1\n      swap2\n      sub\n      swap1\n      return\n        /* \"AuctionWlady4.sol\":4509:4732  function endAuction() public {... */\n    tag_19:\n      callvalue\n      dup1\n      iszero\n      tag_97\n      jumpi\n      revert(0x00, 0x00)\n    tag_97:\n      pop\n      tag_98\n      tag_99\n      jump\t// in\n    tag_98:\n      stop\n        /* \"AuctionWlady4.sol\":691:743  uint256 public constant OWNER_COMMISSION_PERCENT = 2 */\n    tag_25:\n        /* \"AuctionWlady4.sol\":742:743  2 */\n      0x02\n        /* \"AuctionWlady4.sol\":691:743  uint256 public constant OWNER_COMMISSION_PERCENT = 2 */\n      dup2\n      jump\t// out\n        /* \"AuctionWlady4.sol\":511:528  bool public ended */\n    tag_30:\n      0x04\n      0x14\n      swap1\n      sload\n      swap1\n      0x0100\n      exp\n      swap1\n      div\n      0xff\n      and\n      dup2\n      jump\t// out\n        /* \"AuctionWlady4.sol\":5359:5938  function showBids() public view returns (address[] memory bidders, uint256[] memory amounts) {... */\n    tag_35:\n        /* \"AuctionWlady4.sol\":5400:5424  address[] memory bidders */\n      0x60\n        /* \"AuctionWlady4.sol\":5426:5450  uint256[] memory amounts */\n      dup1\n        /* \"AuctionWlady4.sol\":5463:5474  uint256 len */\n      0x00\n        /* \"AuctionWlady4.sol\":5477:5487  allBidders */\n      0x08\n        /* \"AuctionWlady4.sol\":5477:5494  allBidders.length */\n      dup1\n      sload\n      swap1\n      pop\n        /* \"AuctionWlady4.sol\":5463:5494  uint256 len = allBidders.length */\n      swap1\n      pop\n        /* \"AuctionWlady4.sol\":5579:5582  len */\n      dup1\n        /* \"AuctionWlady4.sol\":5565:5583  new address[](len) */\n      0xffffffffffffffff\n      dup2\n      gt\n      iszero\n      tag_101\n      jumpi\n      tag_102\n      tag_103\n      jump\t// in\n    tag_102:\n    tag_101:\n      mload(0x40)\n      swap1\n      dup1\n      dup3\n      mstore\n      dup1\n      0x20\n      mul\n      0x20\n      add\n      dup3\n      add\n      0x40\n      mstore\n      dup1\n      iszero\n      tag_104\n      jumpi\n      dup2\n      0x20\n      add\n      0x20\n      dup3\n      mul\n      dup1\n      calldatasize\n      dup4\n      calldatacopy\n      dup1\n      dup3\n      add\n      swap2\n      pop\n      pop\n      swap1\n      pop\n    tag_104:\n      pop\n        /* \"AuctionWlady4.sol\":5555:5583  bidders = new address[](len) */\n      swap3\n      pop\n        /* \"AuctionWlady4.sol\":5618:5621  len */\n      dup1\n        /* \"AuctionWlady4.sol\":5604:5622  new uint256[](len) */\n      0xffffffffffffffff\n      dup2\n      gt\n      iszero\n      tag_105\n      jumpi\n      tag_106\n      tag_103\n      jump\t// in\n    tag_106:\n    tag_105:\n      mload(0x40)\n      swap1\n      dup1\n      dup3\n      mstore\n      dup1\n      0x20\n      mul\n      0x20\n      add\n      dup3\n      add\n      0x40\n      mstore\n      dup1\n      iszero\n      tag_107\n      jumpi\n      dup2\n      0x20\n      add\n      0x20\n      dup3\n      mul\n      dup1\n      calldatasize\n      dup4\n      calldatacopy\n      dup1\n      dup3\n      add\n      swap2\n      pop\n      pop\n      swap1\n      pop\n    tag_107:\n      pop\n        /* \"AuctionWlady4.sol\":5594:5622  amounts = new uint256[](len) */\n      swap2\n      pop\n        /* \"AuctionWlady4.sol\":5635:5656  address currentBidder */\n      0x00\n        /* \"AuctionWlady4.sol\":5714:5720  uint i */\n      0x00\n        /* \"AuctionWlady4.sol\":5723:5724  0 */\n      0x00\n        /* \"AuctionWlady4.sol\":5714:5724  uint i = 0 */\n      swap1\n      pop\n        /* \"AuctionWlady4.sol\":5709:5895  for (uint i = 0; i < len; i++) {... */\n    tag_108:\n        /* \"AuctionWlady4.sol\":5730:5733  len */\n      dup3\n        /* \"AuctionWlady4.sol\":5726:5727  i */\n      dup2\n        /* \"AuctionWlady4.sol\":5726:5733  i < len */\n      lt\n        /* \"AuctionWlady4.sol\":5709:5895  for (uint i = 0; i < len; i++) {... */\n      iszero\n      tag_109\n      jumpi\n        /* \"AuctionWlady4.sol\":5771:5781  allBidders */\n      0x08\n        /* \"AuctionWlady4.sol\":5782:5783  i */\n      dup2\n        /* \"AuctionWlady4.sol\":5771:5784  allBidders[i] */\n      dup2\n      sload\n      dup2\n      lt\n      tag_111\n      jumpi\n      tag_112\n      tag_113\n      jump\t// in\n    tag_112:\n    tag_111:\n      swap1\n      0x00\n      mstore\n      keccak256(0x00, 0x20)\n      add\n      0x00\n      swap1\n      sload\n      swap1\n      0x0100\n      exp\n      swap1\n      div\n      0xffffffffffffffffffffffffffffffffffffffff\n      and\n        /* \"AuctionWlady4.sol\":5755:5784  currentBidder = allBidders[i] */\n      swap2\n      pop\n        /* \"AuctionWlady4.sol\":5812:5825  currentBidder */\n      dup2\n        /* \"AuctionWlady4.sol\":5799:5806  bidders */\n      dup6\n        /* \"AuctionWlady4.sol\":5807:5808  i */\n      dup3\n        /* \"AuctionWlady4.sol\":5799:5809  bidders[i] */\n      dup2\n      mload\n      dup2\n      lt\n      tag_115\n      jumpi\n      tag_116\n      tag_113\n      jump\t// in\n    tag_116:\n    tag_115:\n      0x20\n      mul\n      0x20\n      add\n      add\n        /* \"AuctionWlady4.sol\":5799:5825  bidders[i] = currentBidder */\n      swap1\n      0xffffffffffffffffffffffffffffffffffffffff\n      and\n      swap1\n      dup2\n      0xffffffffffffffffffffffffffffffffffffffff\n      and\n      dup2\n      mstore\n      pop\n      pop\n        /* \"AuctionWlady4.sol\":5853:5861  lastBids */\n      0x06\n        /* \"AuctionWlady4.sol\":5853:5876  lastBids[currentBidder] */\n      0x00\n        /* \"AuctionWlady4.sol\":5862:5875  currentBidder */\n      dup4\n        /* \"AuctionWlady4.sol\":5853:5876  lastBids[currentBidder] */\n      0xffffffffffffffffffffffffffffffffffffffff\n      and\n      0xffffffffffffffffffffffffffffffffffffffff\n      and\n      dup2\n      mstore\n      0x20\n      add\n      swap1\n      dup2\n      mstore\n      0x20\n      add\n      0x00\n      keccak256\n        /* \"AuctionWlady4.sol\":5853:5883  lastBids[currentBidder].amount */\n      0x01\n      add\n      sload\n        /* \"AuctionWlady4.sol\":5840:5847  amounts */\n      dup5\n        /* \"AuctionWlady4.sol\":5848:5849  i */\n      dup3\n        /* \"AuctionWlady4.sol\":5840:5850  amounts[i] */\n      dup2\n      mload\n      dup2\n      lt\n      tag_117\n      jumpi\n      tag_118\n      tag_113\n      jump\t// in\n    tag_118:\n    tag_117:\n      0x20\n      mul\n      0x20\n      add\n      add\n        /* \"AuctionWlady4.sol\":5840:5883  amounts[i] = lastBids[currentBidder].amount */\n      dup2\n      dup2\n      mstore\n      pop\n      pop\n        /* \"AuctionWlady4.sol\":5735:5738  i++ */\n      dup1\n      dup1\n      0x01\n      add\n      swap2\n      pop\n      pop\n        /* \"AuctionWlady4.sol\":5709:5895  for (uint i = 0; i < len; i++) {... */\n      jump(tag_108)\n    tag_109:\n      pop\n        /* \"AuctionWlady4.sol\":5905:5930  return (bidders, amounts) */\n      pop\n      pop\n        /* \"AuctionWlady4.sol\":5359:5938  function showBids() public view returns (address[] memory bidders, uint256[] memory amounts) {... */\n      swap1\n      swap2\n      jump\t// out\n        /* \"AuctionWlady4.sol\":3060:4376  function bid() public payable auctionActive {... */\n    tag_39:\n        /* \"AuctionWlady4.sol\":2431:2445  auctionEndTime */\n      sload(0x02)\n        /* \"AuctionWlady4.sol\":2413:2428  block.timestamp */\n      timestamp\n        /* \"AuctionWlady4.sol\":2413:2445  block.timestamp < auctionEndTime */\n      lt\n        /* \"AuctionWlady4.sol\":2413:2455  block.timestamp < auctionEndTime && !ended */\n      dup1\n      iszero\n      tag_120\n      jumpi\n      pop\n        /* \"AuctionWlady4.sol\":2450:2455  ended */\n      0x04\n      0x14\n      swap1\n      sload\n      swap1\n      0x0100\n      exp\n      swap1\n      div\n      0xff\n      and\n        /* \"AuctionWlady4.sol\":2449:2455  !ended */\n      iszero\n        /* \"AuctionWlady4.sol\":2413:2455  block.timestamp < auctionEndTime && !ended */\n    tag_120:\n        /* \"AuctionWlady4.sol\":2405:2477  require(block.timestamp < auctionEndTime && !ended, \"Auction inactive.\") */\n      tag_121\n      jumpi\n      mload(0x40)\n      0x08c379a000000000000000000000000000000000000000000000000000000000\n      dup2\n      mstore\n      0x04\n      add\n      tag_122\n      swap1\n      tag_123\n      jump\t// in\n    tag_122:\n      mload(0x40)\n      dup1\n      swap2\n      sub\n      swap1\n      revert\n    tag_121:\n        /* \"AuctionWlady4.sol\":3182:3208  uint256 _currentHighestBid */\n      0x00\n        /* \"AuctionWlady4.sol\":3211:3221  highestBid */\n      sload(0x03)\n        /* \"AuctionWlady4.sol\":3182:3221  uint256 _currentHighestBid = highestBid */\n      swap1\n      pop\n        /* \"AuctionWlady4.sol\":3232:3254  uint256 requiredMinBid */\n      0x00\n        /* \"AuctionWlady4.sol\":3328:3331  100 */\n      0x64\n        /* \"AuctionWlady4.sol\":683:684  5 */\n      0x05\n        /* \"AuctionWlady4.sol\":3279:3297  _currentHighestBid */\n      dup4\n        /* \"AuctionWlady4.sol\":3279:3325  _currentHighestBid * MIN_BID_INCREMENT_PERCENT */\n      tag_125\n      swap2\n      swap1\n      tag_126\n      jump\t// in\n    tag_125:\n        /* \"AuctionWlady4.sol\":3279:3331  _currentHighestBid * MIN_BID_INCREMENT_PERCENT / 100 */\n      tag_127\n      swap2\n      swap1\n      tag_128\n      jump\t// in\n    tag_127:\n        /* \"AuctionWlady4.sol\":3257:3275  _currentHighestBid */\n      dup3\n        /* \"AuctionWlady4.sol\":3257:3332  _currentHighestBid + (_currentHighestBid * MIN_BID_INCREMENT_PERCENT / 100) */\n      tag_129\n      swap2\n      swap1\n      tag_130\n      jump\t// in\n    tag_129:\n        /* \"AuctionWlady4.sol\":3232:3332  uint256 requiredMinBid = _currentHighestBid + (_currentHighestBid * MIN_BID_INCREMENT_PERCENT / 100) */\n      swap1\n      pop\n        /* \"AuctionWlady4.sol\":3371:3372  0 */\n      0x00\n        /* \"AuctionWlady4.sol\":3349:3367  _currentHighestBid */\n      dup3\n        /* \"AuctionWlady4.sol\":3349:3372  _currentHighestBid == 0 */\n      sub\n        /* \"AuctionWlady4.sol\":3345:3481  if (_currentHighestBid == 0) { // Use local variable... */\n      tag_131\n      jumpi\n        /* \"AuctionWlady4.sol\":3428:3433  1 wei */\n      0x01\n        /* \"AuctionWlady4.sol\":3411:3433  requiredMinBid = 1 wei */\n      swap1\n      pop\n        /* \"AuctionWlady4.sol\":3345:3481  if (_currentHighestBid == 0) { // Use local variable... */\n    tag_131:\n        /* \"AuctionWlady4.sol\":3514:3528  requiredMinBid */\n      dup1\n        /* \"AuctionWlady4.sol\":3501:3510  msg.value */\n      callvalue\n        /* \"AuctionWlady4.sol\":3501:3528  msg.value >= requiredMinBid */\n      lt\n      iszero\n        /* \"AuctionWlady4.sol\":3493:3545  require(msg.value >= requiredMinBid, \"Bid too low.\") */\n      tag_132\n      jumpi\n      mload(0x40)\n      0x08c379a000000000000000000000000000000000000000000000000000000000\n      dup2\n      mstore\n      0x04\n      add\n      tag_133\n      swap1\n      tag_134\n      jump\t// in\n    tag_133:\n      mload(0x40)\n      dup1\n      swap2\n      sub\n      swap1\n      revert\n    tag_132:\n        /* \"AuctionWlady4.sol\":3642:3651  hasBidder */\n      0x07\n        /* \"AuctionWlady4.sol\":3642:3663  hasBidder[msg.sender] */\n      0x00\n        /* \"AuctionWlady4.sol\":3652:3662  msg.sender */\n      caller\n        /* \"AuctionWlady4.sol\":3642:3663  hasBidder[msg.sender] */\n      0xffffffffffffffffffffffffffffffffffffffff\n      and\n      0xffffffffffffffffffffffffffffffffffffffff\n      and\n      dup2\n      mstore\n      0x20\n      add\n      swap1\n      dup2\n      mstore\n      0x20\n      add\n      0x00\n      keccak256\n      0x00\n      swap1\n      sload\n      swap1\n      0x0100\n      exp\n      swap1\n      div\n      0xff\n      and\n        /* \"AuctionWlady4.sol\":3637:3762  if (!hasBidder[msg.sender]) {... */\n      tag_135\n      jumpi\n        /* \"AuctionWlady4.sol\":3704:3708  true */\n      0x01\n        /* \"AuctionWlady4.sol\":3680:3689  hasBidder */\n      0x07\n        /* \"AuctionWlady4.sol\":3680:3701  hasBidder[msg.sender] */\n      0x00\n        /* \"AuctionWlady4.sol\":3690:3700  msg.sender */\n      caller\n        /* \"AuctionWlady4.sol\":3680:3701  hasBidder[msg.sender] */\n      0xffffffffffffffffffffffffffffffffffffffff\n      and\n      0xffffffffffffffffffffffffffffffffffffffff\n      and\n      dup2\n      mstore\n      0x20\n      add\n      swap1\n      dup2\n      mstore\n      0x20\n      add\n      0x00\n      keccak256\n      0x00\n        /* \"AuctionWlady4.sol\":3680:3708  hasBidder[msg.sender] = true */\n      0x0100\n      exp\n      dup2\n      sload\n      dup2\n      0xff\n      mul\n      not\n      and\n      swap1\n      dup4\n      iszero\n      iszero\n      mul\n      or\n      swap1\n      sstore\n      pop\n        /* \"AuctionWlady4.sol\":3723:3733  allBidders */\n      0x08\n        /* \"AuctionWlady4.sol\":3739:3749  msg.sender */\n      caller\n        /* \"AuctionWlady4.sol\":3723:3750  allBidders.push(msg.sender) */\n      swap1\n      dup1\n      0x01\n      dup2\n      sload\n      add\n      dup1\n      dup3\n      sstore\n      dup1\n      swap2\n      pop\n      pop\n      0x01\n      swap1\n      sub\n      swap1\n      0x00\n      mstore\n      keccak256(0x00, 0x20)\n      add\n      0x00\n      swap1\n      swap2\n      swap1\n      swap2\n      swap1\n      swap2\n      0x0100\n      exp\n      dup2\n      sload\n      dup2\n      0xffffffffffffffffffffffffffffffffffffffff\n      mul\n      not\n      and\n      swap1\n      dup4\n      0xffffffffffffffffffffffffffffffffffffffff\n      and\n      mul\n      or\n      swap1\n      sstore\n      pop\n        /* \"AuctionWlady4.sol\":3637:3762  if (!hasBidder[msg.sender]) {... */\n    tag_135:\n        /* \"AuctionWlady4.sol\":3798:3807  msg.value */\n      callvalue\n        /* \"AuctionWlady4.sol\":3774:3782  deposits */\n      0x05\n        /* \"AuctionWlady4.sol\":3774:3794  deposits[msg.sender] */\n      0x00\n        /* \"AuctionWlady4.sol\":3783:3793  msg.sender */\n      caller\n        /* \"AuctionWlady4.sol\":3774:3794  deposits[msg.sender] */\n      0xffffffffffffffffffffffffffffffffffffffff\n      and\n      0xffffffffffffffffffffffffffffffffffffffff\n      and\n      dup2\n      mstore\n      0x20\n      add\n      swap1\n      dup2\n      mstore\n      0x20\n      add\n      0x00\n      keccak256\n      0x00\n        /* \"AuctionWlady4.sol\":3774:3807  deposits[msg.sender] += msg.value */\n      dup3\n      dup3\n      sload\n      tag_137\n      swap2\n      swap1\n      tag_130\n      jump\t// in\n    tag_137:\n      swap3\n      pop\n      pop\n      dup2\n      swap1\n      sstore\n      pop\n        /* \"AuctionWlady4.sol\":3836:3854  _currentHighestBid */\n      dup2\n        /* \"AuctionWlady4.sol\":3824:3833  msg.value */\n      callvalue\n        /* \"AuctionWlady4.sol\":3824:3854  msg.value > _currentHighestBid */\n      gt\n        /* \"AuctionWlady4.sol\":3820:3968  if (msg.value > _currentHighestBid) { // Use local variable... */\n      iszero\n      tag_138\n      jumpi\n        /* \"AuctionWlady4.sol\":3906:3915  msg.value */\n      callvalue\n        /* \"AuctionWlady4.sol\":3893:3903  highestBid */\n      0x03\n        /* \"AuctionWlady4.sol\":3893:3915  highestBid = msg.value */\n      dup2\n      swap1\n      sstore\n      pop\n        /* \"AuctionWlady4.sol\":3946:3956  msg.sender */\n      caller\n        /* \"AuctionWlady4.sol\":3930:3943  highestBidder */\n      0x04\n      0x00\n        /* \"AuctionWlady4.sol\":3930:3956  highestBidder = msg.sender */\n      0x0100\n      exp\n      dup2\n      sload\n      dup2\n      0xffffffffffffffffffffffffffffffffffffffff\n      mul\n      not\n      and\n      swap1\n      dup4\n      0xffffffffffffffffffffffffffffffffffffffff\n      and\n      mul\n      or\n      swap1\n      sstore\n      pop\n        /* \"AuctionWlady4.sol\":3820:3968  if (msg.value > _currentHighestBid) { // Use local variable... */\n    tag_138:\n        /* \"AuctionWlady4.sol\":4081:4107  Bid(msg.sender, msg.value) */\n      mload(0x40)\n      dup1\n      0x40\n      add\n      0x40\n      mstore\n      dup1\n        /* \"AuctionWlady4.sol\":4085:4095  msg.sender */\n      caller\n        /* \"AuctionWlady4.sol\":4081:4107  Bid(msg.sender, msg.value) */\n      0xffffffffffffffffffffffffffffffffffffffff\n      and\n      dup2\n      mstore\n      0x20\n      add\n        /* \"AuctionWlady4.sol\":4097:4106  msg.value */\n      callvalue\n        /* \"AuctionWlady4.sol\":4081:4107  Bid(msg.sender, msg.value) */\n      dup2\n      mstore\n      pop\n        /* \"AuctionWlady4.sol\":4058:4066  lastBids */\n      0x06\n        /* \"AuctionWlady4.sol\":4058:4078  lastBids[msg.sender] */\n      0x00\n        /* \"AuctionWlady4.sol\":4067:4077  msg.sender */\n      caller\n        /* \"AuctionWlady4.sol\":4058:4078  lastBids[msg.sender] */\n      0xffffffffffffffffffffffffffffffffffffffff\n      and\n      0xffffffffffffffffffffffffffffffffffffffff\n      and\n      dup2\n      mstore\n      0x20\n      add\n      swap1\n      dup2\n      mstore\n      0x20\n      add\n      0x00\n      keccak256\n        /* \"AuctionWlady4.sol\":4058:4107  lastBids[msg.sender] = Bid(msg.sender, msg.value) */\n      0x00\n      dup3\n      add\n      mload\n      dup2\n      0x00\n      add\n      exp(0x0100, 0x00)\n      dup2\n      sload\n      dup2\n      0xffffffffffffffffffffffffffffffffffffffff\n      mul\n      not\n      and\n      swap1\n      dup4\n      0xffffffffffffffffffffffffffffffffffffffff\n      and\n      mul\n      or\n      swap1\n      sstore\n      pop\n      0x20\n      dup3\n      add\n      mload\n      dup2\n      0x01\n      add\n      sstore\n      swap1\n      pop\n      pop\n        /* \"AuctionWlady4.sol\":4132:4142  msg.sender */\n      caller\n        /* \"AuctionWlady4.sol\":4125:4154  NewBid(msg.sender, msg.value) */\n      0xffffffffffffffffffffffffffffffffffffffff\n      and\n      0xdd0b6c6a77960e2066c96171b4d7ac9e8b4c184011f38544afa36a5bb63ec59f\n        /* \"AuctionWlady4.sol\":4144:4153  msg.value */\n      callvalue\n        /* \"AuctionWlady4.sol\":4125:4154  NewBid(msg.sender, msg.value) */\n      mload(0x40)\n      tag_139\n      swap2\n      swap1\n      tag_27\n      jump\t// in\n    tag_139:\n      mload(0x40)\n      dup1\n      swap2\n      sub\n      swap1\n      log2\n        /* \"AuctionWlady4.sol\":614:624  10 minutes */\n      0x0258\n        /* \"AuctionWlady4.sol\":4188:4203  block.timestamp */\n      timestamp\n        /* \"AuctionWlady4.sol\":4171:4185  auctionEndTime */\n      sload(0x02)\n        /* \"AuctionWlady4.sol\":4171:4203  auctionEndTime - block.timestamp */\n      tag_140\n      swap2\n      swap1\n      tag_141\n      jump\t// in\n    tag_140:\n        /* \"AuctionWlady4.sol\":4171:4221  auctionEndTime - block.timestamp <= EXTENSION_TIME */\n      gt\n      iszero\n        /* \"AuctionWlady4.sol\":4171:4257  auctionEndTime - block.timestamp <= EXTENSION_TIME && block.timestamp < auctionEndTime */\n      dup1\n      iszero\n      tag_142\n      jumpi\n      pop\n        /* \"AuctionWlady4.sol\":4243:4257  auctionEndTime */\n      sload(0x02)\n        /* \"AuctionWlady4.sol\":4225:4240  block.timestamp */\n      timestamp\n        /* \"AuctionWlady4.sol\":4225:4257  block.timestamp < auctionEndTime */\n      lt\n        /* \"AuctionWlady4.sol\":4171:4257  auctionEndTime - block.timestamp <= EXTENSION_TIME && block.timestamp < auctionEndTime */\n    tag_142:\n        /* \"AuctionWlady4.sol\":4167:4369  if (auctionEndTime - block.timestamp <= EXTENSION_TIME && block.timestamp < auctionEndTime) {... */\n      iszero\n      tag_143\n      jumpi\n        /* \"AuctionWlady4.sol\":614:624  10 minutes */\n      0x0258\n        /* \"AuctionWlady4.sol\":4274:4288  auctionEndTime */\n      0x02\n      0x00\n        /* \"AuctionWlady4.sol\":4274:4306  auctionEndTime += EXTENSION_TIME */\n      dup3\n      dup3\n      sload\n      tag_144\n      swap2\n      swap1\n      tag_130\n      jump\t// in\n    tag_144:\n      swap3\n      pop\n      pop\n      dup2\n      swap1\n      sstore\n      pop\n        /* \"AuctionWlady4.sol\":4326:4357  AuctionExtended(auctionEndTime) */\n      0xc2b459809119087ca9d2bc10dea53a51b7d848b1a11075db037bdca58292c3e8\n        /* \"AuctionWlady4.sol\":4342:4356  auctionEndTime */\n      sload(0x02)\n        /* \"AuctionWlady4.sol\":4326:4357  AuctionExtended(auctionEndTime) */\n      mload(0x40)\n      tag_145\n      swap2\n      swap1\n      tag_27\n      jump\t// in\n    tag_145:\n      mload(0x40)\n      dup1\n      swap2\n      sub\n      swap1\n      log1\n        /* \"AuctionWlady4.sol\":4167:4369  if (auctionEndTime - block.timestamp <= EXTENSION_TIME && block.timestamp < auctionEndTime) {... */\n    tag_143:\n        /* \"AuctionWlady4.sol\":3104:4376  {... */\n      pop\n      pop\n        /* \"AuctionWlady4.sol\":3060:4376  function bid() public payable auctionActive {... */\n      jump\t// out\n        /* \"AuctionWlady4.sol\":6117:8048  function returnDeposits() public onlyOwner auctionEnded {... */\n    tag_42:\n        /* \"AuctionWlady4.sol\":2224:2229  owner */\n      0x00\n      0x00\n      swap1\n      sload\n      swap1\n      0x0100\n      exp\n      swap1\n      div\n      0xffffffffffffffffffffffffffffffffffffffff\n      and\n        /* \"AuctionWlady4.sol\":2210:2229  msg.sender == owner */\n      0xffffffffffffffffffffffffffffffffffffffff\n      and\n        /* \"AuctionWlady4.sol\":2210:2220  msg.sender */\n      caller\n        /* \"AuctionWlady4.sol\":2210:2229  msg.sender == owner */\n      0xffffffffffffffffffffffffffffffffffffffff\n      and\n      eq\n        /* \"AuctionWlady4.sol\":2202:2245  require(msg.sender == owner, \"Owner only.\") */\n      tag_147\n      jumpi\n      mload(0x40)\n      0x08c379a000000000000000000000000000000000000000000000000000000000\n      dup2\n      mstore\n      0x04\n      add\n      tag_148\n      swap1\n      tag_149\n      jump\t// in\n    tag_148:\n      mload(0x40)\n      dup1\n      swap2\n      sub\n      swap1\n      revert\n    tag_147:\n        /* \"AuctionWlady4.sol\":2663:2677  auctionEndTime */\n      sload(0x02)\n        /* \"AuctionWlady4.sol\":2644:2659  block.timestamp */\n      timestamp\n        /* \"AuctionWlady4.sol\":2644:2677  block.timestamp >= auctionEndTime */\n      lt\n      iszero\n        /* \"AuctionWlady4.sol\":2644:2686  block.timestamp >= auctionEndTime || ended */\n      dup1\n      tag_151\n      jumpi\n      pop\n        /* \"AuctionWlady4.sol\":2681:2686  ended */\n      0x04\n      0x14\n      swap1\n      sload\n      swap1\n      0x0100\n      exp\n      swap1\n      div\n      0xff\n      and\n        /* \"AuctionWlady4.sol\":2644:2686  block.timestamp >= auctionEndTime || ended */\n    tag_151:\n        /* \"AuctionWlady4.sol\":2636:2709  require(block.timestamp >= auctionEndTime || ended, \"Auction not ended.\") */\n      tag_152\n      jumpi\n      mload(0x40)\n      0x08c379a000000000000000000000000000000000000000000000000000000000\n      dup2\n      mstore\n      0x04\n      add\n      tag_153\n      swap1\n      tag_154\n      jump\t// in\n    tag_153:\n      mload(0x40)\n      dup1\n      swap2\n      sub\n      swap1\n      revert\n    tag_152:\n        /* \"AuctionWlady4.sol\":6348:6349  0 */\n      0x00\n        /* \"AuctionWlady4.sol\":6323:6350  highestBidder != address(0) */\n      0xffffffffffffffffffffffffffffffffffffffff\n      and\n        /* \"AuctionWlady4.sol\":6323:6336  highestBidder */\n      0x04\n      0x00\n      swap1\n      sload\n      swap1\n      0x0100\n      exp\n      swap1\n      div\n      0xffffffffffffffffffffffffffffffffffffffff\n      and\n        /* \"AuctionWlady4.sol\":6323:6350  highestBidder != address(0) */\n      0xffffffffffffffffffffffffffffffffffffffff\n      and\n      eq\n      iszero\n        /* \"AuctionWlady4.sol\":6323:6381  highestBidder != address(0) && deposits[highestBidder] > 0 */\n      dup1\n      iszero\n      tag_156\n      jumpi\n      pop\n        /* \"AuctionWlady4.sol\":6380:6381  0 */\n      0x00\n        /* \"AuctionWlady4.sol\":6354:6362  deposits */\n      0x05\n        /* \"AuctionWlady4.sol\":6354:6377  deposits[highestBidder] */\n      0x00\n        /* \"AuctionWlady4.sol\":6363:6376  highestBidder */\n      0x04\n      0x00\n      swap1\n      sload\n      swap1\n      0x0100\n      exp\n      swap1\n      div\n      0xffffffffffffffffffffffffffffffffffffffff\n      and\n        /* \"AuctionWlady4.sol\":6354:6377  deposits[highestBidder] */\n      0xffffffffffffffffffffffffffffffffffffffff\n      and\n      0xffffffffffffffffffffffffffffffffffffffff\n      and\n      dup2\n      mstore\n      0x20\n      add\n      swap1\n      dup2\n      mstore\n      0x20\n      add\n      0x00\n      keccak256\n      sload\n        /* \"AuctionWlady4.sol\":6354:6381  deposits[highestBidder] > 0 */\n      gt\n        /* \"AuctionWlady4.sol\":6323:6381  highestBidder != address(0) && deposits[highestBidder] > 0 */\n    tag_156:\n        /* \"AuctionWlady4.sol\":6319:7010  if (highestBidder != address(0) && deposits[highestBidder] > 0) {... */\n      iszero\n      tag_157\n      jumpi\n        /* \"AuctionWlady4.sol\":6398:6419  uint256 winningAmount */\n      0x00\n        /* \"AuctionWlady4.sol\":6422:6430  deposits */\n      0x05\n        /* \"AuctionWlady4.sol\":6422:6445  deposits[highestBidder] */\n      0x00\n        /* \"AuctionWlady4.sol\":6431:6444  highestBidder */\n      0x04\n      0x00\n      swap1\n      sload\n      swap1\n      0x0100\n      exp\n      swap1\n      div\n      0xffffffffffffffffffffffffffffffffffffffff\n      and\n        /* \"AuctionWlady4.sol\":6422:6445  deposits[highestBidder] */\n      0xffffffffffffffffffffffffffffffffffffffff\n      and\n      0xffffffffffffffffffffffffffffffffffffffff\n      and\n      dup2\n      mstore\n      0x20\n      add\n      swap1\n      dup2\n      mstore\n      0x20\n      add\n      0x00\n      keccak256\n      sload\n        /* \"AuctionWlady4.sol\":6398:6445  uint256 winningAmount = deposits[highestBidder] */\n      swap1\n      pop\n        /* \"AuctionWlady4.sol\":6501:6519  uint256 commission */\n      0x00\n        /* \"AuctionWlady4.sol\":6567:6570  100 */\n      0x64\n        /* \"AuctionWlady4.sol\":742:743  2 */\n      0x02\n        /* \"AuctionWlady4.sol\":6523:6536  winningAmount */\n      dup4\n        /* \"AuctionWlady4.sol\":6523:6563  winningAmount * OWNER_COMMISSION_PERCENT */\n      tag_158\n      swap2\n      swap1\n      tag_126\n      jump\t// in\n    tag_158:\n        /* \"AuctionWlady4.sol\":6522:6570  (winningAmount * OWNER_COMMISSION_PERCENT) / 100 */\n      tag_159\n      swap2\n      swap1\n      tag_128\n      jump\t// in\n    tag_159:\n        /* \"AuctionWlady4.sol\":6501:6570  uint256 commission = (winningAmount * OWNER_COMMISSION_PERCENT) / 100 */\n      swap1\n      pop\n        /* \"AuctionWlady4.sol\":6585:6603  uint256 netToOwner */\n      0x00\n        /* \"AuctionWlady4.sol\":6622:6632  commission */\n      dup2\n        /* \"AuctionWlady4.sol\":6606:6619  winningAmount */\n      dup4\n        /* \"AuctionWlady4.sol\":6606:6632  winningAmount - commission */\n      tag_160\n      swap2\n      swap1\n      tag_141\n      jump\t// in\n    tag_160:\n        /* \"AuctionWlady4.sol\":6585:6632  uint256 netToOwner = winningAmount - commission */\n      swap1\n      pop\n        /* \"AuctionWlady4.sol\":6742:6743  0 */\n      0x00\n        /* \"AuctionWlady4.sol\":6716:6724  deposits */\n      0x05\n        /* \"AuctionWlady4.sol\":6716:6739  deposits[highestBidder] */\n      0x00\n        /* \"AuctionWlady4.sol\":6725:6738  highestBidder */\n      0x04\n      0x00\n      swap1\n      sload\n      swap1\n      0x0100\n      exp\n      swap1\n      div\n      0xffffffffffffffffffffffffffffffffffffffff\n      and\n        /* \"AuctionWlady4.sol\":6716:6739  deposits[highestBidder] */\n      0xffffffffffffffffffffffffffffffffffffffff\n      and\n      0xffffffffffffffffffffffffffffffffffffffff\n      and\n      dup2\n      mstore\n      0x20\n      add\n      swap1\n      dup2\n      mstore\n      0x20\n      add\n      0x00\n      keccak256\n        /* \"AuctionWlady4.sol\":6716:6743  deposits[highestBidder] = 0 */\n      dup2\n      swap1\n      sstore\n      pop\n        /* \"AuctionWlady4.sol\":6805:6817  bool success */\n      0x00\n        /* \"AuctionWlady4.sol\":6831:6836  owner */\n      0x00\n      0x00\n      swap1\n      sload\n      swap1\n      0x0100\n      exp\n      swap1\n      div\n      0xffffffffffffffffffffffffffffffffffffffff\n      and\n        /* \"AuctionWlady4.sol\":6823:6842  payable(owner).call */\n      0xffffffffffffffffffffffffffffffffffffffff\n      and\n        /* \"AuctionWlady4.sol\":6850:6860  netToOwner */\n      dup3\n        /* \"AuctionWlady4.sol\":6823:6865  payable(owner).call{value: netToOwner}(\"\") */\n      mload(0x40)\n      tag_161\n      swap1\n      tag_162\n      jump\t// in\n    tag_161:\n      0x00\n      mload(0x40)\n      dup1\n      dup4\n      sub\n      dup2\n      dup6\n      dup8\n      gas\n      call\n      swap3\n      pop\n      pop\n      pop\n      returndatasize\n      dup1\n      0x00\n      dup2\n      eq\n      tag_165\n      jumpi\n      mload(0x40)\n      swap2\n      pop\n      and(add(returndatasize, 0x3f), not(0x1f))\n      dup3\n      add\n      0x40\n      mstore\n      returndatasize\n      dup3\n      mstore\n      returndatasize\n      0x00\n      0x20\n      dup5\n      add\n      returndatacopy\n      jump(tag_164)\n    tag_165:\n      0x60\n      swap2\n      pop\n    tag_164:\n      pop\n        /* \"AuctionWlady4.sol\":6804:6865  (bool success, ) = payable(owner).call{value: netToOwner}(\"\") */\n      pop\n      swap1\n      pop\n        /* \"AuctionWlady4.sol\":6888:6895  success */\n      dup1\n        /* \"AuctionWlady4.sol\":6880:6922  require(success, \"Owner transfer failed.\") */\n      tag_166\n      jumpi\n      mload(0x40)\n      0x08c379a000000000000000000000000000000000000000000000000000000000\n      dup2\n      mstore\n      0x04\n      add\n      tag_167\n      swap1\n      tag_168\n      jump\t// in\n    tag_167:\n      mload(0x40)\n      dup1\n      swap2\n      sub\n      swap1\n      revert\n    tag_166:\n        /* \"AuctionWlady4.sol\":6980:6985  owner */\n      0x00\n      0x00\n      swap1\n      sload\n      swap1\n      0x0100\n      exp\n      swap1\n      div\n      0xffffffffffffffffffffffffffffffffffffffff\n      and\n        /* \"AuctionWlady4.sol\":6963:6998  FundsTransferred(owner, netToOwner) */\n      0xffffffffffffffffffffffffffffffffffffffff\n      and\n      0x8c9a4f13b67cb64d7c6aa1ae0c9bf07694af521a28b93e7060020810ab4bc59f\n        /* \"AuctionWlady4.sol\":6987:6997  netToOwner */\n      dup4\n        /* \"AuctionWlady4.sol\":6963:6998  FundsTransferred(owner, netToOwner) */\n      mload(0x40)\n      tag_169\n      swap2\n      swap1\n      tag_27\n      jump\t// in\n    tag_169:\n      mload(0x40)\n      dup1\n      swap2\n      sub\n      swap1\n      log2\n        /* \"AuctionWlady4.sol\":6383:7010  {... */\n      pop\n      pop\n      pop\n      pop\n        /* \"AuctionWlady4.sol\":6319:7010  if (highestBidder != address(0) && deposits[highestBidder] > 0) {... */\n    tag_157:\n        /* \"AuctionWlady4.sol\":7097:7103  uint i */\n      0x00\n        /* \"AuctionWlady4.sol\":7106:7107  0 */\n      0x00\n        /* \"AuctionWlady4.sol\":7097:7107  uint i = 0 */\n      swap1\n      pop\n        /* \"AuctionWlady4.sol\":7092:8041  for (uint i = 0; i < allBidders.length; i++) {... */\n    tag_170:\n        /* \"AuctionWlady4.sol\":7113:7123  allBidders */\n      0x08\n        /* \"AuctionWlady4.sol\":7113:7130  allBidders.length */\n      dup1\n      sload\n      swap1\n      pop\n        /* \"AuctionWlady4.sol\":7109:7110  i */\n      dup2\n        /* \"AuctionWlady4.sol\":7109:7130  i < allBidders.length */\n      lt\n        /* \"AuctionWlady4.sol\":7092:8041  for (uint i = 0; i < allBidders.length; i++) {... */\n      iszero\n      tag_171\n      jumpi\n        /* \"AuctionWlady4.sol\":7152:7173  address currentBidder */\n      0x00\n        /* \"AuctionWlady4.sol\":7176:7186  allBidders */\n      0x08\n        /* \"AuctionWlady4.sol\":7187:7188  i */\n      dup3\n        /* \"AuctionWlady4.sol\":7176:7189  allBidders[i] */\n      dup2\n      sload\n      dup2\n      lt\n      tag_173\n      jumpi\n      tag_174\n      tag_113\n      jump\t// in\n    tag_174:\n    tag_173:\n      swap1\n      0x00\n      mstore\n      keccak256(0x00, 0x20)\n      add\n      0x00\n      swap1\n      sload\n      swap1\n      0x0100\n      exp\n      swap1\n      div\n      0xffffffffffffffffffffffffffffffffffffffff\n      and\n        /* \"AuctionWlady4.sol\":7152:7189  address currentBidder = allBidders[i] */\n      swap1\n      pop\n        /* \"AuctionWlady4.sol\":7428:7441  highestBidder */\n      0x04\n      0x00\n      swap1\n      sload\n      swap1\n      0x0100\n      exp\n      swap1\n      div\n      0xffffffffffffffffffffffffffffffffffffffff\n      and\n        /* \"AuctionWlady4.sol\":7411:7441  currentBidder == highestBidder */\n      0xffffffffffffffffffffffffffffffffffffffff\n      and\n        /* \"AuctionWlady4.sol\":7411:7424  currentBidder */\n      dup2\n        /* \"AuctionWlady4.sol\":7411:7441  currentBidder == highestBidder */\n      0xffffffffffffffffffffffffffffffffffffffff\n      and\n      eq\n        /* \"AuctionWlady4.sol\":7411:7473  currentBidder == highestBidder || deposits[currentBidder] == 0 */\n      dup1\n      tag_176\n      jumpi\n      pop\n        /* \"AuctionWlady4.sol\":7472:7473  0 */\n      0x00\n        /* \"AuctionWlady4.sol\":7445:7453  deposits */\n      0x05\n        /* \"AuctionWlady4.sol\":7445:7468  deposits[currentBidder] */\n      0x00\n        /* \"AuctionWlady4.sol\":7454:7467  currentBidder */\n      dup4\n        /* \"AuctionWlady4.sol\":7445:7468  deposits[currentBidder] */\n      0xffffffffffffffffffffffffffffffffffffffff\n      and\n      0xffffffffffffffffffffffffffffffffffffffff\n      and\n      dup2\n      mstore\n      0x20\n      add\n      swap1\n      dup2\n      mstore\n      0x20\n      add\n      0x00\n      keccak256\n      sload\n        /* \"AuctionWlady4.sol\":7445:7473  deposits[currentBidder] == 0 */\n      eq\n        /* \"AuctionWlady4.sol\":7411:7473  currentBidder == highestBidder || deposits[currentBidder] == 0 */\n    tag_176:\n        /* \"AuctionWlady4.sol\":7407:7518  if (currentBidder == highestBidder || deposits[currentBidder] == 0) {... */\n      iszero\n      tag_177\n      jumpi\n        /* \"AuctionWlady4.sol\":7494:7502  continue */\n      pop\n      jump(tag_172)\n        /* \"AuctionWlady4.sol\":7407:7518  if (currentBidder == highestBidder || deposits[currentBidder] == 0) {... */\n    tag_177:\n        /* \"AuctionWlady4.sol\":7534:7556  uint256 amountToRefund */\n      0x00\n        /* \"AuctionWlady4.sol\":7559:7567  deposits */\n      0x05\n        /* \"AuctionWlady4.sol\":7559:7582  deposits[currentBidder] */\n      0x00\n        /* \"AuctionWlady4.sol\":7568:7581  currentBidder */\n      dup4\n        /* \"AuctionWlady4.sol\":7559:7582  deposits[currentBidder] */\n      0xffffffffffffffffffffffffffffffffffffffff\n      and\n      0xffffffffffffffffffffffffffffffffffffffff\n      and\n      dup2\n      mstore\n      0x20\n      add\n      swap1\n      dup2\n      mstore\n      0x20\n      add\n      0x00\n      keccak256\n      sload\n        /* \"AuctionWlady4.sol\":7534:7582  uint256 amountToRefund = deposits[currentBidder] */\n      swap1\n      pop\n        /* \"AuctionWlady4.sol\":7718:7719  0 */\n      0x00\n        /* \"AuctionWlady4.sol\":7692:7700  deposits */\n      0x05\n        /* \"AuctionWlady4.sol\":7692:7715  deposits[currentBidder] */\n      0x00\n        /* \"AuctionWlady4.sol\":7701:7714  currentBidder */\n      dup5\n        /* \"AuctionWlady4.sol\":7692:7715  deposits[currentBidder] */\n      0xffffffffffffffffffffffffffffffffffffffff\n      and\n      0xffffffffffffffffffffffffffffffffffffffff\n      and\n      dup2\n      mstore\n      0x20\n      add\n      swap1\n      dup2\n      mstore\n      0x20\n      add\n      0x00\n      keccak256\n        /* \"AuctionWlady4.sol\":7692:7719  deposits[currentBidder] = 0 */\n      dup2\n      swap1\n      sstore\n      pop\n        /* \"AuctionWlady4.sol\":7818:7830  bool success */\n      0x00\n        /* \"AuctionWlady4.sol\":7844:7857  currentBidder */\n      dup3\n        /* \"AuctionWlady4.sol\":7836:7863  payable(currentBidder).call */\n      0xffffffffffffffffffffffffffffffffffffffff\n      and\n        /* \"AuctionWlady4.sol\":7871:7885  amountToRefund */\n      dup3\n        /* \"AuctionWlady4.sol\":7836:7890  payable(currentBidder).call{value: amountToRefund}(\"\") */\n      mload(0x40)\n      tag_178\n      swap1\n      tag_162\n      jump\t// in\n    tag_178:\n      0x00\n      mload(0x40)\n      dup1\n      dup4\n      sub\n      dup2\n      dup6\n      dup8\n      gas\n      call\n      swap3\n      pop\n      pop\n      pop\n      returndatasize\n      dup1\n      0x00\n      dup2\n      eq\n      tag_181\n      jumpi\n      mload(0x40)\n      swap2\n      pop\n      and(add(returndatasize, 0x3f), not(0x1f))\n      dup3\n      add\n      0x40\n      mstore\n      returndatasize\n      dup3\n      mstore\n      returndatasize\n      0x00\n      0x20\n      dup5\n      add\n      returndatacopy\n      jump(tag_180)\n    tag_181:\n      0x60\n      swap2\n      pop\n    tag_180:\n      pop\n        /* \"AuctionWlady4.sol\":7817:7890  (bool success, ) = payable(currentBidder).call{value: amountToRefund}(\"\") */\n      pop\n      swap1\n      pop\n        /* \"AuctionWlady4.sol\":7913:7920  success */\n      dup1\n        /* \"AuctionWlady4.sol\":7905:7939  require(success, \"Refund failed.\") */\n      tag_182\n      jumpi\n      mload(0x40)\n      0x08c379a000000000000000000000000000000000000000000000000000000000\n      dup2\n      mstore\n      0x04\n      add\n      tag_183\n      swap1\n      tag_184\n      jump\t// in\n    tag_183:\n      mload(0x40)\n      dup1\n      swap2\n      sub\n      swap1\n      revert\n    tag_182:\n        /* \"AuctionWlady4.sol\":7999:8012  currentBidder */\n      dup3\n        /* \"AuctionWlady4.sol\":7982:8029  FundsTransferred(currentBidder, amountToRefund) */\n      0xffffffffffffffffffffffffffffffffffffffff\n      and\n      0x8c9a4f13b67cb64d7c6aa1ae0c9bf07694af521a28b93e7060020810ab4bc59f\n        /* \"AuctionWlady4.sol\":8014:8028  amountToRefund */\n      dup4\n        /* \"AuctionWlady4.sol\":7982:8029  FundsTransferred(currentBidder, amountToRefund) */\n      mload(0x40)\n      tag_185\n      swap2\n      swap1\n      tag_27\n      jump\t// in\n    tag_185:\n      mload(0x40)\n      dup1\n      swap2\n      sub\n      swap1\n      log2\n        /* \"AuctionWlady4.sol\":7137:8041  {... */\n      pop\n      pop\n      pop\n        /* \"AuctionWlady4.sol\":7092:8041  for (uint i = 0; i < allBidders.length; i++) {... */\n    tag_172:\n        /* \"AuctionWlady4.sol\":7132:7135  i++ */\n      dup1\n      dup1\n      0x01\n      add\n      swap2\n      pop\n      pop\n        /* \"AuctionWlady4.sol\":7092:8041  for (uint i = 0; i < allBidders.length; i++) {... */\n      jump(tag_170)\n    tag_171:\n      pop\n        /* \"AuctionWlady4.sol\":6117:8048  function returnDeposits() public onlyOwner auctionEnded {... */\n      jump\t// out\n        /* \"AuctionWlady4.sol\":936:975  mapping(address => Bid) public lastBids */\n    tag_47:\n      mstore(0x20, 0x06)\n      dup1\n      0x00\n      mstore\n      keccak256(0x00, 0x40)\n      0x00\n      swap2\n      pop\n      swap1\n      pop\n      dup1\n      0x00\n      add\n      0x00\n      swap1\n      sload\n      swap1\n      0x0100\n      exp\n      swap1\n      div\n      0xffffffffffffffffffffffffffffffffffffffff\n      and\n      swap1\n      dup1\n      0x01\n      add\n      sload\n      swap1\n      pop\n      dup3\n      jump\t// out\n        /* \"AuctionWlady4.sol\":367:396  uint256 public auctionEndTime */\n    tag_52:\n      sload(0x02)\n      dup2\n      jump\t// out\n        /* \"AuctionWlady4.sol\":573:624  uint256 public constant EXTENSION_TIME = 10 minutes */\n    tag_56:\n        /* \"AuctionWlady4.sol\":614:624  10 minutes */\n      0x0258\n        /* \"AuctionWlady4.sol\":573:624  uint256 public constant EXTENSION_TIME = 10 minutes */\n      dup2\n      jump\t// out\n        /* \"AuctionWlady4.sol\":302:322  address public owner */\n    tag_60:\n      0x00\n      0x00\n      swap1\n      sload\n      swap1\n      0x0100\n      exp\n      swap1\n      div\n      0xffffffffffffffffffffffffffffffffffffffff\n      and\n      dup2\n      jump\t// out\n        /* \"AuctionWlady4.sol\":476:504  address public highestBidder */\n    tag_65:\n      0x04\n      0x00\n      swap1\n      sload\n      swap1\n      0x0100\n      exp\n      swap1\n      div\n      0xffffffffffffffffffffffffffffffffffffffff\n      and\n      dup2\n      jump\t// out\n        /* \"AuctionWlady4.sol\":1206:1233  address[] public allBidders */\n    tag_71:\n      0x08\n      dup2\n      dup2\n      sload\n      dup2\n      lt\n      tag_186\n      jumpi\n      0x00\n      dup1\n      revert\n    tag_186:\n      swap1\n      0x00\n      mstore\n      keccak256(0x00, 0x20)\n      add\n      0x00\n      swap2\n      pop\n      sload\n      swap1\n      0x0100\n      exp\n      swap1\n      div\n      0xffffffffffffffffffffffffffffffffffffffff\n      and\n      dup2\n      jump\t// out\n        /* \"AuctionWlady4.sol\":4996:5141  function showWinner() public view auctionEnded returns (address winner, uint256 winningBid) {... */\n    tag_75:\n        /* \"AuctionWlady4.sol\":5052:5066  address winner */\n      0x00\n        /* \"AuctionWlady4.sol\":5068:5086  uint256 winningBid */\n      0x00\n        /* \"AuctionWlady4.sol\":2663:2677  auctionEndTime */\n      sload(0x02)\n        /* \"AuctionWlady4.sol\":2644:2659  block.timestamp */\n      timestamp\n        /* \"AuctionWlady4.sol\":2644:2677  block.timestamp >= auctionEndTime */\n      lt\n      iszero\n        /* \"AuctionWlady4.sol\":2644:2686  block.timestamp >= auctionEndTime || ended */\n      dup1\n      tag_189\n      jumpi\n      pop\n        /* \"AuctionWlady4.sol\":2681:2686  ended */\n      0x04\n      0x14\n      swap1\n      sload\n      swap1\n      0x0100\n      exp\n      swap1\n      div\n      0xff\n      and\n        /* \"AuctionWlady4.sol\":2644:2686  block.timestamp >= auctionEndTime || ended */\n    tag_189:\n        /* \"AuctionWlady4.sol\":2636:2709  require(block.timestamp >= auctionEndTime || ended, \"Auction not ended.\") */\n      tag_190\n      jumpi\n      mload(0x40)\n      0x08c379a000000000000000000000000000000000000000000000000000000000\n      dup2\n      mstore\n      0x04\n      add\n      tag_191\n      swap1\n      tag_154\n      jump\t// in\n    tag_191:\n      mload(0x40)\n      dup1\n      swap2\n      sub\n      swap1\n      revert\n    tag_190:\n        /* \"AuctionWlady4.sol\":5107:5120  highestBidder */\n      0x04\n      0x00\n      swap1\n      sload\n      swap1\n      0x0100\n      exp\n      swap1\n      div\n      0xffffffffffffffffffffffffffffffffffffffff\n      and\n        /* \"AuctionWlady4.sol\":5122:5132  highestBid */\n      sload(0x03)\n        /* \"AuctionWlady4.sol\":5099:5133  return (highestBidder, highestBid) */\n      swap2\n      pop\n      swap2\n      pop\n        /* \"AuctionWlady4.sol\":4996:5141  function showWinner() public view auctionEnded returns (address winner, uint256 winningBid) {... */\n      swap1\n      swap2\n      jump\t// out\n        /* \"AuctionWlady4.sol\":631:684  uint256 public constant MIN_BID_INCREMENT_PERCENT = 5 */\n    tag_79:\n        /* \"AuctionWlady4.sol\":683:684  5 */\n      0x05\n        /* \"AuctionWlady4.sol\":631:684  uint256 public constant MIN_BID_INCREMENT_PERCENT = 5 */\n      dup2\n      jump\t// out\n        /* \"AuctionWlady4.sol\":8223:9325  function partialWithdrawal() public auctionActive {... */\n    tag_83:\n        /* \"AuctionWlady4.sol\":2431:2445  auctionEndTime */\n      sload(0x02)\n        /* \"AuctionWlady4.sol\":2413:2428  block.timestamp */\n      timestamp\n        /* \"AuctionWlady4.sol\":2413:2445  block.timestamp < auctionEndTime */\n      lt\n        /* \"AuctionWlady4.sol\":2413:2455  block.timestamp < auctionEndTime && !ended */\n      dup1\n      iszero\n      tag_194\n      jumpi\n      pop\n        /* \"AuctionWlady4.sol\":2450:2455  ended */\n      0x04\n      0x14\n      swap1\n      sload\n      swap1\n      0x0100\n      exp\n      swap1\n      div\n      0xff\n      and\n        /* \"AuctionWlady4.sol\":2449:2455  !ended */\n      iszero\n        /* \"AuctionWlady4.sol\":2413:2455  block.timestamp < auctionEndTime && !ended */\n    tag_194:\n        /* \"AuctionWlady4.sol\":2405:2477  require(block.timestamp < auctionEndTime && !ended, \"Auction inactive.\") */\n      tag_195\n      jumpi\n      mload(0x40)\n      0x08c379a000000000000000000000000000000000000000000000000000000000\n      dup2\n      mstore\n      0x04\n      add\n      tag_196\n      swap1\n      tag_123\n      jump\t// in\n    tag_196:\n      mload(0x40)\n      dup1\n      swap2\n      sub\n      swap1\n      revert\n    tag_195:\n        /* \"AuctionWlady4.sol\":8337:8359  uint256 currentDeposit */\n      0x00\n        /* \"AuctionWlady4.sol\":8362:8370  deposits */\n      0x05\n        /* \"AuctionWlady4.sol\":8362:8382  deposits[msg.sender] */\n      0x00\n        /* \"AuctionWlady4.sol\":8371:8381  msg.sender */\n      caller\n        /* \"AuctionWlady4.sol\":8362:8382  deposits[msg.sender] */\n      0xffffffffffffffffffffffffffffffffffffffff\n      and\n      0xffffffffffffffffffffffffffffffffffffffff\n      and\n      dup2\n      mstore\n      0x20\n      add\n      swap1\n      dup2\n      mstore\n      0x20\n      add\n      0x00\n      keccak256\n      sload\n        /* \"AuctionWlady4.sol\":8337:8382  uint256 currentDeposit = deposits[msg.sender] */\n      swap1\n      pop\n        /* \"AuctionWlady4.sol\":8441:8462  uint256 lastBidAmount */\n      0x00\n        /* \"AuctionWlady4.sol\":8465:8473  lastBids */\n      0x06\n        /* \"AuctionWlady4.sol\":8465:8485  lastBids[msg.sender] */\n      0x00\n        /* \"AuctionWlady4.sol\":8474:8484  msg.sender */\n      caller\n        /* \"AuctionWlady4.sol\":8465:8485  lastBids[msg.sender] */\n      0xffffffffffffffffffffffffffffffffffffffff\n      and\n      0xffffffffffffffffffffffffffffffffffffffff\n      and\n      dup2\n      mstore\n      0x20\n      add\n      swap1\n      dup2\n      mstore\n      0x20\n      add\n      0x00\n      keccak256\n        /* \"AuctionWlady4.sol\":8465:8492  lastBids[msg.sender].amount */\n      0x01\n      add\n      sload\n        /* \"AuctionWlady4.sol\":8441:8492  uint256 lastBidAmount = lastBids[msg.sender].amount */\n      swap1\n      pop\n        /* \"AuctionWlady4.sol\":8637:8650  lastBidAmount */\n      dup1\n        /* \"AuctionWlady4.sol\":8620:8634  currentDeposit */\n      dup3\n        /* \"AuctionWlady4.sol\":8620:8650  currentDeposit > lastBidAmount */\n      gt\n        /* \"AuctionWlady4.sol\":8612:8673  require(currentDeposit > lastBidAmount, \"No excess deposit.\") */\n      tag_198\n      jumpi\n      mload(0x40)\n      0x08c379a000000000000000000000000000000000000000000000000000000000\n      dup2\n      mstore\n      0x04\n      add\n      tag_199\n      swap1\n      tag_200\n      jump\t// in\n    tag_199:\n      mload(0x40)\n      dup1\n      swap2\n      sub\n      swap1\n      revert\n    tag_198:\n        /* \"AuctionWlady4.sol\":8780:8804  uint256 amountToWithdraw */\n      0x00\n        /* \"AuctionWlady4.sol\":8824:8837  lastBidAmount */\n      dup2\n        /* \"AuctionWlady4.sol\":8807:8821  currentDeposit */\n      dup4\n        /* \"AuctionWlady4.sol\":8807:8837  currentDeposit - lastBidAmount */\n      tag_201\n      swap2\n      swap1\n      tag_141\n      jump\t// in\n    tag_201:\n        /* \"AuctionWlady4.sol\":8780:8837  uint256 amountToWithdraw = currentDeposit - lastBidAmount */\n      swap1\n      pop\n        /* \"AuctionWlady4.sol\":9021:9034  lastBidAmount */\n      dup2\n        /* \"AuctionWlady4.sol\":8998:9006  deposits */\n      0x05\n        /* \"AuctionWlady4.sol\":8998:9018  deposits[msg.sender] */\n      0x00\n        /* \"AuctionWlady4.sol\":9007:9017  msg.sender */\n      caller\n        /* \"AuctionWlady4.sol\":8998:9018  deposits[msg.sender] */\n      0xffffffffffffffffffffffffffffffffffffffff\n      and\n      0xffffffffffffffffffffffffffffffffffffffff\n      and\n      dup2\n      mstore\n      0x20\n      add\n      swap1\n      dup2\n      mstore\n      0x20\n      add\n      0x00\n      keccak256\n        /* \"AuctionWlady4.sol\":8998:9034  deposits[msg.sender] = lastBidAmount */\n      dup2\n      swap1\n      sstore\n      pop\n        /* \"AuctionWlady4.sol\":9103:9115  bool success */\n      0x00\n        /* \"AuctionWlady4.sol\":9129:9139  msg.sender */\n      caller\n        /* \"AuctionWlady4.sol\":9121:9145  payable(msg.sender).call */\n      0xffffffffffffffffffffffffffffffffffffffff\n      and\n        /* \"AuctionWlady4.sol\":9153:9169  amountToWithdraw */\n      dup3\n        /* \"AuctionWlady4.sol\":9121:9174  payable(msg.sender).call{value: amountToWithdraw}(\"\") */\n      mload(0x40)\n      tag_202\n      swap1\n      tag_162\n      jump\t// in\n    tag_202:\n      0x00\n      mload(0x40)\n      dup1\n      dup4\n      sub\n      dup2\n      dup6\n      dup8\n      gas\n      call\n      swap3\n      pop\n      pop\n      pop\n      returndatasize\n      dup1\n      0x00\n      dup2\n      eq\n      tag_205\n      jumpi\n      mload(0x40)\n      swap2\n      pop\n      and(add(returndatasize, 0x3f), not(0x1f))\n      dup3\n      add\n      0x40\n      mstore\n      returndatasize\n      dup3\n      mstore\n      returndatasize\n      0x00\n      0x20\n      dup5\n      add\n      returndatacopy\n      jump(tag_204)\n    tag_205:\n      0x60\n      swap2\n      pop\n    tag_204:\n      pop\n        /* \"AuctionWlady4.sol\":9102:9174  (bool success, ) = payable(msg.sender).call{value: amountToWithdraw}(\"\") */\n      pop\n      swap1\n      pop\n        /* \"AuctionWlady4.sol\":9193:9200  success */\n      dup1\n        /* \"AuctionWlady4.sol\":9185:9231  require(success, \"Partial withdrawal failed.\") */\n      tag_206\n      jumpi\n      mload(0x40)\n      0x08c379a000000000000000000000000000000000000000000000000000000000\n      dup2\n      mstore\n      0x04\n      add\n      tag_207\n      swap1\n      tag_208\n      jump\t// in\n    tag_207:\n      mload(0x40)\n      dup1\n      swap2\n      sub\n      swap1\n      revert\n    tag_206:\n        /* \"AuctionWlady4.sol\":9288:9298  msg.sender */\n      caller\n        /* \"AuctionWlady4.sol\":9270:9317  PartialWithdrawal(msg.sender, amountToWithdraw) */\n      0xffffffffffffffffffffffffffffffffffffffff\n      and\n      0x8468f8fa62fc679cf8165eab7662a1fa977705b501dd787e9ec07884885425f1\n        /* \"AuctionWlady4.sol\":9300:9316  amountToWithdraw */\n      dup4\n        /* \"AuctionWlady4.sol\":9270:9317  PartialWithdrawal(msg.sender, amountToWithdraw) */\n      mload(0x40)\n      tag_209\n      swap2\n      swap1\n      tag_27\n      jump\t// in\n    tag_209:\n      mload(0x40)\n      dup1\n      swap2\n      sub\n      swap1\n      log2\n        /* \"AuctionWlady4.sol\":8273:9325  {... */\n      pop\n      pop\n      pop\n      pop\n        /* \"AuctionWlady4.sol\":8223:9325  function partialWithdrawal() public auctionActive {... */\n      jump\t// out\n        /* \"AuctionWlady4.sol\":444:469  uint256 public highestBid */\n    tag_86:\n      sload(0x03)\n      dup2\n      jump\t// out\n        /* \"AuctionWlady4.sol\":329:360  uint256 public auctionStartTime */\n    tag_90:\n      sload(0x01)\n      dup2\n      jump\t// out\n        /* \"AuctionWlady4.sol\":843:886  mapping(address => uint256) public deposits */\n    tag_95:\n      mstore(0x20, 0x05)\n      dup1\n      0x00\n      mstore\n      keccak256(0x00, 0x40)\n      0x00\n      swap2\n      pop\n      swap1\n      pop\n      sload\n      dup2\n      jump\t// out\n        /* \"AuctionWlady4.sol\":4509:4732  function endAuction() public {... */\n    tag_99:\n        /* \"AuctionWlady4.sol\":4576:4590  auctionEndTime */\n      sload(0x02)\n        /* \"AuctionWlady4.sol\":4557:4572  block.timestamp */\n      timestamp\n        /* \"AuctionWlady4.sol\":4557:4590  block.timestamp >= auctionEndTime */\n      lt\n      iszero\n        /* \"AuctionWlady4.sol\":4557:4600  block.timestamp >= auctionEndTime && !ended */\n      dup1\n      iszero\n      tag_211\n      jumpi\n      pop\n        /* \"AuctionWlady4.sol\":4595:4600  ended */\n      0x04\n      0x14\n      swap1\n      sload\n      swap1\n      0x0100\n      exp\n      swap1\n      div\n      0xff\n      and\n        /* \"AuctionWlady4.sol\":4594:4600  !ended */\n      iszero\n        /* \"AuctionWlady4.sol\":4557:4600  block.timestamp >= auctionEndTime && !ended */\n    tag_211:\n        /* \"AuctionWlady4.sol\":4549:4625  require(block.timestamp >= auctionEndTime && !ended, \"Auction not endable.\") */\n      tag_212\n      jumpi\n      mload(0x40)\n      0x08c379a000000000000000000000000000000000000000000000000000000000\n      dup2\n      mstore\n      0x04\n      add\n      tag_213\n      swap1\n      tag_214\n      jump\t// in\n    tag_213:\n      mload(0x40)\n      dup1\n      swap2\n      sub\n      swap1\n      revert\n    tag_212:\n        /* \"AuctionWlady4.sol\":4665:4669  true */\n      0x01\n        /* \"AuctionWlady4.sol\":4657:4662  ended */\n      0x04\n      0x14\n        /* \"AuctionWlady4.sol\":4657:4669  ended = true */\n      0x0100\n      exp\n      dup2\n      sload\n      dup2\n      0xff\n      mul\n      not\n      and\n      swap1\n      dup4\n      iszero\n      iszero\n      mul\n      or\n      swap1\n      sstore\n      pop\n        /* \"AuctionWlady4.sol\":4685:4724  AuctionEnded(highestBidder, highestBid) */\n      0xdaec4582d5d9595688c8c98545fdd1c696d41c6aeaeb636737e84ed2f5c00eda\n        /* \"AuctionWlady4.sol\":4698:4711  highestBidder */\n      0x04\n      0x00\n      swap1\n      sload\n      swap1\n      0x0100\n      exp\n      swap1\n      div\n      0xffffffffffffffffffffffffffffffffffffffff\n      and\n        /* \"AuctionWlady4.sol\":4713:4723  highestBid */\n      sload(0x03)\n        /* \"AuctionWlady4.sol\":4685:4724  AuctionEnded(highestBidder, highestBid) */\n      mload(0x40)\n      tag_215\n      swap3\n      swap2\n      swap1\n      tag_49\n      jump\t// in\n    tag_215:\n      mload(0x40)\n      dup1\n      swap2\n      sub\n      swap1\n      log1\n        /* \"AuctionWlady4.sol\":4509:4732  function endAuction() public {... */\n      jump\t// out\n        /* \"#utility.yul\":7:84   */\n    tag_216:\n        /* \"#utility.yul\":44:51   */\n      0x00\n        /* \"#utility.yul\":73:78   */\n      dup2\n        /* \"#utility.yul\":62:78   */\n      swap1\n      pop\n        /* \"#utility.yul\":7:84   */\n      swap2\n      swap1\n      pop\n      jump\t// out\n        /* \"#utility.yul\":90:208   */\n    tag_217:\n        /* \"#utility.yul\":177:201   */\n      tag_271\n        /* \"#utility.yul\":195:200   */\n      dup2\n        /* \"#utility.yul\":177:201   */\n      tag_216\n      jump\t// in\n    tag_271:\n        /* \"#utility.yul\":172:175   */\n      dup3\n        /* \"#utility.yul\":165:202   */\n      mstore\n        /* \"#utility.yul\":90:208   */\n      pop\n      pop\n      jump\t// out\n        /* \"#utility.yul\":214:436   */\n    tag_27:\n        /* \"#utility.yul\":307:311   */\n      0x00\n        /* \"#utility.yul\":345:347   */\n      0x20\n        /* \"#utility.yul\":334:343   */\n      dup3\n        /* \"#utility.yul\":330:348   */\n      add\n        /* \"#utility.yul\":322:348   */\n      swap1\n      pop\n        /* \"#utility.yul\":358:429   */\n      tag_273\n        /* \"#utility.yul\":426:427   */\n      0x00\n        /* \"#utility.yul\":415:424   */\n      dup4\n        /* \"#utility.yul\":411:428   */\n      add\n        /* \"#utility.yul\":402:408   */\n      dup5\n        /* \"#utility.yul\":358:429   */\n      tag_217\n      jump\t// in\n    tag_273:\n        /* \"#utility.yul\":214:436   */\n      swap3\n      swap2\n      pop\n      pop\n      jump\t// out\n        /* \"#utility.yul\":442:532   */\n    tag_218:\n        /* \"#utility.yul\":476:483   */\n      0x00\n        /* \"#utility.yul\":519:524   */\n      dup2\n        /* \"#utility.yul\":512:525   */\n      iszero\n        /* \"#utility.yul\":505:526   */\n      iszero\n        /* \"#utility.yul\":494:526   */\n      swap1\n      pop\n        /* \"#utility.yul\":442:532   */\n      swap2\n      swap1\n      pop\n      jump\t// out\n        /* \"#utility.yul\":538:647   */\n    tag_219:\n        /* \"#utility.yul\":619:640   */\n      tag_276\n        /* \"#utility.yul\":634:639   */\n      dup2\n        /* \"#utility.yul\":619:640   */\n      tag_218\n      jump\t// in\n    tag_276:\n        /* \"#utility.yul\":614:617   */\n      dup3\n        /* \"#utility.yul\":607:641   */\n      mstore\n        /* \"#utility.yul\":538:647   */\n      pop\n      pop\n      jump\t// out\n        /* \"#utility.yul\":653:863   */\n    tag_32:\n        /* \"#utility.yul\":740:744   */\n      0x00\n        /* \"#utility.yul\":778:780   */\n      0x20\n        /* \"#utility.yul\":767:776   */\n      dup3\n        /* \"#utility.yul\":763:781   */\n      add\n        /* \"#utility.yul\":755:781   */\n      swap1\n      pop\n        /* \"#utility.yul\":791:856   */\n      tag_278\n        /* \"#utility.yul\":853:854   */\n      0x00\n        /* \"#utility.yul\":842:851   */\n      dup4\n        /* \"#utility.yul\":838:855   */\n      add\n        /* \"#utility.yul\":829:835   */\n      dup5\n        /* \"#utility.yul\":791:856   */\n      tag_219\n      jump\t// in\n    tag_278:\n        /* \"#utility.yul\":653:863   */\n      swap3\n      swap2\n      pop\n      pop\n      jump\t// out\n        /* \"#utility.yul\":869:983   */\n    tag_220:\n        /* \"#utility.yul\":936:942   */\n      0x00\n        /* \"#utility.yul\":970:975   */\n      dup2\n        /* \"#utility.yul\":964:976   */\n      mload\n        /* \"#utility.yul\":954:976   */\n      swap1\n      pop\n        /* \"#utility.yul\":869:983   */\n      swap2\n      swap1\n      pop\n      jump\t// out\n        /* \"#utility.yul\":989:1173   */\n    tag_221:\n        /* \"#utility.yul\":1088:1099   */\n      0x00\n        /* \"#utility.yul\":1122:1128   */\n      dup3\n        /* \"#utility.yul\":1117:1120   */\n      dup3\n        /* \"#utility.yul\":1110:1129   */\n      mstore\n        /* \"#utility.yul\":1162:1166   */\n      0x20\n        /* \"#utility.yul\":1157:1160   */\n      dup3\n        /* \"#utility.yul\":1153:1167   */\n      add\n        /* \"#utility.yul\":1138:1167   */\n      swap1\n      pop\n        /* \"#utility.yul\":989:1173   */\n      swap3\n      swap2\n      pop\n      pop\n      jump\t// out\n        /* \"#utility.yul\":1179:1311   */\n    tag_222:\n        /* \"#utility.yul\":1246:1250   */\n      0x00\n        /* \"#utility.yul\":1269:1272   */\n      dup2\n        /* \"#utility.yul\":1261:1272   */\n      swap1\n      pop\n        /* \"#utility.yul\":1299:1303   */\n      0x20\n        /* \"#utility.yul\":1294:1297   */\n      dup3\n        /* \"#utility.yul\":1290:1304   */\n      add\n        /* \"#utility.yul\":1282:1304   */\n      swap1\n      pop\n        /* \"#utility.yul\":1179:1311   */\n      swap2\n      swap1\n      pop\n      jump\t// out\n        /* \"#utility.yul\":1317:1443   */\n    tag_223:\n        /* \"#utility.yul\":1354:1361   */\n      0x00\n        /* \"#utility.yul\":1394:1436   */\n      0xffffffffffffffffffffffffffffffffffffffff\n        /* \"#utility.yul\":1387:1392   */\n      dup3\n        /* \"#utility.yul\":1383:1437   */\n      and\n        /* \"#utility.yul\":1372:1437   */\n      swap1\n      pop\n        /* \"#utility.yul\":1317:1443   */\n      swap2\n      swap1\n      pop\n      jump\t// out\n        /* \"#utility.yul\":1449:1545   */\n    tag_224:\n        /* \"#utility.yul\":1486:1493   */\n      0x00\n        /* \"#utility.yul\":1515:1539   */\n      tag_284\n        /* \"#utility.yul\":1533:1538   */\n      dup3\n        /* \"#utility.yul\":1515:1539   */\n      tag_223\n      jump\t// in\n    tag_284:\n        /* \"#utility.yul\":1504:1539   */\n      swap1\n      pop\n        /* \"#utility.yul\":1449:1545   */\n      swap2\n      swap1\n      pop\n      jump\t// out\n        /* \"#utility.yul\":1551:1659   */\n    tag_225:\n        /* \"#utility.yul\":1628:1652   */\n      tag_286\n        /* \"#utility.yul\":1646:1651   */\n      dup2\n        /* \"#utility.yul\":1628:1652   */\n      tag_224\n      jump\t// in\n    tag_286:\n        /* \"#utility.yul\":1623:1626   */\n      dup3\n        /* \"#utility.yul\":1616:1653   */\n      mstore\n        /* \"#utility.yul\":1551:1659   */\n      pop\n      pop\n      jump\t// out\n        /* \"#utility.yul\":1665:1844   */\n    tag_226:\n        /* \"#utility.yul\":1734:1744   */\n      0x00\n        /* \"#utility.yul\":1755:1801   */\n      tag_288\n        /* \"#utility.yul\":1797:1800   */\n      dup4\n        /* \"#utility.yul\":1789:1795   */\n      dup4\n        /* \"#utility.yul\":1755:1801   */\n      tag_225\n      jump\t// in\n    tag_288:\n        /* \"#utility.yul\":1833:1837   */\n      0x20\n        /* \"#utility.yul\":1828:1831   */\n      dup4\n        /* \"#utility.yul\":1824:1838   */\n      add\n        /* \"#utility.yul\":1810:1838   */\n      swap1\n      pop\n        /* \"#utility.yul\":1665:1844   */\n      swap3\n      swap2\n      pop\n      pop\n      jump\t// out\n        /* \"#utility.yul\":1850:1963   */\n    tag_227:\n        /* \"#utility.yul\":1920:1924   */\n      0x00\n        /* \"#utility.yul\":1952:1956   */\n      0x20\n        /* \"#utility.yul\":1947:1950   */\n      dup3\n        /* \"#utility.yul\":1943:1957   */\n      add\n        /* \"#utility.yul\":1935:1957   */\n      swap1\n      pop\n        /* \"#utility.yul\":1850:1963   */\n      swap2\n      swap1\n      pop\n      jump\t// out\n        /* \"#utility.yul\":1999:2731   */\n    tag_228:\n        /* \"#utility.yul\":2118:2121   */\n      0x00\n        /* \"#utility.yul\":2147:2201   */\n      tag_291\n        /* \"#utility.yul\":2195:2200   */\n      dup3\n        /* \"#utility.yul\":2147:2201   */\n      tag_220\n      jump\t// in\n    tag_291:\n        /* \"#utility.yul\":2217:2303   */\n      tag_292\n        /* \"#utility.yul\":2296:2302   */\n      dup2\n        /* \"#utility.yul\":2291:2294   */\n      dup6\n        /* \"#utility.yul\":2217:2303   */\n      tag_221\n      jump\t// in\n    tag_292:\n        /* \"#utility.yul\":2210:2303   */\n      swap4\n      pop\n        /* \"#utility.yul\":2327:2383   */\n      tag_293\n        /* \"#utility.yul\":2377:2382   */\n      dup4\n        /* \"#utility.yul\":2327:2383   */\n      tag_222\n      jump\t// in\n    tag_293:\n        /* \"#utility.yul\":2406:2413   */\n      dup1\n        /* \"#utility.yul\":2437:2438   */\n      0x00\n        /* \"#utility.yul\":2422:2706   */\n    tag_294:\n        /* \"#utility.yul\":2447:2453   */\n      dup4\n        /* \"#utility.yul\":2444:2445   */\n      dup2\n        /* \"#utility.yul\":2441:2454   */\n      lt\n        /* \"#utility.yul\":2422:2706   */\n      iszero\n      tag_296\n      jumpi\n        /* \"#utility.yul\":2523:2529   */\n      dup2\n        /* \"#utility.yul\":2517:2530   */\n      mload\n        /* \"#utility.yul\":2550:2613   */\n      tag_297\n        /* \"#utility.yul\":2609:2612   */\n      dup9\n        /* \"#utility.yul\":2594:2607   */\n      dup3\n        /* \"#utility.yul\":2550:2613   */\n      tag_226\n      jump\t// in\n    tag_297:\n        /* \"#utility.yul\":2543:2613   */\n      swap8\n      pop\n        /* \"#utility.yul\":2636:2696   */\n      tag_298\n        /* \"#utility.yul\":2689:2695   */\n      dup4\n        /* \"#utility.yul\":2636:2696   */\n      tag_227\n      jump\t// in\n    tag_298:\n        /* \"#utility.yul\":2626:2696   */\n      swap3\n      pop\n        /* \"#utility.yul\":2482:2706   */\n      pop\n        /* \"#utility.yul\":2469:2470   */\n      0x01\n        /* \"#utility.yul\":2466:2467   */\n      dup2\n        /* \"#utility.yul\":2462:2471   */\n      add\n        /* \"#utility.yul\":2457:2471   */\n      swap1\n      pop\n        /* \"#utility.yul\":2422:2706   */\n      jump(tag_294)\n    tag_296:\n        /* \"#utility.yul\":2426:2440   */\n      pop\n        /* \"#utility.yul\":2722:2725   */\n      dup6\n        /* \"#utility.yul\":2715:2725   */\n      swap4\n      pop\n        /* \"#utility.yul\":2123:2731   */\n      pop\n      pop\n      pop\n        /* \"#utility.yul\":1999:2731   */\n      swap3\n      swap2\n      pop\n      pop\n      jump\t// out\n        /* \"#utility.yul\":2737:2851   */\n    tag_229:\n        /* \"#utility.yul\":2804:2810   */\n      0x00\n        /* \"#utility.yul\":2838:2843   */\n      dup2\n        /* \"#utility.yul\":2832:2844   */\n      mload\n        /* \"#utility.yul\":2822:2844   */\n      swap1\n      pop\n        /* \"#utility.yul\":2737:2851   */\n      swap2\n      swap1\n      pop\n      jump\t// out\n        /* \"#utility.yul\":2857:3041   */\n    tag_230:\n        /* \"#utility.yul\":2956:2967   */\n      0x00\n        /* \"#utility.yul\":2990:2996   */\n      dup3\n        /* \"#utility.yul\":2985:2988   */\n      dup3\n        /* \"#utility.yul\":2978:2997   */\n      mstore\n        /* \"#utility.yul\":3030:3034   */\n      0x20\n        /* \"#utility.yul\":3025:3028   */\n      dup3\n        /* \"#utility.yul\":3021:3035   */\n      add\n        /* \"#utility.yul\":3006:3035   */\n      swap1\n      pop\n        /* \"#utility.yul\":2857:3041   */\n      swap3\n      swap2\n      pop\n      pop\n      jump\t// out\n        /* \"#utility.yul\":3047:3179   */\n    tag_231:\n        /* \"#utility.yul\":3114:3118   */\n      0x00\n        /* \"#utility.yul\":3137:3140   */\n      dup2\n        /* \"#utility.yul\":3129:3140   */\n      swap1\n      pop\n        /* \"#utility.yul\":3167:3171   */\n      0x20\n        /* \"#utility.yul\":3162:3165   */\n      dup3\n        /* \"#utility.yul\":3158:3172   */\n      add\n        /* \"#utility.yul\":3150:3172   */\n      swap1\n      pop\n        /* \"#utility.yul\":3047:3179   */\n      swap2\n      swap1\n      pop\n      jump\t// out\n        /* \"#utility.yul\":3185:3293   */\n    tag_232:\n        /* \"#utility.yul\":3262:3286   */\n      tag_303\n        /* \"#utility.yul\":3280:3285   */\n      dup2\n        /* \"#utility.yul\":3262:3286   */\n      tag_216\n      jump\t// in\n    tag_303:\n        /* \"#utility.yul\":3257:3260   */\n      dup3\n        /* \"#utility.yul\":3250:3287   */\n      mstore\n        /* \"#utility.yul\":3185:3293   */\n      pop\n      pop\n      jump\t// out\n        /* \"#utility.yul\":3299:3478   */\n    tag_233:\n        /* \"#utility.yul\":3368:3378   */\n      0x00\n        /* \"#utility.yul\":3389:3435   */\n      tag_305\n        /* \"#utility.yul\":3431:3434   */\n      dup4\n        /* \"#utility.yul\":3423:3429   */\n      dup4\n        /* \"#utility.yul\":3389:3435   */\n      tag_232\n      jump\t// in\n    tag_305:\n        /* \"#utility.yul\":3467:3471   */\n      0x20\n        /* \"#utility.yul\":3462:3465   */\n      dup4\n        /* \"#utility.yul\":3458:3472   */\n      add\n        /* \"#utility.yul\":3444:3472   */\n      swap1\n      pop\n        /* \"#utility.yul\":3299:3478   */\n      swap3\n      swap2\n      pop\n      pop\n      jump\t// out\n        /* \"#utility.yul\":3484:3597   */\n    tag_234:\n        /* \"#utility.yul\":3554:3558   */\n      0x00\n        /* \"#utility.yul\":3586:3590   */\n      0x20\n        /* \"#utility.yul\":3581:3584   */\n      dup3\n        /* \"#utility.yul\":3577:3591   */\n      add\n        /* \"#utility.yul\":3569:3591   */\n      swap1\n      pop\n        /* \"#utility.yul\":3484:3597   */\n      swap2\n      swap1\n      pop\n      jump\t// out\n        /* \"#utility.yul\":3633:4365   */\n    tag_235:\n        /* \"#utility.yul\":3752:3755   */\n      0x00\n        /* \"#utility.yul\":3781:3835   */\n      tag_308\n        /* \"#utility.yul\":3829:3834   */\n      dup3\n        /* \"#utility.yul\":3781:3835   */\n      tag_229\n      jump\t// in\n    tag_308:\n        /* \"#utility.yul\":3851:3937   */\n      tag_309\n        /* \"#utility.yul\":3930:3936   */\n      dup2\n        /* \"#utility.yul\":3925:3928   */\n      dup6\n        /* \"#utility.yul\":3851:3937   */\n      tag_230\n      jump\t// in\n    tag_309:\n        /* \"#utility.yul\":3844:3937   */\n      swap4\n      pop\n        /* \"#utility.yul\":3961:4017   */\n      tag_310\n        /* \"#utility.yul\":4011:4016   */\n      dup4\n        /* \"#utility.yul\":3961:4017   */\n      tag_231\n      jump\t// in\n    tag_310:\n        /* \"#utility.yul\":4040:4047   */\n      dup1\n        /* \"#utility.yul\":4071:4072   */\n      0x00\n        /* \"#utility.yul\":4056:4340   */\n    tag_311:\n        /* \"#utility.yul\":4081:4087   */\n      dup4\n        /* \"#utility.yul\":4078:4079   */\n      dup2\n        /* \"#utility.yul\":4075:4088   */\n      lt\n        /* \"#utility.yul\":4056:4340   */\n      iszero\n      tag_313\n      jumpi\n        /* \"#utility.yul\":4157:4163   */\n      dup2\n        /* \"#utility.yul\":4151:4164   */\n      mload\n        /* \"#utility.yul\":4184:4247   */\n      tag_314\n        /* \"#utility.yul\":4243:4246   */\n      dup9\n        /* \"#utility.yul\":4228:4241   */\n      dup3\n        /* \"#utility.yul\":4184:4247   */\n      tag_233\n      jump\t// in\n    tag_314:\n        /* \"#utility.yul\":4177:4247   */\n      swap8\n      pop\n        /* \"#utility.yul\":4270:4330   */\n      tag_315\n        /* \"#utility.yul\":4323:4329   */\n      dup4\n        /* \"#utility.yul\":4270:4330   */\n      tag_234\n      jump\t// in\n    tag_315:\n        /* \"#utility.yul\":4260:4330   */\n      swap3\n      pop\n        /* \"#utility.yul\":4116:4340   */\n      pop\n        /* \"#utility.yul\":4103:4104   */\n      0x01\n        /* \"#utility.yul\":4100:4101   */\n      dup2\n        /* \"#utility.yul\":4096:4105   */\n      add\n        /* \"#utility.yul\":4091:4105   */\n      swap1\n      pop\n        /* \"#utility.yul\":4056:4340   */\n      jump(tag_311)\n    tag_313:\n        /* \"#utility.yul\":4060:4074   */\n      pop\n        /* \"#utility.yul\":4356:4359   */\n      dup6\n        /* \"#utility.yul\":4349:4359   */\n      swap4\n      pop\n        /* \"#utility.yul\":3757:4365   */\n      pop\n      pop\n      pop\n        /* \"#utility.yul\":3633:4365   */\n      swap3\n      swap2\n      pop\n      pop\n      jump\t// out\n        /* \"#utility.yul\":4371:5005   */\n    tag_37:\n        /* \"#utility.yul\":4592:4596   */\n      0x00\n        /* \"#utility.yul\":4630:4632   */\n      0x40\n        /* \"#utility.yul\":4619:4628   */\n      dup3\n        /* \"#utility.yul\":4615:4633   */\n      add\n        /* \"#utility.yul\":4607:4633   */\n      swap1\n      pop\n        /* \"#utility.yul\":4679:4688   */\n      dup2\n        /* \"#utility.yul\":4673:4677   */\n      dup2\n        /* \"#utility.yul\":4669:4689   */\n      sub\n        /* \"#utility.yul\":4665:4666   */\n      0x00\n        /* \"#utility.yul\":4654:4663   */\n      dup4\n        /* \"#utility.yul\":4650:4667   */\n      add\n        /* \"#utility.yul\":4643:4690   */\n      mstore\n        /* \"#utility.yul\":4707:4815   */\n      tag_317\n        /* \"#utility.yul\":4810:4814   */\n      dup2\n        /* \"#utility.yul\":4801:4807   */\n      dup6\n        /* \"#utility.yul\":4707:4815   */\n      tag_228\n      jump\t// in\n    tag_317:\n        /* \"#utility.yul\":4699:4815   */\n      swap1\n      pop\n        /* \"#utility.yul\":4862:4871   */\n      dup2\n        /* \"#utility.yul\":4856:4860   */\n      dup2\n        /* \"#utility.yul\":4852:4872   */\n      sub\n        /* \"#utility.yul\":4847:4849   */\n      0x20\n        /* \"#utility.yul\":4836:4845   */\n      dup4\n        /* \"#utility.yul\":4832:4850   */\n      add\n        /* \"#utility.yul\":4825:4873   */\n      mstore\n        /* \"#utility.yul\":4890:4998   */\n      tag_318\n        /* \"#utility.yul\":4993:4997   */\n      dup2\n        /* \"#utility.yul\":4984:4990   */\n      dup5\n        /* \"#utility.yul\":4890:4998   */\n      tag_235\n      jump\t// in\n    tag_318:\n        /* \"#utility.yul\":4882:4998   */\n      swap1\n      pop\n        /* \"#utility.yul\":4371:5005   */\n      swap4\n      swap3\n      pop\n      pop\n      pop\n      jump\t// out\n        /* \"#utility.yul\":5092:5209   */\n    tag_237:\n        /* \"#utility.yul\":5201:5202   */\n      0x00\n        /* \"#utility.yul\":5198:5199   */\n      0x00\n        /* \"#utility.yul\":5191:5203   */\n      revert\n        /* \"#utility.yul\":5338:5460   */\n    tag_239:\n        /* \"#utility.yul\":5411:5435   */\n      tag_323\n        /* \"#utility.yul\":5429:5434   */\n      dup2\n        /* \"#utility.yul\":5411:5435   */\n      tag_224\n      jump\t// in\n    tag_323:\n        /* \"#utility.yul\":5404:5409   */\n      dup2\n        /* \"#utility.yul\":5401:5436   */\n      eq\n        /* \"#utility.yul\":5391:5454   */\n      tag_324\n      jumpi\n        /* \"#utility.yul\":5450:5451   */\n      0x00\n        /* \"#utility.yul\":5447:5448   */\n      0x00\n        /* \"#utility.yul\":5440:5452   */\n      revert\n        /* \"#utility.yul\":5391:5454   */\n    tag_324:\n        /* \"#utility.yul\":5338:5460   */\n      pop\n      jump\t// out\n        /* \"#utility.yul\":5466:5605   */\n    tag_240:\n        /* \"#utility.yul\":5512:5517   */\n      0x00\n        /* \"#utility.yul\":5550:5556   */\n      dup2\n        /* \"#utility.yul\":5537:5557   */\n      calldataload\n        /* \"#utility.yul\":5528:5557   */\n      swap1\n      pop\n        /* \"#utility.yul\":5566:5599   */\n      tag_326\n        /* \"#utility.yul\":5593:5598   */\n      dup2\n        /* \"#utility.yul\":5566:5599   */\n      tag_239\n      jump\t// in\n    tag_326:\n        /* \"#utility.yul\":5466:5605   */\n      swap3\n      swap2\n      pop\n      pop\n      jump\t// out\n        /* \"#utility.yul\":5611:5940   */\n    tag_46:\n        /* \"#utility.yul\":5670:5676   */\n      0x00\n        /* \"#utility.yul\":5719:5721   */\n      0x20\n        /* \"#utility.yul\":5707:5716   */\n      dup3\n        /* \"#utility.yul\":5698:5705   */\n      dup5\n        /* \"#utility.yul\":5694:5717   */\n      sub\n        /* \"#utility.yul\":5690:5722   */\n      slt\n        /* \"#utility.yul\":5687:5806   */\n      iszero\n      tag_328\n      jumpi\n        /* \"#utility.yul\":5725:5804   */\n      tag_329\n      tag_237\n      jump\t// in\n    tag_329:\n        /* \"#utility.yul\":5687:5806   */\n    tag_328:\n        /* \"#utility.yul\":5845:5846   */\n      0x00\n        /* \"#utility.yul\":5870:5923   */\n      tag_330\n        /* \"#utility.yul\":5915:5922   */\n      dup5\n        /* \"#utility.yul\":5906:5912   */\n      dup3\n        /* \"#utility.yul\":5895:5904   */\n      dup6\n        /* \"#utility.yul\":5891:5913   */\n      add\n        /* \"#utility.yul\":5870:5923   */\n      tag_240\n      jump\t// in\n    tag_330:\n        /* \"#utility.yul\":5860:5923   */\n      swap2\n      pop\n        /* \"#utility.yul\":5816:5933   */\n      pop\n        /* \"#utility.yul\":5611:5940   */\n      swap3\n      swap2\n      pop\n      pop\n      jump\t// out\n        /* \"#utility.yul\":5946:6064   */\n    tag_241:\n        /* \"#utility.yul\":6033:6057   */\n      tag_332\n        /* \"#utility.yul\":6051:6056   */\n      dup2\n        /* \"#utility.yul\":6033:6057   */\n      tag_224\n      jump\t// in\n    tag_332:\n        /* \"#utility.yul\":6028:6031   */\n      dup3\n        /* \"#utility.yul\":6021:6058   */\n      mstore\n        /* \"#utility.yul\":5946:6064   */\n      pop\n      pop\n      jump\t// out\n        /* \"#utility.yul\":6070:6402   */\n    tag_49:\n        /* \"#utility.yul\":6191:6195   */\n      0x00\n        /* \"#utility.yul\":6229:6231   */\n      0x40\n        /* \"#utility.yul\":6218:6227   */\n      dup3\n        /* \"#utility.yul\":6214:6232   */\n      add\n        /* \"#utility.yul\":6206:6232   */\n      swap1\n      pop\n        /* \"#utility.yul\":6242:6313   */\n      tag_334\n        /* \"#utility.yul\":6310:6311   */\n      0x00\n        /* \"#utility.yul\":6299:6308   */\n      dup4\n        /* \"#utility.yul\":6295:6312   */\n      add\n        /* \"#utility.yul\":6286:6292   */\n      dup6\n        /* \"#utility.yul\":6242:6313   */\n      tag_241\n      jump\t// in\n    tag_334:\n        /* \"#utility.yul\":6323:6395   */\n      tag_335\n        /* \"#utility.yul\":6391:6393   */\n      0x20\n        /* \"#utility.yul\":6380:6389   */\n      dup4\n        /* \"#utility.yul\":6376:6394   */\n      add\n        /* \"#utility.yul\":6367:6373   */\n      dup5\n        /* \"#utility.yul\":6323:6395   */\n      tag_217\n      jump\t// in\n    tag_335:\n        /* \"#utility.yul\":6070:6402   */\n      swap4\n      swap3\n      pop\n      pop\n      pop\n      jump\t// out\n        /* \"#utility.yul\":6408:6630   */\n    tag_62:\n        /* \"#utility.yul\":6501:6505   */\n      0x00\n        /* \"#utility.yul\":6539:6541   */\n      0x20\n        /* \"#utility.yul\":6528:6537   */\n      dup3\n        /* \"#utility.yul\":6524:6542   */\n      add\n        /* \"#utility.yul\":6516:6542   */\n      swap1\n      pop\n        /* \"#utility.yul\":6552:6623   */\n      tag_337\n        /* \"#utility.yul\":6620:6621   */\n      0x00\n        /* \"#utility.yul\":6609:6618   */\n      dup4\n        /* \"#utility.yul\":6605:6622   */\n      add\n        /* \"#utility.yul\":6596:6602   */\n      dup5\n        /* \"#utility.yul\":6552:6623   */\n      tag_241\n      jump\t// in\n    tag_337:\n        /* \"#utility.yul\":6408:6630   */\n      swap3\n      swap2\n      pop\n      pop\n      jump\t// out\n        /* \"#utility.yul\":6636:6758   */\n    tag_242:\n        /* \"#utility.yul\":6709:6733   */\n      tag_339\n        /* \"#utility.yul\":6727:6732   */\n      dup2\n        /* \"#utility.yul\":6709:6733   */\n      tag_216\n      jump\t// in\n    tag_339:\n        /* \"#utility.yul\":6702:6707   */\n      dup2\n        /* \"#utility.yul\":6699:6734   */\n      eq\n        /* \"#utility.yul\":6689:6752   */\n      tag_340\n      jumpi\n        /* \"#utility.yul\":6748:6749   */\n      0x00\n        /* \"#utility.yul\":6745:6746   */\n      0x00\n        /* \"#utility.yul\":6738:6750   */\n      revert\n        /* \"#utility.yul\":6689:6752   */\n    tag_340:\n        /* \"#utility.yul\":6636:6758   */\n      pop\n      jump\t// out\n        /* \"#utility.yul\":6764:6903   */\n    tag_243:\n        /* \"#utility.yul\":6810:6815   */\n      0x00\n        /* \"#utility.yul\":6848:6854   */\n      dup2\n        /* \"#utility.yul\":6835:6855   */\n      calldataload\n        /* \"#utility.yul\":6826:6855   */\n      swap1\n      pop\n        /* \"#utility.yul\":6864:6897   */\n      tag_342\n        /* \"#utility.yul\":6891:6896   */\n      dup2\n        /* \"#utility.yul\":6864:6897   */\n      tag_242\n      jump\t// in\n    tag_342:\n        /* \"#utility.yul\":6764:6903   */\n      swap3\n      swap2\n      pop\n      pop\n      jump\t// out\n        /* \"#utility.yul\":6909:7238   */\n    tag_70:\n        /* \"#utility.yul\":6968:6974   */\n      0x00\n        /* \"#utility.yul\":7017:7019   */\n      0x20\n        /* \"#utility.yul\":7005:7014   */\n      dup3\n        /* \"#utility.yul\":6996:7003   */\n      dup5\n        /* \"#utility.yul\":6992:7015   */\n      sub\n        /* \"#utility.yul\":6988:7020   */\n      slt\n        /* \"#utility.yul\":6985:7104   */\n      iszero\n      tag_344\n      jumpi\n        /* \"#utility.yul\":7023:7102   */\n      tag_345\n      tag_237\n      jump\t// in\n    tag_345:\n        /* \"#utility.yul\":6985:7104   */\n    tag_344:\n        /* \"#utility.yul\":7143:7144   */\n      0x00\n        /* \"#utility.yul\":7168:7221   */\n      tag_346\n        /* \"#utility.yul\":7213:7220   */\n      dup5\n        /* \"#utility.yul\":7204:7210   */\n      dup3\n        /* \"#utility.yul\":7193:7202   */\n      dup6\n        /* \"#utility.yul\":7189:7211   */\n      add\n        /* \"#utility.yul\":7168:7221   */\n      tag_243\n      jump\t// in\n    tag_346:\n        /* \"#utility.yul\":7158:7221   */\n      swap2\n      pop\n        /* \"#utility.yul\":7114:7231   */\n      pop\n        /* \"#utility.yul\":6909:7238   */\n      swap3\n      swap2\n      pop\n      pop\n      jump\t// out\n        /* \"#utility.yul\":7244:7424   */\n    tag_103:\n        /* \"#utility.yul\":7292:7369   */\n      0x4e487b7100000000000000000000000000000000000000000000000000000000\n        /* \"#utility.yul\":7289:7290   */\n      0x00\n        /* \"#utility.yul\":7282:7370   */\n      mstore\n        /* \"#utility.yul\":7389:7393   */\n      0x41\n        /* \"#utility.yul\":7386:7387   */\n      0x04\n        /* \"#utility.yul\":7379:7394   */\n      mstore\n        /* \"#utility.yul\":7413:7417   */\n      0x24\n        /* \"#utility.yul\":7410:7411   */\n      0x00\n        /* \"#utility.yul\":7403:7418   */\n      revert\n        /* \"#utility.yul\":7430:7610   */\n    tag_113:\n        /* \"#utility.yul\":7478:7555   */\n      0x4e487b7100000000000000000000000000000000000000000000000000000000\n        /* \"#utility.yul\":7475:7476   */\n      0x00\n        /* \"#utility.yul\":7468:7556   */\n      mstore\n        /* \"#utility.yul\":7575:7579   */\n      0x32\n        /* \"#utility.yul\":7572:7573   */\n      0x04\n        /* \"#utility.yul\":7565:7580   */\n      mstore\n        /* \"#utility.yul\":7599:7603   */\n      0x24\n        /* \"#utility.yul\":7596:7597   */\n      0x00\n        /* \"#utility.yul\":7589:7604   */\n      revert\n        /* \"#utility.yul\":7616:7785   */\n    tag_244:\n        /* \"#utility.yul\":7700:7711   */\n      0x00\n        /* \"#utility.yul\":7734:7740   */\n      dup3\n        /* \"#utility.yul\":7729:7732   */\n      dup3\n        /* \"#utility.yul\":7722:7741   */\n      mstore\n        /* \"#utility.yul\":7774:7778   */\n      0x20\n        /* \"#utility.yul\":7769:7772   */\n      dup3\n        /* \"#utility.yul\":7765:7779   */\n      add\n        /* \"#utility.yul\":7750:7779   */\n      swap1\n      pop\n        /* \"#utility.yul\":7616:7785   */\n      swap3\n      swap2\n      pop\n      pop\n      jump\t// out\n        /* \"#utility.yul\":7791:7958   */\n    tag_245:\n        /* \"#utility.yul\":7931:7950   */\n      0x41756374696f6e20696e6163746976652e000000000000000000000000000000\n        /* \"#utility.yul\":7927:7928   */\n      0x00\n        /* \"#utility.yul\":7919:7925   */\n      dup3\n        /* \"#utility.yul\":7915:7929   */\n      add\n        /* \"#utility.yul\":7908:7951   */\n      mstore\n        /* \"#utility.yul\":7791:7958   */\n      pop\n      jump\t// out\n        /* \"#utility.yul\":7964:8330   */\n    tag_246:\n        /* \"#utility.yul\":8106:8109   */\n      0x00\n        /* \"#utility.yul\":8127:8194   */\n      tag_352\n        /* \"#utility.yul\":8191:8193   */\n      0x11\n        /* \"#utility.yul\":8186:8189   */\n      dup4\n        /* \"#utility.yul\":8127:8194   */\n      tag_244\n      jump\t// in\n    tag_352:\n        /* \"#utility.yul\":8120:8194   */\n      swap2\n      pop\n        /* \"#utility.yul\":8203:8296   */\n      tag_353\n        /* \"#utility.yul\":8292:8295   */\n      dup3\n        /* \"#utility.yul\":8203:8296   */\n      tag_245\n      jump\t// in\n    tag_353:\n        /* \"#utility.yul\":8321:8323   */\n      0x20\n        /* \"#utility.yul\":8316:8319   */\n      dup3\n        /* \"#utility.yul\":8312:8324   */\n      add\n        /* \"#utility.yul\":8305:8324   */\n      swap1\n      pop\n        /* \"#utility.yul\":7964:8330   */\n      swap2\n      swap1\n      pop\n      jump\t// out\n        /* \"#utility.yul\":8336:8755   */\n    tag_123:\n        /* \"#utility.yul\":8502:8506   */\n      0x00\n        /* \"#utility.yul\":8540:8542   */\n      0x20\n        /* \"#utility.yul\":8529:8538   */\n      dup3\n        /* \"#utility.yul\":8525:8543   */\n      add\n        /* \"#utility.yul\":8517:8543   */\n      swap1\n      pop\n        /* \"#utility.yul\":8589:8598   */\n      dup2\n        /* \"#utility.yul\":8583:8587   */\n      dup2\n        /* \"#utility.yul\":8579:8599   */\n      sub\n        /* \"#utility.yul\":8575:8576   */\n      0x00\n        /* \"#utility.yul\":8564:8573   */\n      dup4\n        /* \"#utility.yul\":8560:8577   */\n      add\n        /* \"#utility.yul\":8553:8600   */\n      mstore\n        /* \"#utility.yul\":8617:8748   */\n      tag_355\n        /* \"#utility.yul\":8743:8747   */\n      dup2\n        /* \"#utility.yul\":8617:8748   */\n      tag_246\n      jump\t// in\n    tag_355:\n        /* \"#utility.yul\":8609:8748   */\n      swap1\n      pop\n        /* \"#utility.yul\":8336:8755   */\n      swap2\n      swap1\n      pop\n      jump\t// out\n        /* \"#utility.yul\":8761:8941   */\n    tag_247:\n        /* \"#utility.yul\":8809:8886   */\n      0x4e487b7100000000000000000000000000000000000000000000000000000000\n        /* \"#utility.yul\":8806:8807   */\n      0x00\n        /* \"#utility.yul\":8799:8887   */\n      mstore\n        /* \"#utility.yul\":8906:8910   */\n      0x11\n        /* \"#utility.yul\":8903:8904   */\n      0x04\n        /* \"#utility.yul\":8896:8911   */\n      mstore\n        /* \"#utility.yul\":8930:8934   */\n      0x24\n        /* \"#utility.yul\":8927:8928   */\n      0x00\n        /* \"#utility.yul\":8920:8935   */\n      revert\n        /* \"#utility.yul\":8947:9357   */\n    tag_126:\n        /* \"#utility.yul\":8987:8994   */\n      0x00\n        /* \"#utility.yul\":9010:9030   */\n      tag_358\n        /* \"#utility.yul\":9028:9029   */\n      dup3\n        /* \"#utility.yul\":9010:9030   */\n      tag_216\n      jump\t// in\n    tag_358:\n        /* \"#utility.yul\":9005:9030   */\n      swap2\n      pop\n        /* \"#utility.yul\":9044:9064   */\n      tag_359\n        /* \"#utility.yul\":9062:9063   */\n      dup4\n        /* \"#utility.yul\":9044:9064   */\n      tag_216\n      jump\t// in\n    tag_359:\n        /* \"#utility.yul\":9039:9064   */\n      swap3\n      pop\n        /* \"#utility.yul\":9099:9100   */\n      dup3\n        /* \"#utility.yul\":9096:9097   */\n      dup3\n        /* \"#utility.yul\":9092:9101   */\n      mul\n        /* \"#utility.yul\":9121:9151   */\n      tag_360\n        /* \"#utility.yul\":9139:9150   */\n      dup2\n        /* \"#utility.yul\":9121:9151   */\n      tag_216\n      jump\t// in\n    tag_360:\n        /* \"#utility.yul\":9110:9151   */\n      swap2\n      pop\n        /* \"#utility.yul\":9300:9301   */\n      dup3\n        /* \"#utility.yul\":9291:9298   */\n      dup3\n        /* \"#utility.yul\":9287:9302   */\n      div\n        /* \"#utility.yul\":9284:9285   */\n      dup5\n        /* \"#utility.yul\":9281:9303   */\n      eq\n        /* \"#utility.yul\":9261:9262   */\n      dup4\n        /* \"#utility.yul\":9254:9263   */\n      iszero\n        /* \"#utility.yul\":9234:9317   */\n      or\n        /* \"#utility.yul\":9211:9350   */\n      tag_361\n      jumpi\n        /* \"#utility.yul\":9330:9348   */\n      tag_362\n      tag_247\n      jump\t// in\n    tag_362:\n        /* \"#utility.yul\":9211:9350   */\n    tag_361:\n        /* \"#utility.yul\":8995:9357   */\n      pop\n        /* \"#utility.yul\":8947:9357   */\n      swap3\n      swap2\n      pop\n      pop\n      jump\t// out\n        /* \"#utility.yul\":9363:9543   */\n    tag_248:\n        /* \"#utility.yul\":9411:9488   */\n      0x4e487b7100000000000000000000000000000000000000000000000000000000\n        /* \"#utility.yul\":9408:9409   */\n      0x00\n        /* \"#utility.yul\":9401:9489   */\n      mstore\n        /* \"#utility.yul\":9508:9512   */\n      0x12\n        /* \"#utility.yul\":9505:9506   */\n      0x04\n        /* \"#utility.yul\":9498:9513   */\n      mstore\n        /* \"#utility.yul\":9532:9536   */\n      0x24\n        /* \"#utility.yul\":9529:9530   */\n      0x00\n        /* \"#utility.yul\":9522:9537   */\n      revert\n        /* \"#utility.yul\":9549:9734   */\n    tag_128:\n        /* \"#utility.yul\":9589:9590   */\n      0x00\n        /* \"#utility.yul\":9606:9626   */\n      tag_365\n        /* \"#utility.yul\":9624:9625   */\n      dup3\n        /* \"#utility.yul\":9606:9626   */\n      tag_216\n      jump\t// in\n    tag_365:\n        /* \"#utility.yul\":9601:9626   */\n      swap2\n      pop\n        /* \"#utility.yul\":9640:9660   */\n      tag_366\n        /* \"#utility.yul\":9658:9659   */\n      dup4\n        /* \"#utility.yul\":9640:9660   */\n      tag_216\n      jump\t// in\n    tag_366:\n        /* \"#utility.yul\":9635:9660   */\n      swap3\n      pop\n        /* \"#utility.yul\":9679:9680   */\n      dup3\n        /* \"#utility.yul\":9669:9704   */\n      tag_367\n      jumpi\n        /* \"#utility.yul\":9684:9702   */\n      tag_368\n      tag_248\n      jump\t// in\n    tag_368:\n        /* \"#utility.yul\":9669:9704   */\n    tag_367:\n        /* \"#utility.yul\":9726:9727   */\n      dup3\n        /* \"#utility.yul\":9723:9724   */\n      dup3\n        /* \"#utility.yul\":9719:9728   */\n      div\n        /* \"#utility.yul\":9714:9728   */\n      swap1\n      pop\n        /* \"#utility.yul\":9549:9734   */\n      swap3\n      swap2\n      pop\n      pop\n      jump\t// out\n        /* \"#utility.yul\":9740:9931   */\n    tag_130:\n        /* \"#utility.yul\":9780:9783   */\n      0x00\n        /* \"#utility.yul\":9799:9819   */\n      tag_370\n        /* \"#utility.yul\":9817:9818   */\n      dup3\n        /* \"#utility.yul\":9799:9819   */\n      tag_216\n      jump\t// in\n    tag_370:\n        /* \"#utility.yul\":9794:9819   */\n      swap2\n      pop\n        /* \"#utility.yul\":9833:9853   */\n      tag_371\n        /* \"#utility.yul\":9851:9852   */\n      dup4\n        /* \"#utility.yul\":9833:9853   */\n      tag_216\n      jump\t// in\n    tag_371:\n        /* \"#utility.yul\":9828:9853   */\n      swap3\n      pop\n        /* \"#utility.yul\":9876:9877   */\n      dup3\n        /* \"#utility.yul\":9873:9874   */\n      dup3\n        /* \"#utility.yul\":9869:9878   */\n      add\n        /* \"#utility.yul\":9862:9878   */\n      swap1\n      pop\n        /* \"#utility.yul\":9897:9900   */\n      dup1\n        /* \"#utility.yul\":9894:9895   */\n      dup3\n        /* \"#utility.yul\":9891:9901   */\n      gt\n        /* \"#utility.yul\":9888:9924   */\n      iszero\n      tag_372\n      jumpi\n        /* \"#utility.yul\":9904:9922   */\n      tag_373\n      tag_247\n      jump\t// in\n    tag_373:\n        /* \"#utility.yul\":9888:9924   */\n    tag_372:\n        /* \"#utility.yul\":9740:9931   */\n      swap3\n      swap2\n      pop\n      pop\n      jump\t// out\n        /* \"#utility.yul\":9937:10099   */\n    tag_249:\n        /* \"#utility.yul\":10077:10091   */\n      0x42696420746f6f206c6f772e0000000000000000000000000000000000000000\n        /* \"#utility.yul\":10073:10074   */\n      0x00\n        /* \"#utility.yul\":10065:10071   */\n      dup3\n        /* \"#utility.yul\":10061:10075   */\n      add\n        /* \"#utility.yul\":10054:10092   */\n      mstore\n        /* \"#utility.yul\":9937:10099   */\n      pop\n      jump\t// out\n        /* \"#utility.yul\":10105:10471   */\n    tag_250:\n        /* \"#utility.yul\":10247:10250   */\n      0x00\n        /* \"#utility.yul\":10268:10335   */\n      tag_376\n        /* \"#utility.yul\":10332:10334   */\n      0x0c\n        /* \"#utility.yul\":10327:10330   */\n      dup4\n        /* \"#utility.yul\":10268:10335   */\n      tag_244\n      jump\t// in\n    tag_376:\n        /* \"#utility.yul\":10261:10335   */\n      swap2\n      pop\n        /* \"#utility.yul\":10344:10437   */\n      tag_377\n        /* \"#utility.yul\":10433:10436   */\n      dup3\n        /* \"#utility.yul\":10344:10437   */\n      tag_249\n      jump\t// in\n    tag_377:\n        /* \"#utility.yul\":10462:10464   */\n      0x20\n        /* \"#utility.yul\":10457:10460   */\n      dup3\n        /* \"#utility.yul\":10453:10465   */\n      add\n        /* \"#utility.yul\":10446:10465   */\n      swap1\n      pop\n        /* \"#utility.yul\":10105:10471   */\n      swap2\n      swap1\n      pop\n      jump\t// out\n        /* \"#utility.yul\":10477:10896   */\n    tag_134:\n        /* \"#utility.yul\":10643:10647   */\n      0x00\n        /* \"#utility.yul\":10681:10683   */\n      0x20\n        /* \"#utility.yul\":10670:10679   */\n      dup3\n        /* \"#utility.yul\":10666:10684   */\n      add\n        /* \"#utility.yul\":10658:10684   */\n      swap1\n      pop\n        /* \"#utility.yul\":10730:10739   */\n      dup2\n        /* \"#utility.yul\":10724:10728   */\n      dup2\n        /* \"#utility.yul\":10720:10740   */\n      sub\n        /* \"#utility.yul\":10716:10717   */\n      0x00\n        /* \"#utility.yul\":10705:10714   */\n      dup4\n        /* \"#utility.yul\":10701:10718   */\n      add\n        /* \"#utility.yul\":10694:10741   */\n      mstore\n        /* \"#utility.yul\":10758:10889   */\n      tag_379\n        /* \"#utility.yul\":10884:10888   */\n      dup2\n        /* \"#utility.yul\":10758:10889   */\n      tag_250\n      jump\t// in\n    tag_379:\n        /* \"#utility.yul\":10750:10889   */\n      swap1\n      pop\n        /* \"#utility.yul\":10477:10896   */\n      swap2\n      swap1\n      pop\n      jump\t// out\n        /* \"#utility.yul\":10902:11096   */\n    tag_141:\n        /* \"#utility.yul\":10942:10946   */\n      0x00\n        /* \"#utility.yul\":10962:10982   */\n      tag_381\n        /* \"#utility.yul\":10980:10981   */\n      dup3\n        /* \"#utility.yul\":10962:10982   */\n      tag_216\n      jump\t// in\n    tag_381:\n        /* \"#utility.yul\":10957:10982   */\n      swap2\n      pop\n        /* \"#utility.yul\":10996:11016   */\n      tag_382\n        /* \"#utility.yul\":11014:11015   */\n      dup4\n        /* \"#utility.yul\":10996:11016   */\n      tag_216\n      jump\t// in\n    tag_382:\n        /* \"#utility.yul\":10991:11016   */\n      swap3\n      pop\n        /* \"#utility.yul\":11040:11041   */\n      dup3\n        /* \"#utility.yul\":11037:11038   */\n      dup3\n        /* \"#utility.yul\":11033:11042   */\n      sub\n        /* \"#utility.yul\":11025:11042   */\n      swap1\n      pop\n        /* \"#utility.yul\":11064:11065   */\n      dup2\n        /* \"#utility.yul\":11058:11062   */\n      dup2\n        /* \"#utility.yul\":11055:11066   */\n      gt\n        /* \"#utility.yul\":11052:11089   */\n      iszero\n      tag_383\n      jumpi\n        /* \"#utility.yul\":11069:11087   */\n      tag_384\n      tag_247\n      jump\t// in\n    tag_384:\n        /* \"#utility.yul\":11052:11089   */\n    tag_383:\n        /* \"#utility.yul\":10902:11096   */\n      swap3\n      swap2\n      pop\n      pop\n      jump\t// out\n        /* \"#utility.yul\":11102:11263   */\n    tag_251:\n        /* \"#utility.yul\":11242:11255   */\n      0x4f776e6572206f6e6c792e000000000000000000000000000000000000000000\n        /* \"#utility.yul\":11238:11239   */\n      0x00\n        /* \"#utility.yul\":11230:11236   */\n      dup3\n        /* \"#utility.yul\":11226:11240   */\n      add\n        /* \"#utility.yul\":11219:11256   */\n      mstore\n        /* \"#utility.yul\":11102:11263   */\n      pop\n      jump\t// out\n        /* \"#utility.yul\":11269:11635   */\n    tag_252:\n        /* \"#utility.yul\":11411:11414   */\n      0x00\n        /* \"#utility.yul\":11432:11499   */\n      tag_387\n        /* \"#utility.yul\":11496:11498   */\n      0x0b\n        /* \"#utility.yul\":11491:11494   */\n      dup4\n        /* \"#utility.yul\":11432:11499   */\n      tag_244\n      jump\t// in\n    tag_387:\n        /* \"#utility.yul\":11425:11499   */\n      swap2\n      pop\n        /* \"#utility.yul\":11508:11601   */\n      tag_388\n        /* \"#utility.yul\":11597:11600   */\n      dup3\n        /* \"#utility.yul\":11508:11601   */\n      tag_251\n      jump\t// in\n    tag_388:\n        /* \"#utility.yul\":11626:11628   */\n      0x20\n        /* \"#utility.yul\":11621:11624   */\n      dup3\n        /* \"#utility.yul\":11617:11629   */\n      add\n        /* \"#utility.yul\":11610:11629   */\n      swap1\n      pop\n        /* \"#utility.yul\":11269:11635   */\n      swap2\n      swap1\n      pop\n      jump\t// out\n        /* \"#utility.yul\":11641:12060   */\n    tag_149:\n        /* \"#utility.yul\":11807:11811   */\n      0x00\n        /* \"#utility.yul\":11845:11847   */\n      0x20\n        /* \"#utility.yul\":11834:11843   */\n      dup3\n        /* \"#utility.yul\":11830:11848   */\n      add\n        /* \"#utility.yul\":11822:11848   */\n      swap1\n      pop\n        /* \"#utility.yul\":11894:11903   */\n      dup2\n        /* \"#utility.yul\":11888:11892   */\n      dup2\n        /* \"#utility.yul\":11884:11904   */\n      sub\n        /* \"#utility.yul\":11880:11881   */\n      0x00\n        /* \"#utility.yul\":11869:11878   */\n      dup4\n        /* \"#utility.yul\":11865:11882   */\n      add\n        /* \"#utility.yul\":11858:11905   */\n      mstore\n        /* \"#utility.yul\":11922:12053   */\n      tag_390\n        /* \"#utility.yul\":12048:12052   */\n      dup2\n        /* \"#utility.yul\":11922:12053   */\n      tag_252\n      jump\t// in\n    tag_390:\n        /* \"#utility.yul\":11914:12053   */\n      swap1\n      pop\n        /* \"#utility.yul\":11641:12060   */\n      swap2\n      swap1\n      pop\n      jump\t// out\n        /* \"#utility.yul\":12066:12234   */\n    tag_253:\n        /* \"#utility.yul\":12206:12226   */\n      0x41756374696f6e206e6f7420656e6465642e0000000000000000000000000000\n        /* \"#utility.yul\":12202:12203   */\n      0x00\n        /* \"#utility.yul\":12194:12200   */\n      dup3\n        /* \"#utility.yul\":12190:12204   */\n      add\n        /* \"#utility.yul\":12183:12227   */\n      mstore\n        /* \"#utility.yul\":12066:12234   */\n      pop\n      jump\t// out\n        /* \"#utility.yul\":12240:12606   */\n    tag_254:\n        /* \"#utility.yul\":12382:12385   */\n      0x00\n        /* \"#utility.yul\":12403:12470   */\n      tag_393\n        /* \"#utility.yul\":12467:12469   */\n      0x12\n        /* \"#utility.yul\":12462:12465   */\n      dup4\n        /* \"#utility.yul\":12403:12470   */\n      tag_244\n      jump\t// in\n    tag_393:\n        /* \"#utility.yul\":12396:12470   */\n      swap2\n      pop\n        /* \"#utility.yul\":12479:12572   */\n      tag_394\n        /* \"#utility.yul\":12568:12571   */\n      dup3\n        /* \"#utility.yul\":12479:12572   */\n      tag_253\n      jump\t// in\n    tag_394:\n        /* \"#utility.yul\":12597:12599   */\n      0x20\n        /* \"#utility.yul\":12592:12595   */\n      dup3\n        /* \"#utility.yul\":12588:12600   */\n      add\n        /* \"#utility.yul\":12581:12600   */\n      swap1\n      pop\n        /* \"#utility.yul\":12240:12606   */\n      swap2\n      swap1\n      pop\n      jump\t// out\n        /* \"#utility.yul\":12612:13031   */\n    tag_154:\n        /* \"#utility.yul\":12778:12782   */\n      0x00\n        /* \"#utility.yul\":12816:12818   */\n      0x20\n        /* \"#utility.yul\":12805:12814   */\n      dup3\n        /* \"#utility.yul\":12801:12819   */\n      add\n        /* \"#utility.yul\":12793:12819   */\n      swap1\n      pop\n        /* \"#utility.yul\":12865:12874   */\n      dup2\n        /* \"#utility.yul\":12859:12863   */\n      dup2\n        /* \"#utility.yul\":12855:12875   */\n      sub\n        /* \"#utility.yul\":12851:12852   */\n      0x00\n        /* \"#utility.yul\":12840:12849   */\n      dup4\n        /* \"#utility.yul\":12836:12853   */\n      add\n        /* \"#utility.yul\":12829:12876   */\n      mstore\n        /* \"#utility.yul\":12893:13024   */\n      tag_396\n        /* \"#utility.yul\":13019:13023   */\n      dup2\n        /* \"#utility.yul\":12893:13024   */\n      tag_254\n      jump\t// in\n    tag_396:\n        /* \"#utility.yul\":12885:13024   */\n      swap1\n      pop\n        /* \"#utility.yul\":12612:13031   */\n      swap2\n      swap1\n      pop\n      jump\t// out\n        /* \"#utility.yul\":13037:13184   */\n    tag_255:\n        /* \"#utility.yul\":13138:13149   */\n      0x00\n        /* \"#utility.yul\":13175:13178   */\n      dup2\n        /* \"#utility.yul\":13160:13178   */\n      swap1\n      pop\n        /* \"#utility.yul\":13037:13184   */\n      swap3\n      swap2\n      pop\n      pop\n      jump\t// out\n        /* \"#utility.yul\":13190:13304   */\n    tag_256:\n      pop\n      jump\t// out\n        /* \"#utility.yul\":13310:13708   */\n    tag_257:\n        /* \"#utility.yul\":13469:13472   */\n      0x00\n        /* \"#utility.yul\":13490:13573   */\n      tag_400\n        /* \"#utility.yul\":13571:13572   */\n      0x00\n        /* \"#utility.yul\":13566:13569   */\n      dup4\n        /* \"#utility.yul\":13490:13573   */\n      tag_255\n      jump\t// in\n    tag_400:\n        /* \"#utility.yul\":13483:13573   */\n      swap2\n      pop\n        /* \"#utility.yul\":13582:13675   */\n      tag_401\n        /* \"#utility.yul\":13671:13674   */\n      dup3\n        /* \"#utility.yul\":13582:13675   */\n      tag_256\n      jump\t// in\n    tag_401:\n        /* \"#utility.yul\":13700:13701   */\n      0x00\n        /* \"#utility.yul\":13695:13698   */\n      dup3\n        /* \"#utility.yul\":13691:13702   */\n      add\n        /* \"#utility.yul\":13684:13702   */\n      swap1\n      pop\n        /* \"#utility.yul\":13310:13708   */\n      swap2\n      swap1\n      pop\n      jump\t// out\n        /* \"#utility.yul\":13714:14093   */\n    tag_162:\n        /* \"#utility.yul\":13898:13901   */\n      0x00\n        /* \"#utility.yul\":13920:14067   */\n      tag_403\n        /* \"#utility.yul\":14063:14066   */\n      dup3\n        /* \"#utility.yul\":13920:14067   */\n      tag_257\n      jump\t// in\n    tag_403:\n        /* \"#utility.yul\":13913:14067   */\n      swap2\n      pop\n        /* \"#utility.yul\":14084:14087   */\n      dup2\n        /* \"#utility.yul\":14077:14087   */\n      swap1\n      pop\n        /* \"#utility.yul\":13714:14093   */\n      swap2\n      swap1\n      pop\n      jump\t// out\n        /* \"#utility.yul\":14099:14271   */\n    tag_258:\n        /* \"#utility.yul\":14239:14263   */\n      0x4f776e6572207472616e73666572206661696c65642e00000000000000000000\n        /* \"#utility.yul\":14235:14236   */\n      0x00\n        /* \"#utility.yul\":14227:14233   */\n      dup3\n        /* \"#utility.yul\":14223:14237   */\n      add\n        /* \"#utility.yul\":14216:14264   */\n      mstore\n        /* \"#utility.yul\":14099:14271   */\n      pop\n      jump\t// out\n        /* \"#utility.yul\":14277:14643   */\n    tag_259:\n        /* \"#utility.yul\":14419:14422   */\n      0x00\n        /* \"#utility.yul\":14440:14507   */\n      tag_406\n        /* \"#utility.yul\":14504:14506   */\n      0x16\n        /* \"#utility.yul\":14499:14502   */\n      dup4\n        /* \"#utility.yul\":14440:14507   */\n      tag_244\n      jump\t// in\n    tag_406:\n        /* \"#utility.yul\":14433:14507   */\n      swap2\n      pop\n        /* \"#utility.yul\":14516:14609   */\n      tag_407\n        /* \"#utility.yul\":14605:14608   */\n      dup3\n        /* \"#utility.yul\":14516:14609   */\n      tag_258\n      jump\t// in\n    tag_407:\n        /* \"#utility.yul\":14634:14636   */\n      0x20\n        /* \"#utility.yul\":14629:14632   */\n      dup3\n        /* \"#utility.yul\":14625:14637   */\n      add\n        /* \"#utility.yul\":14618:14637   */\n      swap1\n      pop\n        /* \"#utility.yul\":14277:14643   */\n      swap2\n      swap1\n      pop\n      jump\t// out\n        /* \"#utility.yul\":14649:15068   */\n    tag_168:\n        /* \"#utility.yul\":14815:14819   */\n      0x00\n        /* \"#utility.yul\":14853:14855   */\n      0x20\n        /* \"#utility.yul\":14842:14851   */\n      dup3\n        /* \"#utility.yul\":14838:14856   */\n      add\n        /* \"#utility.yul\":14830:14856   */\n      swap1\n      pop\n        /* \"#utility.yul\":14902:14911   */\n      dup2\n        /* \"#utility.yul\":14896:14900   */\n      dup2\n        /* \"#utility.yul\":14892:14912   */\n      sub\n        /* \"#utility.yul\":14888:14889   */\n      0x00\n        /* \"#utility.yul\":14877:14886   */\n      dup4\n        /* \"#utility.yul\":14873:14890   */\n      add\n        /* \"#utility.yul\":14866:14913   */\n      mstore\n        /* \"#utility.yul\":14930:15061   */\n      tag_409\n        /* \"#utility.yul\":15056:15060   */\n      dup2\n        /* \"#utility.yul\":14930:15061   */\n      tag_259\n      jump\t// in\n    tag_409:\n        /* \"#utility.yul\":14922:15061   */\n      swap1\n      pop\n        /* \"#utility.yul\":14649:15068   */\n      swap2\n      swap1\n      pop\n      jump\t// out\n        /* \"#utility.yul\":15074:15238   */\n    tag_260:\n        /* \"#utility.yul\":15214:15230   */\n      0x526566756e64206661696c65642e000000000000000000000000000000000000\n        /* \"#utility.yul\":15210:15211   */\n      0x00\n        /* \"#utility.yul\":15202:15208   */\n      dup3\n        /* \"#utility.yul\":15198:15212   */\n      add\n        /* \"#utility.yul\":15191:15231   */\n      mstore\n        /* \"#utility.yul\":15074:15238   */\n      pop\n      jump\t// out\n        /* \"#utility.yul\":15244:15610   */\n    tag_261:\n        /* \"#utility.yul\":15386:15389   */\n      0x00\n        /* \"#utility.yul\":15407:15474   */\n      tag_412\n        /* \"#utility.yul\":15471:15473   */\n      0x0e\n        /* \"#utility.yul\":15466:15469   */\n      dup4\n        /* \"#utility.yul\":15407:15474   */\n      tag_244\n      jump\t// in\n    tag_412:\n        /* \"#utility.yul\":15400:15474   */\n      swap2\n      pop\n        /* \"#utility.yul\":15483:15576   */\n      tag_413\n        /* \"#utility.yul\":15572:15575   */\n      dup3\n        /* \"#utility.yul\":15483:15576   */\n      tag_260\n      jump\t// in\n    tag_413:\n        /* \"#utility.yul\":15601:15603   */\n      0x20\n        /* \"#utility.yul\":15596:15599   */\n      dup3\n        /* \"#utility.yul\":15592:15604   */\n      add\n        /* \"#utility.yul\":15585:15604   */\n      swap1\n      pop\n        /* \"#utility.yul\":15244:15610   */\n      swap2\n      swap1\n      pop\n      jump\t// out\n        /* \"#utility.yul\":15616:16035   */\n    tag_184:\n        /* \"#utility.yul\":15782:15786   */\n      0x00\n        /* \"#utility.yul\":15820:15822   */\n      0x20\n        /* \"#utility.yul\":15809:15818   */\n      dup3\n        /* \"#utility.yul\":15805:15823   */\n      add\n        /* \"#utility.yul\":15797:15823   */\n      swap1\n      pop\n        /* \"#utility.yul\":15869:15878   */\n      dup2\n        /* \"#utility.yul\":15863:15867   */\n      dup2\n        /* \"#utility.yul\":15859:15879   */\n      sub\n        /* \"#utility.yul\":15855:15856   */\n      0x00\n        /* \"#utility.yul\":15844:15853   */\n      dup4\n        /* \"#utility.yul\":15840:15857   */\n      add\n        /* \"#utility.yul\":15833:15880   */\n      mstore\n        /* \"#utility.yul\":15897:16028   */\n      tag_415\n        /* \"#utility.yul\":16023:16027   */\n      dup2\n        /* \"#utility.yul\":15897:16028   */\n      tag_261\n      jump\t// in\n    tag_415:\n        /* \"#utility.yul\":15889:16028   */\n      swap1\n      pop\n        /* \"#utility.yul\":15616:16035   */\n      swap2\n      swap1\n      pop\n      jump\t// out\n        /* \"#utility.yul\":16041:16209   */\n    tag_262:\n        /* \"#utility.yul\":16181:16201   */\n      0x4e6f20657863657373206465706f7369742e0000000000000000000000000000\n        /* \"#utility.yul\":16177:16178   */\n      0x00\n        /* \"#utility.yul\":16169:16175   */\n      dup3\n        /* \"#utility.yul\":16165:16179   */\n      add\n        /* \"#utility.yul\":16158:16202   */\n      mstore\n        /* \"#utility.yul\":16041:16209   */\n      pop\n      jump\t// out\n        /* \"#utility.yul\":16215:16581   */\n    tag_263:\n        /* \"#utility.yul\":16357:16360   */\n      0x00\n        /* \"#utility.yul\":16378:16445   */\n      tag_418\n        /* \"#utility.yul\":16442:16444   */\n      0x12\n        /* \"#utility.yul\":16437:16440   */\n      dup4\n        /* \"#utility.yul\":16378:16445   */\n      tag_244\n      jump\t// in\n    tag_418:\n        /* \"#utility.yul\":16371:16445   */\n      swap2\n      pop\n        /* \"#utility.yul\":16454:16547   */\n      tag_419\n        /* \"#utility.yul\":16543:16546   */\n      dup3\n        /* \"#utility.yul\":16454:16547   */\n      tag_262\n      jump\t// in\n    tag_419:\n        /* \"#utility.yul\":16572:16574   */\n      0x20\n        /* \"#utility.yul\":16567:16570   */\n      dup3\n        /* \"#utility.yul\":16563:16575   */\n      add\n        /* \"#utility.yul\":16556:16575   */\n      swap1\n      pop\n        /* \"#utility.yul\":16215:16581   */\n      swap2\n      swap1\n      pop\n      jump\t// out\n        /* \"#utility.yul\":16587:17006   */\n    tag_200:\n        /* \"#utility.yul\":16753:16757   */\n      0x00\n        /* \"#utility.yul\":16791:16793   */\n      0x20\n        /* \"#utility.yul\":16780:16789   */\n      dup3\n        /* \"#utility.yul\":16776:16794   */\n      add\n        /* \"#utility.yul\":16768:16794   */\n      swap1\n      pop\n        /* \"#utility.yul\":16840:16849   */\n      dup2\n        /* \"#utility.yul\":16834:16838   */\n      dup2\n        /* \"#utility.yul\":16830:16850   */\n      sub\n        /* \"#utility.yul\":16826:16827   */\n      0x00\n        /* \"#utility.yul\":16815:16824   */\n      dup4\n        /* \"#utility.yul\":16811:16828   */\n      add\n        /* \"#utility.yul\":16804:16851   */\n      mstore\n        /* \"#utility.yul\":16868:16999   */\n      tag_421\n        /* \"#utility.yul\":16994:16998   */\n      dup2\n        /* \"#utility.yul\":16868:16999   */\n      tag_263\n      jump\t// in\n    tag_421:\n        /* \"#utility.yul\":16860:16999   */\n      swap1\n      pop\n        /* \"#utility.yul\":16587:17006   */\n      swap2\n      swap1\n      pop\n      jump\t// out\n        /* \"#utility.yul\":17012:17188   */\n    tag_264:\n        /* \"#utility.yul\":17152:17180   */\n      0x5061727469616c207769746864726177616c206661696c65642e000000000000\n        /* \"#utility.yul\":17148:17149   */\n      0x00\n        /* \"#utility.yul\":17140:17146   */\n      dup3\n        /* \"#utility.yul\":17136:17150   */\n      add\n        /* \"#utility.yul\":17129:17181   */\n      mstore\n        /* \"#utility.yul\":17012:17188   */\n      pop\n      jump\t// out\n        /* \"#utility.yul\":17194:17560   */\n    tag_265:\n        /* \"#utility.yul\":17336:17339   */\n      0x00\n        /* \"#utility.yul\":17357:17424   */\n      tag_424\n        /* \"#utility.yul\":17421:17423   */\n      0x1a\n        /* \"#utility.yul\":17416:17419   */\n      dup4\n        /* \"#utility.yul\":17357:17424   */\n      tag_244\n      jump\t// in\n    tag_424:\n        /* \"#utility.yul\":17350:17424   */\n      swap2\n      pop\n        /* \"#utility.yul\":17433:17526   */\n      tag_425\n        /* \"#utility.yul\":17522:17525   */\n      dup3\n        /* \"#utility.yul\":17433:17526   */\n      tag_264\n      jump\t// in\n    tag_425:\n        /* \"#utility.yul\":17551:17553   */\n      0x20\n        /* \"#utility.yul\":17546:17549   */\n      dup3\n        /* \"#utility.yul\":17542:17554   */\n      add\n        /* \"#utility.yul\":17535:17554   */\n      swap1\n      pop\n        /* \"#utility.yul\":17194:17560   */\n      swap2\n      swap1\n      pop\n      jump\t// out\n        /* \"#utility.yul\":17566:17985   */\n    tag_208:\n        /* \"#utility.yul\":17732:17736   */\n      0x00\n        /* \"#utility.yul\":17770:17772   */\n      0x20\n        /* \"#utility.yul\":17759:17768   */\n      dup3\n        /* \"#utility.yul\":17755:17773   */\n      add\n        /* \"#utility.yul\":17747:17773   */\n      swap1\n      pop\n        /* \"#utility.yul\":17819:17828   */\n      dup2\n        /* \"#utility.yul\":17813:17817   */\n      dup2\n        /* \"#utility.yul\":17809:17829   */\n      sub\n        /* \"#utility.yul\":17805:17806   */\n      0x00\n        /* \"#utility.yul\":17794:17803   */\n      dup4\n        /* \"#utility.yul\":17790:17807   */\n      add\n        /* \"#utility.yul\":17783:17830   */\n      mstore\n        /* \"#utility.yul\":17847:17978   */\n      tag_427\n        /* \"#utility.yul\":17973:17977   */\n      dup2\n        /* \"#utility.yul\":17847:17978   */\n      tag_265\n      jump\t// in\n    tag_427:\n        /* \"#utility.yul\":17839:17978   */\n      swap1\n      pop\n        /* \"#utility.yul\":17566:17985   */\n      swap2\n      swap1\n      pop\n      jump\t// out\n        /* \"#utility.yul\":17991:18161   */\n    tag_266:\n        /* \"#utility.yul\":18131:18153   */\n      0x41756374696f6e206e6f7420656e6461626c652e000000000000000000000000\n        /* \"#utility.yul\":18127:18128   */\n      0x00\n        /* \"#utility.yul\":18119:18125   */\n      dup3\n        /* \"#utility.yul\":18115:18129   */\n      add\n        /* \"#utility.yul\":18108:18154   */\n      mstore\n        /* \"#utility.yul\":17991:18161   */\n      pop\n      jump\t// out\n        /* \"#utility.yul\":18167:18533   */\n    tag_267:\n        /* \"#utility.yul\":18309:18312   */\n      0x00\n        /* \"#utility.yul\":18330:18397   */\n      tag_430\n        /* \"#utility.yul\":18394:18396   */\n      0x14\n        /* \"#utility.yul\":18389:18392   */\n      dup4\n        /* \"#utility.yul\":18330:18397   */\n      tag_244\n      jump\t// in\n    tag_430:\n        /* \"#utility.yul\":18323:18397   */\n      swap2\n      pop\n        /* \"#utility.yul\":18406:18499   */\n      tag_431\n        /* \"#utility.yul\":18495:18498   */\n      dup3\n        /* \"#utility.yul\":18406:18499   */\n      tag_266\n      jump\t// in\n    tag_431:\n        /* \"#utility.yul\":18524:18526   */\n      0x20\n        /* \"#utility.yul\":18519:18522   */\n      dup3\n        /* \"#utility.yul\":18515:18527   */\n      add\n        /* \"#utility.yul\":18508:18527   */\n      swap1\n      pop\n        /* \"#utility.yul\":18167:18533   */\n      swap2\n      swap1\n      pop\n      jump\t// out\n        /* \"#utility.yul\":18539:18958   */\n    tag_214:\n        /* \"#utility.yul\":18705:18709   */\n      0x00\n        /* \"#utility.yul\":18743:18745   */\n      0x20\n        /* \"#utility.yul\":18732:18741   */\n      dup3\n        /* \"#utility.yul\":18728:18746   */\n      add\n        /* \"#utility.yul\":18720:18746   */\n      swap1\n      pop\n        /* \"#utility.yul\":18792:18801   */\n      dup2\n        /* \"#utility.yul\":18786:18790   */\n      dup2\n        /* \"#utility.yul\":18782:18802   */\n      sub\n        /* \"#utility.yul\":18778:18779   */\n      0x00\n        /* \"#utility.yul\":18767:18776   */\n      dup4\n        /* \"#utility.yul\":18763:18780   */\n      add\n        /* \"#utility.yul\":18756:18803   */\n      mstore\n        /* \"#utility.yul\":18820:18951   */\n      tag_433\n        /* \"#utility.yul\":18946:18950   */\n      dup2\n        /* \"#utility.yul\":18820:18951   */\n      tag_267\n      jump\t// in\n    tag_433:\n        /* \"#utility.yul\":18812:18951   */\n      swap1\n      pop\n        /* \"#utility.yul\":18539:18958   */\n      swap2\n      swap1\n      pop\n      jump\t// out\n\n    auxdata: 0xa2646970667358221220159a83d549716cb57e417014db43503f7d8190c21bb5d2be90a5323bb697016464736f6c634300081e0033\n}\n",
				"bytecode": {
					"linkReferences": {},
					"object": "608060405234801561000f575f5ffd5b50604051611fbf380380611fbf83398181016040528101906100319190610133565b335f5f6101000a81548173ffffffffffffffffffffffffffffffffffffffff021916908373ffffffffffffffffffffffffffffffffffffffff16021790555042600181905550603c81610084919061018b565b4261008f91906101cc565b6002819055505f6003819055505f60045f6101000a81548173ffffffffffffffffffffffffffffffffffffffff021916908373ffffffffffffffffffffffffffffffffffffffff1602179055505f600460146101000a81548160ff021916908315150217905550506101ff565b5f5ffd5b5f819050919050565b61011281610100565b811461011c575f5ffd5b50565b5f8151905061012d81610109565b92915050565b5f60208284031215610148576101476100fc565b5b5f6101558482850161011f565b91505092915050565b7f4e487b71000000000000000000000000000000000000000000000000000000005f52601160045260245ffd5b5f61019582610100565b91506101a083610100565b92508282026101ae81610100565b915082820484148315176101c5576101c461015e565b5b5092915050565b5f6101d682610100565b91506101e183610100565b92508282019050808211156101f9576101f861015e565b5b92915050565b611db38061020c5f395ff3fe608060405260043610610108575f3560e01c806391f9015711610094578063c30aca9a11610063578063c30aca9a14610321578063d57bde7914610337578063eb54f9ec14610361578063fc7e286d1461038b578063fe67a54b146103c757610108565b806391f9015714610266578063a013781b14610290578063b7e03264146102cc578063bc996819146102f757610108565b8063362e2565116100db578063362e25651461019557806346e053a0146101ab5780634b449cba146101e85780635681104a146102125780638da5cb5b1461023c57610108565b806311da74b01461010c57806312fa6feb1461013657806314d2687c146101605780631998aeef1461018b575b5f5ffd5b348015610117575f5ffd5b506101206103dd565b60405161012d91906114dd565b60405180910390f35b348015610141575f5ffd5b5061014a6103e2565b6040516101579190611510565b60405180910390f35b34801561016b575f5ffd5b506101746103f5565b6040516101829291906116c7565b60405180910390f35b6101936105a5565b005b3480156101a0575f5ffd5b506101a96109a9565b005b3480156101b6575f5ffd5b506101d160048036038101906101cc919061172a565b610ffd565b6040516101df929190611764565b60405180910390f35b3480156101f3575f5ffd5b506101fc61103c565b60405161020991906114dd565b60405180910390f35b34801561021d575f5ffd5b50610226611042565b60405161023391906114dd565b60405180910390f35b348015610247575f5ffd5b50610250611048565b60405161025d919061178b565b60405180910390f35b348015610271575f5ffd5b5061027a61106c565b604051610287919061178b565b60405180910390f35b34801561029b575f5ffd5b506102b660048036038101906102b191906117ce565b611091565b6040516102c3919061178b565b60405180910390f35b3480156102d7575f5ffd5b506102e06110cc565b6040516102ee929190611764565b60405180910390f35b348015610302575f5ffd5b5061030b611157565b60405161031891906114dd565b60405180910390f35b34801561032c575f5ffd5b5061033561115c565b005b348015610342575f5ffd5b5061034b6113cd565b60405161035891906114dd565b60405180910390f35b34801561036c575f5ffd5b506103756113d3565b60405161038291906114dd565b60405180910390f35b348015610396575f5ffd5b506103b160048036038101906103ac919061172a565b6113d9565b6040516103be91906114dd565b60405180910390f35b3480156103d2575f5ffd5b506103db6113ee565b005b600281565b600460149054906101000a900460ff1681565b6060805f60088054905090508067ffffffffffffffff81111561041b5761041a6117f9565b5b6040519080825280602002602001820160405280156104495781602001602082028036833780820191505090505b5092508067ffffffffffffffff811115610466576104656117f9565b5b6040519080825280602002602001820160405280156104945781602001602082028036833780820191505090505b5091505f5f5f90505b8281101561059e57600881815481106104b9576104b8611826565b5b905f5260205f20015f9054906101000a900473ffffffffffffffffffffffffffffffffffffffff169150818582815181106104f7576104f6611826565b5b602002602001019073ffffffffffffffffffffffffffffffffffffffff16908173ffffffffffffffffffffffffffffffffffffffff168152505060065f8373ffffffffffffffffffffffffffffffffffffffff1673ffffffffffffffffffffffffffffffffffffffff1681526020019081526020015f206001015484828151811061058557610584611826565b5b602002602001018181525050808060010191505061049d565b5050509091565b600254421080156105c35750600460149054906101000a900460ff16155b610602576040517f08c379a00000000000000000000000000000000000000000000000000000000081526004016105f9906118ad565b60405180910390fd5b5f60035490505f606460058361061891906118f8565b6106229190611966565b8261062d9190611996565b90505f820361063b57600190505b8034101561067e576040517f08c379a000000000000000000000000000000000000000000000000000000000815260040161067590611a13565b60405180910390fd5b60075f3373ffffffffffffffffffffffffffffffffffffffff1673ffffffffffffffffffffffffffffffffffffffff1681526020019081526020015f205f9054906101000a900460ff1661078257600160075f3373ffffffffffffffffffffffffffffffffffffffff1673ffffffffffffffffffffffffffffffffffffffff1681526020019081526020015f205f6101000a81548160ff021916908315150217905550600833908060018154018082558091505060019003905f5260205f20015f9091909190916101000a81548173ffffffffffffffffffffffffffffffffffffffff021916908373ffffffffffffffffffffffffffffffffffffffff1602179055505b3460055f3373ffffffffffffffffffffffffffffffffffffffff1673ffffffffffffffffffffffffffffffffffffffff1681526020019081526020015f205f8282546107ce9190611996565b925050819055508134111561082557346003819055503360045f6101000a81548173ffffffffffffffffffffffffffffffffffffffff021916908373ffffffffffffffffffffffffffffffffffffffff1602179055505b60405180604001604052803373ffffffffffffffffffffffffffffffffffffffff1681526020013481525060065f3373ffffffffffffffffffffffffffffffffffffffff1673ffffffffffffffffffffffffffffffffffffffff1681526020019081526020015f205f820151815f015f6101000a81548173ffffffffffffffffffffffffffffffffffffffff021916908373ffffffffffffffffffffffffffffffffffffffff160217905550602082015181600101559050503373ffffffffffffffffffffffffffffffffffffffff167fdd0b6c6a77960e2066c96171b4d7ac9e8b4c184011f38544afa36a5bb63ec59f3460405161092491906114dd565b60405180910390a26102584260025461093d9190611a31565b1115801561094c575060025442105b156109a55761025860025f8282546109649190611996565b925050819055507fc2b459809119087ca9d2bc10dea53a51b7d848b1a11075db037bdca58292c3e860025460405161099c91906114dd565b60405180910390a15b5050565b5f5f9054906101000a900473ffffffffffffffffffffffffffffffffffffffff1673ffffffffffffffffffffffffffffffffffffffff163373ffffffffffffffffffffffffffffffffffffffff1614610a37576040517f08c379a0000000000000000000000000000000000000000000000000000000008152600401610a2e90611aae565b60405180910390fd5b60025442101580610a545750600460149054906101000a900460ff165b610a93576040517f08c379a0000000000000000000000000000000000000000000000000000000008152600401610a8a90611b16565b60405180910390fd5b5f73ffffffffffffffffffffffffffffffffffffffff1660045f9054906101000a900473ffffffffffffffffffffffffffffffffffffffff1673ffffffffffffffffffffffffffffffffffffffff1614158015610b4d57505f60055f60045f9054906101000a900473ffffffffffffffffffffffffffffffffffffffff1673ffffffffffffffffffffffffffffffffffffffff1673ffffffffffffffffffffffffffffffffffffffff1681526020019081526020015f2054115b15610d7d575f60055f60045f9054906101000a900473ffffffffffffffffffffffffffffffffffffffff1673ffffffffffffffffffffffffffffffffffffffff1673ffffffffffffffffffffffffffffffffffffffff1681526020019081526020015f205490505f6064600283610bc491906118f8565b610bce9190611966565b90505f8183610bdd9190611a31565b90505f60055f60045f9054906101000a900473ffffffffffffffffffffffffffffffffffffffff1673ffffffffffffffffffffffffffffffffffffffff1673ffffffffffffffffffffffffffffffffffffffff1681526020019081526020015f20819055505f5f5f9054906101000a900473ffffffffffffffffffffffffffffffffffffffff1673ffffffffffffffffffffffffffffffffffffffff1682604051610c8790611b61565b5f6040518083038185875af1925050503d805f8114610cc1576040519150601f19603f3d011682016040523d82523d5f602084013e610cc6565b606091505b5050905080610d0a576040517f08c379a0000000000000000000000000000000000000000000000000000000008152600401610d0190611bbf565b60405180910390fd5b5f5f9054906101000a900473ffffffffffffffffffffffffffffffffffffffff1673ffffffffffffffffffffffffffffffffffffffff167f8c9a4f13b67cb64d7c6aa1ae0c9bf07694af521a28b93e7060020810ab4bc59f83604051610d7091906114dd565b60405180910390a2505050505b5f5f90505b600880549050811015610ffa575f60088281548110610da457610da3611826565b5b905f5260205f20015f9054906101000a900473ffffffffffffffffffffffffffffffffffffffff16905060045f9054906101000a900473ffffffffffffffffffffffffffffffffffffffff1673ffffffffffffffffffffffffffffffffffffffff168173ffffffffffffffffffffffffffffffffffffffff161480610e6557505f60055f8373ffffffffffffffffffffffffffffffffffffffff1673ffffffffffffffffffffffffffffffffffffffff1681526020019081526020015f2054145b15610e705750610fed565b5f60055f8373ffffffffffffffffffffffffffffffffffffffff1673ffffffffffffffffffffffffffffffffffffffff1681526020019081526020015f205490505f60055f8473ffffffffffffffffffffffffffffffffffffffff1673ffffffffffffffffffffffffffffffffffffffff1681526020019081526020015f20819055505f8273ffffffffffffffffffffffffffffffffffffffff1682604051610f1890611b61565b5f6040518083038185875af1925050503d805f8114610f52576040519150601f19603f3d011682016040523d82523d5f602084013e610f57565b606091505b5050905080610f9b576040517f08c379a0000000000000000000000000000000000000000000000000000000008152600401610f9290611c27565b60405180910390fd5b8273ffffffffffffffffffffffffffffffffffffffff167f8c9a4f13b67cb64d7c6aa1ae0c9bf07694af521a28b93e7060020810ab4bc59f83604051610fe191906114dd565b60405180910390a25050505b8080600101915050610d82565b50565b6006602052805f5260405f205f91509050805f015f9054906101000a900473ffffffffffffffffffffffffffffffffffffffff16908060010154905082565b60025481565b61025881565b5f5f9054906101000a900473ffffffffffffffffffffffffffffffffffffffff1681565b60045f9054906101000a900473ffffffffffffffffffffffffffffffffffffffff1681565b600881815481106110a0575f80fd5b905f5260205f20015f915054906101000a900473ffffffffffffffffffffffffffffffffffffffff1681565b5f5f600254421015806110eb5750600460149054906101000a900460ff165b61112a576040517f08c379a000000000000000000000000000000000000000000000000000000000815260040161112190611b16565b60405180910390fd5b60045f9054906101000a900473ffffffffffffffffffffffffffffffffffffffff16600354915091509091565b600581565b6002544210801561117a5750600460149054906101000a900460ff16155b6111b9576040517f08c379a00000000000000000000000000000000000000000000000000000000081526004016111b0906118ad565b60405180910390fd5b5f60055f3373ffffffffffffffffffffffffffffffffffffffff1673ffffffffffffffffffffffffffffffffffffffff1681526020019081526020015f205490505f60065f3373ffffffffffffffffffffffffffffffffffffffff1673ffffffffffffffffffffffffffffffffffffffff1681526020019081526020015f20600101549050808211611280576040517f08c379a000000000000000000000000000000000000000000000000000000000815260040161127790611c8f565b60405180910390fd5b5f818361128d9190611a31565b90508160055f3373ffffffffffffffffffffffffffffffffffffffff1673ffffffffffffffffffffffffffffffffffffffff1681526020019081526020015f20819055505f3373ffffffffffffffffffffffffffffffffffffffff16826040516112f690611b61565b5f6040518083038185875af1925050503d805f8114611330576040519150601f19603f3d011682016040523d82523d5f602084013e611335565b606091505b5050905080611379576040517f08c379a000000000000000000000000000000000000000000000000000000000815260040161137090611cf7565b60405180910390fd5b3373ffffffffffffffffffffffffffffffffffffffff167f8468f8fa62fc679cf8165eab7662a1fa977705b501dd787e9ec07884885425f1836040516113bf91906114dd565b60405180910390a250505050565b60035481565b60015481565b6005602052805f5260405f205f915090505481565b600254421015801561140d5750600460149054906101000a900460ff16155b61144c576040517f08c379a000000000000000000000000000000000000000000000000000000000815260040161144390611d5f565b60405180910390fd5b6001600460146101000a81548160ff0219169083151502179055507fdaec4582d5d9595688c8c98545fdd1c696d41c6aeaeb636737e84ed2f5c00eda60045f9054906101000a900473ffffffffffffffffffffffffffffffffffffffff166003546040516114bb929190611764565b60405180910390a1565b5f819050919050565b6114d7816114c5565b82525050565b5f6020820190506114f05f8301846114ce565b92915050565b5f8115159050919050565b61150a816114f6565b82525050565b5f6020820190506115235f830184611501565b92915050565b5f81519050919050565b5f82825260208201905092915050565b5f819050602082019050919050565b5f73ffffffffffffffffffffffffffffffffffffffff82169050919050565b5f61157b82611552565b9050919050565b61158b81611571565b82525050565b5f61159c8383611582565b60208301905092915050565b5f602082019050919050565b5f6115be82611529565b6115c88185611533565b93506115d383611543565b805f5b838110156116035781516115ea8882611591565b97506115f5836115a8565b9250506001810190506115d6565b5085935050505092915050565b5f81519050919050565b5f82825260208201905092915050565b5f819050602082019050919050565b611642816114c5565b82525050565b5f6116538383611639565b60208301905092915050565b5f602082019050919050565b5f61167582611610565b61167f818561161a565b935061168a8361162a565b805f5b838110156116ba5781516116a18882611648565b97506116ac8361165f565b92505060018101905061168d565b5085935050505092915050565b5f6040820190508181035f8301526116df81856115b4565b905081810360208301526116f3818461166b565b90509392505050565b5f5ffd5b61170981611571565b8114611713575f5ffd5b50565b5f8135905061172481611700565b92915050565b5f6020828403121561173f5761173e6116fc565b5b5f61174c84828501611716565b91505092915050565b61175e81611571565b82525050565b5f6040820190506117775f830185611755565b61178460208301846114ce565b9392505050565b5f60208201905061179e5f830184611755565b92915050565b6117ad816114c5565b81146117b7575f5ffd5b50565b5f813590506117c8816117a4565b92915050565b5f602082840312156117e3576117e26116fc565b5b5f6117f0848285016117ba565b91505092915050565b7f4e487b71000000000000000000000000000000000000000000000000000000005f52604160045260245ffd5b7f4e487b71000000000000000000000000000000000000000000000000000000005f52603260045260245ffd5b5f82825260208201905092915050565b7f41756374696f6e20696e6163746976652e0000000000000000000000000000005f82015250565b5f611897601183611853565b91506118a282611863565b602082019050919050565b5f6020820190508181035f8301526118c48161188b565b9050919050565b7f4e487b71000000000000000000000000000000000000000000000000000000005f52601160045260245ffd5b5f611902826114c5565b915061190d836114c5565b925082820261191b816114c5565b91508282048414831517611932576119316118cb565b5b5092915050565b7f4e487b71000000000000000000000000000000000000000000000000000000005f52601260045260245ffd5b5f611970826114c5565b915061197b836114c5565b92508261198b5761198a611939565b5b828204905092915050565b5f6119a0826114c5565b91506119ab836114c5565b92508282019050808211156119c3576119c26118cb565b5b92915050565b7f42696420746f6f206c6f772e00000000000000000000000000000000000000005f82015250565b5f6119fd600c83611853565b9150611a08826119c9565b602082019050919050565b5f6020820190508181035f830152611a2a816119f1565b9050919050565b5f611a3b826114c5565b9150611a46836114c5565b9250828203905081811115611a5e57611a5d6118cb565b5b92915050565b7f4f776e6572206f6e6c792e0000000000000000000000000000000000000000005f82015250565b5f611a98600b83611853565b9150611aa382611a64565b602082019050919050565b5f6020820190508181035f830152611ac581611a8c565b9050919050565b7f41756374696f6e206e6f7420656e6465642e00000000000000000000000000005f82015250565b5f611b00601283611853565b9150611b0b82611acc565b602082019050919050565b5f6020820190508181035f830152611b2d81611af4565b9050919050565b5f81905092915050565b50565b5f611b4c5f83611b34565b9150611b5782611b3e565b5f82019050919050565b5f611b6b82611b41565b9150819050919050565b7f4f776e6572207472616e73666572206661696c65642e000000000000000000005f82015250565b5f611ba9601683611853565b9150611bb482611b75565b602082019050919050565b5f6020820190508181035f830152611bd681611b9d565b9050919050565b7f526566756e64206661696c65642e0000000000000000000000000000000000005f82015250565b5f611c11600e83611853565b9150611c1c82611bdd565b602082019050919050565b5f6020820190508181035f830152611c3e81611c05565b9050919050565b7f4e6f20657863657373206465706f7369742e00000000000000000000000000005f82015250565b5f611c79601283611853565b9150611c8482611c45565b602082019050919050565b5f6020820190508181035f830152611ca681611c6d565b9050919050565b7f5061727469616c207769746864726177616c206661696c65642e0000000000005f82015250565b5f611ce1601a83611853565b9150611cec82611cad565b602082019050919050565b5f6020820190508181035f830152611d0e81611cd5565b9050919050565b7f41756374696f6e206e6f7420656e6461626c652e0000000000000000000000005f82015250565b5f611d49601483611853565b9150611d5482611d15565b602082019050919050565b5f6020820190508181035f830152611d7681611d3d565b905091905056fea2646970667358221220159a83d549716cb57e417014db43503f7d8190c21bb5d2be90a5323bb697016464736f6c634300081e0033",
					"opcodes": "PUSH1 0x80 PUSH1 0x40 MSTORE CALLVALUE DUP1 ISZERO PUSH2 0xF JUMPI PUSH0 PUSH0 REVERT JUMPDEST POP PUSH1 0x40 MLOAD PUSH2 0x1FBF CODESIZE SUB DUP1 PUSH2 0x1FBF DUP4 CODECOPY DUP2 DUP2 ADD PUSH1 0x40 MSTORE DUP2 ADD SWAP1 PUSH2 0x31 SWAP2 SWAP1 PUSH2 0x133 JUMP JUMPDEST CALLER PUSH0 PUSH0 PUSH2 0x100 EXP DUP2 SLOAD DUP2 PUSH20 0xFFFFFFFFFFFFFFFFFFFFFFFFFFFFFFFFFFFFFFFF MUL NOT AND SWAP1 DUP4 PUSH20 0xFFFFFFFFFFFFFFFFFFFFFFFFFFFFFFFFFFFFFFFF AND MUL OR SWAP1 SSTORE POP TIMESTAMP PUSH1 0x1 DUP2 SWAP1 SSTORE POP PUSH1 0x3C DUP2 PUSH2 0x84 SWAP2 SWAP1 PUSH2 0x18B JUMP JUMPDEST TIMESTAMP PUSH2 0x8F SWAP2 SWAP1 PUSH2 0x1CC JUMP JUMPDEST PUSH1 0x2 DUP2 SWAP1 SSTORE POP PUSH0 PUSH1 0x3 DUP2 SWAP1 SSTORE POP PUSH0 PUSH1 0x4 PUSH0 PUSH2 0x100 EXP DUP2 SLOAD DUP2 PUSH20 0xFFFFFFFFFFFFFFFFFFFFFFFFFFFFFFFFFFFFFFFF MUL NOT AND SWAP1 DUP4 PUSH20 0xFFFFFFFFFFFFFFFFFFFFFFFFFFFFFFFFFFFFFFFF AND MUL OR SWAP1 SSTORE POP PUSH0 PUSH1 0x4 PUSH1 0x14 PUSH2 0x100 EXP DUP2 SLOAD DUP2 PUSH1 0xFF MUL NOT AND SWAP1 DUP4 ISZERO ISZERO MUL OR SWAP1 SSTORE POP POP PUSH2 0x1FF JUMP JUMPDEST PUSH0 PUSH0 REVERT JUMPDEST PUSH0 DUP2 SWAP1 POP SWAP2 SWAP1 POP JUMP JUMPDEST PUSH2 0x112 DUP2 PUSH2 0x100 JUMP JUMPDEST DUP2 EQ PUSH2 0x11C JUMPI PUSH0 PUSH0 REVERT JUMPDEST POP JUMP JUMPDEST PUSH0 DUP2 MLOAD SWAP1 POP PUSH2 0x12D DUP2 PUSH2 0x109 JUMP JUMPDEST SWAP3 SWAP2 POP POP JUMP JUMPDEST PUSH0 PUSH1 0x20 DUP3 DUP5 SUB SLT ISZERO PUSH2 0x148 JUMPI PUSH2 0x147 PUSH2 0xFC JUMP JUMPDEST JUMPDEST PUSH0 PUSH2 0x155 DUP5 DUP3 DUP6 ADD PUSH2 0x11F JUMP JUMPDEST SWAP2 POP POP SWAP3 SWAP2 POP POP JUMP JUMPDEST PUSH32 0x4E487B7100000000000000000000000000000000000000000000000000000000 PUSH0 MSTORE PUSH1 0x11 PUSH1 0x4 MSTORE PUSH1 0x24 PUSH0 REVERT JUMPDEST PUSH0 PUSH2 0x195 DUP3 PUSH2 0x100 JUMP JUMPDEST SWAP2 POP PUSH2 0x1A0 DUP4 PUSH2 0x100 JUMP JUMPDEST SWAP3 POP DUP3 DUP3 MUL PUSH2 0x1AE DUP2 PUSH2 0x100 JUMP JUMPDEST SWAP2 POP DUP3 DUP3 DIV DUP5 EQ DUP4 ISZERO OR PUSH2 0x1C5 JUMPI PUSH2 0x1C4 PUSH2 0x15E JUMP JUMPDEST JUMPDEST POP SWAP3 SWAP2 POP POP JUMP JUMPDEST PUSH0 PUSH2 0x1D6 DUP3 PUSH2 0x100 JUMP JUMPDEST SWAP2 POP PUSH2 0x1E1 DUP4 PUSH2 0x100 JUMP JUMPDEST SWAP3 POP DUP3 DUP3 ADD SWAP1 POP DUP1 DUP3 GT ISZERO PUSH2 0x1F9 JUMPI PUSH2 0x1F8 PUSH2 0x15E JUMP JUMPDEST JUMPDEST SWAP3 SWAP2 POP POP JUMP JUMPDEST PUSH2 0x1DB3 DUP1 PUSH2 0x20C PUSH0 CODECOPY PUSH0 RETURN INVALID PUSH1 0x80 PUSH1 0x40 MSTORE PUSH1 0x4 CALLDATASIZE LT PUSH2 0x108 JUMPI PUSH0 CALLDATALOAD PUSH1 0xE0 SHR DUP1 PUSH4 0x91F90157 GT PUSH2 0x94 JUMPI DUP1 PUSH4 0xC30ACA9A GT PUSH2 0x63 JUMPI DUP1 PUSH4 0xC30ACA9A EQ PUSH2 0x321 JUMPI DUP1 PUSH4 0xD57BDE79 EQ PUSH2 0x337 JUMPI DUP1 PUSH4 0xEB54F9EC EQ PUSH2 0x361 JUMPI DUP1 PUSH4 0xFC7E286D EQ PUSH2 0x38B JUMPI DUP1 PUSH4 0xFE67A54B EQ PUSH2 0x3C7 JUMPI PUSH2 0x108 JUMP JUMPDEST DUP1 PUSH4 0x91F90157 EQ PUSH2 0x266 JUMPI DUP1 PUSH4 0xA013781B EQ PUSH2 0x290 JUMPI DUP1 PUSH4 0xB7E03264 EQ PUSH2 0x2CC JUMPI DUP1 PUSH4 0xBC996819 EQ PUSH2 0x2F7 JUMPI PUSH2 0x108 JUMP JUMPDEST DUP1 PUSH4 0x362E2565 GT PUSH2 0xDB JUMPI DUP1 PUSH4 0x362E2565 EQ PUSH2 0x195 JUMPI DUP1 PUSH4 0x46E053A0 EQ PUSH2 0x1AB JUMPI DUP1 PUSH4 0x4B449CBA EQ PUSH2 0x1E8 JUMPI DUP1 PUSH4 0x5681104A EQ PUSH2 0x212 JUMPI DUP1 PUSH4 0x8DA5CB5B EQ PUSH2 0x23C JUMPI PUSH2 0x108 JUMP JUMPDEST DUP1 PUSH4 0x11DA74B0 EQ PUSH2 0x10C JUMPI DUP1 PUSH4 0x12FA6FEB EQ PUSH2 0x136 JUMPI DUP1 PUSH4 0x14D2687C EQ PUSH2 0x160 JUMPI DUP1 PUSH4 0x1998AEEF EQ PUSH2 0x18B JUMPI JUMPDEST PUSH0 PUSH0 REVERT JUMPDEST CALLVALUE DUP1 ISZERO PUSH2 0x117 JUMPI PUSH0 PUSH0 REVERT JUMPDEST POP PUSH2 0x120 PUSH2 0x3DD JUMP JUMPDEST PUSH1 0x40 MLOAD PUSH2 0x12D SWAP2 SWAP1 PUSH2 0x14DD JUMP JUMPDEST PUSH1 0x40 MLOAD DUP1 SWAP2 SUB SWAP1 RETURN JUMPDEST CALLVALUE DUP1 ISZERO PUSH2 0x141 JUMPI PUSH0 PUSH0 REVERT JUMPDEST POP PUSH2 0x14A PUSH2 0x3E2 JUMP JUMPDEST PUSH1 0x40 MLOAD PUSH2 0x157 SWAP2 SWAP1 PUSH2 0x1510 JUMP JUMPDEST PUSH1 0x40 MLOAD DUP1 SWAP2 SUB SWAP1 RETURN JUMPDEST CALLVALUE DUP1 ISZERO PUSH2 0x16B JUMPI PUSH0 PUSH0 REVERT JUMPDEST POP PUSH2 0x174 PUSH2 0x3F5 JUMP JUMPDEST PUSH1 0x40 MLOAD PUSH2 0x182 SWAP3 SWAP2 SWAP1 PUSH2 0x16C7 JUMP JUMPDEST PUSH1 0x40 MLOAD DUP1 SWAP2 SUB SWAP1 RETURN JUMPDEST PUSH2 0x193 PUSH2 0x5A5 JUMP JUMPDEST STOP JUMPDEST CALLVALUE DUP1 ISZERO PUSH2 0x1A0 JUMPI PUSH0 PUSH0 REVERT JUMPDEST POP PUSH2 0x1A9 PUSH2 0x9A9 JUMP JUMPDEST STOP JUMPDEST CALLVALUE DUP1 ISZERO PUSH2 0x1B6 JUMPI PUSH0 PUSH0 REVERT JUMPDEST POP PUSH2 0x1D1 PUSH1 0x4 DUP1 CALLDATASIZE SUB DUP2 ADD SWAP1 PUSH2 0x1CC SWAP2 SWAP1 PUSH2 0x172A JUMP JUMPDEST PUSH2 0xFFD JUMP JUMPDEST PUSH1 0x40 MLOAD PUSH2 0x1DF SWAP3 SWAP2 SWAP1 PUSH2 0x1764 JUMP JUMPDEST PUSH1 0x40 MLOAD DUP1 SWAP2 SUB SWAP1 RETURN JUMPDEST CALLVALUE DUP1 ISZERO PUSH2 0x1F3 JUMPI PUSH0 PUSH0 REVERT JUMPDEST POP PUSH2 0x1FC PUSH2 0x103C JUMP JUMPDEST PUSH1 0x40 MLOAD PUSH2 0x209 SWAP2 SWAP1 PUSH2 0x14DD JUMP JUMPDEST PUSH1 0x40 MLOAD DUP1 SWAP2 SUB SWAP1 RETURN JUMPDEST CALLVALUE DUP1 ISZERO PUSH2 0x21D JUMPI PUSH0 PUSH0 REVERT JUMPDEST POP PUSH2 0x226 PUSH2 0x1042 JUMP JUMPDEST PUSH1 0x40 MLOAD PUSH2 0x233 SWAP2 SWAP1 PUSH2 0x14DD JUMP JUMPDEST PUSH1 0x40 MLOAD DUP1 SWAP2 SUB SWAP1 RETURN JUMPDEST CALLVALUE DUP1 ISZERO PUSH2 0x247 JUMPI PUSH0 PUSH0 REVERT JUMPDEST POP PUSH2 0x250 PUSH2 0x1048 JUMP JUMPDEST PUSH1 0x40 MLOAD PUSH2 0x25D SWAP2 SWAP1 PUSH2 0x178B JUMP JUMPDEST PUSH1 0x40 MLOAD DUP1 SWAP2 SUB SWAP1 RETURN JUMPDEST CALLVALUE DUP1 ISZERO PUSH2 0x271 JUMPI PUSH0 PUSH0 REVERT JUMPDEST POP PUSH2 0x27A PUSH2 0x106C JUMP JUMPDEST PUSH1 0x40 MLOAD PUSH2 0x287 SWAP2 SWAP1 PUSH2 0x178B JUMP JUMPDEST PUSH1 0x40 MLOAD DUP1 SWAP2 SUB SWAP1 RETURN JUMPDEST CALLVALUE DUP1 ISZERO PUSH2 0x29B JUMPI PUSH0 PUSH0 REVERT JUMPDEST POP PUSH2 0x2B6 PUSH1 0x4 DUP1 CALLDATASIZE SUB DUP2 ADD SWAP1 PUSH2 0x2B1 SWAP2 SWAP1 PUSH2 0x17CE JUMP JUMPDEST PUSH2 0x1091 JUMP JUMPDEST PUSH1 0x40 MLOAD PUSH2 0x2C3 SWAP2 SWAP1 PUSH2 0x178B JUMP JUMPDEST PUSH1 0x40 MLOAD DUP1 SWAP2 SUB SWAP1 RETURN JUMPDEST CALLVALUE DUP1 ISZERO PUSH2 0x2D7 JUMPI PUSH0 PUSH0 REVERT JUMPDEST POP PUSH2 0x2E0 PUSH2 0x10CC JUMP JUMPDEST PUSH1 0x40 MLOAD PUSH2 0x2EE SWAP3 SWAP2 SWAP1 PUSH2 0x1764 JUMP JUMPDEST PUSH1 0x40 MLOAD DUP1 SWAP2 SUB SWAP1 RETURN JUMPDEST CALLVALUE DUP1 ISZERO PUSH2 0x302 JUMPI PUSH0 PUSH0 REVERT JUMPDEST POP PUSH2 0x30B PUSH2 0x1157 JUMP JUMPDEST PUSH1 0x40 MLOAD PUSH2 0x318 SWAP2 SWAP1 PUSH2 0x14DD JUMP JUMPDEST PUSH1 0x40 MLOAD DUP1 SWAP2 SUB SWAP1 RETURN JUMPDEST CALLVALUE DUP1 ISZERO PUSH2 0x32C JUMPI PUSH0 PUSH0 REVERT JUMPDEST POP PUSH2 0x335 PUSH2 0x115C JUMP JUMPDEST STOP JUMPDEST CALLVALUE DUP1 ISZERO PUSH2 0x342 JUMPI PUSH0 PUSH0 REVERT JUMPDEST POP PUSH2 0x34B PUSH2 0x13CD JUMP JUMPDEST PUSH1 0x40 MLOAD PUSH2 0x358 SWAP2 SWAP1 PUSH2 0x14DD JUMP JUMPDEST PUSH1 0x40 MLOAD DUP1 SWAP2 SUB SWAP1 RETURN JUMPDEST CALLVALUE DUP1 ISZERO PUSH2 0x36C JUMPI PUSH0 PUSH0 REVERT JUMPDEST POP PUSH2 0x375 PUSH2 0x13D3 JUMP JUMPDEST PUSH1 0x40 MLOAD PUSH2 0x382 SWAP2 SWAP1 PUSH2 0x14DD JUMP JUMPDEST PUSH1 0x40 MLOAD DUP1 SWAP2 SUB SWAP1 RETURN JUMPDEST CALLVALUE DUP1 ISZERO PUSH2 0x396 JUMPI PUSH0 PUSH0 REVERT JUMPDEST POP PUSH2 0x3B1 PUSH1 0x4 DUP1 CALLDATASIZE SUB DUP2 ADD SWAP1 PUSH2 0x3AC SWAP2 SWAP1 PUSH2 0x172A JUMP JUMPDEST PUSH2 0x13D9 JUMP JUMPDEST PUSH1 0x40 MLOAD PUSH2 0x3BE SWAP2 SWAP1 PUSH2 0x14DD JUMP JUMPDEST PUSH1 0x40 MLOAD DUP1 SWAP2 SUB SWAP1 RETURN JUMPDEST CALLVALUE DUP1 ISZERO PUSH2 0x3D2 JUMPI PUSH0 PUSH0 REVERT JUMPDEST POP PUSH2 0x3DB PUSH2 0x13EE JUMP JUMPDEST STOP JUMPDEST PUSH1 0x2 DUP2 JUMP JUMPDEST PUSH1 0x4 PUSH1 0x14 SWAP1 SLOAD SWAP1 PUSH2 0x100 EXP SWAP1 DIV PUSH1 0xFF AND DUP2 JUMP JUMPDEST PUSH1 0x60 DUP1 PUSH0 PUSH1 0x8 DUP1 SLOAD SWAP1 POP SWAP1 POP DUP1 PUSH8 0xFFFFFFFFFFFFFFFF DUP2 GT ISZERO PUSH2 0x41B JUMPI PUSH2 0x41A PUSH2 0x17F9 JUMP JUMPDEST JUMPDEST PUSH1 0x40 MLOAD SWAP1 DUP1 DUP3 MSTORE DUP1 PUSH1 0x20 MUL PUSH1 0x20 ADD DUP3 ADD PUSH1 0x40 MSTORE DUP1 ISZERO PUSH2 0x449 JUMPI DUP2 PUSH1 0x20 ADD PUSH1 0x20 DUP3 MUL DUP1 CALLDATASIZE DUP4 CALLDATACOPY DUP1 DUP3 ADD SWAP2 POP POP SWAP1 POP JUMPDEST POP SWAP3 POP DUP1 PUSH8 0xFFFFFFFFFFFFFFFF DUP2 GT ISZERO PUSH2 0x466 JUMPI PUSH2 0x465 PUSH2 0x17F9 JUMP JUMPDEST JUMPDEST PUSH1 0x40 MLOAD SWAP1 DUP1 DUP3 MSTORE DUP1 PUSH1 0x20 MUL PUSH1 0x20 ADD DUP3 ADD PUSH1 0x40 MSTORE DUP1 ISZERO PUSH2 0x494 JUMPI DUP2 PUSH1 0x20 ADD PUSH1 0x20 DUP3 MUL DUP1 CALLDATASIZE DUP4 CALLDATACOPY DUP1 DUP3 ADD SWAP2 POP POP SWAP1 POP JUMPDEST POP SWAP2 POP PUSH0 PUSH0 PUSH0 SWAP1 POP JUMPDEST DUP3 DUP2 LT ISZERO PUSH2 0x59E JUMPI PUSH1 0x8 DUP2 DUP2 SLOAD DUP2 LT PUSH2 0x4B9 JUMPI PUSH2 0x4B8 PUSH2 0x1826 JUMP JUMPDEST JUMPDEST SWAP1 PUSH0 MSTORE PUSH1 0x20 PUSH0 KECCAK256 ADD PUSH0 SWAP1 SLOAD SWAP1 PUSH2 0x100 EXP SWAP1 DIV PUSH20 0xFFFFFFFFFFFFFFFFFFFFFFFFFFFFFFFFFFFFFFFF AND SWAP2 POP DUP2 DUP6 DUP3 DUP2 MLOAD DUP2 LT PUSH2 0x4F7 JUMPI PUSH2 0x4F6 PUSH2 0x1826 JUMP JUMPDEST JUMPDEST PUSH1 0x20 MUL PUSH1 0x20 ADD ADD SWAP1 PUSH20 0xFFFFFFFFFFFFFFFFFFFFFFFFFFFFFFFFFFFFFFFF AND SWAP1 DUP2 PUSH20 0xFFFFFFFFFFFFFFFFFFFFFFFFFFFFFFFFFFFFFFFF AND DUP2 MSTORE POP POP PUSH1 0x6 PUSH0 DUP4 PUSH20 0xFFFFFFFFFFFFFFFFFFFFFFFFFFFFFFFFFFFFFFFF AND PUSH20 0xFFFFFFFFFFFFFFFFFFFFFFFFFFFFFFFFFFFFFFFF AND DUP2 MSTORE PUSH1 0x20 ADD SWAP1 DUP2 MSTORE PUSH1 0x20 ADD PUSH0 KECCAK256 PUSH1 0x1 ADD SLOAD DUP5 DUP3 DUP2 MLOAD DUP2 LT PUSH2 0x585 JUMPI PUSH2 0x584 PUSH2 0x1826 JUMP JUMPDEST JUMPDEST PUSH1 0x20 MUL PUSH1 0x20 ADD ADD DUP2 DUP2 MSTORE POP POP DUP1 DUP1 PUSH1 0x1 ADD SWAP2 POP POP PUSH2 0x49D JUMP JUMPDEST POP POP POP SWAP1 SWAP2 JUMP JUMPDEST PUSH1 0x2 SLOAD TIMESTAMP LT DUP1 ISZERO PUSH2 0x5C3 JUMPI POP PUSH1 0x4 PUSH1 0x14 SWAP1 SLOAD SWAP1 PUSH2 0x100 EXP SWAP1 DIV PUSH1 0xFF AND ISZERO JUMPDEST PUSH2 0x602 JUMPI PUSH1 0x40 MLOAD PUSH32 0x8C379A000000000000000000000000000000000000000000000000000000000 DUP2 MSTORE PUSH1 0x4 ADD PUSH2 0x5F9 SWAP1 PUSH2 0x18AD JUMP JUMPDEST PUSH1 0x40 MLOAD DUP1 SWAP2 SUB SWAP1 REVERT JUMPDEST PUSH0 PUSH1 0x3 SLOAD SWAP1 POP PUSH0 PUSH1 0x64 PUSH1 0x5 DUP4 PUSH2 0x618 SWAP2 SWAP1 PUSH2 0x18F8 JUMP JUMPDEST PUSH2 0x622 SWAP2 SWAP1 PUSH2 0x1966 JUMP JUMPDEST DUP3 PUSH2 0x62D SWAP2 SWAP1 PUSH2 0x1996 JUMP JUMPDEST SWAP1 POP PUSH0 DUP3 SUB PUSH2 0x63B JUMPI PUSH1 0x1 SWAP1 POP JUMPDEST DUP1 CALLVALUE LT ISZERO PUSH2 0x67E JUMPI PUSH1 0x40 MLOAD PUSH32 0x8C379A000000000000000000000000000000000000000000000000000000000 DUP2 MSTORE PUSH1 0x4 ADD PUSH2 0x675 SWAP1 PUSH2 0x1A13 JUMP JUMPDEST PUSH1 0x40 MLOAD DUP1 SWAP2 SUB SWAP1 REVERT JUMPDEST PUSH1 0x7 PUSH0 CALLER PUSH20 0xFFFFFFFFFFFFFFFFFFFFFFFFFFFFFFFFFFFFFFFF AND PUSH20 0xFFFFFFFFFFFFFFFFFFFFFFFFFFFFFFFFFFFFFFFF AND DUP2 MSTORE PUSH1 0x20 ADD SWAP1 DUP2 MSTORE PUSH1 0x20 ADD PUSH0 KECCAK256 PUSH0 SWAP1 SLOAD SWAP1 PUSH2 0x100 EXP SWAP1 DIV PUSH1 0xFF AND PUSH2 0x782 JUMPI PUSH1 0x1 PUSH1 0x7 PUSH0 CALLER PUSH20 0xFFFFFFFFFFFFFFFFFFFFFFFFFFFFFFFFFFFFFFFF AND PUSH20 0xFFFFFFFFFFFFFFFFFFFFFFFFFFFFFFFFFFFFFFFF AND DUP2 MSTORE PUSH1 0x20 ADD SWAP1 DUP2 MSTORE PUSH1 0x20 ADD PUSH0 KECCAK256 PUSH0 PUSH2 0x100 EXP DUP2 SLOAD DUP2 PUSH1 0xFF MUL NOT AND SWAP1 DUP4 ISZERO ISZERO MUL OR SWAP1 SSTORE POP PUSH1 0x8 CALLER SWAP1 DUP1 PUSH1 0x1 DUP2 SLOAD ADD DUP1 DUP3 SSTORE DUP1 SWAP2 POP POP PUSH1 0x1 SWAP1 SUB SWAP1 PUSH0 MSTORE PUSH1 0x20 PUSH0 KECCAK256 ADD PUSH0 SWAP1 SWAP2 SWAP1 SWAP2 SWAP1 SWAP2 PUSH2 0x100 EXP DUP2 SLOAD DUP2 PUSH20 0xFFFFFFFFFFFFFFFFFFFFFFFFFFFFFFFFFFFFFFFF MUL NOT AND SWAP1 DUP4 PUSH20 0xFFFFFFFFFFFFFFFFFFFFFFFFFFFFFFFFFFFFFFFF AND MUL OR SWAP1 SSTORE POP JUMPDEST CALLVALUE PUSH1 0x5 PUSH0 CALLER PUSH20 0xFFFFFFFFFFFFFFFFFFFFFFFFFFFFFFFFFFFFFFFF AND PUSH20 0xFFFFFFFFFFFFFFFFFFFFFFFFFFFFFFFFFFFFFFFF AND DUP2 MSTORE PUSH1 0x20 ADD SWAP1 DUP2 MSTORE PUSH1 0x20 ADD PUSH0 KECCAK256 PUSH0 DUP3 DUP3 SLOAD PUSH2 0x7CE SWAP2 SWAP1 PUSH2 0x1996 JUMP JUMPDEST SWAP3 POP POP DUP2 SWAP1 SSTORE POP DUP2 CALLVALUE GT ISZERO PUSH2 0x825 JUMPI CALLVALUE PUSH1 0x3 DUP2 SWAP1 SSTORE POP CALLER PUSH1 0x4 PUSH0 PUSH2 0x100 EXP DUP2 SLOAD DUP2 PUSH20 0xFFFFFFFFFFFFFFFFFFFFFFFFFFFFFFFFFFFFFFFF MUL NOT AND SWAP1 DUP4 PUSH20 0xFFFFFFFFFFFFFFFFFFFFFFFFFFFFFFFFFFFFFFFF AND MUL OR SWAP1 SSTORE POP JUMPDEST PUSH1 0x40 MLOAD DUP1 PUSH1 0x40 ADD PUSH1 0x40 MSTORE DUP1 CALLER PUSH20 0xFFFFFFFFFFFFFFFFFFFFFFFFFFFFFFFFFFFFFFFF AND DUP2 MSTORE PUSH1 0x20 ADD CALLVALUE DUP2 MSTORE POP PUSH1 0x6 PUSH0 CALLER PUSH20 0xFFFFFFFFFFFFFFFFFFFFFFFFFFFFFFFFFFFFFFFF AND PUSH20 0xFFFFFFFFFFFFFFFFFFFFFFFFFFFFFFFFFFFFFFFF AND DUP2 MSTORE PUSH1 0x20 ADD SWAP1 DUP2 MSTORE PUSH1 0x20 ADD PUSH0 KECCAK256 PUSH0 DUP3 ADD MLOAD DUP2 PUSH0 ADD PUSH0 PUSH2 0x100 EXP DUP2 SLOAD DUP2 PUSH20 0xFFFFFFFFFFFFFFFFFFFFFFFFFFFFFFFFFFFFFFFF MUL NOT AND SWAP1 DUP4 PUSH20 0xFFFFFFFFFFFFFFFFFFFFFFFFFFFFFFFFFFFFFFFF AND MUL OR SWAP1 SSTORE POP PUSH1 0x20 DUP3 ADD MLOAD DUP2 PUSH1 0x1 ADD SSTORE SWAP1 POP POP CALLER PUSH20 0xFFFFFFFFFFFFFFFFFFFFFFFFFFFFFFFFFFFFFFFF AND PUSH32 0xDD0B6C6A77960E2066C96171B4D7AC9E8B4C184011F38544AFA36A5BB63EC59F CALLVALUE PUSH1 0x40 MLOAD PUSH2 0x924 SWAP2 SWAP1 PUSH2 0x14DD JUMP JUMPDEST PUSH1 0x40 MLOAD DUP1 SWAP2 SUB SWAP1 LOG2 PUSH2 0x258 TIMESTAMP PUSH1 0x2 SLOAD PUSH2 0x93D SWAP2 SWAP1 PUSH2 0x1A31 JUMP JUMPDEST GT ISZERO DUP1 ISZERO PUSH2 0x94C JUMPI POP PUSH1 0x2 SLOAD TIMESTAMP LT JUMPDEST ISZERO PUSH2 0x9A5 JUMPI PUSH2 0x258 PUSH1 0x2 PUSH0 DUP3 DUP3 SLOAD PUSH2 0x964 SWAP2 SWAP1 PUSH2 0x1996 JUMP JUMPDEST SWAP3 POP POP DUP2 SWAP1 SSTORE POP PUSH32 0xC2B459809119087CA9D2BC10DEA53A51B7D848B1A11075DB037BDCA58292C3E8 PUSH1 0x2 SLOAD PUSH1 0x40 MLOAD PUSH2 0x99C SWAP2 SWAP1 PUSH2 0x14DD JUMP JUMPDEST PUSH1 0x40 MLOAD DUP1 SWAP2 SUB SWAP1 LOG1 JUMPDEST POP POP JUMP JUMPDEST PUSH0 PUSH0 SWAP1 SLOAD SWAP1 PUSH2 0x100 EXP SWAP1 DIV PUSH20 0xFFFFFFFFFFFFFFFFFFFFFFFFFFFFFFFFFFFFFFFF AND PUSH20 0xFFFFFFFFFFFFFFFFFFFFFFFFFFFFFFFFFFFFFFFF AND CALLER PUSH20 0xFFFFFFFFFFFFFFFFFFFFFFFFFFFFFFFFFFFFFFFF AND EQ PUSH2 0xA37 JUMPI PUSH1 0x40 MLOAD PUSH32 0x8C379A000000000000000000000000000000000000000000000000000000000 DUP2 MSTORE PUSH1 0x4 ADD PUSH2 0xA2E SWAP1 PUSH2 0x1AAE JUMP JUMPDEST PUSH1 0x40 MLOAD DUP1 SWAP2 SUB SWAP1 REVERT JUMPDEST PUSH1 0x2 SLOAD TIMESTAMP LT ISZERO DUP1 PUSH2 0xA54 JUMPI POP PUSH1 0x4 PUSH1 0x14 SWAP1 SLOAD SWAP1 PUSH2 0x100 EXP SWAP1 DIV PUSH1 0xFF AND JUMPDEST PUSH2 0xA93 JUMPI PUSH1 0x40 MLOAD PUSH32 0x8C379A000000000000000000000000000000000000000000000000000000000 DUP2 MSTORE PUSH1 0x4 ADD PUSH2 0xA8A SWAP1 PUSH2 0x1B16 JUMP JUMPDEST PUSH1 0x40 MLOAD DUP1 SWAP2 SUB SWAP1 REVERT JUMPDEST PUSH0 PUSH20 0xFFFFFFFFFFFFFFFFFFFFFFFFFFFFFFFFFFFFFFFF AND PUSH1 0x4 PUSH0 SWAP1 SLOAD SWAP1 PUSH2 0x100 EXP SWAP1 DIV PUSH20 0xFFFFFFFFFFFFFFFFFFFFFFFFFFFFFFFFFFFFFFFF AND PUSH20 0xFFFFFFFFFFFFFFFFFFFFFFFFFFFFFFFFFFFFFFFF AND EQ ISZERO DUP1 ISZERO PUSH2 0xB4D JUMPI POP PUSH0 PUSH1 0x5 PUSH0 PUSH1 0x4 PUSH0 SWAP1 SLOAD SWAP1 PUSH2 0x100 EXP SWAP1 DIV PUSH20 0xFFFFFFFFFFFFFFFFFFFFFFFFFFFFFFFFFFFFFFFF AND PUSH20 0xFFFFFFFFFFFFFFFFFFFFFFFFFFFFFFFFFFFFFFFF AND PUSH20 0xFFFFFFFFFFFFFFFFFFFFFFFFFFFFFFFFFFFFFFFF AND DUP2 MSTORE PUSH1 0x20 ADD SWAP1 DUP2 MSTORE PUSH1 0x20 ADD PUSH0 KECCAK256 SLOAD GT JUMPDEST ISZERO PUSH2 0xD7D JUMPI PUSH0 PUSH1 0x5 PUSH0 PUSH1 0x4 PUSH0 SWAP1 SLOAD SWAP1 PUSH2 0x100 EXP SWAP1 DIV PUSH20 0xFFFFFFFFFFFFFFFFFFFFFFFFFFFFFFFFFFFFFFFF AND PUSH20 0xFFFFFFFFFFFFFFFFFFFFFFFFFFFFFFFFFFFFFFFF AND PUSH20 0xFFFFFFFFFFFFFFFFFFFFFFFFFFFFFFFFFFFFFFFF AND DUP2 MSTORE PUSH1 0x20 ADD SWAP1 DUP2 MSTORE PUSH1 0x20 ADD PUSH0 KECCAK256 SLOAD SWAP1 POP PUSH0 PUSH1 0x64 PUSH1 0x2 DUP4 PUSH2 0xBC4 SWAP2 SWAP1 PUSH2 0x18F8 JUMP JUMPDEST PUSH2 0xBCE SWAP2 SWAP1 PUSH2 0x1966 JUMP JUMPDEST SWAP1 POP PUSH0 DUP2 DUP4 PUSH2 0xBDD SWAP2 SWAP1 PUSH2 0x1A31 JUMP JUMPDEST SWAP1 POP PUSH0 PUSH1 0x5 PUSH0 PUSH1 0x4 PUSH0 SWAP1 SLOAD SWAP1 PUSH2 0x100 EXP SWAP1 DIV PUSH20 0xFFFFFFFFFFFFFFFFFFFFFFFFFFFFFFFFFFFFFFFF AND PUSH20 0xFFFFFFFFFFFFFFFFFFFFFFFFFFFFFFFFFFFFFFFF AND PUSH20 0xFFFFFFFFFFFFFFFFFFFFFFFFFFFFFFFFFFFFFFFF AND DUP2 MSTORE PUSH1 0x20 ADD SWAP1 DUP2 MSTORE PUSH1 0x20 ADD PUSH0 KECCAK256 DUP2 SWAP1 SSTORE POP PUSH0 PUSH0 PUSH0 SWAP1 SLOAD SWAP1 PUSH2 0x100 EXP SWAP1 DIV PUSH20 0xFFFFFFFFFFFFFFFFFFFFFFFFFFFFFFFFFFFFFFFF AND PUSH20 0xFFFFFFFFFFFFFFFFFFFFFFFFFFFFFFFFFFFFFFFF AND DUP3 PUSH1 0x40 MLOAD PUSH2 0xC87 SWAP1 PUSH2 0x1B61 JUMP JUMPDEST PUSH0 PUSH1 0x40 MLOAD DUP1 DUP4 SUB DUP2 DUP6 DUP8 GAS CALL SWAP3 POP POP POP RETURNDATASIZE DUP1 PUSH0 DUP2 EQ PUSH2 0xCC1 JUMPI PUSH1 0x40 MLOAD SWAP2 POP PUSH1 0x1F NOT PUSH1 0x3F RETURNDATASIZE ADD AND DUP3 ADD PUSH1 0x40 MSTORE RETURNDATASIZE DUP3 MSTORE RETURNDATASIZE PUSH0 PUSH1 0x20 DUP5 ADD RETURNDATACOPY PUSH2 0xCC6 JUMP JUMPDEST PUSH1 0x60 SWAP2 POP JUMPDEST POP POP SWAP1 POP DUP1 PUSH2 0xD0A JUMPI PUSH1 0x40 MLOAD PUSH32 0x8C379A000000000000000000000000000000000000000000000000000000000 DUP2 MSTORE PUSH1 0x4 ADD PUSH2 0xD01 SWAP1 PUSH2 0x1BBF JUMP JUMPDEST PUSH1 0x40 MLOAD DUP1 SWAP2 SUB SWAP1 REVERT JUMPDEST PUSH0 PUSH0 SWAP1 SLOAD SWAP1 PUSH2 0x100 EXP SWAP1 DIV PUSH20 0xFFFFFFFFFFFFFFFFFFFFFFFFFFFFFFFFFFFFFFFF AND PUSH20 0xFFFFFFFFFFFFFFFFFFFFFFFFFFFFFFFFFFFFFFFF AND PUSH32 0x8C9A4F13B67CB64D7C6AA1AE0C9BF07694AF521A28B93E7060020810AB4BC59F DUP4 PUSH1 0x40 MLOAD PUSH2 0xD70 SWAP2 SWAP1 PUSH2 0x14DD JUMP JUMPDEST PUSH1 0x40 MLOAD DUP1 SWAP2 SUB SWAP1 LOG2 POP POP POP POP JUMPDEST PUSH0 PUSH0 SWAP1 POP JUMPDEST PUSH1 0x8 DUP1 SLOAD SWAP1 POP DUP2 LT ISZERO PUSH2 0xFFA JUMPI PUSH0 PUSH1 0x8 DUP3 DUP2 SLOAD DUP2 LT PUSH2 0xDA4 JUMPI PUSH2 0xDA3 PUSH2 0x1826 JUMP JUMPDEST JUMPDEST SWAP1 PUSH0 MSTORE PUSH1 0x20 PUSH0 KECCAK256 ADD PUSH0 SWAP1 SLOAD SWAP1 PUSH2 0x100 EXP SWAP1 DIV PUSH20 0xFFFFFFFFFFFFFFFFFFFFFFFFFFFFFFFFFFFFFFFF AND SWAP1 POP PUSH1 0x4 PUSH0 SWAP1 SLOAD SWAP1 PUSH2 0x100 EXP SWAP1 DIV PUSH20 0xFFFFFFFFFFFFFFFFFFFFFFFFFFFFFFFFFFFFFFFF AND PUSH20 0xFFFFFFFFFFFFFFFFFFFFFFFFFFFFFFFFFFFFFFFF AND DUP2 PUSH20 0xFFFFFFFFFFFFFFFFFFFFFFFFFFFFFFFFFFFFFFFF AND EQ DUP1 PUSH2 0xE65 JUMPI POP PUSH0 PUSH1 0x5 PUSH0 DUP4 PUSH20 0xFFFFFFFFFFFFFFFFFFFFFFFFFFFFFFFFFFFFFFFF AND PUSH20 0xFFFFFFFFFFFFFFFFFFFFFFFFFFFFFFFFFFFFFFFF AND DUP2 MSTORE PUSH1 0x20 ADD SWAP1 DUP2 MSTORE PUSH1 0x20 ADD PUSH0 KECCAK256 SLOAD EQ JUMPDEST ISZERO PUSH2 0xE70 JUMPI POP PUSH2 0xFED JUMP JUMPDEST PUSH0 PUSH1 0x5 PUSH0 DUP4 PUSH20 0xFFFFFFFFFFFFFFFFFFFFFFFFFFFFFFFFFFFFFFFF AND PUSH20 0xFFFFFFFFFFFFFFFFFFFFFFFFFFFFFFFFFFFFFFFF AND DUP2 MSTORE PUSH1 0x20 ADD SWAP1 DUP2 MSTORE PUSH1 0x20 ADD PUSH0 KECCAK256 SLOAD SWAP1 POP PUSH0 PUSH1 0x5 PUSH0 DUP5 PUSH20 0xFFFFFFFFFFFFFFFFFFFFFFFFFFFFFFFFFFFFFFFF AND PUSH20 0xFFFFFFFFFFFFFFFFFFFFFFFFFFFFFFFFFFFFFFFF AND DUP2 MSTORE PUSH1 0x20 ADD SWAP1 DUP2 MSTORE PUSH1 0x20 ADD PUSH0 KECCAK256 DUP2 SWAP1 SSTORE POP PUSH0 DUP3 PUSH20 0xFFFFFFFFFFFFFFFFFFFFFFFFFFFFFFFFFFFFFFFF AND DUP3 PUSH1 0x40 MLOAD PUSH2 0xF18 SWAP1 PUSH2 0x1B61 JUMP JUMPDEST PUSH0 PUSH1 0x40 MLOAD DUP1 DUP4 SUB DUP2 DUP6 DUP8 GAS CALL SWAP3 POP POP POP RETURNDATASIZE DUP1 PUSH0 DUP2 EQ PUSH2 0xF52 JUMPI PUSH1 0x40 MLOAD SWAP2 POP PUSH1 0x1F NOT PUSH1 0x3F RETURNDATASIZE ADD AND DUP3 ADD PUSH1 0x40 MSTORE RETURNDATASIZE DUP3 MSTORE RETURNDATASIZE PUSH0 PUSH1 0x20 DUP5 ADD RETURNDATACOPY PUSH2 0xF57 JUMP JUMPDEST PUSH1 0x60 SWAP2 POP JUMPDEST POP POP SWAP1 POP DUP1 PUSH2 0xF9B JUMPI PUSH1 0x40 MLOAD PUSH32 0x8C379A000000000000000000000000000000000000000000000000000000000 DUP2 MSTORE PUSH1 0x4 ADD PUSH2 0xF92 SWAP1 PUSH2 0x1C27 JUMP JUMPDEST PUSH1 0x40 MLOAD DUP1 SWAP2 SUB SWAP1 REVERT JUMPDEST DUP3 PUSH20 0xFFFFFFFFFFFFFFFFFFFFFFFFFFFFFFFFFFFFFFFF AND PUSH32 0x8C9A4F13B67CB64D7C6AA1AE0C9BF07694AF521A28B93E7060020810AB4BC59F DUP4 PUSH1 0x40 MLOAD PUSH2 0xFE1 SWAP2 SWAP1 PUSH2 0x14DD JUMP JUMPDEST PUSH1 0x40 MLOAD DUP1 SWAP2 SUB SWAP1 LOG2 POP POP POP JUMPDEST DUP1 DUP1 PUSH1 0x1 ADD SWAP2 POP POP PUSH2 0xD82 JUMP JUMPDEST POP JUMP JUMPDEST PUSH1 0x6 PUSH1 0x20 MSTORE DUP1 PUSH0 MSTORE PUSH1 0x40 PUSH0 KECCAK256 PUSH0 SWAP2 POP SWAP1 POP DUP1 PUSH0 ADD PUSH0 SWAP1 SLOAD SWAP1 PUSH2 0x100 EXP SWAP1 DIV PUSH20 0xFFFFFFFFFFFFFFFFFFFFFFFFFFFFFFFFFFFFFFFF AND SWAP1 DUP1 PUSH1 0x1 ADD SLOAD SWAP1 POP DUP3 JUMP JUMPDEST PUSH1 0x2 SLOAD DUP2 JUMP JUMPDEST PUSH2 0x258 DUP2 JUMP JUMPDEST PUSH0 PUSH0 SWAP1 SLOAD SWAP1 PUSH2 0x100 EXP SWAP1 DIV PUSH20 0xFFFFFFFFFFFFFFFFFFFFFFFFFFFFFFFFFFFFFFFF AND DUP2 JUMP JUMPDEST PUSH1 0x4 PUSH0 SWAP1 SLOAD SWAP1 PUSH2 0x100 EXP SWAP1 DIV PUSH20 0xFFFFFFFFFFFFFFFFFFFFFFFFFFFFFFFFFFFFFFFF AND DUP2 JUMP JUMPDEST PUSH1 0x8 DUP2 DUP2 SLOAD DUP2 LT PUSH2 0x10A0 JUMPI PUSH0 DUP1 REVERT JUMPDEST SWAP1 PUSH0 MSTORE PUSH1 0x20 PUSH0 KECCAK256 ADD PUSH0 SWAP2 POP SLOAD SWAP1 PUSH2 0x100 EXP SWAP1 DIV PUSH20 0xFFFFFFFFFFFFFFFFFFFFFFFFFFFFFFFFFFFFFFFF AND DUP2 JUMP JUMPDEST PUSH0 PUSH0 PUSH1 0x2 SLOAD TIMESTAMP LT ISZERO DUP1 PUSH2 0x10EB JUMPI POP PUSH1 0x4 PUSH1 0x14 SWAP1 SLOAD SWAP1 PUSH2 0x100 EXP SWAP1 DIV PUSH1 0xFF AND JUMPDEST PUSH2 0x112A JUMPI PUSH1 0x40 MLOAD PUSH32 0x8C379A000000000000000000000000000000000000000000000000000000000 DUP2 MSTORE PUSH1 0x4 ADD PUSH2 0x1121 SWAP1 PUSH2 0x1B16 JUMP JUMPDEST PUSH1 0x40 MLOAD DUP1 SWAP2 SUB SWAP1 REVERT JUMPDEST PUSH1 0x4 PUSH0 SWAP1 SLOAD SWAP1 PUSH2 0x100 EXP SWAP1 DIV PUSH20 0xFFFFFFFFFFFFFFFFFFFFFFFFFFFFFFFFFFFFFFFF AND PUSH1 0x3 SLOAD SWAP2 POP SWAP2 POP SWAP1 SWAP2 JUMP JUMPDEST PUSH1 0x5 DUP2 JUMP JUMPDEST PUSH1 0x2 SLOAD TIMESTAMP LT DUP1 ISZERO PUSH2 0x117A JUMPI POP PUSH1 0x4 PUSH1 0x14 SWAP1 SLOAD SWAP1 PUSH2 0x100 EXP SWAP1 DIV PUSH1 0xFF AND ISZERO JUMPDEST PUSH2 0x11B9 JUMPI PUSH1 0x40 MLOAD PUSH32 0x8C379A000000000000000000000000000000000000000000000000000000000 DUP2 MSTORE PUSH1 0x4 ADD PUSH2 0x11B0 SWAP1 PUSH2 0x18AD JUMP JUMPDEST PUSH1 0x40 MLOAD DUP1 SWAP2 SUB SWAP1 REVERT JUMPDEST PUSH0 PUSH1 0x5 PUSH0 CALLER PUSH20 0xFFFFFFFFFFFFFFFFFFFFFFFFFFFFFFFFFFFFFFFF AND PUSH20 0xFFFFFFFFFFFFFFFFFFFFFFFFFFFFFFFFFFFFFFFF AND DUP2 MSTORE PUSH1 0x20 ADD SWAP1 DUP2 MSTORE PUSH1 0x20 ADD PUSH0 KECCAK256 SLOAD SWAP1 POP PUSH0 PUSH1 0x6 PUSH0 CALLER PUSH20 0xFFFFFFFFFFFFFFFFFFFFFFFFFFFFFFFFFFFFFFFF AND PUSH20 0xFFFFFFFFFFFFFFFFFFFFFFFFFFFFFFFFFFFFFFFF AND DUP2 MSTORE PUSH1 0x20 ADD SWAP1 DUP2 MSTORE PUSH1 0x20 ADD PUSH0 KECCAK256 PUSH1 0x1 ADD SLOAD SWAP1 POP DUP1 DUP3 GT PUSH2 0x1280 JUMPI PUSH1 0x40 MLOAD PUSH32 0x8C379A000000000000000000000000000000000000000000000000000000000 DUP2 MSTORE PUSH1 0x4 ADD PUSH2 0x1277 SWAP1 PUSH2 0x1C8F JUMP JUMPDEST PUSH1 0x40 MLOAD DUP1 SWAP2 SUB SWAP1 REVERT JUMPDEST PUSH0 DUP2 DUP4 PUSH2 0x128D SWAP2 SWAP1 PUSH2 0x1A31 JUMP JUMPDEST SWAP1 POP DUP2 PUSH1 0x5 PUSH0 CALLER PUSH20 0xFFFFFFFFFFFFFFFFFFFFFFFFFFFFFFFFFFFFFFFF AND PUSH20 0xFFFFFFFFFFFFFFFFFFFFFFFFFFFFFFFFFFFFFFFF AND DUP2 MSTORE PUSH1 0x20 ADD SWAP1 DUP2 MSTORE PUSH1 0x20 ADD PUSH0 KECCAK256 DUP2 SWAP1 SSTORE POP PUSH0 CALLER PUSH20 0xFFFFFFFFFFFFFFFFFFFFFFFFFFFFFFFFFFFFFFFF AND DUP3 PUSH1 0x40 MLOAD PUSH2 0x12F6 SWAP1 PUSH2 0x1B61 JUMP JUMPDEST PUSH0 PUSH1 0x40 MLOAD DUP1 DUP4 SUB DUP2 DUP6 DUP8 GAS CALL SWAP3 POP POP POP RETURNDATASIZE DUP1 PUSH0 DUP2 EQ PUSH2 0x1330 JUMPI PUSH1 0x40 MLOAD SWAP2 POP PUSH1 0x1F NOT PUSH1 0x3F RETURNDATASIZE ADD AND DUP3 ADD PUSH1 0x40 MSTORE RETURNDATASIZE DUP3 MSTORE RETURNDATASIZE PUSH0 PUSH1 0x20 DUP5 ADD RETURNDATACOPY PUSH2 0x1335 JUMP JUMPDEST PUSH1 0x60 SWAP2 POP JUMPDEST POP POP SWAP1 POP DUP1 PUSH2 0x1379 JUMPI PUSH1 0x40 MLOAD PUSH32 0x8C379A000000000000000000000000000000000000000000000000000000000 DUP2 MSTORE PUSH1 0x4 ADD PUSH2 0x1370 SWAP1 PUSH2 0x1CF7 JUMP JUMPDEST PUSH1 0x40 MLOAD DUP1 SWAP2 SUB SWAP1 REVERT JUMPDEST CALLER PUSH20 0xFFFFFFFFFFFFFFFFFFFFFFFFFFFFFFFFFFFFFFFF AND PUSH32 0x8468F8FA62FC679CF8165EAB7662A1FA977705B501DD787E9EC07884885425F1 DUP4 PUSH1 0x40 MLOAD PUSH2 0x13BF SWAP2 SWAP1 PUSH2 0x14DD JUMP JUMPDEST PUSH1 0x40 MLOAD DUP1 SWAP2 SUB SWAP1 LOG2 POP POP POP POP JUMP JUMPDEST PUSH1 0x3 SLOAD DUP2 JUMP JUMPDEST PUSH1 0x1 SLOAD DUP2 JUMP JUMPDEST PUSH1 0x5 PUSH1 0x20 MSTORE DUP1 PUSH0 MSTORE PUSH1 0x40 PUSH0 KECCAK256 PUSH0 SWAP2 POP SWAP1 POP SLOAD DUP2 JUMP JUMPDEST PUSH1 0x2 SLOAD TIMESTAMP LT ISZERO DUP1 ISZERO PUSH2 0x140D JUMPI POP PUSH1 0x4 PUSH1 0x14 SWAP1 SLOAD SWAP1 PUSH2 0x100 EXP SWAP1 DIV PUSH1 0xFF AND ISZERO JUMPDEST PUSH2 0x144C JUMPI PUSH1 0x40 MLOAD PUSH32 0x8C379A000000000000000000000000000000000000000000000000000000000 DUP2 MSTORE PUSH1 0x4 ADD PUSH2 0x1443 SWAP1 PUSH2 0x1D5F JUMP JUMPDEST PUSH1 0x40 MLOAD DUP1 SWAP2 SUB SWAP1 REVERT JUMPDEST PUSH1 0x1 PUSH1 0x4 PUSH1 0x14 PUSH2 0x100 EXP DUP2 SLOAD DUP2 PUSH1 0xFF MUL NOT AND SWAP1 DUP4 ISZERO ISZERO MUL OR SWAP1 SSTORE POP PUSH32 0xDAEC4582D5D9595688C8C98545FDD1C696D41C6AEAEB636737E84ED2F5C00EDA PUSH1 0x4 PUSH0 SWAP1 SLOAD SWAP1 PUSH2 0x100 EXP SWAP1 DIV PUSH20 0xFFFFFFFFFFFFFFFFFFFFFFFFFFFFFFFFFFFFFFFF AND PUSH1 0x3 SLOAD PUSH1 0x40 MLOAD PUSH2 0x14BB SWAP3 SWAP2 SWAP1 PUSH2 0x1764 JUMP JUMPDEST PUSH1 0x40 MLOAD DUP1 SWAP2 SUB SWAP1 LOG1 JUMP JUMPDEST PUSH0 DUP2 SWAP1 POP SWAP2 SWAP1 POP JUMP JUMPDEST PUSH2 0x14D7 DUP2 PUSH2 0x14C5 JUMP JUMPDEST DUP3 MSTORE POP POP JUMP JUMPDEST PUSH0 PUSH1 0x20 DUP3 ADD SWAP1 POP PUSH2 0x14F0 PUSH0 DUP4 ADD DUP5 PUSH2 0x14CE JUMP JUMPDEST SWAP3 SWAP2 POP POP JUMP JUMPDEST PUSH0 DUP2 ISZERO ISZERO SWAP1 POP SWAP2 SWAP1 POP JUMP JUMPDEST PUSH2 0x150A DUP2 PUSH2 0x14F6 JUMP JUMPDEST DUP3 MSTORE POP POP JUMP JUMPDEST PUSH0 PUSH1 0x20 DUP3 ADD SWAP1 POP PUSH2 0x1523 PUSH0 DUP4 ADD DUP5 PUSH2 0x1501 JUMP JUMPDEST SWAP3 SWAP2 POP POP JUMP JUMPDEST PUSH0 DUP2 MLOAD SWAP1 POP SWAP2 SWAP1 POP JUMP JUMPDEST PUSH0 DUP3 DUP3 MSTORE PUSH1 0x20 DUP3 ADD SWAP1 POP SWAP3 SWAP2 POP POP JUMP JUMPDEST PUSH0 DUP2 SWAP1 POP PUSH1 0x20 DUP3 ADD SWAP1 POP SWAP2 SWAP1 POP JUMP JUMPDEST PUSH0 PUSH20 0xFFFFFFFFFFFFFFFFFFFFFFFFFFFFFFFFFFFFFFFF DUP3 AND SWAP1 POP SWAP2 SWAP1 POP JUMP JUMPDEST PUSH0 PUSH2 0x157B DUP3 PUSH2 0x1552 JUMP JUMPDEST SWAP1 POP SWAP2 SWAP1 POP JUMP JUMPDEST PUSH2 0x158B DUP2 PUSH2 0x1571 JUMP JUMPDEST DUP3 MSTORE POP POP JUMP JUMPDEST PUSH0 PUSH2 0x159C DUP4 DUP4 PUSH2 0x1582 JUMP JUMPDEST PUSH1 0x20 DUP4 ADD SWAP1 POP SWAP3 SWAP2 POP POP JUMP JUMPDEST PUSH0 PUSH1 0x20 DUP3 ADD SWAP1 POP SWAP2 SWAP1 POP JUMP JUMPDEST PUSH0 PUSH2 0x15BE DUP3 PUSH2 0x1529 JUMP JUMPDEST PUSH2 0x15C8 DUP2 DUP6 PUSH2 0x1533 JUMP JUMPDEST SWAP4 POP PUSH2 0x15D3 DUP4 PUSH2 0x1543 JUMP JUMPDEST DUP1 PUSH0 JUMPDEST DUP4 DUP2 LT ISZERO PUSH2 0x1603 JUMPI DUP2 MLOAD PUSH2 0x15EA DUP9 DUP3 PUSH2 0x1591 JUMP JUMPDEST SWAP8 POP PUSH2 0x15F5 DUP4 PUSH2 0x15A8 JUMP JUMPDEST SWAP3 POP POP PUSH1 0x1 DUP2 ADD SWAP1 POP PUSH2 0x15D6 JUMP JUMPDEST POP DUP6 SWAP4 POP POP POP POP SWAP3 SWAP2 POP POP JUMP JUMPDEST PUSH0 DUP2 MLOAD SWAP1 POP SWAP2 SWAP1 POP JUMP JUMPDEST PUSH0 DUP3 DUP3 MSTORE PUSH1 0x20 DUP3 ADD SWAP1 POP SWAP3 SWAP2 POP POP JUMP JUMPDEST PUSH0 DUP2 SWAP1 POP PUSH1 0x20 DUP3 ADD SWAP1 POP SWAP2 SWAP1 POP JUMP JUMPDEST PUSH2 0x1642 DUP2 PUSH2 0x14C5 JUMP JUMPDEST DUP3 MSTORE POP POP JUMP JUMPDEST PUSH0 PUSH2 0x1653 DUP4 DUP4 PUSH2 0x1639 JUMP JUMPDEST PUSH1 0x20 DUP4 ADD SWAP1 POP SWAP3 SWAP2 POP POP JUMP JUMPDEST PUSH0 PUSH1 0x20 DUP3 ADD SWAP1 POP SWAP2 SWAP1 POP JUMP JUMPDEST PUSH0 PUSH2 0x1675 DUP3 PUSH2 0x1610 JUMP JUMPDEST PUSH2 0x167F DUP2 DUP6 PUSH2 0x161A JUMP JUMPDEST SWAP4 POP PUSH2 0x168A DUP4 PUSH2 0x162A JUMP JUMPDEST DUP1 PUSH0 JUMPDEST DUP4 DUP2 LT ISZERO PUSH2 0x16BA JUMPI DUP2 MLOAD PUSH2 0x16A1 DUP9 DUP3 PUSH2 0x1648 JUMP JUMPDEST SWAP8 POP PUSH2 0x16AC DUP4 PUSH2 0x165F JUMP JUMPDEST SWAP3 POP POP PUSH1 0x1 DUP2 ADD SWAP1 POP PUSH2 0x168D JUMP JUMPDEST POP DUP6 SWAP4 POP POP POP POP SWAP3 SWAP2 POP POP JUMP JUMPDEST PUSH0 PUSH1 0x40 DUP3 ADD SWAP1 POP DUP2 DUP2 SUB PUSH0 DUP4 ADD MSTORE PUSH2 0x16DF DUP2 DUP6 PUSH2 0x15B4 JUMP JUMPDEST SWAP1 POP DUP2 DUP2 SUB PUSH1 0x20 DUP4 ADD MSTORE PUSH2 0x16F3 DUP2 DUP5 PUSH2 0x166B JUMP JUMPDEST SWAP1 POP SWAP4 SWAP3 POP POP POP JUMP JUMPDEST PUSH0 PUSH0 REVERT JUMPDEST PUSH2 0x1709 DUP2 PUSH2 0x1571 JUMP JUMPDEST DUP2 EQ PUSH2 0x1713 JUMPI PUSH0 PUSH0 REVERT JUMPDEST POP JUMP JUMPDEST PUSH0 DUP2 CALLDATALOAD SWAP1 POP PUSH2 0x1724 DUP2 PUSH2 0x1700 JUMP JUMPDEST SWAP3 SWAP2 POP POP JUMP JUMPDEST PUSH0 PUSH1 0x20 DUP3 DUP5 SUB SLT ISZERO PUSH2 0x173F JUMPI PUSH2 0x173E PUSH2 0x16FC JUMP JUMPDEST JUMPDEST PUSH0 PUSH2 0x174C DUP5 DUP3 DUP6 ADD PUSH2 0x1716 JUMP JUMPDEST SWAP2 POP POP SWAP3 SWAP2 POP POP JUMP JUMPDEST PUSH2 0x175E DUP2 PUSH2 0x1571 JUMP JUMPDEST DUP3 MSTORE POP POP JUMP JUMPDEST PUSH0 PUSH1 0x40 DUP3 ADD SWAP1 POP PUSH2 0x1777 PUSH0 DUP4 ADD DUP6 PUSH2 0x1755 JUMP JUMPDEST PUSH2 0x1784 PUSH1 0x20 DUP4 ADD DUP5 PUSH2 0x14CE JUMP JUMPDEST SWAP4 SWAP3 POP POP POP JUMP JUMPDEST PUSH0 PUSH1 0x20 DUP3 ADD SWAP1 POP PUSH2 0x179E PUSH0 DUP4 ADD DUP5 PUSH2 0x1755 JUMP JUMPDEST SWAP3 SWAP2 POP POP JUMP JUMPDEST PUSH2 0x17AD DUP2 PUSH2 0x14C5 JUMP JUMPDEST DUP2 EQ PUSH2 0x17B7 JUMPI PUSH0 PUSH0 REVERT JUMPDEST POP JUMP JUMPDEST PUSH0 DUP2 CALLDATALOAD SWAP1 POP PUSH2 0x17C8 DUP2 PUSH2 0x17A4 JUMP JUMPDEST SWAP3 SWAP2 POP POP JUMP JUMPDEST PUSH0 PUSH1 0x20 DUP3 DUP5 SUB SLT ISZERO PUSH2 0x17E3 JUMPI PUSH2 0x17E2 PUSH2 0x16FC JUMP JUMPDEST JUMPDEST PUSH0 PUSH2 0x17F0 DUP5 DUP3 DUP6 ADD PUSH2 0x17BA JUMP JUMPDEST SWAP2 POP POP SWAP3 SWAP2 POP POP JUMP JUMPDEST PUSH32 0x4E487B7100000000000000000000000000000000000000000000000000000000 PUSH0 MSTORE PUSH1 0x41 PUSH1 0x4 MSTORE PUSH1 0x24 PUSH0 REVERT JUMPDEST PUSH32 0x4E487B7100000000000000000000000000000000000000000000000000000000 PUSH0 MSTORE PUSH1 0x32 PUSH1 0x4 MSTORE PUSH1 0x24 PUSH0 REVERT JUMPDEST PUSH0 DUP3 DUP3 MSTORE PUSH1 0x20 DUP3 ADD SWAP1 POP SWAP3 SWAP2 POP POP JUMP JUMPDEST PUSH32 0x41756374696F6E20696E6163746976652E000000000000000000000000000000 PUSH0 DUP3 ADD MSTORE POP JUMP JUMPDEST PUSH0 PUSH2 0x1897 PUSH1 0x11 DUP4 PUSH2 0x1853 JUMP JUMPDEST SWAP2 POP PUSH2 0x18A2 DUP3 PUSH2 0x1863 JUMP JUMPDEST PUSH1 0x20 DUP3 ADD SWAP1 POP SWAP2 SWAP1 POP JUMP JUMPDEST PUSH0 PUSH1 0x20 DUP3 ADD SWAP1 POP DUP2 DUP2 SUB PUSH0 DUP4 ADD MSTORE PUSH2 0x18C4 DUP2 PUSH2 0x188B JUMP JUMPDEST SWAP1 POP SWAP2 SWAP1 POP JUMP JUMPDEST PUSH32 0x4E487B7100000000000000000000000000000000000000000000000000000000 PUSH0 MSTORE PUSH1 0x11 PUSH1 0x4 MSTORE PUSH1 0x24 PUSH0 REVERT JUMPDEST PUSH0 PUSH2 0x1902 DUP3 PUSH2 0x14C5 JUMP JUMPDEST SWAP2 POP PUSH2 0x190D DUP4 PUSH2 0x14C5 JUMP JUMPDEST SWAP3 POP DUP3 DUP3 MUL PUSH2 0x191B DUP2 PUSH2 0x14C5 JUMP JUMPDEST SWAP2 POP DUP3 DUP3 DIV DUP5 EQ DUP4 ISZERO OR PUSH2 0x1932 JUMPI PUSH2 0x1931 PUSH2 0x18CB JUMP JUMPDEST JUMPDEST POP SWAP3 SWAP2 POP POP JUMP JUMPDEST PUSH32 0x4E487B7100000000000000000000000000000000000000000000000000000000 PUSH0 MSTORE PUSH1 0x12 PUSH1 0x4 MSTORE PUSH1 0x24 PUSH0 REVERT JUMPDEST PUSH0 PUSH2 0x1970 DUP3 PUSH2 0x14C5 JUMP JUMPDEST SWAP2 POP PUSH2 0x197B DUP4 PUSH2 0x14C5 JUMP JUMPDEST SWAP3 POP DUP3 PUSH2 0x198B JUMPI PUSH2 0x198A PUSH2 0x1939 JUMP JUMPDEST JUMPDEST DUP3 DUP3 DIV SWAP1 POP SWAP3 SWAP2 POP POP JUMP JUMPDEST PUSH0 PUSH2 0x19A0 DUP3 PUSH2 0x14C5 JUMP JUMPDEST SWAP2 POP PUSH2 0x19AB DUP4 PUSH2 0x14C5 JUMP JUMPDEST SWAP3 POP DUP3 DUP3 ADD SWAP1 POP DUP1 DUP3 GT ISZERO PUSH2 0x19C3 JUMPI PUSH2 0x19C2 PUSH2 0x18CB JUMP JUMPDEST JUMPDEST SWAP3 SWAP2 POP POP JUMP JUMPDEST PUSH32 0x42696420746F6F206C6F772E0000000000000000000000000000000000000000 PUSH0 DUP3 ADD MSTORE POP JUMP JUMPDEST PUSH0 PUSH2 0x19FD PUSH1 0xC DUP4 PUSH2 0x1853 JUMP JUMPDEST SWAP2 POP PUSH2 0x1A08 DUP3 PUSH2 0x19C9 JUMP JUMPDEST PUSH1 0x20 DUP3 ADD SWAP1 POP SWAP2 SWAP1 POP JUMP JUMPDEST PUSH0 PUSH1 0x20 DUP3 ADD SWAP1 POP DUP2 DUP2 SUB PUSH0 DUP4 ADD MSTORE PUSH2 0x1A2A DUP2 PUSH2 0x19F1 JUMP JUMPDEST SWAP1 POP SWAP2 SWAP1 POP JUMP JUMPDEST PUSH0 PUSH2 0x1A3B DUP3 PUSH2 0x14C5 JUMP JUMPDEST SWAP2 POP PUSH2 0x1A46 DUP4 PUSH2 0x14C5 JUMP JUMPDEST SWAP3 POP DUP3 DUP3 SUB SWAP1 POP DUP2 DUP2 GT ISZERO PUSH2 0x1A5E JUMPI PUSH2 0x1A5D PUSH2 0x18CB JUMP JUMPDEST JUMPDEST SWAP3 SWAP2 POP POP JUMP JUMPDEST PUSH32 0x4F776E6572206F6E6C792E000000000000000000000000000000000000000000 PUSH0 DUP3 ADD MSTORE POP JUMP JUMPDEST PUSH0 PUSH2 0x1A98 PUSH1 0xB DUP4 PUSH2 0x1853 JUMP JUMPDEST SWAP2 POP PUSH2 0x1AA3 DUP3 PUSH2 0x1A64 JUMP JUMPDEST PUSH1 0x20 DUP3 ADD SWAP1 POP SWAP2 SWAP1 POP JUMP JUMPDEST PUSH0 PUSH1 0x20 DUP3 ADD SWAP1 POP DUP2 DUP2 SUB PUSH0 DUP4 ADD MSTORE PUSH2 0x1AC5 DUP2 PUSH2 0x1A8C JUMP JUMPDEST SWAP1 POP SWAP2 SWAP1 POP JUMP JUMPDEST PUSH32 0x41756374696F6E206E6F7420656E6465642E0000000000000000000000000000 PUSH0 DUP3 ADD MSTORE POP JUMP JUMPDEST PUSH0 PUSH2 0x1B00 PUSH1 0x12 DUP4 PUSH2 0x1853 JUMP JUMPDEST SWAP2 POP PUSH2 0x1B0B DUP3 PUSH2 0x1ACC JUMP JUMPDEST PUSH1 0x20 DUP3 ADD SWAP1 POP SWAP2 SWAP1 POP JUMP JUMPDEST PUSH0 PUSH1 0x20 DUP3 ADD SWAP1 POP DUP2 DUP2 SUB PUSH0 DUP4 ADD MSTORE PUSH2 0x1B2D DUP2 PUSH2 0x1AF4 JUMP JUMPDEST SWAP1 POP SWAP2 SWAP1 POP JUMP JUMPDEST PUSH0 DUP2 SWAP1 POP SWAP3 SWAP2 POP POP JUMP JUMPDEST POP JUMP JUMPDEST PUSH0 PUSH2 0x1B4C PUSH0 DUP4 PUSH2 0x1B34 JUMP JUMPDEST SWAP2 POP PUSH2 0x1B57 DUP3 PUSH2 0x1B3E JUMP JUMPDEST PUSH0 DUP3 ADD SWAP1 POP SWAP2 SWAP1 POP JUMP JUMPDEST PUSH0 PUSH2 0x1B6B DUP3 PUSH2 0x1B41 JUMP JUMPDEST SWAP2 POP DUP2 SWAP1 POP SWAP2 SWAP1 POP JUMP JUMPDEST PUSH32 0x4F776E6572207472616E73666572206661696C65642E00000000000000000000 PUSH0 DUP3 ADD MSTORE POP JUMP JUMPDEST PUSH0 PUSH2 0x1BA9 PUSH1 0x16 DUP4 PUSH2 0x1853 JUMP JUMPDEST SWAP2 POP PUSH2 0x1BB4 DUP3 PUSH2 0x1B75 JUMP JUMPDEST PUSH1 0x20 DUP3 ADD SWAP1 POP SWAP2 SWAP1 POP JUMP JUMPDEST PUSH0 PUSH1 0x20 DUP3 ADD SWAP1 POP DUP2 DUP2 SUB PUSH0 DUP4 ADD MSTORE PUSH2 0x1BD6 DUP2 PUSH2 0x1B9D JUMP JUMPDEST SWAP1 POP SWAP2 SWAP1 POP JUMP JUMPDEST PUSH32 0x526566756E64206661696C65642E000000000000000000000000000000000000 PUSH0 DUP3 ADD MSTORE POP JUMP JUMPDEST PUSH0 PUSH2 0x1C11 PUSH1 0xE DUP4 PUSH2 0x1853 JUMP JUMPDEST SWAP2 POP PUSH2 0x1C1C DUP3 PUSH2 0x1BDD JUMP JUMPDEST PUSH1 0x20 DUP3 ADD SWAP1 POP SWAP2 SWAP1 POP JUMP JUMPDEST PUSH0 PUSH1 0x20 DUP3 ADD SWAP1 POP DUP2 DUP2 SUB PUSH0 DUP4 ADD MSTORE PUSH2 0x1C3E DUP2 PUSH2 0x1C05 JUMP JUMPDEST SWAP1 POP SWAP2 SWAP1 POP JUMP JUMPDEST PUSH32 0x4E6F20657863657373206465706F7369742E0000000000000000000000000000 PUSH0 DUP3 ADD MSTORE POP JUMP JUMPDEST PUSH0 PUSH2 0x1C79 PUSH1 0x12 DUP4 PUSH2 0x1853 JUMP JUMPDEST SWAP2 POP PUSH2 0x1C84 DUP3 PUSH2 0x1C45 JUMP JUMPDEST PUSH1 0x20 DUP3 ADD SWAP1 POP SWAP2 SWAP1 POP JUMP JUMPDEST PUSH0 PUSH1 0x20 DUP3 ADD SWAP1 POP DUP2 DUP2 SUB PUSH0 DUP4 ADD MSTORE PUSH2 0x1CA6 DUP2 PUSH2 0x1C6D JUMP JUMPDEST SWAP1 POP SWAP2 SWAP1 POP JUMP JUMPDEST PUSH32 0x5061727469616C207769746864726177616C206661696C65642E000000000000 PUSH0 DUP3 ADD MSTORE POP JUMP JUMPDEST PUSH0 PUSH2 0x1CE1 PUSH1 0x1A DUP4 PUSH2 0x1853 JUMP JUMPDEST SWAP2 POP PUSH2 0x1CEC DUP3 PUSH2 0x1CAD JUMP JUMPDEST PUSH1 0x20 DUP3 ADD SWAP1 POP SWAP2 SWAP1 POP JUMP JUMPDEST PUSH0 PUSH1 0x20 DUP3 ADD SWAP1 POP DUP2 DUP2 SUB PUSH0 DUP4 ADD MSTORE PUSH2 0x1D0E DUP2 PUSH2 0x1CD5 JUMP JUMPDEST SWAP1 POP SWAP2 SWAP1 POP JUMP JUMPDEST PUSH32 0x41756374696F6E206E6F7420656E6461626C652E000000000000000000000000 PUSH0 DUP3 ADD MSTORE POP JUMP JUMPDEST PUSH0 PUSH2 0x1D49 PUSH1 0x14 DUP4 PUSH2 0x1853 JUMP JUMPDEST SWAP2 POP PUSH2 0x1D54 DUP3 PUSH2 0x1D15 JUMP JUMPDEST PUSH1 0x20 DUP3 ADD SWAP1 POP SWAP2 SWAP1 POP JUMP JUMPDEST PUSH0 PUSH1 0x20 DUP3 ADD SWAP1 POP DUP2 DUP2 SUB PUSH0 DUP4 ADD MSTORE PUSH2 0x1D76 DUP2 PUSH2 0x1D3D JUMP JUMPDEST SWAP1 POP SWAP2 SWAP1 POP JUMP INVALID LOG2 PUSH5 0x6970667358 0x22 SLT KECCAK256 ISZERO SWAP11 DUP4 0xD5 BLOBHASH PUSH18 0x6CB57E417014DB43503F7D8190C21BB5D2BE SWAP1 0xA5 ORIGIN EXTCODESIZE 0xB6 SWAP8 ADD PUSH5 0x64736F6C63 NUMBER STOP ADDMOD 0x1E STOP CALLER "
				},
				"gasEstimates": {
					"creation": {
						"codeDepositCost": "1520600",
						"executionCost": "infinite",
						"totalCost": "infinite"
					},
					"external": {
						"EXTENSION_TIME()": "414",
						"MIN_BID_INCREMENT_PERCENT()": "414",
						"OWNER_COMMISSION_PERCENT()": "349",
						"allBidders(uint256)": "4989",
						"auctionEndTime()": "2492",
						"auctionStartTime()": "2491",
						"bid()": "infinite",
						"deposits(address)": "2890",
						"endAuction()": "34738",
						"ended()": "2563",
						"highestBid()": "2469",
						"highestBidder()": "2531",
						"lastBids(address)": "infinite",
						"owner()": "2618",
						"partialWithdrawal()": "infinite",
						"returnDeposits()": "infinite",
						"showBids()": "infinite",
						"showWinner()": "9127"
					}
				},
				"methodIdentifiers": {
					"EXTENSION_TIME()": "5681104a",
					"MIN_BID_INCREMENT_PERCENT()": "bc996819",
					"OWNER_COMMISSION_PERCENT()": "11da74b0",
					"allBidders(uint256)": "a013781b",
					"auctionEndTime()": "4b449cba",
					"auctionStartTime()": "eb54f9ec",
					"bid()": "1998aeef",
					"deposits(address)": "fc7e286d",
					"endAuction()": "fe67a54b",
					"ended()": "12fa6feb",
					"highestBid()": "d57bde79",
					"highestBidder()": "91f90157",
					"lastBids(address)": "46e053a0",
					"owner()": "8da5cb5b",
					"partialWithdrawal()": "c30aca9a",
					"returnDeposits()": "362e2565",
					"showBids()": "14d2687c",
					"showWinner()": "b7e03264"
				}
			},
			"storageLayout": {
				"storage": [
					{
						"astId": 8,
						"contract": "AuctionWlady4.sol:Auction",
						"label": "owner",
						"offset": 0,
						"slot": "0",
						"type": "t_address"
					},
					{
						"astId": 10,
						"contract": "AuctionWlady4.sol:Auction",
						"label": "auctionStartTime",
						"offset": 0,
						"slot": "1",
						"type": "t_uint256"
					},
					{
						"astId": 12,
						"contract": "AuctionWlady4.sol:Auction",
						"label": "auctionEndTime",
						"offset": 0,
						"slot": "2",
						"type": "t_uint256"
					},
					{
						"astId": 14,
						"contract": "AuctionWlady4.sol:Auction",
						"label": "highestBid",
						"offset": 0,
						"slot": "3",
						"type": "t_uint256"
					},
					{
						"astId": 16,
						"contract": "AuctionWlady4.sol:Auction",
						"label": "highestBidder",
						"offset": 0,
						"slot": "4",
						"type": "t_address"
					},
					{
						"astId": 18,
						"contract": "AuctionWlady4.sol:Auction",
						"label": "ended",
						"offset": 20,
						"slot": "4",
						"type": "t_bool"
					},
					{
						"astId": 31,
						"contract": "AuctionWlady4.sol:Auction",
						"label": "deposits",
						"offset": 0,
						"slot": "5",
						"type": "t_mapping(t_address,t_uint256)"
					},
					{
						"astId": 36,
						"contract": "AuctionWlady4.sol:Auction",
						"label": "lastBids",
						"offset": 0,
						"slot": "6",
						"type": "t_mapping(t_address,t_struct(Bid)6_storage)"
					},
					{
						"astId": 40,
						"contract": "AuctionWlady4.sol:Auction",
						"label": "hasBidder",
						"offset": 0,
						"slot": "7",
						"type": "t_mapping(t_address,t_bool)"
					},
					{
						"astId": 43,
						"contract": "AuctionWlady4.sol:Auction",
						"label": "allBidders",
						"offset": 0,
						"slot": "8",
						"type": "t_array(t_address)dyn_storage"
					}
				],
				"types": {
					"t_address": {
						"encoding": "inplace",
						"label": "address",
						"numberOfBytes": "20"
					},
					"t_array(t_address)dyn_storage": {
						"base": "t_address",
						"encoding": "dynamic_array",
						"label": "address[]",
						"numberOfBytes": "32"
					},
					"t_bool": {
						"encoding": "inplace",
						"label": "bool",
						"numberOfBytes": "1"
					},
					"t_mapping(t_address,t_bool)": {
						"encoding": "mapping",
						"key": "t_address",
						"label": "mapping(address => bool)",
						"numberOfBytes": "32",
						"value": "t_bool"
					},
					"t_mapping(t_address,t_struct(Bid)6_storage)": {
						"encoding": "mapping",
						"key": "t_address",
						"label": "mapping(address => struct Bid)",
						"numberOfBytes": "32",
						"value": "t_struct(Bid)6_storage"
					},
					"t_mapping(t_address,t_uint256)": {
						"encoding": "mapping",
						"key": "t_address",
						"label": "mapping(address => uint256)",
						"numberOfBytes": "32",
						"value": "t_uint256"
					},
					"t_struct(Bid)6_storage": {
						"encoding": "inplace",
						"label": "struct Bid",
						"members": [
							{
								"astId": 3,
								"contract": "AuctionWlady4.sol:Auction",
								"label": "bidder",
								"offset": 0,
								"slot": "0",
								"type": "t_address"
							},
							{
								"astId": 5,
								"contract": "AuctionWlady4.sol:Auction",
								"label": "amount",
								"offset": 0,
								"slot": "1",
								"type": "t_uint256"
							}
						],
						"numberOfBytes": "64"
					},
					"t_uint256": {
						"encoding": "inplace",
						"label": "uint256",
						"numberOfBytes": "32"
					}
				}
			},
			"userdoc": {
				"kind": "user",
				"methods": {},
				"version": 1
			}
		}
	}
}